{
	"SimpleStorage.sol": {
		"SimpleStorage": {
			"abi": [
				{
					"inputs": [
						{
							"internalType": "string",
							"name": "_name",
							"type": "string"
						},
						{
							"internalType": "uint256",
							"name": "_favouriteNumber",
							"type": "uint256"
						}
					],
					"name": "createPerson",
					"outputs": [],
					"stateMutability": "nonpayable",
					"type": "function"
				},
				{
					"inputs": [
						{
							"internalType": "address",
							"name": "",
							"type": "address"
						},
						{
							"internalType": "uint256",
							"name": "",
							"type": "uint256"
						}
					],
					"name": "peopleMap",
					"outputs": [
						{
							"internalType": "string",
							"name": "name",
							"type": "string"
						},
						{
							"internalType": "uint256",
							"name": "favouriteNumber",
							"type": "uint256"
						}
					],
					"stateMutability": "view",
					"type": "function"
				}
			],
			"devdoc": {
				"kind": "dev",
				"methods": {},
				"version": 1
			},
			"evm": {
				"assembly": "    /* \"SimpleStorage.sol\":61:519  contract SimpleStorage{... */\n  mstore(0x40, 0x80)\n  callvalue\n  dup1\n  iszero\n  tag_1\n  jumpi\n  0x00\n  dup1\n  revert\ntag_1:\n  pop\n  dataSize(sub_0)\n  dup1\n  dataOffset(sub_0)\n  0x00\n  codecopy\n  0x00\n  return\nstop\n\nsub_0: assembly {\n        /* \"SimpleStorage.sol\":61:519  contract SimpleStorage{... */\n      mstore(0x40, 0x80)\n      callvalue\n      dup1\n      iszero\n      tag_1\n      jumpi\n      0x00\n      dup1\n      revert\n    tag_1:\n      pop\n      jumpi(tag_2, lt(calldatasize, 0x04))\n      shr(0xe0, calldataload(0x00))\n      dup1\n      0x1ef455c7\n      eq\n      tag_3\n      jumpi\n      dup1\n      0x4081601b\n      eq\n      tag_4\n      jumpi\n    tag_2:\n      0x00\n      dup1\n      revert\n        /* \"SimpleStorage.sol\":319:516  function createPerson(string calldata _name, uint _favouriteNumber) external{... */\n    tag_3:\n      tag_5\n      0x04\n      dup1\n      calldatasize\n      sub\n      dup2\n      add\n      swap1\n      tag_6\n      swap2\n      swap1\n      tag_7\n      jump\t// in\n    tag_6:\n      tag_8\n      jump\t// in\n    tag_5:\n      stop\n        /* \"SimpleStorage.sol\":226:272  mapping (address => Person[]) public peopleMap */\n    tag_4:\n      tag_9\n      0x04\n      dup1\n      calldatasize\n      sub\n      dup2\n      add\n      swap1\n      tag_10\n      swap2\n      swap1\n      tag_11\n      jump\t// in\n    tag_10:\n      tag_12\n      jump\t// in\n    tag_9:\n      mload(0x40)\n      tag_13\n      swap3\n      swap2\n      swap1\n      tag_14\n      jump\t// in\n    tag_13:\n      mload(0x40)\n      dup1\n      swap2\n      sub\n      swap1\n      return\n        /* \"SimpleStorage.sol\":319:516  function createPerson(string calldata _name, uint _favouriteNumber) external{... */\n    tag_8:\n        /* \"SimpleStorage.sol\":406:429  Person[] storage people */\n      0x00\n        /* \"SimpleStorage.sol\":432:441  peopleMap */\n      dup1\n        /* \"SimpleStorage.sol\":432:453  peopleMap[msg.sender] */\n      0x00\n        /* \"SimpleStorage.sol\":442:452  msg.sender */\n      caller\n        /* \"SimpleStorage.sol\":432:453  peopleMap[msg.sender] */\n      0xffffffffffffffffffffffffffffffffffffffff\n      and\n      0xffffffffffffffffffffffffffffffffffffffff\n      and\n      dup2\n      mstore\n      0x20\n      add\n      swap1\n      dup2\n      mstore\n      0x20\n      add\n      0x00\n      keccak256\n        /* \"SimpleStorage.sol\":406:453  Person[] storage people = peopleMap[msg.sender] */\n      swap1\n      pop\n        /* \"SimpleStorage.sol\":464:470  people */\n      dup1\n        /* \"SimpleStorage.sol\":476:507  Person(_name, _favouriteNumber) */\n      mload(0x40)\n      dup1\n      0x40\n      add\n      0x40\n      mstore\n      dup1\n        /* \"SimpleStorage.sol\":483:488  _name */\n      dup7\n      dup7\n        /* \"SimpleStorage.sol\":476:507  Person(_name, _favouriteNumber) */\n      dup1\n      dup1\n      0x1f\n      add\n      0x20\n      dup1\n      swap2\n      div\n      mul\n      0x20\n      add\n      mload(0x40)\n      swap1\n      dup2\n      add\n      0x40\n      mstore\n      dup1\n      swap4\n      swap3\n      swap2\n      swap1\n      dup2\n      dup2\n      mstore\n      0x20\n      add\n      dup4\n      dup4\n      dup1\n      dup3\n      dup5\n      calldatacopy\n      0x00\n      dup2\n      dup5\n      add\n      mstore\n      not(0x1f)\n      0x1f\n      dup3\n      add\n      and\n      swap1\n      pop\n      dup1\n      dup4\n      add\n      swap3\n      pop\n      pop\n      pop\n      pop\n      pop\n      pop\n      pop\n      dup2\n      mstore\n      0x20\n      add\n        /* \"SimpleStorage.sol\":490:506  _favouriteNumber */\n      dup5\n        /* \"SimpleStorage.sol\":476:507  Person(_name, _favouriteNumber) */\n      dup2\n      mstore\n      pop\n        /* \"SimpleStorage.sol\":464:508  people.push(Person(_name, _favouriteNumber)) */\n      swap1\n      dup1\n      0x01\n      dup2\n      sload\n      add\n      dup1\n      dup3\n      sstore\n      dup1\n      swap2\n      pop\n      pop\n      0x01\n      swap1\n      sub\n      swap1\n      0x00\n      mstore\n      keccak256(0x00, 0x20)\n      swap1\n      0x02\n      mul\n      add\n      0x00\n      swap1\n      swap2\n      swap1\n      swap2\n      swap1\n      swap2\n      pop\n      0x00\n      dup3\n      add\n      mload\n      dup2\n      0x00\n      add\n      swap1\n      dup2\n      tag_17\n      swap2\n      swap1\n      tag_18\n      jump\t// in\n    tag_17:\n      pop\n      0x20\n      dup3\n      add\n      mload\n      dup2\n      0x01\n      add\n      sstore\n      pop\n      pop\n        /* \"SimpleStorage.sol\":395:516  {... */\n      pop\n        /* \"SimpleStorage.sol\":319:516  function createPerson(string calldata _name, uint _favouriteNumber) external{... */\n      pop\n      pop\n      pop\n      jump\t// out\n        /* \"SimpleStorage.sol\":226:272  mapping (address => Person[]) public peopleMap */\n    tag_12:\n      mstore(0x20, 0x00)\n      dup2\n      0x00\n      mstore\n      keccak256(0x00, 0x40)\n      dup2\n      dup2\n      sload\n      dup2\n      lt\n      tag_19\n      jumpi\n      0x00\n      dup1\n      revert\n    tag_19:\n      swap1\n      0x00\n      mstore\n      keccak256(0x00, 0x20)\n      swap1\n      0x02\n      mul\n      add\n      0x00\n      swap2\n      pop\n      swap2\n      pop\n      pop\n      dup1\n      0x00\n      add\n      dup1\n      sload\n      tag_21\n      swap1\n      tag_22\n      jump\t// in\n    tag_21:\n      dup1\n      0x1f\n      add\n      0x20\n      dup1\n      swap2\n      div\n      mul\n      0x20\n      add\n      mload(0x40)\n      swap1\n      dup2\n      add\n      0x40\n      mstore\n      dup1\n      swap3\n      swap2\n      swap1\n      dup2\n      dup2\n      mstore\n      0x20\n      add\n      dup3\n      dup1\n      sload\n      tag_23\n      swap1\n      tag_22\n      jump\t// in\n    tag_23:\n      dup1\n      iszero\n      tag_24\n      jumpi\n      dup1\n      0x1f\n      lt\n      tag_25\n      jumpi\n      0x0100\n      dup1\n      dup4\n      sload\n      div\n      mul\n      dup4\n      mstore\n      swap2\n      0x20\n      add\n      swap2\n      jump(tag_24)\n    tag_25:\n      dup3\n      add\n      swap2\n      swap1\n      0x00\n      mstore\n      keccak256(0x00, 0x20)\n      swap1\n    tag_26:\n      dup2\n      sload\n      dup2\n      mstore\n      swap1\n      0x01\n      add\n      swap1\n      0x20\n      add\n      dup1\n      dup4\n      gt\n      tag_26\n      jumpi\n      dup3\n      swap1\n      sub\n      0x1f\n      and\n      dup3\n      add\n      swap2\n    tag_24:\n      pop\n      pop\n      pop\n      pop\n      pop\n      swap1\n      dup1\n      0x01\n      add\n      sload\n      swap1\n      pop\n      dup3\n      jump\t// out\n        /* \"#utility.yul\":88:205   */\n    tag_28:\n        /* \"#utility.yul\":197:198   */\n      0x00\n        /* \"#utility.yul\":194:195   */\n      dup1\n        /* \"#utility.yul\":187:199   */\n      revert\n        /* \"#utility.yul\":211:328   */\n    tag_29:\n        /* \"#utility.yul\":320:321   */\n      0x00\n        /* \"#utility.yul\":317:318   */\n      dup1\n        /* \"#utility.yul\":310:322   */\n      revert\n        /* \"#utility.yul\":334:451   */\n    tag_30:\n        /* \"#utility.yul\":443:444   */\n      0x00\n        /* \"#utility.yul\":440:441   */\n      dup1\n        /* \"#utility.yul\":433:445   */\n      revert\n        /* \"#utility.yul\":457:574   */\n    tag_31:\n        /* \"#utility.yul\":566:567   */\n      0x00\n        /* \"#utility.yul\":563:564   */\n      dup1\n        /* \"#utility.yul\":556:568   */\n      revert\n        /* \"#utility.yul\":580:697   */\n    tag_32:\n        /* \"#utility.yul\":689:690   */\n      0x00\n        /* \"#utility.yul\":686:687   */\n      dup1\n        /* \"#utility.yul\":679:691   */\n      revert\n        /* \"#utility.yul\":717:1270   */\n    tag_33:\n        /* \"#utility.yul\":775:783   */\n      0x00\n        /* \"#utility.yul\":785:791   */\n      dup1\n        /* \"#utility.yul\":835:838   */\n      dup4\n        /* \"#utility.yul\":828:832   */\n      0x1f\n        /* \"#utility.yul\":820:826   */\n      dup5\n        /* \"#utility.yul\":816:833   */\n      add\n        /* \"#utility.yul\":812:839   */\n      slt\n        /* \"#utility.yul\":802:924   */\n      tag_72\n      jumpi\n        /* \"#utility.yul\":843:922   */\n      tag_73\n      tag_30\n      jump\t// in\n    tag_73:\n        /* \"#utility.yul\":802:924   */\n    tag_72:\n        /* \"#utility.yul\":956:962   */\n      dup3\n        /* \"#utility.yul\":943:963   */\n      calldataload\n        /* \"#utility.yul\":933:963   */\n      swap1\n      pop\n        /* \"#utility.yul\":986:1004   */\n      0xffffffffffffffff\n        /* \"#utility.yul\":978:984   */\n      dup2\n        /* \"#utility.yul\":975:1005   */\n      gt\n        /* \"#utility.yul\":972:1089   */\n      iszero\n      tag_74\n      jumpi\n        /* \"#utility.yul\":1008:1087   */\n      tag_75\n      tag_31\n      jump\t// in\n    tag_75:\n        /* \"#utility.yul\":972:1089   */\n    tag_74:\n        /* \"#utility.yul\":1122:1126   */\n      0x20\n        /* \"#utility.yul\":1114:1120   */\n      dup4\n        /* \"#utility.yul\":1110:1127   */\n      add\n        /* \"#utility.yul\":1098:1127   */\n      swap2\n      pop\n        /* \"#utility.yul\":1176:1179   */\n      dup4\n        /* \"#utility.yul\":1168:1172   */\n      0x01\n        /* \"#utility.yul\":1160:1166   */\n      dup3\n        /* \"#utility.yul\":1156:1173   */\n      mul\n        /* \"#utility.yul\":1146:1154   */\n      dup4\n        /* \"#utility.yul\":1142:1174   */\n      add\n        /* \"#utility.yul\":1139:1180   */\n      gt\n        /* \"#utility.yul\":1136:1264   */\n      iszero\n      tag_76\n      jumpi\n        /* \"#utility.yul\":1183:1262   */\n      tag_77\n      tag_32\n      jump\t// in\n    tag_77:\n        /* \"#utility.yul\":1136:1264   */\n    tag_76:\n        /* \"#utility.yul\":717:1270   */\n      swap3\n      pop\n      swap3\n      swap1\n      pop\n      jump\t// out\n        /* \"#utility.yul\":1276:1353   */\n    tag_34:\n        /* \"#utility.yul\":1313:1320   */\n      0x00\n        /* \"#utility.yul\":1342:1347   */\n      dup2\n        /* \"#utility.yul\":1331:1347   */\n      swap1\n      pop\n        /* \"#utility.yul\":1276:1353   */\n      swap2\n      swap1\n      pop\n      jump\t// out\n        /* \"#utility.yul\":1359:1481   */\n    tag_35:\n        /* \"#utility.yul\":1432:1456   */\n      tag_80\n        /* \"#utility.yul\":1450:1455   */\n      dup2\n        /* \"#utility.yul\":1432:1456   */\n      tag_34\n      jump\t// in\n    tag_80:\n        /* \"#utility.yul\":1425:1430   */\n      dup2\n        /* \"#utility.yul\":1422:1457   */\n      eq\n        /* \"#utility.yul\":1412:1475   */\n      tag_81\n      jumpi\n        /* \"#utility.yul\":1471:1472   */\n      0x00\n        /* \"#utility.yul\":1468:1469   */\n      dup1\n        /* \"#utility.yul\":1461:1473   */\n      revert\n        /* \"#utility.yul\":1412:1475   */\n    tag_81:\n        /* \"#utility.yul\":1359:1481   */\n      pop\n      jump\t// out\n        /* \"#utility.yul\":1487:1626   */\n    tag_36:\n        /* \"#utility.yul\":1533:1538   */\n      0x00\n        /* \"#utility.yul\":1571:1577   */\n      dup2\n        /* \"#utility.yul\":1558:1578   */\n      calldataload\n        /* \"#utility.yul\":1549:1578   */\n      swap1\n      pop\n        /* \"#utility.yul\":1587:1620   */\n      tag_83\n        /* \"#utility.yul\":1614:1619   */\n      dup2\n        /* \"#utility.yul\":1587:1620   */\n      tag_35\n      jump\t// in\n    tag_83:\n        /* \"#utility.yul\":1487:1626   */\n      swap3\n      swap2\n      pop\n      pop\n      jump\t// out\n        /* \"#utility.yul\":1632:2306   */\n    tag_7:\n        /* \"#utility.yul\":1712:1718   */\n      0x00\n        /* \"#utility.yul\":1720:1726   */\n      dup1\n        /* \"#utility.yul\":1728:1734   */\n      0x00\n        /* \"#utility.yul\":1777:1779   */\n      0x40\n        /* \"#utility.yul\":1765:1774   */\n      dup5\n        /* \"#utility.yul\":1756:1763   */\n      dup7\n        /* \"#utility.yul\":1752:1775   */\n      sub\n        /* \"#utility.yul\":1748:1780   */\n      slt\n        /* \"#utility.yul\":1745:1864   */\n      iszero\n      tag_85\n      jumpi\n        /* \"#utility.yul\":1783:1862   */\n      tag_86\n      tag_28\n      jump\t// in\n    tag_86:\n        /* \"#utility.yul\":1745:1864   */\n    tag_85:\n        /* \"#utility.yul\":1931:1932   */\n      0x00\n        /* \"#utility.yul\":1920:1929   */\n      dup5\n        /* \"#utility.yul\":1916:1933   */\n      add\n        /* \"#utility.yul\":1903:1934   */\n      calldataload\n        /* \"#utility.yul\":1961:1979   */\n      0xffffffffffffffff\n        /* \"#utility.yul\":1953:1959   */\n      dup2\n        /* \"#utility.yul\":1950:1980   */\n      gt\n        /* \"#utility.yul\":1947:2064   */\n      iszero\n      tag_87\n      jumpi\n        /* \"#utility.yul\":1983:2062   */\n      tag_88\n      tag_29\n      jump\t// in\n    tag_88:\n        /* \"#utility.yul\":1947:2064   */\n    tag_87:\n        /* \"#utility.yul\":2096:2161   */\n      tag_89\n        /* \"#utility.yul\":2153:2160   */\n      dup7\n        /* \"#utility.yul\":2144:2150   */\n      dup3\n        /* \"#utility.yul\":2133:2142   */\n      dup8\n        /* \"#utility.yul\":2129:2151   */\n      add\n        /* \"#utility.yul\":2096:2161   */\n      tag_33\n      jump\t// in\n    tag_89:\n        /* \"#utility.yul\":2078:2161   */\n      swap4\n      pop\n      swap4\n      pop\n        /* \"#utility.yul\":1874:2171   */\n      pop\n        /* \"#utility.yul\":2210:2212   */\n      0x20\n        /* \"#utility.yul\":2236:2289   */\n      tag_90\n        /* \"#utility.yul\":2281:2288   */\n      dup7\n        /* \"#utility.yul\":2272:2278   */\n      dup3\n        /* \"#utility.yul\":2261:2270   */\n      dup8\n        /* \"#utility.yul\":2257:2279   */\n      add\n        /* \"#utility.yul\":2236:2289   */\n      tag_36\n      jump\t// in\n    tag_90:\n        /* \"#utility.yul\":2226:2289   */\n      swap2\n      pop\n        /* \"#utility.yul\":2181:2299   */\n      pop\n        /* \"#utility.yul\":1632:2306   */\n      swap3\n      pop\n      swap3\n      pop\n      swap3\n      jump\t// out\n        /* \"#utility.yul\":2312:2438   */\n    tag_37:\n        /* \"#utility.yul\":2349:2356   */\n      0x00\n        /* \"#utility.yul\":2389:2431   */\n      0xffffffffffffffffffffffffffffffffffffffff\n        /* \"#utility.yul\":2382:2387   */\n      dup3\n        /* \"#utility.yul\":2378:2432   */\n      and\n        /* \"#utility.yul\":2367:2432   */\n      swap1\n      pop\n        /* \"#utility.yul\":2312:2438   */\n      swap2\n      swap1\n      pop\n      jump\t// out\n        /* \"#utility.yul\":2444:2540   */\n    tag_38:\n        /* \"#utility.yul\":2481:2488   */\n      0x00\n        /* \"#utility.yul\":2510:2534   */\n      tag_93\n        /* \"#utility.yul\":2528:2533   */\n      dup3\n        /* \"#utility.yul\":2510:2534   */\n      tag_37\n      jump\t// in\n    tag_93:\n        /* \"#utility.yul\":2499:2534   */\n      swap1\n      pop\n        /* \"#utility.yul\":2444:2540   */\n      swap2\n      swap1\n      pop\n      jump\t// out\n        /* \"#utility.yul\":2546:2668   */\n    tag_39:\n        /* \"#utility.yul\":2619:2643   */\n      tag_95\n        /* \"#utility.yul\":2637:2642   */\n      dup2\n        /* \"#utility.yul\":2619:2643   */\n      tag_38\n      jump\t// in\n    tag_95:\n        /* \"#utility.yul\":2612:2617   */\n      dup2\n        /* \"#utility.yul\":2609:2644   */\n      eq\n        /* \"#utility.yul\":2599:2662   */\n      tag_96\n      jumpi\n        /* \"#utility.yul\":2658:2659   */\n      0x00\n        /* \"#utility.yul\":2655:2656   */\n      dup1\n        /* \"#utility.yul\":2648:2660   */\n      revert\n        /* \"#utility.yul\":2599:2662   */\n    tag_96:\n        /* \"#utility.yul\":2546:2668   */\n      pop\n      jump\t// out\n        /* \"#utility.yul\":2674:2813   */\n    tag_40:\n        /* \"#utility.yul\":2720:2725   */\n      0x00\n        /* \"#utility.yul\":2758:2764   */\n      dup2\n        /* \"#utility.yul\":2745:2765   */\n      calldataload\n        /* \"#utility.yul\":2736:2765   */\n      swap1\n      pop\n        /* \"#utility.yul\":2774:2807   */\n      tag_98\n        /* \"#utility.yul\":2801:2806   */\n      dup2\n        /* \"#utility.yul\":2774:2807   */\n      tag_39\n      jump\t// in\n    tag_98:\n        /* \"#utility.yul\":2674:2813   */\n      swap3\n      swap2\n      pop\n      pop\n      jump\t// out\n        /* \"#utility.yul\":2819:3293   */\n    tag_11:\n        /* \"#utility.yul\":2887:2893   */\n      0x00\n        /* \"#utility.yul\":2895:2901   */\n      dup1\n        /* \"#utility.yul\":2944:2946   */\n      0x40\n        /* \"#utility.yul\":2932:2941   */\n      dup4\n        /* \"#utility.yul\":2923:2930   */\n      dup6\n        /* \"#utility.yul\":2919:2942   */\n      sub\n        /* \"#utility.yul\":2915:2947   */\n      slt\n        /* \"#utility.yul\":2912:3031   */\n      iszero\n      tag_100\n      jumpi\n        /* \"#utility.yul\":2950:3029   */\n      tag_101\n      tag_28\n      jump\t// in\n    tag_101:\n        /* \"#utility.yul\":2912:3031   */\n    tag_100:\n        /* \"#utility.yul\":3070:3071   */\n      0x00\n        /* \"#utility.yul\":3095:3148   */\n      tag_102\n        /* \"#utility.yul\":3140:3147   */\n      dup6\n        /* \"#utility.yul\":3131:3137   */\n      dup3\n        /* \"#utility.yul\":3120:3129   */\n      dup7\n        /* \"#utility.yul\":3116:3138   */\n      add\n        /* \"#utility.yul\":3095:3148   */\n      tag_40\n      jump\t// in\n    tag_102:\n        /* \"#utility.yul\":3085:3148   */\n      swap3\n      pop\n        /* \"#utility.yul\":3041:3158   */\n      pop\n        /* \"#utility.yul\":3197:3199   */\n      0x20\n        /* \"#utility.yul\":3223:3276   */\n      tag_103\n        /* \"#utility.yul\":3268:3275   */\n      dup6\n        /* \"#utility.yul\":3259:3265   */\n      dup3\n        /* \"#utility.yul\":3248:3257   */\n      dup7\n        /* \"#utility.yul\":3244:3266   */\n      add\n        /* \"#utility.yul\":3223:3276   */\n      tag_36\n      jump\t// in\n    tag_103:\n        /* \"#utility.yul\":3213:3276   */\n      swap2\n      pop\n        /* \"#utility.yul\":3168:3286   */\n      pop\n        /* \"#utility.yul\":2819:3293   */\n      swap3\n      pop\n      swap3\n      swap1\n      pop\n      jump\t// out\n        /* \"#utility.yul\":3299:3398   */\n    tag_41:\n        /* \"#utility.yul\":3351:3357   */\n      0x00\n        /* \"#utility.yul\":3385:3390   */\n      dup2\n        /* \"#utility.yul\":3379:3391   */\n      mload\n        /* \"#utility.yul\":3369:3391   */\n      swap1\n      pop\n        /* \"#utility.yul\":3299:3398   */\n      swap2\n      swap1\n      pop\n      jump\t// out\n        /* \"#utility.yul\":3404:3573   */\n    tag_42:\n        /* \"#utility.yul\":3488:3499   */\n      0x00\n        /* \"#utility.yul\":3522:3528   */\n      dup3\n        /* \"#utility.yul\":3517:3520   */\n      dup3\n        /* \"#utility.yul\":3510:3529   */\n      mstore\n        /* \"#utility.yul\":3562:3566   */\n      0x20\n        /* \"#utility.yul\":3557:3560   */\n      dup3\n        /* \"#utility.yul\":3553:3567   */\n      add\n        /* \"#utility.yul\":3538:3567   */\n      swap1\n      pop\n        /* \"#utility.yul\":3404:3573   */\n      swap3\n      swap2\n      pop\n      pop\n      jump\t// out\n        /* \"#utility.yul\":3579:3718   */\n    tag_43:\n        /* \"#utility.yul\":3668:3674   */\n      dup3\n        /* \"#utility.yul\":3663:3666   */\n      dup2\n        /* \"#utility.yul\":3658:3661   */\n      dup4\n        /* \"#utility.yul\":3652:3675   */\n      mcopy\n        /* \"#utility.yul\":3709:3710   */\n      0x00\n        /* \"#utility.yul\":3700:3706   */\n      dup4\n        /* \"#utility.yul\":3695:3698   */\n      dup4\n        /* \"#utility.yul\":3691:3707   */\n      add\n        /* \"#utility.yul\":3684:3711   */\n      mstore\n        /* \"#utility.yul\":3579:3718   */\n      pop\n      pop\n      pop\n      jump\t// out\n        /* \"#utility.yul\":3724:3826   */\n    tag_44:\n        /* \"#utility.yul\":3765:3771   */\n      0x00\n        /* \"#utility.yul\":3816:3818   */\n      0x1f\n        /* \"#utility.yul\":3812:3819   */\n      not\n        /* \"#utility.yul\":3807:3809   */\n      0x1f\n        /* \"#utility.yul\":3800:3805   */\n      dup4\n        /* \"#utility.yul\":3796:3810   */\n      add\n        /* \"#utility.yul\":3792:3820   */\n      and\n        /* \"#utility.yul\":3782:3820   */\n      swap1\n      pop\n        /* \"#utility.yul\":3724:3826   */\n      swap2\n      swap1\n      pop\n      jump\t// out\n        /* \"#utility.yul\":3832:4209   */\n    tag_45:\n        /* \"#utility.yul\":3920:3923   */\n      0x00\n        /* \"#utility.yul\":3948:3987   */\n      tag_109\n        /* \"#utility.yul\":3981:3986   */\n      dup3\n        /* \"#utility.yul\":3948:3987   */\n      tag_41\n      jump\t// in\n    tag_109:\n        /* \"#utility.yul\":4003:4074   */\n      tag_110\n        /* \"#utility.yul\":4067:4073   */\n      dup2\n        /* \"#utility.yul\":4062:4065   */\n      dup6\n        /* \"#utility.yul\":4003:4074   */\n      tag_42\n      jump\t// in\n    tag_110:\n        /* \"#utility.yul\":3996:4074   */\n      swap4\n      pop\n        /* \"#utility.yul\":4083:4148   */\n      tag_111\n        /* \"#utility.yul\":4141:4147   */\n      dup2\n        /* \"#utility.yul\":4136:4139   */\n      dup6\n        /* \"#utility.yul\":4129:4133   */\n      0x20\n        /* \"#utility.yul\":4122:4127   */\n      dup7\n        /* \"#utility.yul\":4118:4134   */\n      add\n        /* \"#utility.yul\":4083:4148   */\n      tag_43\n      jump\t// in\n    tag_111:\n        /* \"#utility.yul\":4173:4202   */\n      tag_112\n        /* \"#utility.yul\":4195:4201   */\n      dup2\n        /* \"#utility.yul\":4173:4202   */\n      tag_44\n      jump\t// in\n    tag_112:\n        /* \"#utility.yul\":4168:4171   */\n      dup5\n        /* \"#utility.yul\":4164:4203   */\n      add\n        /* \"#utility.yul\":4157:4203   */\n      swap2\n      pop\n        /* \"#utility.yul\":3924:4209   */\n      pop\n        /* \"#utility.yul\":3832:4209   */\n      swap3\n      swap2\n      pop\n      pop\n      jump\t// out\n        /* \"#utility.yul\":4215:4333   */\n    tag_46:\n        /* \"#utility.yul\":4302:4326   */\n      tag_114\n        /* \"#utility.yul\":4320:4325   */\n      dup2\n        /* \"#utility.yul\":4302:4326   */\n      tag_34\n      jump\t// in\n    tag_114:\n        /* \"#utility.yul\":4297:4300   */\n      dup3\n        /* \"#utility.yul\":4290:4327   */\n      mstore\n        /* \"#utility.yul\":4215:4333   */\n      pop\n      pop\n      jump\t// out\n        /* \"#utility.yul\":4339:4762   */\n    tag_14:\n        /* \"#utility.yul\":4480:4484   */\n      0x00\n        /* \"#utility.yul\":4518:4520   */\n      0x40\n        /* \"#utility.yul\":4507:4516   */\n      dup3\n        /* \"#utility.yul\":4503:4521   */\n      add\n        /* \"#utility.yul\":4495:4521   */\n      swap1\n      pop\n        /* \"#utility.yul\":4567:4576   */\n      dup2\n        /* \"#utility.yul\":4561:4565   */\n      dup2\n        /* \"#utility.yul\":4557:4577   */\n      sub\n        /* \"#utility.yul\":4553:4554   */\n      0x00\n        /* \"#utility.yul\":4542:4551   */\n      dup4\n        /* \"#utility.yul\":4538:4555   */\n      add\n        /* \"#utility.yul\":4531:4578   */\n      mstore\n        /* \"#utility.yul\":4595:4673   */\n      tag_116\n        /* \"#utility.yul\":4668:4672   */\n      dup2\n        /* \"#utility.yul\":4659:4665   */\n      dup6\n        /* \"#utility.yul\":4595:4673   */\n      tag_45\n      jump\t// in\n    tag_116:\n        /* \"#utility.yul\":4587:4673   */\n      swap1\n      pop\n        /* \"#utility.yul\":4683:4755   */\n      tag_117\n        /* \"#utility.yul\":4751:4753   */\n      0x20\n        /* \"#utility.yul\":4740:4749   */\n      dup4\n        /* \"#utility.yul\":4736:4754   */\n      add\n        /* \"#utility.yul\":4727:4733   */\n      dup5\n        /* \"#utility.yul\":4683:4755   */\n      tag_46\n      jump\t// in\n    tag_117:\n        /* \"#utility.yul\":4339:4762   */\n      swap4\n      swap3\n      pop\n      pop\n      pop\n      jump\t// out\n        /* \"#utility.yul\":4768:4948   */\n    tag_47:\n        /* \"#utility.yul\":4816:4893   */\n      0x4e487b7100000000000000000000000000000000000000000000000000000000\n        /* \"#utility.yul\":4813:4814   */\n      0x00\n        /* \"#utility.yul\":4806:4894   */\n      mstore\n        /* \"#utility.yul\":4913:4917   */\n      0x41\n        /* \"#utility.yul\":4910:4911   */\n      0x04\n        /* \"#utility.yul\":4903:4918   */\n      mstore\n        /* \"#utility.yul\":4937:4941   */\n      0x24\n        /* \"#utility.yul\":4934:4935   */\n      0x00\n        /* \"#utility.yul\":4927:4942   */\n      revert\n        /* \"#utility.yul\":4954:5134   */\n    tag_48:\n        /* \"#utility.yul\":5002:5079   */\n      0x4e487b7100000000000000000000000000000000000000000000000000000000\n        /* \"#utility.yul\":4999:5000   */\n      0x00\n        /* \"#utility.yul\":4992:5080   */\n      mstore\n        /* \"#utility.yul\":5099:5103   */\n      0x22\n        /* \"#utility.yul\":5096:5097   */\n      0x04\n        /* \"#utility.yul\":5089:5104   */\n      mstore\n        /* \"#utility.yul\":5123:5127   */\n      0x24\n        /* \"#utility.yul\":5120:5121   */\n      0x00\n        /* \"#utility.yul\":5113:5128   */\n      revert\n        /* \"#utility.yul\":5140:5460   */\n    tag_22:\n        /* \"#utility.yul\":5184:5190   */\n      0x00\n        /* \"#utility.yul\":5221:5222   */\n      0x02\n        /* \"#utility.yul\":5215:5219   */\n      dup3\n        /* \"#utility.yul\":5211:5223   */\n      div\n        /* \"#utility.yul\":5201:5223   */\n      swap1\n      pop\n        /* \"#utility.yul\":5268:5269   */\n      0x01\n        /* \"#utility.yul\":5262:5266   */\n      dup3\n        /* \"#utility.yul\":5258:5270   */\n      and\n        /* \"#utility.yul\":5289:5307   */\n      dup1\n        /* \"#utility.yul\":5279:5360   */\n      tag_121\n      jumpi\n        /* \"#utility.yul\":5345:5349   */\n      0x7f\n        /* \"#utility.yul\":5337:5343   */\n      dup3\n        /* \"#utility.yul\":5333:5350   */\n      and\n        /* \"#utility.yul\":5323:5350   */\n      swap2\n      pop\n        /* \"#utility.yul\":5279:5360   */\n    tag_121:\n        /* \"#utility.yul\":5407:5409   */\n      0x20\n        /* \"#utility.yul\":5399:5405   */\n      dup3\n        /* \"#utility.yul\":5396:5410   */\n      lt\n        /* \"#utility.yul\":5376:5394   */\n      dup2\n        /* \"#utility.yul\":5373:5411   */\n      sub\n        /* \"#utility.yul\":5370:5454   */\n      tag_122\n      jumpi\n        /* \"#utility.yul\":5426:5444   */\n      tag_123\n      tag_48\n      jump\t// in\n    tag_123:\n        /* \"#utility.yul\":5370:5454   */\n    tag_122:\n        /* \"#utility.yul\":5191:5460   */\n      pop\n        /* \"#utility.yul\":5140:5460   */\n      swap2\n      swap1\n      pop\n      jump\t// out\n        /* \"#utility.yul\":5466:5607   */\n    tag_49:\n        /* \"#utility.yul\":5515:5519   */\n      0x00\n        /* \"#utility.yul\":5538:5541   */\n      dup2\n        /* \"#utility.yul\":5530:5541   */\n      swap1\n      pop\n        /* \"#utility.yul\":5561:5564   */\n      dup2\n        /* \"#utility.yul\":5558:5559   */\n      0x00\n        /* \"#utility.yul\":5551:5565   */\n      mstore\n        /* \"#utility.yul\":5595:5599   */\n      0x20\n        /* \"#utility.yul\":5592:5593   */\n      0x00\n        /* \"#utility.yul\":5582:5600   */\n      keccak256\n        /* \"#utility.yul\":5574:5600   */\n      swap1\n      pop\n        /* \"#utility.yul\":5466:5607   */\n      swap2\n      swap1\n      pop\n      jump\t// out\n        /* \"#utility.yul\":5613:5706   */\n    tag_50:\n        /* \"#utility.yul\":5650:5656   */\n      0x00\n        /* \"#utility.yul\":5697:5699   */\n      0x20\n        /* \"#utility.yul\":5692:5694   */\n      0x1f\n        /* \"#utility.yul\":5685:5690   */\n      dup4\n        /* \"#utility.yul\":5681:5695   */\n      add\n        /* \"#utility.yul\":5677:5700   */\n      div\n        /* \"#utility.yul\":5667:5700   */\n      swap1\n      pop\n        /* \"#utility.yul\":5613:5706   */\n      swap2\n      swap1\n      pop\n      jump\t// out\n        /* \"#utility.yul\":5712:5819   */\n    tag_51:\n        /* \"#utility.yul\":5756:5764   */\n      0x00\n        /* \"#utility.yul\":5806:5811   */\n      dup3\n        /* \"#utility.yul\":5800:5804   */\n      dup3\n        /* \"#utility.yul\":5796:5812   */\n      shl\n        /* \"#utility.yul\":5775:5812   */\n      swap1\n      pop\n        /* \"#utility.yul\":5712:5819   */\n      swap3\n      swap2\n      pop\n      pop\n      jump\t// out\n        /* \"#utility.yul\":5825:6218   */\n    tag_52:\n        /* \"#utility.yul\":5894:5900   */\n      0x00\n        /* \"#utility.yul\":5944:5945   */\n      0x08\n        /* \"#utility.yul\":5932:5942   */\n      dup4\n        /* \"#utility.yul\":5928:5946   */\n      mul\n        /* \"#utility.yul\":5967:6064   */\n      tag_128\n        /* \"#utility.yul\":5997:6063   */\n      0xffffffffffffffffffffffffffffffffffffffffffffffffffffffffffffffff\n        /* \"#utility.yul\":5986:5995   */\n      dup3\n        /* \"#utility.yul\":5967:6064   */\n      tag_51\n      jump\t// in\n    tag_128:\n        /* \"#utility.yul\":6085:6124   */\n      tag_129\n        /* \"#utility.yul\":6115:6123   */\n      dup7\n        /* \"#utility.yul\":6104:6113   */\n      dup4\n        /* \"#utility.yul\":6085:6124   */\n      tag_51\n      jump\t// in\n    tag_129:\n        /* \"#utility.yul\":6073:6124   */\n      swap6\n      pop\n        /* \"#utility.yul\":6157:6161   */\n      dup1\n        /* \"#utility.yul\":6153:6162   */\n      not\n        /* \"#utility.yul\":6146:6151   */\n      dup5\n        /* \"#utility.yul\":6142:6163   */\n      and\n        /* \"#utility.yul\":6133:6163   */\n      swap4\n      pop\n        /* \"#utility.yul\":6206:6210   */\n      dup1\n        /* \"#utility.yul\":6196:6204   */\n      dup7\n        /* \"#utility.yul\":6192:6211   */\n      and\n        /* \"#utility.yul\":6185:6190   */\n      dup5\n        /* \"#utility.yul\":6182:6212   */\n      or\n        /* \"#utility.yul\":6172:6212   */\n      swap3\n      pop\n        /* \"#utility.yul\":5901:6218   */\n      pop\n      pop\n        /* \"#utility.yul\":5825:6218   */\n      swap4\n      swap3\n      pop\n      pop\n      pop\n      jump\t// out\n        /* \"#utility.yul\":6224:6284   */\n    tag_53:\n        /* \"#utility.yul\":6252:6255   */\n      0x00\n        /* \"#utility.yul\":6273:6278   */\n      dup2\n        /* \"#utility.yul\":6266:6278   */\n      swap1\n      pop\n        /* \"#utility.yul\":6224:6284   */\n      swap2\n      swap1\n      pop\n      jump\t// out\n        /* \"#utility.yul\":6290:6432   */\n    tag_54:\n        /* \"#utility.yul\":6340:6349   */\n      0x00\n        /* \"#utility.yul\":6373:6426   */\n      tag_132\n        /* \"#utility.yul\":6391:6425   */\n      tag_133\n        /* \"#utility.yul\":6400:6424   */\n      tag_134\n        /* \"#utility.yul\":6418:6423   */\n      dup5\n        /* \"#utility.yul\":6400:6424   */\n      tag_34\n      jump\t// in\n    tag_134:\n        /* \"#utility.yul\":6391:6425   */\n      tag_53\n      jump\t// in\n    tag_133:\n        /* \"#utility.yul\":6373:6426   */\n      tag_34\n      jump\t// in\n    tag_132:\n        /* \"#utility.yul\":6360:6426   */\n      swap1\n      pop\n        /* \"#utility.yul\":6290:6432   */\n      swap2\n      swap1\n      pop\n      jump\t// out\n        /* \"#utility.yul\":6438:6513   */\n    tag_55:\n        /* \"#utility.yul\":6481:6484   */\n      0x00\n        /* \"#utility.yul\":6502:6507   */\n      dup2\n        /* \"#utility.yul\":6495:6507   */\n      swap1\n      pop\n        /* \"#utility.yul\":6438:6513   */\n      swap2\n      swap1\n      pop\n      jump\t// out\n        /* \"#utility.yul\":6519:6788   */\n    tag_56:\n        /* \"#utility.yul\":6629:6668   */\n      tag_137\n        /* \"#utility.yul\":6660:6667   */\n      dup4\n        /* \"#utility.yul\":6629:6668   */\n      tag_54\n      jump\t// in\n    tag_137:\n        /* \"#utility.yul\":6690:6781   */\n      tag_138\n        /* \"#utility.yul\":6739:6780   */\n      tag_139\n        /* \"#utility.yul\":6763:6779   */\n      dup3\n        /* \"#utility.yul\":6739:6780   */\n      tag_55\n      jump\t// in\n    tag_139:\n        /* \"#utility.yul\":6731:6737   */\n      dup5\n        /* \"#utility.yul\":6724:6728   */\n      dup5\n        /* \"#utility.yul\":6718:6729   */\n      sload\n        /* \"#utility.yul\":6690:6781   */\n      tag_52\n      jump\t// in\n    tag_138:\n        /* \"#utility.yul\":6684:6688   */\n      dup3\n        /* \"#utility.yul\":6677:6782   */\n      sstore\n        /* \"#utility.yul\":6595:6788   */\n      pop\n        /* \"#utility.yul\":6519:6788   */\n      pop\n      pop\n      pop\n      jump\t// out\n        /* \"#utility.yul\":6794:6867   */\n    tag_57:\n        /* \"#utility.yul\":6839:6842   */\n      0x00\n        /* \"#utility.yul\":6794:6867   */\n      swap1\n      jump\t// out\n        /* \"#utility.yul\":6873:7062   */\n    tag_58:\n        /* \"#utility.yul\":6950:6982   */\n      tag_142\n      tag_57\n      jump\t// in\n    tag_142:\n        /* \"#utility.yul\":6991:7056   */\n      tag_143\n        /* \"#utility.yul\":7049:7055   */\n      dup2\n        /* \"#utility.yul\":7041:7047   */\n      dup5\n        /* \"#utility.yul\":7035:7039   */\n      dup5\n        /* \"#utility.yul\":6991:7056   */\n      tag_56\n      jump\t// in\n    tag_143:\n        /* \"#utility.yul\":6926:7062   */\n      pop\n        /* \"#utility.yul\":6873:7062   */\n      pop\n      pop\n      jump\t// out\n        /* \"#utility.yul\":7068:7254   */\n    tag_59:\n        /* \"#utility.yul\":7128:7248   */\n    tag_145:\n        /* \"#utility.yul\":7145:7148   */\n      dup2\n        /* \"#utility.yul\":7138:7143   */\n      dup2\n        /* \"#utility.yul\":7135:7149   */\n      lt\n        /* \"#utility.yul\":7128:7248   */\n      iszero\n      tag_147\n      jumpi\n        /* \"#utility.yul\":7199:7238   */\n      tag_148\n        /* \"#utility.yul\":7236:7237   */\n      0x00\n        /* \"#utility.yul\":7229:7234   */\n      dup3\n        /* \"#utility.yul\":7199:7238   */\n      tag_58\n      jump\t// in\n    tag_148:\n        /* \"#utility.yul\":7172:7173   */\n      0x01\n        /* \"#utility.yul\":7165:7170   */\n      dup2\n        /* \"#utility.yul\":7161:7174   */\n      add\n        /* \"#utility.yul\":7152:7174   */\n      swap1\n      pop\n        /* \"#utility.yul\":7128:7248   */\n      jump(tag_145)\n    tag_147:\n        /* \"#utility.yul\":7068:7254   */\n      pop\n      pop\n      jump\t// out\n        /* \"#utility.yul\":7260:7803   */\n    tag_60:\n        /* \"#utility.yul\":7361:7363   */\n      0x1f\n        /* \"#utility.yul\":7356:7359   */\n      dup3\n        /* \"#utility.yul\":7353:7364   */\n      gt\n        /* \"#utility.yul\":7350:7796   */\n      iszero\n      tag_150\n      jumpi\n        /* \"#utility.yul\":7395:7433   */\n      tag_151\n        /* \"#utility.yul\":7427:7432   */\n      dup2\n        /* \"#utility.yul\":7395:7433   */\n      tag_49\n      jump\t// in\n    tag_151:\n        /* \"#utility.yul\":7479:7508   */\n      tag_152\n        /* \"#utility.yul\":7497:7507   */\n      dup5\n        /* \"#utility.yul\":7479:7508   */\n      tag_50\n      jump\t// in\n    tag_152:\n        /* \"#utility.yul\":7469:7477   */\n      dup2\n        /* \"#utility.yul\":7465:7509   */\n      add\n        /* \"#utility.yul\":7662:7664   */\n      0x20\n        /* \"#utility.yul\":7650:7660   */\n      dup6\n        /* \"#utility.yul\":7647:7665   */\n      lt\n        /* \"#utility.yul\":7644:7693   */\n      iszero\n      tag_153\n      jumpi\n        /* \"#utility.yul\":7683:7691   */\n      dup2\n        /* \"#utility.yul\":7668:7691   */\n      swap1\n      pop\n        /* \"#utility.yul\":7644:7693   */\n    tag_153:\n        /* \"#utility.yul\":7706:7786   */\n      tag_154\n        /* \"#utility.yul\":7762:7784   */\n      tag_155\n        /* \"#utility.yul\":7780:7783   */\n      dup6\n        /* \"#utility.yul\":7762:7784   */\n      tag_50\n      jump\t// in\n    tag_155:\n        /* \"#utility.yul\":7752:7760   */\n      dup4\n        /* \"#utility.yul\":7748:7785   */\n      add\n        /* \"#utility.yul\":7735:7746   */\n      dup3\n        /* \"#utility.yul\":7706:7786   */\n      tag_59\n      jump\t// in\n    tag_154:\n        /* \"#utility.yul\":7365:7796   */\n      pop\n      pop\n        /* \"#utility.yul\":7350:7796   */\n    tag_150:\n        /* \"#utility.yul\":7260:7803   */\n      pop\n      pop\n      pop\n      jump\t// out\n        /* \"#utility.yul\":7809:7926   */\n    tag_61:\n        /* \"#utility.yul\":7863:7871   */\n      0x00\n        /* \"#utility.yul\":7913:7918   */\n      dup3\n        /* \"#utility.yul\":7907:7911   */\n      dup3\n        /* \"#utility.yul\":7903:7919   */\n      shr\n        /* \"#utility.yul\":7882:7919   */\n      swap1\n      pop\n        /* \"#utility.yul\":7809:7926   */\n      swap3\n      swap2\n      pop\n      pop\n      jump\t// out\n        /* \"#utility.yul\":7932:8101   */\n    tag_62:\n        /* \"#utility.yul\":7976:7982   */\n      0x00\n        /* \"#utility.yul\":8009:8060   */\n      tag_158\n        /* \"#utility.yul\":8057:8058   */\n      0x00\n        /* \"#utility.yul\":8053:8059   */\n      not\n        /* \"#utility.yul\":8045:8050   */\n      dup5\n        /* \"#utility.yul\":8042:8043   */\n      0x08\n        /* \"#utility.yul\":8038:8051   */\n      mul\n        /* \"#utility.yul\":8009:8060   */\n      tag_61\n      jump\t// in\n    tag_158:\n        /* \"#utility.yul\":8005:8061   */\n      not\n        /* \"#utility.yul\":8090:8094   */\n      dup1\n        /* \"#utility.yul\":8084:8088   */\n      dup4\n        /* \"#utility.yul\":8080:8095   */\n      and\n        /* \"#utility.yul\":8070:8095   */\n      swap2\n      pop\n        /* \"#utility.yul\":7983:8101   */\n      pop\n        /* \"#utility.yul\":7932:8101   */\n      swap3\n      swap2\n      pop\n      pop\n      jump\t// out\n        /* \"#utility.yul\":8106:8401   */\n    tag_63:\n        /* \"#utility.yul\":8182:8186   */\n      0x00\n        /* \"#utility.yul\":8328:8357   */\n      tag_160\n        /* \"#utility.yul\":8353:8356   */\n      dup4\n        /* \"#utility.yul\":8347:8351   */\n      dup4\n        /* \"#utility.yul\":8328:8357   */\n      tag_62\n      jump\t// in\n    tag_160:\n        /* \"#utility.yul\":8320:8357   */\n      swap2\n      pop\n        /* \"#utility.yul\":8390:8393   */\n      dup3\n        /* \"#utility.yul\":8387:8388   */\n      0x02\n        /* \"#utility.yul\":8383:8394   */\n      mul\n        /* \"#utility.yul\":8377:8381   */\n      dup3\n        /* \"#utility.yul\":8374:8395   */\n      or\n        /* \"#utility.yul\":8366:8395   */\n      swap1\n      pop\n        /* \"#utility.yul\":8106:8401   */\n      swap3\n      swap2\n      pop\n      pop\n      jump\t// out\n        /* \"#utility.yul\":8406:9801   */\n    tag_18:\n        /* \"#utility.yul\":8523:8560   */\n      tag_162\n        /* \"#utility.yul\":8556:8559   */\n      dup3\n        /* \"#utility.yul\":8523:8560   */\n      tag_41\n      jump\t// in\n    tag_162:\n        /* \"#utility.yul\":8625:8643   */\n      0xffffffffffffffff\n        /* \"#utility.yul\":8617:8623   */\n      dup2\n        /* \"#utility.yul\":8614:8644   */\n      gt\n        /* \"#utility.yul\":8611:8667   */\n      iszero\n      tag_163\n      jumpi\n        /* \"#utility.yul\":8647:8665   */\n      tag_164\n      tag_47\n      jump\t// in\n    tag_164:\n        /* \"#utility.yul\":8611:8667   */\n    tag_163:\n        /* \"#utility.yul\":8691:8729   */\n      tag_165\n        /* \"#utility.yul\":8723:8727   */\n      dup3\n        /* \"#utility.yul\":8717:8728   */\n      sload\n        /* \"#utility.yul\":8691:8729   */\n      tag_22\n      jump\t// in\n    tag_165:\n        /* \"#utility.yul\":8776:8843   */\n      tag_166\n        /* \"#utility.yul\":8836:8842   */\n      dup3\n        /* \"#utility.yul\":8828:8834   */\n      dup3\n        /* \"#utility.yul\":8822:8826   */\n      dup6\n        /* \"#utility.yul\":8776:8843   */\n      tag_60\n      jump\t// in\n    tag_166:\n        /* \"#utility.yul\":8870:8871   */\n      0x00\n        /* \"#utility.yul\":8894:8898   */\n      0x20\n        /* \"#utility.yul\":8881:8898   */\n      swap1\n      pop\n        /* \"#utility.yul\":8926:8928   */\n      0x1f\n        /* \"#utility.yul\":8918:8924   */\n      dup4\n        /* \"#utility.yul\":8915:8929   */\n      gt\n        /* \"#utility.yul\":8943:8944   */\n      0x01\n        /* \"#utility.yul\":8938:9556   */\n      dup2\n      eq\n      tag_168\n      jumpi\n        /* \"#utility.yul\":9600:9601   */\n      0x00\n        /* \"#utility.yul\":9617:9623   */\n      dup5\n        /* \"#utility.yul\":9614:9691   */\n      iszero\n      tag_169\n      jumpi\n        /* \"#utility.yul\":9666:9675   */\n      dup3\n        /* \"#utility.yul\":9661:9664   */\n      dup8\n        /* \"#utility.yul\":9657:9676   */\n      add\n        /* \"#utility.yul\":9651:9677   */\n      mload\n        /* \"#utility.yul\":9642:9677   */\n      swap1\n      pop\n        /* \"#utility.yul\":9614:9691   */\n    tag_169:\n        /* \"#utility.yul\":9717:9784   */\n      tag_170\n        /* \"#utility.yul\":9777:9783   */\n      dup6\n        /* \"#utility.yul\":9770:9775   */\n      dup3\n        /* \"#utility.yul\":9717:9784   */\n      tag_63\n      jump\t// in\n    tag_170:\n        /* \"#utility.yul\":9711:9715   */\n      dup7\n        /* \"#utility.yul\":9704:9785   */\n      sstore\n        /* \"#utility.yul\":9573:9795   */\n      pop\n        /* \"#utility.yul\":8908:9795   */\n      jump(tag_167)\n        /* \"#utility.yul\":8938:9556   */\n    tag_168:\n        /* \"#utility.yul\":8990:8994   */\n      0x1f\n        /* \"#utility.yul\":8986:8995   */\n      not\n        /* \"#utility.yul\":8978:8984   */\n      dup5\n        /* \"#utility.yul\":8974:8996   */\n      and\n        /* \"#utility.yul\":9024:9061   */\n      tag_171\n        /* \"#utility.yul\":9056:9060   */\n      dup7\n        /* \"#utility.yul\":9024:9061   */\n      tag_49\n      jump\t// in\n    tag_171:\n        /* \"#utility.yul\":9083:9084   */\n      0x00\n        /* \"#utility.yul\":9097:9305   */\n    tag_172:\n        /* \"#utility.yul\":9111:9118   */\n      dup3\n        /* \"#utility.yul\":9108:9109   */\n      dup2\n        /* \"#utility.yul\":9105:9119   */\n      lt\n        /* \"#utility.yul\":9097:9305   */\n      iszero\n      tag_174\n      jumpi\n        /* \"#utility.yul\":9190:9199   */\n      dup5\n        /* \"#utility.yul\":9185:9188   */\n      dup10\n        /* \"#utility.yul\":9181:9200   */\n      add\n        /* \"#utility.yul\":9175:9201   */\n      mload\n        /* \"#utility.yul\":9167:9173   */\n      dup3\n        /* \"#utility.yul\":9160:9202   */\n      sstore\n        /* \"#utility.yul\":9241:9242   */\n      0x01\n        /* \"#utility.yul\":9233:9239   */\n      dup3\n        /* \"#utility.yul\":9229:9243   */\n      add\n        /* \"#utility.yul\":9219:9243   */\n      swap2\n      pop\n        /* \"#utility.yul\":9288:9290   */\n      0x20\n        /* \"#utility.yul\":9277:9286   */\n      dup6\n        /* \"#utility.yul\":9273:9291   */\n      add\n        /* \"#utility.yul\":9260:9291   */\n      swap5\n      pop\n        /* \"#utility.yul\":9134:9138   */\n      0x20\n        /* \"#utility.yul\":9131:9132   */\n      dup2\n        /* \"#utility.yul\":9127:9139   */\n      add\n        /* \"#utility.yul\":9122:9139   */\n      swap1\n      pop\n        /* \"#utility.yul\":9097:9305   */\n      jump(tag_172)\n    tag_174:\n        /* \"#utility.yul\":9333:9339   */\n      dup7\n        /* \"#utility.yul\":9324:9331   */\n      dup4\n        /* \"#utility.yul\":9321:9340   */\n      lt\n        /* \"#utility.yul\":9318:9497   */\n      iszero\n      tag_175\n      jumpi\n        /* \"#utility.yul\":9391:9400   */\n      dup5\n        /* \"#utility.yul\":9386:9389   */\n      dup10\n        /* \"#utility.yul\":9382:9401   */\n      add\n        /* \"#utility.yul\":9376:9402   */\n      mload\n        /* \"#utility.yul\":9434:9482   */\n      tag_176\n        /* \"#utility.yul\":9476:9480   */\n      0x1f\n        /* \"#utility.yul\":9468:9474   */\n      dup10\n        /* \"#utility.yul\":9464:9481   */\n      and\n        /* \"#utility.yul\":9453:9462   */\n      dup3\n        /* \"#utility.yul\":9434:9482   */\n      tag_62\n      jump\t// in\n    tag_176:\n        /* \"#utility.yul\":9426:9432   */\n      dup4\n        /* \"#utility.yul\":9419:9483   */\n      sstore\n        /* \"#utility.yul\":9341:9497   */\n      pop\n        /* \"#utility.yul\":9318:9497   */\n    tag_175:\n        /* \"#utility.yul\":9543:9544   */\n      0x01\n        /* \"#utility.yul\":9539:9540   */\n      0x02\n        /* \"#utility.yul\":9531:9537   */\n      dup9\n        /* \"#utility.yul\":9527:9541   */\n      mul\n        /* \"#utility.yul\":9523:9545   */\n      add\n        /* \"#utility.yul\":9517:9521   */\n      dup9\n        /* \"#utility.yul\":9510:9546   */\n      sstore\n        /* \"#utility.yul\":8945:9556   */\n      pop\n      pop\n      pop\n        /* \"#utility.yul\":8908:9795   */\n    tag_167:\n      pop\n        /* \"#utility.yul\":8498:9801   */\n      pop\n      pop\n      pop\n        /* \"#utility.yul\":8406:9801   */\n      pop\n      pop\n      jump\t// out\n\n    auxdata: 0xa2646970667358221220dba004f26217025ef9374aeece584e515fbbbbe418e2e95ed45849140a69aedc64736f6c63430008190033\n}\n",
				"bytecode": {
					"linkReferences": {},
					"object": "6080604052348015600e575f80fd5b506107928061001c5f395ff3fe608060405234801561000f575f80fd5b5060043610610034575f3560e01c80631ef455c7146100385780634081601b14610054575b5f80fd5b610052600480360381019061004d91906102c4565b610085565b005b61006e6004803603810190610069919061037b565b610169565b60405161007c929190610438565b60405180910390f35b5f805f3373ffffffffffffffffffffffffffffffffffffffff1673ffffffffffffffffffffffffffffffffffffffff1681526020019081526020015f20905080604051806040016040528086868080601f0160208091040260200160405190810160405280939291908181526020018383808284375f81840152601f19601f82011690508083019250505050505050815260200184815250908060018154018082558091505060019003905f5260205f2090600202015f909190919091505f820151815f019081610156919061068d565b5060208201518160010155505050505050565b5f602052815f5260405f208181548110610181575f80fd5b905f5260205f2090600202015f9150915050805f0180546101a1906104c0565b80601f01602080910402602001604051908101604052809291908181526020018280546101cd906104c0565b80156102185780601f106101ef57610100808354040283529160200191610218565b820191905f5260205f20905b8154815290600101906020018083116101fb57829003601f168201915b5050505050908060010154905082565b5f80fd5b5f80fd5b5f80fd5b5f80fd5b5f80fd5b5f8083601f84011261025157610250610230565b5b8235905067ffffffffffffffff81111561026e5761026d610234565b5b60208301915083600182028301111561028a57610289610238565b5b9250929050565b5f819050919050565b6102a381610291565b81146102ad575f80fd5b50565b5f813590506102be8161029a565b92915050565b5f805f604084860312156102db576102da610228565b5b5f84013567ffffffffffffffff8111156102f8576102f761022c565b5b6103048682870161023c565b93509350506020610317868287016102b0565b9150509250925092565b5f73ffffffffffffffffffffffffffffffffffffffff82169050919050565b5f61034a82610321565b9050919050565b61035a81610340565b8114610364575f80fd5b50565b5f8135905061037581610351565b92915050565b5f806040838503121561039157610390610228565b5b5f61039e85828601610367565b92505060206103af858286016102b0565b9150509250929050565b5f81519050919050565b5f82825260208201905092915050565b8281835e5f83830152505050565b5f601f19601f8301169050919050565b5f6103fb826103b9565b61040581856103c3565b93506104158185602086016103d3565b61041e816103e1565b840191505092915050565b61043281610291565b82525050565b5f6040820190508181035f83015261045081856103f1565b905061045f6020830184610429565b9392505050565b7f4e487b71000000000000000000000000000000000000000000000000000000005f52604160045260245ffd5b7f4e487b71000000000000000000000000000000000000000000000000000000005f52602260045260245ffd5b5f60028204905060018216806104d757607f821691505b6020821081036104ea576104e9610493565b5b50919050565b5f819050815f5260205f209050919050565b5f6020601f8301049050919050565b5f82821b905092915050565b5f6008830261054c7fffffffffffffffffffffffffffffffffffffffffffffffffffffffffffffffff82610511565b6105568683610511565b95508019841693508086168417925050509392505050565b5f819050919050565b5f61059161058c61058784610291565b61056e565b610291565b9050919050565b5f819050919050565b6105aa83610577565b6105be6105b682610598565b84845461051d565b825550505050565b5f90565b6105d26105c6565b6105dd8184846105a1565b505050565b5b81811015610600576105f55f826105ca565b6001810190506105e3565b5050565b601f82111561064557610616816104f0565b61061f84610502565b8101602085101561062e578190505b61064261063a85610502565b8301826105e2565b50505b505050565b5f82821c905092915050565b5f6106655f198460080261064a565b1980831691505092915050565b5f61067d8383610656565b9150826002028217905092915050565b610696826103b9565b67ffffffffffffffff8111156106af576106ae610466565b5b6106b982546104c0565b6106c4828285610604565b5f60209050601f8311600181146106f5575f84156106e3578287015190505b6106ed8582610672565b865550610754565b601f198416610703866104f0565b5f5b8281101561072a57848901518255600182019150602085019450602081019050610705565b868310156107475784890151610743601f891682610656565b8355505b6001600288020188555050505b50505050505056fea2646970667358221220dba004f26217025ef9374aeece584e515fbbbbe418e2e95ed45849140a69aedc64736f6c63430008190033",
					"opcodes": "PUSH1 0x80 PUSH1 0x40 MSTORE CALLVALUE DUP1 ISZERO PUSH1 0xE JUMPI PUSH0 DUP1 REVERT JUMPDEST POP PUSH2 0x792 DUP1 PUSH2 0x1C PUSH0 CODECOPY PUSH0 RETURN INVALID PUSH1 0x80 PUSH1 0x40 MSTORE CALLVALUE DUP1 ISZERO PUSH2 0xF JUMPI PUSH0 DUP1 REVERT JUMPDEST POP PUSH1 0x4 CALLDATASIZE LT PUSH2 0x34 JUMPI PUSH0 CALLDATALOAD PUSH1 0xE0 SHR DUP1 PUSH4 0x1EF455C7 EQ PUSH2 0x38 JUMPI DUP1 PUSH4 0x4081601B EQ PUSH2 0x54 JUMPI JUMPDEST PUSH0 DUP1 REVERT JUMPDEST PUSH2 0x52 PUSH1 0x4 DUP1 CALLDATASIZE SUB DUP2 ADD SWAP1 PUSH2 0x4D SWAP2 SWAP1 PUSH2 0x2C4 JUMP JUMPDEST PUSH2 0x85 JUMP JUMPDEST STOP JUMPDEST PUSH2 0x6E PUSH1 0x4 DUP1 CALLDATASIZE SUB DUP2 ADD SWAP1 PUSH2 0x69 SWAP2 SWAP1 PUSH2 0x37B JUMP JUMPDEST PUSH2 0x169 JUMP JUMPDEST PUSH1 0x40 MLOAD PUSH2 0x7C SWAP3 SWAP2 SWAP1 PUSH2 0x438 JUMP JUMPDEST PUSH1 0x40 MLOAD DUP1 SWAP2 SUB SWAP1 RETURN JUMPDEST PUSH0 DUP1 PUSH0 CALLER PUSH20 0xFFFFFFFFFFFFFFFFFFFFFFFFFFFFFFFFFFFFFFFF AND PUSH20 0xFFFFFFFFFFFFFFFFFFFFFFFFFFFFFFFFFFFFFFFF AND DUP2 MSTORE PUSH1 0x20 ADD SWAP1 DUP2 MSTORE PUSH1 0x20 ADD PUSH0 KECCAK256 SWAP1 POP DUP1 PUSH1 0x40 MLOAD DUP1 PUSH1 0x40 ADD PUSH1 0x40 MSTORE DUP1 DUP7 DUP7 DUP1 DUP1 PUSH1 0x1F ADD PUSH1 0x20 DUP1 SWAP2 DIV MUL PUSH1 0x20 ADD PUSH1 0x40 MLOAD SWAP1 DUP2 ADD PUSH1 0x40 MSTORE DUP1 SWAP4 SWAP3 SWAP2 SWAP1 DUP2 DUP2 MSTORE PUSH1 0x20 ADD DUP4 DUP4 DUP1 DUP3 DUP5 CALLDATACOPY PUSH0 DUP2 DUP5 ADD MSTORE PUSH1 0x1F NOT PUSH1 0x1F DUP3 ADD AND SWAP1 POP DUP1 DUP4 ADD SWAP3 POP POP POP POP POP POP POP DUP2 MSTORE PUSH1 0x20 ADD DUP5 DUP2 MSTORE POP SWAP1 DUP1 PUSH1 0x1 DUP2 SLOAD ADD DUP1 DUP3 SSTORE DUP1 SWAP2 POP POP PUSH1 0x1 SWAP1 SUB SWAP1 PUSH0 MSTORE PUSH1 0x20 PUSH0 KECCAK256 SWAP1 PUSH1 0x2 MUL ADD PUSH0 SWAP1 SWAP2 SWAP1 SWAP2 SWAP1 SWAP2 POP PUSH0 DUP3 ADD MLOAD DUP2 PUSH0 ADD SWAP1 DUP2 PUSH2 0x156 SWAP2 SWAP1 PUSH2 0x68D JUMP JUMPDEST POP PUSH1 0x20 DUP3 ADD MLOAD DUP2 PUSH1 0x1 ADD SSTORE POP POP POP POP POP POP JUMP JUMPDEST PUSH0 PUSH1 0x20 MSTORE DUP2 PUSH0 MSTORE PUSH1 0x40 PUSH0 KECCAK256 DUP2 DUP2 SLOAD DUP2 LT PUSH2 0x181 JUMPI PUSH0 DUP1 REVERT JUMPDEST SWAP1 PUSH0 MSTORE PUSH1 0x20 PUSH0 KECCAK256 SWAP1 PUSH1 0x2 MUL ADD PUSH0 SWAP2 POP SWAP2 POP POP DUP1 PUSH0 ADD DUP1 SLOAD PUSH2 0x1A1 SWAP1 PUSH2 0x4C0 JUMP JUMPDEST DUP1 PUSH1 0x1F ADD PUSH1 0x20 DUP1 SWAP2 DIV MUL PUSH1 0x20 ADD PUSH1 0x40 MLOAD SWAP1 DUP2 ADD PUSH1 0x40 MSTORE DUP1 SWAP3 SWAP2 SWAP1 DUP2 DUP2 MSTORE PUSH1 0x20 ADD DUP3 DUP1 SLOAD PUSH2 0x1CD SWAP1 PUSH2 0x4C0 JUMP JUMPDEST DUP1 ISZERO PUSH2 0x218 JUMPI DUP1 PUSH1 0x1F LT PUSH2 0x1EF JUMPI PUSH2 0x100 DUP1 DUP4 SLOAD DIV MUL DUP4 MSTORE SWAP2 PUSH1 0x20 ADD SWAP2 PUSH2 0x218 JUMP JUMPDEST DUP3 ADD SWAP2 SWAP1 PUSH0 MSTORE PUSH1 0x20 PUSH0 KECCAK256 SWAP1 JUMPDEST DUP2 SLOAD DUP2 MSTORE SWAP1 PUSH1 0x1 ADD SWAP1 PUSH1 0x20 ADD DUP1 DUP4 GT PUSH2 0x1FB JUMPI DUP3 SWAP1 SUB PUSH1 0x1F AND DUP3 ADD SWAP2 JUMPDEST POP POP POP POP POP SWAP1 DUP1 PUSH1 0x1 ADD SLOAD SWAP1 POP DUP3 JUMP JUMPDEST PUSH0 DUP1 REVERT JUMPDEST PUSH0 DUP1 REVERT JUMPDEST PUSH0 DUP1 REVERT JUMPDEST PUSH0 DUP1 REVERT JUMPDEST PUSH0 DUP1 REVERT JUMPDEST PUSH0 DUP1 DUP4 PUSH1 0x1F DUP5 ADD SLT PUSH2 0x251 JUMPI PUSH2 0x250 PUSH2 0x230 JUMP JUMPDEST JUMPDEST DUP3 CALLDATALOAD SWAP1 POP PUSH8 0xFFFFFFFFFFFFFFFF DUP2 GT ISZERO PUSH2 0x26E JUMPI PUSH2 0x26D PUSH2 0x234 JUMP JUMPDEST JUMPDEST PUSH1 0x20 DUP4 ADD SWAP2 POP DUP4 PUSH1 0x1 DUP3 MUL DUP4 ADD GT ISZERO PUSH2 0x28A JUMPI PUSH2 0x289 PUSH2 0x238 JUMP JUMPDEST JUMPDEST SWAP3 POP SWAP3 SWAP1 POP JUMP JUMPDEST PUSH0 DUP2 SWAP1 POP SWAP2 SWAP1 POP JUMP JUMPDEST PUSH2 0x2A3 DUP2 PUSH2 0x291 JUMP JUMPDEST DUP2 EQ PUSH2 0x2AD JUMPI PUSH0 DUP1 REVERT JUMPDEST POP JUMP JUMPDEST PUSH0 DUP2 CALLDATALOAD SWAP1 POP PUSH2 0x2BE DUP2 PUSH2 0x29A JUMP JUMPDEST SWAP3 SWAP2 POP POP JUMP JUMPDEST PUSH0 DUP1 PUSH0 PUSH1 0x40 DUP5 DUP7 SUB SLT ISZERO PUSH2 0x2DB JUMPI PUSH2 0x2DA PUSH2 0x228 JUMP JUMPDEST JUMPDEST PUSH0 DUP5 ADD CALLDATALOAD PUSH8 0xFFFFFFFFFFFFFFFF DUP2 GT ISZERO PUSH2 0x2F8 JUMPI PUSH2 0x2F7 PUSH2 0x22C JUMP JUMPDEST JUMPDEST PUSH2 0x304 DUP7 DUP3 DUP8 ADD PUSH2 0x23C JUMP JUMPDEST SWAP4 POP SWAP4 POP POP PUSH1 0x20 PUSH2 0x317 DUP7 DUP3 DUP8 ADD PUSH2 0x2B0 JUMP JUMPDEST SWAP2 POP POP SWAP3 POP SWAP3 POP SWAP3 JUMP JUMPDEST PUSH0 PUSH20 0xFFFFFFFFFFFFFFFFFFFFFFFFFFFFFFFFFFFFFFFF DUP3 AND SWAP1 POP SWAP2 SWAP1 POP JUMP JUMPDEST PUSH0 PUSH2 0x34A DUP3 PUSH2 0x321 JUMP JUMPDEST SWAP1 POP SWAP2 SWAP1 POP JUMP JUMPDEST PUSH2 0x35A DUP2 PUSH2 0x340 JUMP JUMPDEST DUP2 EQ PUSH2 0x364 JUMPI PUSH0 DUP1 REVERT JUMPDEST POP JUMP JUMPDEST PUSH0 DUP2 CALLDATALOAD SWAP1 POP PUSH2 0x375 DUP2 PUSH2 0x351 JUMP JUMPDEST SWAP3 SWAP2 POP POP JUMP JUMPDEST PUSH0 DUP1 PUSH1 0x40 DUP4 DUP6 SUB SLT ISZERO PUSH2 0x391 JUMPI PUSH2 0x390 PUSH2 0x228 JUMP JUMPDEST JUMPDEST PUSH0 PUSH2 0x39E DUP6 DUP3 DUP7 ADD PUSH2 0x367 JUMP JUMPDEST SWAP3 POP POP PUSH1 0x20 PUSH2 0x3AF DUP6 DUP3 DUP7 ADD PUSH2 0x2B0 JUMP JUMPDEST SWAP2 POP POP SWAP3 POP SWAP3 SWAP1 POP JUMP JUMPDEST PUSH0 DUP2 MLOAD SWAP1 POP SWAP2 SWAP1 POP JUMP JUMPDEST PUSH0 DUP3 DUP3 MSTORE PUSH1 0x20 DUP3 ADD SWAP1 POP SWAP3 SWAP2 POP POP JUMP JUMPDEST DUP3 DUP2 DUP4 MCOPY PUSH0 DUP4 DUP4 ADD MSTORE POP POP POP JUMP JUMPDEST PUSH0 PUSH1 0x1F NOT PUSH1 0x1F DUP4 ADD AND SWAP1 POP SWAP2 SWAP1 POP JUMP JUMPDEST PUSH0 PUSH2 0x3FB DUP3 PUSH2 0x3B9 JUMP JUMPDEST PUSH2 0x405 DUP2 DUP6 PUSH2 0x3C3 JUMP JUMPDEST SWAP4 POP PUSH2 0x415 DUP2 DUP6 PUSH1 0x20 DUP7 ADD PUSH2 0x3D3 JUMP JUMPDEST PUSH2 0x41E DUP2 PUSH2 0x3E1 JUMP JUMPDEST DUP5 ADD SWAP2 POP POP SWAP3 SWAP2 POP POP JUMP JUMPDEST PUSH2 0x432 DUP2 PUSH2 0x291 JUMP JUMPDEST DUP3 MSTORE POP POP JUMP JUMPDEST PUSH0 PUSH1 0x40 DUP3 ADD SWAP1 POP DUP2 DUP2 SUB PUSH0 DUP4 ADD MSTORE PUSH2 0x450 DUP2 DUP6 PUSH2 0x3F1 JUMP JUMPDEST SWAP1 POP PUSH2 0x45F PUSH1 0x20 DUP4 ADD DUP5 PUSH2 0x429 JUMP JUMPDEST SWAP4 SWAP3 POP POP POP JUMP JUMPDEST PUSH32 0x4E487B7100000000000000000000000000000000000000000000000000000000 PUSH0 MSTORE PUSH1 0x41 PUSH1 0x4 MSTORE PUSH1 0x24 PUSH0 REVERT JUMPDEST PUSH32 0x4E487B7100000000000000000000000000000000000000000000000000000000 PUSH0 MSTORE PUSH1 0x22 PUSH1 0x4 MSTORE PUSH1 0x24 PUSH0 REVERT JUMPDEST PUSH0 PUSH1 0x2 DUP3 DIV SWAP1 POP PUSH1 0x1 DUP3 AND DUP1 PUSH2 0x4D7 JUMPI PUSH1 0x7F DUP3 AND SWAP2 POP JUMPDEST PUSH1 0x20 DUP3 LT DUP2 SUB PUSH2 0x4EA JUMPI PUSH2 0x4E9 PUSH2 0x493 JUMP JUMPDEST JUMPDEST POP SWAP2 SWAP1 POP JUMP JUMPDEST PUSH0 DUP2 SWAP1 POP DUP2 PUSH0 MSTORE PUSH1 0x20 PUSH0 KECCAK256 SWAP1 POP SWAP2 SWAP1 POP JUMP JUMPDEST PUSH0 PUSH1 0x20 PUSH1 0x1F DUP4 ADD DIV SWAP1 POP SWAP2 SWAP1 POP JUMP JUMPDEST PUSH0 DUP3 DUP3 SHL SWAP1 POP SWAP3 SWAP2 POP POP JUMP JUMPDEST PUSH0 PUSH1 0x8 DUP4 MUL PUSH2 0x54C PUSH32 0xFFFFFFFFFFFFFFFFFFFFFFFFFFFFFFFFFFFFFFFFFFFFFFFFFFFFFFFFFFFFFFFF DUP3 PUSH2 0x511 JUMP JUMPDEST PUSH2 0x556 DUP7 DUP4 PUSH2 0x511 JUMP JUMPDEST SWAP6 POP DUP1 NOT DUP5 AND SWAP4 POP DUP1 DUP7 AND DUP5 OR SWAP3 POP POP POP SWAP4 SWAP3 POP POP POP JUMP JUMPDEST PUSH0 DUP2 SWAP1 POP SWAP2 SWAP1 POP JUMP JUMPDEST PUSH0 PUSH2 0x591 PUSH2 0x58C PUSH2 0x587 DUP5 PUSH2 0x291 JUMP JUMPDEST PUSH2 0x56E JUMP JUMPDEST PUSH2 0x291 JUMP JUMPDEST SWAP1 POP SWAP2 SWAP1 POP JUMP JUMPDEST PUSH0 DUP2 SWAP1 POP SWAP2 SWAP1 POP JUMP JUMPDEST PUSH2 0x5AA DUP4 PUSH2 0x577 JUMP JUMPDEST PUSH2 0x5BE PUSH2 0x5B6 DUP3 PUSH2 0x598 JUMP JUMPDEST DUP5 DUP5 SLOAD PUSH2 0x51D JUMP JUMPDEST DUP3 SSTORE POP POP POP POP JUMP JUMPDEST PUSH0 SWAP1 JUMP JUMPDEST PUSH2 0x5D2 PUSH2 0x5C6 JUMP JUMPDEST PUSH2 0x5DD DUP2 DUP5 DUP5 PUSH2 0x5A1 JUMP JUMPDEST POP POP POP JUMP JUMPDEST JUMPDEST DUP2 DUP2 LT ISZERO PUSH2 0x600 JUMPI PUSH2 0x5F5 PUSH0 DUP3 PUSH2 0x5CA JUMP JUMPDEST PUSH1 0x1 DUP2 ADD SWAP1 POP PUSH2 0x5E3 JUMP JUMPDEST POP POP JUMP JUMPDEST PUSH1 0x1F DUP3 GT ISZERO PUSH2 0x645 JUMPI PUSH2 0x616 DUP2 PUSH2 0x4F0 JUMP JUMPDEST PUSH2 0x61F DUP5 PUSH2 0x502 JUMP JUMPDEST DUP2 ADD PUSH1 0x20 DUP6 LT ISZERO PUSH2 0x62E JUMPI DUP2 SWAP1 POP JUMPDEST PUSH2 0x642 PUSH2 0x63A DUP6 PUSH2 0x502 JUMP JUMPDEST DUP4 ADD DUP3 PUSH2 0x5E2 JUMP JUMPDEST POP POP JUMPDEST POP POP POP JUMP JUMPDEST PUSH0 DUP3 DUP3 SHR SWAP1 POP SWAP3 SWAP2 POP POP JUMP JUMPDEST PUSH0 PUSH2 0x665 PUSH0 NOT DUP5 PUSH1 0x8 MUL PUSH2 0x64A JUMP JUMPDEST NOT DUP1 DUP4 AND SWAP2 POP POP SWAP3 SWAP2 POP POP JUMP JUMPDEST PUSH0 PUSH2 0x67D DUP4 DUP4 PUSH2 0x656 JUMP JUMPDEST SWAP2 POP DUP3 PUSH1 0x2 MUL DUP3 OR SWAP1 POP SWAP3 SWAP2 POP POP JUMP JUMPDEST PUSH2 0x696 DUP3 PUSH2 0x3B9 JUMP JUMPDEST PUSH8 0xFFFFFFFFFFFFFFFF DUP2 GT ISZERO PUSH2 0x6AF JUMPI PUSH2 0x6AE PUSH2 0x466 JUMP JUMPDEST JUMPDEST PUSH2 0x6B9 DUP3 SLOAD PUSH2 0x4C0 JUMP JUMPDEST PUSH2 0x6C4 DUP3 DUP3 DUP6 PUSH2 0x604 JUMP JUMPDEST PUSH0 PUSH1 0x20 SWAP1 POP PUSH1 0x1F DUP4 GT PUSH1 0x1 DUP2 EQ PUSH2 0x6F5 JUMPI PUSH0 DUP5 ISZERO PUSH2 0x6E3 JUMPI DUP3 DUP8 ADD MLOAD SWAP1 POP JUMPDEST PUSH2 0x6ED DUP6 DUP3 PUSH2 0x672 JUMP JUMPDEST DUP7 SSTORE POP PUSH2 0x754 JUMP JUMPDEST PUSH1 0x1F NOT DUP5 AND PUSH2 0x703 DUP7 PUSH2 0x4F0 JUMP JUMPDEST PUSH0 JUMPDEST DUP3 DUP2 LT ISZERO PUSH2 0x72A JUMPI DUP5 DUP10 ADD MLOAD DUP3 SSTORE PUSH1 0x1 DUP3 ADD SWAP2 POP PUSH1 0x20 DUP6 ADD SWAP5 POP PUSH1 0x20 DUP2 ADD SWAP1 POP PUSH2 0x705 JUMP JUMPDEST DUP7 DUP4 LT ISZERO PUSH2 0x747 JUMPI DUP5 DUP10 ADD MLOAD PUSH2 0x743 PUSH1 0x1F DUP10 AND DUP3 PUSH2 0x656 JUMP JUMPDEST DUP4 SSTORE POP JUMPDEST PUSH1 0x1 PUSH1 0x2 DUP9 MUL ADD DUP9 SSTORE POP POP POP JUMPDEST POP POP POP POP POP POP JUMP INVALID LOG2 PUSH5 0x6970667358 0x22 SLT KECCAK256 0xDB LOG0 DIV CALLCODE PUSH3 0x17025E 0xF9 CALLDATACOPY BLOBBASEFEE 0xEE 0xCE PC 0x4E MLOAD PUSH0 0xBB 0xBB 0xE4 XOR 0xE2 0xE9 MCOPY 0xD4 PC BLOBHASH EQ EXP PUSH10 0xAEDC64736F6C63430008 NOT STOP CALLER "
				},
				"gasEstimates": {
					"creation": {
						"codeDepositCost": "387600",
						"executionCost": "422",
						"totalCost": "388022"
					},
					"external": {
						"createPerson(string,uint256)": "infinite",
						"peopleMap(address,uint256)": "infinite"
					}
				},
				"methodIdentifiers": {
					"createPerson(string,uint256)": "1ef455c7",
					"peopleMap(address,uint256)": "4081601b"
				}
			},
			"storageLayout": {
				"storage": [
					{
						"astId": 12,
						"contract": "SimpleStorage.sol:SimpleStorage",
						"label": "peopleMap",
						"offset": 0,
						"slot": "0",
						"type": "t_mapping(t_address,t_array(t_struct(Person)6_storage)dyn_storage)"
					}
				],
				"types": {
					"t_address": {
						"encoding": "inplace",
						"label": "address",
						"numberOfBytes": "20"
					},
					"t_array(t_struct(Person)6_storage)dyn_storage": {
						"base": "t_struct(Person)6_storage",
						"encoding": "dynamic_array",
						"label": "struct SimpleStorage.Person[]",
						"numberOfBytes": "32"
					},
					"t_mapping(t_address,t_array(t_struct(Person)6_storage)dyn_storage)": {
						"encoding": "mapping",
						"key": "t_address",
						"label": "mapping(address => struct SimpleStorage.Person[])",
						"numberOfBytes": "32",
						"value": "t_array(t_struct(Person)6_storage)dyn_storage"
					},
					"t_string_storage": {
						"encoding": "bytes",
						"label": "string",
						"numberOfBytes": "32"
					},
					"t_struct(Person)6_storage": {
						"encoding": "inplace",
						"label": "struct SimpleStorage.Person",
						"members": [
							{
								"astId": 3,
								"contract": "SimpleStorage.sol:SimpleStorage",
								"label": "name",
								"offset": 0,
								"slot": "0",
								"type": "t_string_storage"
							},
							{
								"astId": 5,
								"contract": "SimpleStorage.sol:SimpleStorage",
								"label": "favouriteNumber",
								"offset": 0,
								"slot": "1",
								"type": "t_uint256"
							}
						],
						"numberOfBytes": "64"
					},
					"t_uint256": {
						"encoding": "inplace",
						"label": "uint256",
						"numberOfBytes": "32"
					}
				}
			},
			"userdoc": {
				"kind": "user",
				"methods": {},
				"version": 1
			}
		}
	}
}