{
	"contracts/SimpleStorage.sol": {
		"SimpleStorage": {
			"abi": [
				{
					"inputs": [
						{
							"internalType": "address",
							"name": "_ownerAddress",
							"type": "address"
						},
						{
							"internalType": "string",
							"name": "_name",
							"type": "string"
						},
						{
							"internalType": "uint256",
							"name": "_favouriteNumber",
							"type": "uint256"
						}
					],
					"name": "_createPerson",
					"outputs": [],
					"stateMutability": "nonpayable",
					"type": "function"
				},
				{
					"inputs": [
						{
							"internalType": "uint256",
							"name": "",
							"type": "uint256"
						}
					],
					"name": "ownerAddresses",
					"outputs": [
						{
							"internalType": "address",
							"name": "",
							"type": "address"
						}
					],
					"stateMutability": "view",
					"type": "function"
				},
				{
					"inputs": [
						{
							"internalType": "address",
							"name": "",
							"type": "address"
						},
						{
							"internalType": "uint256",
							"name": "",
							"type": "uint256"
						}
					],
					"name": "peopleMap",
					"outputs": [
						{
							"internalType": "string",
							"name": "name",
							"type": "string"
						},
						{
							"internalType": "uint256",
							"name": "favouriteNumber",
							"type": "uint256"
						}
					],
					"stateMutability": "view",
					"type": "function"
				}
			],
			"devdoc": {
				"kind": "dev",
				"methods": {},
				"version": 1
			},
			"evm": {
				"assembly": "    /* \"contracts/SimpleStorage.sol\":108:860  contract SimpleStorage{... */\n  mstore(0x40, 0x80)\n  callvalue\n  dup1\n  iszero\n  tag_1\n  jumpi\n  0x00\n  dup1\n  revert\ntag_1:\n  pop\n  dataSize(sub_0)\n  dup1\n  dataOffset(sub_0)\n  0x00\n  codecopy\n  0x00\n  return\nstop\n\nsub_0: assembly {\n        /* \"contracts/SimpleStorage.sol\":108:860  contract SimpleStorage{... */\n      mstore(0x40, 0x80)\n      callvalue\n      dup1\n      iszero\n      tag_1\n      jumpi\n      0x00\n      dup1\n      revert\n    tag_1:\n      pop\n      jumpi(tag_2, lt(calldatasize, 0x04))\n      shr(0xe0, calldataload(0x00))\n      dup1\n      0x0f310b17\n      eq\n      tag_3\n      jumpi\n      dup1\n      0x4081601b\n      eq\n      tag_4\n      jumpi\n      dup1\n      0xfe6e9120\n      eq\n      tag_5\n      jumpi\n    tag_2:\n      0x00\n      dup1\n      revert\n        /* \"contracts/SimpleStorage.sol\":218:249  address[] public ownerAddresses */\n    tag_3:\n      tag_6\n      0x04\n      dup1\n      calldatasize\n      sub\n      dup2\n      add\n      swap1\n      tag_7\n      swap2\n      swap1\n      tag_8\n      jump\t// in\n    tag_7:\n      tag_9\n      jump\t// in\n    tag_6:\n      mload(0x40)\n      tag_10\n      swap2\n      swap1\n      tag_11\n      jump\t// in\n    tag_10:\n      mload(0x40)\n      dup1\n      swap2\n      sub\n      swap1\n      return\n        /* \"contracts/SimpleStorage.sol\":165:211  mapping (address => Person[]) public peopleMap */\n    tag_4:\n      tag_12\n      0x04\n      dup1\n      calldatasize\n      sub\n      dup2\n      add\n      swap1\n      tag_13\n      swap2\n      swap1\n      tag_14\n      jump\t// in\n    tag_13:\n      tag_15\n      jump\t// in\n    tag_12:\n      mload(0x40)\n      tag_16\n      swap3\n      swap2\n      swap1\n      tag_17\n      jump\t// in\n    tag_16:\n      mload(0x40)\n      dup1\n      swap2\n      sub\n      swap1\n      return\n        /* \"contracts/SimpleStorage.sol\":296:857  function _createPerson(address _ownerAddress, string calldata _name, uint _favouriteNumber) external  {... */\n    tag_5:\n      tag_18\n      0x04\n      dup1\n      calldatasize\n      sub\n      dup2\n      add\n      swap1\n      tag_19\n      swap2\n      swap1\n      tag_20\n      jump\t// in\n    tag_19:\n      tag_21\n      jump\t// in\n    tag_18:\n      stop\n        /* \"contracts/SimpleStorage.sol\":218:249  address[] public ownerAddresses */\n    tag_9:\n      0x01\n      dup2\n      dup2\n      sload\n      dup2\n      lt\n      tag_22\n      jumpi\n      0x00\n      dup1\n      revert\n    tag_22:\n      swap1\n      0x00\n      mstore\n      keccak256(0x00, 0x20)\n      add\n      0x00\n      swap2\n      pop\n      sload\n      swap1\n      0x0100\n      exp\n      swap1\n      div\n      0xffffffffffffffffffffffffffffffffffffffff\n      and\n      dup2\n      jump\t// out\n        /* \"contracts/SimpleStorage.sol\":165:211  mapping (address => Person[]) public peopleMap */\n    tag_15:\n      mstore(0x20, 0x00)\n      dup2\n      0x00\n      mstore\n      keccak256(0x00, 0x40)\n      dup2\n      dup2\n      sload\n      dup2\n      lt\n      tag_24\n      jumpi\n      0x00\n      dup1\n      revert\n    tag_24:\n      swap1\n      0x00\n      mstore\n      keccak256(0x00, 0x20)\n      swap1\n      0x02\n      mul\n      add\n      0x00\n      swap2\n      pop\n      swap2\n      pop\n      pop\n      dup1\n      0x00\n      add\n      dup1\n      sload\n      tag_26\n      swap1\n      tag_27\n      jump\t// in\n    tag_26:\n      dup1\n      0x1f\n      add\n      0x20\n      dup1\n      swap2\n      div\n      mul\n      0x20\n      add\n      mload(0x40)\n      swap1\n      dup2\n      add\n      0x40\n      mstore\n      dup1\n      swap3\n      swap2\n      swap1\n      dup2\n      dup2\n      mstore\n      0x20\n      add\n      dup3\n      dup1\n      sload\n      tag_28\n      swap1\n      tag_27\n      jump\t// in\n    tag_28:\n      dup1\n      iszero\n      tag_29\n      jumpi\n      dup1\n      0x1f\n      lt\n      tag_30\n      jumpi\n      0x0100\n      dup1\n      dup4\n      sload\n      div\n      mul\n      dup4\n      mstore\n      swap2\n      0x20\n      add\n      swap2\n      jump(tag_29)\n    tag_30:\n      dup3\n      add\n      swap2\n      swap1\n      0x00\n      mstore\n      keccak256(0x00, 0x20)\n      swap1\n    tag_31:\n      dup2\n      sload\n      dup2\n      mstore\n      swap1\n      0x01\n      add\n      swap1\n      0x20\n      add\n      dup1\n      dup4\n      gt\n      tag_31\n      jumpi\n      dup3\n      swap1\n      sub\n      0x1f\n      and\n      dup3\n      add\n      swap2\n    tag_29:\n      pop\n      pop\n      pop\n      pop\n      pop\n      swap1\n      dup1\n      0x01\n      add\n      sload\n      swap1\n      pop\n      dup3\n      jump\t// out\n        /* \"contracts/SimpleStorage.sol\":296:857  function _createPerson(address _ownerAddress, string calldata _name, uint _favouriteNumber) external  {... */\n    tag_21:\n        /* \"contracts/SimpleStorage.sol\":489:512  Person[] storage people */\n      0x00\n        /* \"contracts/SimpleStorage.sol\":515:524  peopleMap */\n      dup1\n        /* \"contracts/SimpleStorage.sol\":515:539  peopleMap[_ownerAddress] */\n      0x00\n        /* \"contracts/SimpleStorage.sol\":525:538  _ownerAddress */\n      dup7\n        /* \"contracts/SimpleStorage.sol\":515:539  peopleMap[_ownerAddress] */\n      0xffffffffffffffffffffffffffffffffffffffff\n      and\n      0xffffffffffffffffffffffffffffffffffffffff\n      and\n      dup2\n      mstore\n      0x20\n      add\n      swap1\n      dup2\n      mstore\n      0x20\n      add\n      0x00\n      keccak256\n        /* \"contracts/SimpleStorage.sol\":489:539  Person[] storage people = peopleMap[_ownerAddress] */\n      swap1\n      pop\n        /* \"contracts/SimpleStorage.sol\":550:556  people */\n      dup1\n        /* \"contracts/SimpleStorage.sol\":562:593  Person(_name, _favouriteNumber) */\n      mload(0x40)\n      dup1\n      0x40\n      add\n      0x40\n      mstore\n      dup1\n        /* \"contracts/SimpleStorage.sol\":569:574  _name */\n      dup7\n      dup7\n        /* \"contracts/SimpleStorage.sol\":562:593  Person(_name, _favouriteNumber) */\n      dup1\n      dup1\n      0x1f\n      add\n      0x20\n      dup1\n      swap2\n      div\n      mul\n      0x20\n      add\n      mload(0x40)\n      swap1\n      dup2\n      add\n      0x40\n      mstore\n      dup1\n      swap4\n      swap3\n      swap2\n      swap1\n      dup2\n      dup2\n      mstore\n      0x20\n      add\n      dup4\n      dup4\n      dup1\n      dup3\n      dup5\n      calldatacopy\n      0x00\n      dup2\n      dup5\n      add\n      mstore\n      not(0x1f)\n      0x1f\n      dup3\n      add\n      and\n      swap1\n      pop\n      dup1\n      dup4\n      add\n      swap3\n      pop\n      pop\n      pop\n      pop\n      pop\n      pop\n      pop\n      dup2\n      mstore\n      0x20\n      add\n        /* \"contracts/SimpleStorage.sol\":576:592  _favouriteNumber */\n      dup5\n        /* \"contracts/SimpleStorage.sol\":562:593  Person(_name, _favouriteNumber) */\n      dup2\n      mstore\n      pop\n        /* \"contracts/SimpleStorage.sol\":550:594  people.push(Person(_name, _favouriteNumber)) */\n      swap1\n      dup1\n      0x01\n      dup2\n      sload\n      add\n      dup1\n      dup3\n      sstore\n      dup1\n      swap2\n      pop\n      pop\n      0x01\n      swap1\n      sub\n      swap1\n      0x00\n      mstore\n      keccak256(0x00, 0x20)\n      swap1\n      0x02\n      mul\n      add\n      0x00\n      swap1\n      swap2\n      swap1\n      swap2\n      swap1\n      swap2\n      pop\n      0x00\n      dup3\n      add\n      mload\n      dup2\n      0x00\n      add\n      swap1\n      dup2\n      tag_34\n      swap2\n      swap1\n      tag_35\n      jump\t// in\n    tag_34:\n      pop\n      0x20\n      dup3\n      add\n      mload\n      dup2\n      0x01\n      add\n      sstore\n      pop\n      pop\n        /* \"contracts/SimpleStorage.sol\":688:694  uint i */\n      0x00\n        /* \"contracts/SimpleStorage.sol\":684:803  for(uint i = 0; i < ownerAddresses.length; i++){... */\n    tag_36:\n        /* \"contracts/SimpleStorage.sol\":704:718  ownerAddresses */\n      0x01\n        /* \"contracts/SimpleStorage.sol\":704:725  ownerAddresses.length */\n      dup1\n      sload\n      swap1\n      pop\n        /* \"contracts/SimpleStorage.sol\":700:701  i */\n      dup2\n        /* \"contracts/SimpleStorage.sol\":700:725  i < ownerAddresses.length */\n      lt\n        /* \"contracts/SimpleStorage.sol\":684:803  for(uint i = 0; i < ownerAddresses.length; i++){... */\n      iszero\n      tag_37\n      jumpi\n        /* \"contracts/SimpleStorage.sol\":770:783  _ownerAddress */\n      dup6\n        /* \"contracts/SimpleStorage.sol\":749:783  ownerAddresses[i] == _ownerAddress */\n      0xffffffffffffffffffffffffffffffffffffffff\n      and\n        /* \"contracts/SimpleStorage.sol\":749:763  ownerAddresses */\n      0x01\n        /* \"contracts/SimpleStorage.sol\":764:765  i */\n      dup3\n        /* \"contracts/SimpleStorage.sol\":749:766  ownerAddresses[i] */\n      dup2\n      sload\n      dup2\n      lt\n      tag_39\n      jumpi\n      tag_40\n      tag_41\n      jump\t// in\n    tag_40:\n    tag_39:\n      swap1\n      0x00\n      mstore\n      keccak256(0x00, 0x20)\n      add\n      0x00\n      swap1\n      sload\n      swap1\n      0x0100\n      exp\n      swap1\n      div\n      0xffffffffffffffffffffffffffffffffffffffff\n      and\n        /* \"contracts/SimpleStorage.sol\":749:783  ownerAddresses[i] == _ownerAddress */\n      0xffffffffffffffffffffffffffffffffffffffff\n      and\n      sub\n        /* \"contracts/SimpleStorage.sol\":746:792  if(ownerAddresses[i] == _ownerAddress) return; */\n      tag_43\n      jumpi\n        /* \"contracts/SimpleStorage.sol\":785:792  return; */\n      pop\n      pop\n      jump(tag_32)\n        /* \"contracts/SimpleStorage.sol\":746:792  if(ownerAddresses[i] == _ownerAddress) return; */\n    tag_43:\n        /* \"contracts/SimpleStorage.sol\":727:730  i++ */\n      dup1\n      dup1\n      0x01\n      add\n      swap2\n      pop\n      pop\n        /* \"contracts/SimpleStorage.sol\":684:803  for(uint i = 0; i < ownerAddresses.length; i++){... */\n      jump(tag_36)\n    tag_37:\n      pop\n        /* \"contracts/SimpleStorage.sol\":815:829  ownerAddresses */\n      0x01\n        /* \"contracts/SimpleStorage.sol\":835:848  _ownerAddress */\n      dup6\n        /* \"contracts/SimpleStorage.sol\":815:849  ownerAddresses.push(_ownerAddress) */\n      swap1\n      dup1\n      0x01\n      dup2\n      sload\n      add\n      dup1\n      dup3\n      sstore\n      dup1\n      swap2\n      pop\n      pop\n      0x01\n      swap1\n      sub\n      swap1\n      0x00\n      mstore\n      keccak256(0x00, 0x20)\n      add\n      0x00\n      swap1\n      swap2\n      swap1\n      swap2\n      swap1\n      swap2\n      0x0100\n      exp\n      dup2\n      sload\n      dup2\n      0xffffffffffffffffffffffffffffffffffffffff\n      mul\n      not\n      and\n      swap1\n      dup4\n      0xffffffffffffffffffffffffffffffffffffffff\n      and\n      mul\n      or\n      swap1\n      sstore\n      pop\n        /* \"contracts/SimpleStorage.sol\":398:857  {... */\n      pop\n        /* \"contracts/SimpleStorage.sol\":296:857  function _createPerson(address _ownerAddress, string calldata _name, uint _favouriteNumber) external  {... */\n    tag_32:\n      pop\n      pop\n      pop\n      pop\n      jump\t// out\n        /* \"#utility.yul\":88:205   */\n    tag_46:\n        /* \"#utility.yul\":197:198   */\n      0x00\n        /* \"#utility.yul\":194:195   */\n      dup1\n        /* \"#utility.yul\":187:199   */\n      revert\n        /* \"#utility.yul\":211:328   */\n    tag_47:\n        /* \"#utility.yul\":320:321   */\n      0x00\n        /* \"#utility.yul\":317:318   */\n      dup1\n        /* \"#utility.yul\":310:322   */\n      revert\n        /* \"#utility.yul\":334:411   */\n    tag_48:\n        /* \"#utility.yul\":371:378   */\n      0x00\n        /* \"#utility.yul\":400:405   */\n      dup2\n        /* \"#utility.yul\":389:405   */\n      swap1\n      pop\n        /* \"#utility.yul\":334:411   */\n      swap2\n      swap1\n      pop\n      jump\t// out\n        /* \"#utility.yul\":417:539   */\n    tag_49:\n        /* \"#utility.yul\":490:514   */\n      tag_89\n        /* \"#utility.yul\":508:513   */\n      dup2\n        /* \"#utility.yul\":490:514   */\n      tag_48\n      jump\t// in\n    tag_89:\n        /* \"#utility.yul\":483:488   */\n      dup2\n        /* \"#utility.yul\":480:515   */\n      eq\n        /* \"#utility.yul\":470:533   */\n      tag_90\n      jumpi\n        /* \"#utility.yul\":529:530   */\n      0x00\n        /* \"#utility.yul\":526:527   */\n      dup1\n        /* \"#utility.yul\":519:531   */\n      revert\n        /* \"#utility.yul\":470:533   */\n    tag_90:\n        /* \"#utility.yul\":417:539   */\n      pop\n      jump\t// out\n        /* \"#utility.yul\":545:684   */\n    tag_50:\n        /* \"#utility.yul\":591:596   */\n      0x00\n        /* \"#utility.yul\":629:635   */\n      dup2\n        /* \"#utility.yul\":616:636   */\n      calldataload\n        /* \"#utility.yul\":607:636   */\n      swap1\n      pop\n        /* \"#utility.yul\":645:678   */\n      tag_92\n        /* \"#utility.yul\":672:677   */\n      dup2\n        /* \"#utility.yul\":645:678   */\n      tag_49\n      jump\t// in\n    tag_92:\n        /* \"#utility.yul\":545:684   */\n      swap3\n      swap2\n      pop\n      pop\n      jump\t// out\n        /* \"#utility.yul\":690:1019   */\n    tag_8:\n        /* \"#utility.yul\":749:755   */\n      0x00\n        /* \"#utility.yul\":798:800   */\n      0x20\n        /* \"#utility.yul\":786:795   */\n      dup3\n        /* \"#utility.yul\":777:784   */\n      dup5\n        /* \"#utility.yul\":773:796   */\n      sub\n        /* \"#utility.yul\":769:801   */\n      slt\n        /* \"#utility.yul\":766:885   */\n      iszero\n      tag_94\n      jumpi\n        /* \"#utility.yul\":804:883   */\n      tag_95\n      tag_46\n      jump\t// in\n    tag_95:\n        /* \"#utility.yul\":766:885   */\n    tag_94:\n        /* \"#utility.yul\":924:925   */\n      0x00\n        /* \"#utility.yul\":949:1002   */\n      tag_96\n        /* \"#utility.yul\":994:1001   */\n      dup5\n        /* \"#utility.yul\":985:991   */\n      dup3\n        /* \"#utility.yul\":974:983   */\n      dup6\n        /* \"#utility.yul\":970:992   */\n      add\n        /* \"#utility.yul\":949:1002   */\n      tag_50\n      jump\t// in\n    tag_96:\n        /* \"#utility.yul\":939:1002   */\n      swap2\n      pop\n        /* \"#utility.yul\":895:1012   */\n      pop\n        /* \"#utility.yul\":690:1019   */\n      swap3\n      swap2\n      pop\n      pop\n      jump\t// out\n        /* \"#utility.yul\":1025:1151   */\n    tag_51:\n        /* \"#utility.yul\":1062:1069   */\n      0x00\n        /* \"#utility.yul\":1102:1144   */\n      0xffffffffffffffffffffffffffffffffffffffff\n        /* \"#utility.yul\":1095:1100   */\n      dup3\n        /* \"#utility.yul\":1091:1145   */\n      and\n        /* \"#utility.yul\":1080:1145   */\n      swap1\n      pop\n        /* \"#utility.yul\":1025:1151   */\n      swap2\n      swap1\n      pop\n      jump\t// out\n        /* \"#utility.yul\":1157:1253   */\n    tag_52:\n        /* \"#utility.yul\":1194:1201   */\n      0x00\n        /* \"#utility.yul\":1223:1247   */\n      tag_99\n        /* \"#utility.yul\":1241:1246   */\n      dup3\n        /* \"#utility.yul\":1223:1247   */\n      tag_51\n      jump\t// in\n    tag_99:\n        /* \"#utility.yul\":1212:1247   */\n      swap1\n      pop\n        /* \"#utility.yul\":1157:1253   */\n      swap2\n      swap1\n      pop\n      jump\t// out\n        /* \"#utility.yul\":1259:1377   */\n    tag_53:\n        /* \"#utility.yul\":1346:1370   */\n      tag_101\n        /* \"#utility.yul\":1364:1369   */\n      dup2\n        /* \"#utility.yul\":1346:1370   */\n      tag_52\n      jump\t// in\n    tag_101:\n        /* \"#utility.yul\":1341:1344   */\n      dup3\n        /* \"#utility.yul\":1334:1371   */\n      mstore\n        /* \"#utility.yul\":1259:1377   */\n      pop\n      pop\n      jump\t// out\n        /* \"#utility.yul\":1383:1605   */\n    tag_11:\n        /* \"#utility.yul\":1476:1480   */\n      0x00\n        /* \"#utility.yul\":1514:1516   */\n      0x20\n        /* \"#utility.yul\":1503:1512   */\n      dup3\n        /* \"#utility.yul\":1499:1517   */\n      add\n        /* \"#utility.yul\":1491:1517   */\n      swap1\n      pop\n        /* \"#utility.yul\":1527:1598   */\n      tag_103\n        /* \"#utility.yul\":1595:1596   */\n      0x00\n        /* \"#utility.yul\":1584:1593   */\n      dup4\n        /* \"#utility.yul\":1580:1597   */\n      add\n        /* \"#utility.yul\":1571:1577   */\n      dup5\n        /* \"#utility.yul\":1527:1598   */\n      tag_53\n      jump\t// in\n    tag_103:\n        /* \"#utility.yul\":1383:1605   */\n      swap3\n      swap2\n      pop\n      pop\n      jump\t// out\n        /* \"#utility.yul\":1611:1733   */\n    tag_54:\n        /* \"#utility.yul\":1684:1708   */\n      tag_105\n        /* \"#utility.yul\":1702:1707   */\n      dup2\n        /* \"#utility.yul\":1684:1708   */\n      tag_52\n      jump\t// in\n    tag_105:\n        /* \"#utility.yul\":1677:1682   */\n      dup2\n        /* \"#utility.yul\":1674:1709   */\n      eq\n        /* \"#utility.yul\":1664:1727   */\n      tag_106\n      jumpi\n        /* \"#utility.yul\":1723:1724   */\n      0x00\n        /* \"#utility.yul\":1720:1721   */\n      dup1\n        /* \"#utility.yul\":1713:1725   */\n      revert\n        /* \"#utility.yul\":1664:1727   */\n    tag_106:\n        /* \"#utility.yul\":1611:1733   */\n      pop\n      jump\t// out\n        /* \"#utility.yul\":1739:1878   */\n    tag_55:\n        /* \"#utility.yul\":1785:1790   */\n      0x00\n        /* \"#utility.yul\":1823:1829   */\n      dup2\n        /* \"#utility.yul\":1810:1830   */\n      calldataload\n        /* \"#utility.yul\":1801:1830   */\n      swap1\n      pop\n        /* \"#utility.yul\":1839:1872   */\n      tag_108\n        /* \"#utility.yul\":1866:1871   */\n      dup2\n        /* \"#utility.yul\":1839:1872   */\n      tag_54\n      jump\t// in\n    tag_108:\n        /* \"#utility.yul\":1739:1878   */\n      swap3\n      swap2\n      pop\n      pop\n      jump\t// out\n        /* \"#utility.yul\":1884:2358   */\n    tag_14:\n        /* \"#utility.yul\":1952:1958   */\n      0x00\n        /* \"#utility.yul\":1960:1966   */\n      dup1\n        /* \"#utility.yul\":2009:2011   */\n      0x40\n        /* \"#utility.yul\":1997:2006   */\n      dup4\n        /* \"#utility.yul\":1988:1995   */\n      dup6\n        /* \"#utility.yul\":1984:2007   */\n      sub\n        /* \"#utility.yul\":1980:2012   */\n      slt\n        /* \"#utility.yul\":1977:2096   */\n      iszero\n      tag_110\n      jumpi\n        /* \"#utility.yul\":2015:2094   */\n      tag_111\n      tag_46\n      jump\t// in\n    tag_111:\n        /* \"#utility.yul\":1977:2096   */\n    tag_110:\n        /* \"#utility.yul\":2135:2136   */\n      0x00\n        /* \"#utility.yul\":2160:2213   */\n      tag_112\n        /* \"#utility.yul\":2205:2212   */\n      dup6\n        /* \"#utility.yul\":2196:2202   */\n      dup3\n        /* \"#utility.yul\":2185:2194   */\n      dup7\n        /* \"#utility.yul\":2181:2203   */\n      add\n        /* \"#utility.yul\":2160:2213   */\n      tag_55\n      jump\t// in\n    tag_112:\n        /* \"#utility.yul\":2150:2213   */\n      swap3\n      pop\n        /* \"#utility.yul\":2106:2223   */\n      pop\n        /* \"#utility.yul\":2262:2264   */\n      0x20\n        /* \"#utility.yul\":2288:2341   */\n      tag_113\n        /* \"#utility.yul\":2333:2340   */\n      dup6\n        /* \"#utility.yul\":2324:2330   */\n      dup3\n        /* \"#utility.yul\":2313:2322   */\n      dup7\n        /* \"#utility.yul\":2309:2331   */\n      add\n        /* \"#utility.yul\":2288:2341   */\n      tag_50\n      jump\t// in\n    tag_113:\n        /* \"#utility.yul\":2278:2341   */\n      swap2\n      pop\n        /* \"#utility.yul\":2233:2351   */\n      pop\n        /* \"#utility.yul\":1884:2358   */\n      swap3\n      pop\n      swap3\n      swap1\n      pop\n      jump\t// out\n        /* \"#utility.yul\":2364:2463   */\n    tag_56:\n        /* \"#utility.yul\":2416:2422   */\n      0x00\n        /* \"#utility.yul\":2450:2455   */\n      dup2\n        /* \"#utility.yul\":2444:2456   */\n      mload\n        /* \"#utility.yul\":2434:2456   */\n      swap1\n      pop\n        /* \"#utility.yul\":2364:2463   */\n      swap2\n      swap1\n      pop\n      jump\t// out\n        /* \"#utility.yul\":2469:2638   */\n    tag_57:\n        /* \"#utility.yul\":2553:2564   */\n      0x00\n        /* \"#utility.yul\":2587:2593   */\n      dup3\n        /* \"#utility.yul\":2582:2585   */\n      dup3\n        /* \"#utility.yul\":2575:2594   */\n      mstore\n        /* \"#utility.yul\":2627:2631   */\n      0x20\n        /* \"#utility.yul\":2622:2625   */\n      dup3\n        /* \"#utility.yul\":2618:2632   */\n      add\n        /* \"#utility.yul\":2603:2632   */\n      swap1\n      pop\n        /* \"#utility.yul\":2469:2638   */\n      swap3\n      swap2\n      pop\n      pop\n      jump\t// out\n        /* \"#utility.yul\":2644:2783   */\n    tag_58:\n        /* \"#utility.yul\":2733:2739   */\n      dup3\n        /* \"#utility.yul\":2728:2731   */\n      dup2\n        /* \"#utility.yul\":2723:2726   */\n      dup4\n        /* \"#utility.yul\":2717:2740   */\n      mcopy\n        /* \"#utility.yul\":2774:2775   */\n      0x00\n        /* \"#utility.yul\":2765:2771   */\n      dup4\n        /* \"#utility.yul\":2760:2763   */\n      dup4\n        /* \"#utility.yul\":2756:2772   */\n      add\n        /* \"#utility.yul\":2749:2776   */\n      mstore\n        /* \"#utility.yul\":2644:2783   */\n      pop\n      pop\n      pop\n      jump\t// out\n        /* \"#utility.yul\":2789:2891   */\n    tag_59:\n        /* \"#utility.yul\":2830:2836   */\n      0x00\n        /* \"#utility.yul\":2881:2883   */\n      0x1f\n        /* \"#utility.yul\":2877:2884   */\n      not\n        /* \"#utility.yul\":2872:2874   */\n      0x1f\n        /* \"#utility.yul\":2865:2870   */\n      dup4\n        /* \"#utility.yul\":2861:2875   */\n      add\n        /* \"#utility.yul\":2857:2885   */\n      and\n        /* \"#utility.yul\":2847:2885   */\n      swap1\n      pop\n        /* \"#utility.yul\":2789:2891   */\n      swap2\n      swap1\n      pop\n      jump\t// out\n        /* \"#utility.yul\":2897:3274   */\n    tag_60:\n        /* \"#utility.yul\":2985:2988   */\n      0x00\n        /* \"#utility.yul\":3013:3052   */\n      tag_119\n        /* \"#utility.yul\":3046:3051   */\n      dup3\n        /* \"#utility.yul\":3013:3052   */\n      tag_56\n      jump\t// in\n    tag_119:\n        /* \"#utility.yul\":3068:3139   */\n      tag_120\n        /* \"#utility.yul\":3132:3138   */\n      dup2\n        /* \"#utility.yul\":3127:3130   */\n      dup6\n        /* \"#utility.yul\":3068:3139   */\n      tag_57\n      jump\t// in\n    tag_120:\n        /* \"#utility.yul\":3061:3139   */\n      swap4\n      pop\n        /* \"#utility.yul\":3148:3213   */\n      tag_121\n        /* \"#utility.yul\":3206:3212   */\n      dup2\n        /* \"#utility.yul\":3201:3204   */\n      dup6\n        /* \"#utility.yul\":3194:3198   */\n      0x20\n        /* \"#utility.yul\":3187:3192   */\n      dup7\n        /* \"#utility.yul\":3183:3199   */\n      add\n        /* \"#utility.yul\":3148:3213   */\n      tag_58\n      jump\t// in\n    tag_121:\n        /* \"#utility.yul\":3238:3267   */\n      tag_122\n        /* \"#utility.yul\":3260:3266   */\n      dup2\n        /* \"#utility.yul\":3238:3267   */\n      tag_59\n      jump\t// in\n    tag_122:\n        /* \"#utility.yul\":3233:3236   */\n      dup5\n        /* \"#utility.yul\":3229:3268   */\n      add\n        /* \"#utility.yul\":3222:3268   */\n      swap2\n      pop\n        /* \"#utility.yul\":2989:3274   */\n      pop\n        /* \"#utility.yul\":2897:3274   */\n      swap3\n      swap2\n      pop\n      pop\n      jump\t// out\n        /* \"#utility.yul\":3280:3398   */\n    tag_61:\n        /* \"#utility.yul\":3367:3391   */\n      tag_124\n        /* \"#utility.yul\":3385:3390   */\n      dup2\n        /* \"#utility.yul\":3367:3391   */\n      tag_48\n      jump\t// in\n    tag_124:\n        /* \"#utility.yul\":3362:3365   */\n      dup3\n        /* \"#utility.yul\":3355:3392   */\n      mstore\n        /* \"#utility.yul\":3280:3398   */\n      pop\n      pop\n      jump\t// out\n        /* \"#utility.yul\":3404:3827   */\n    tag_17:\n        /* \"#utility.yul\":3545:3549   */\n      0x00\n        /* \"#utility.yul\":3583:3585   */\n      0x40\n        /* \"#utility.yul\":3572:3581   */\n      dup3\n        /* \"#utility.yul\":3568:3586   */\n      add\n        /* \"#utility.yul\":3560:3586   */\n      swap1\n      pop\n        /* \"#utility.yul\":3632:3641   */\n      dup2\n        /* \"#utility.yul\":3626:3630   */\n      dup2\n        /* \"#utility.yul\":3622:3642   */\n      sub\n        /* \"#utility.yul\":3618:3619   */\n      0x00\n        /* \"#utility.yul\":3607:3616   */\n      dup4\n        /* \"#utility.yul\":3603:3620   */\n      add\n        /* \"#utility.yul\":3596:3643   */\n      mstore\n        /* \"#utility.yul\":3660:3738   */\n      tag_126\n        /* \"#utility.yul\":3733:3737   */\n      dup2\n        /* \"#utility.yul\":3724:3730   */\n      dup6\n        /* \"#utility.yul\":3660:3738   */\n      tag_60\n      jump\t// in\n    tag_126:\n        /* \"#utility.yul\":3652:3738   */\n      swap1\n      pop\n        /* \"#utility.yul\":3748:3820   */\n      tag_127\n        /* \"#utility.yul\":3816:3818   */\n      0x20\n        /* \"#utility.yul\":3805:3814   */\n      dup4\n        /* \"#utility.yul\":3801:3819   */\n      add\n        /* \"#utility.yul\":3792:3798   */\n      dup5\n        /* \"#utility.yul\":3748:3820   */\n      tag_61\n      jump\t// in\n    tag_127:\n        /* \"#utility.yul\":3404:3827   */\n      swap4\n      swap3\n      pop\n      pop\n      pop\n      jump\t// out\n        /* \"#utility.yul\":3833:3950   */\n    tag_62:\n        /* \"#utility.yul\":3942:3943   */\n      0x00\n        /* \"#utility.yul\":3939:3940   */\n      dup1\n        /* \"#utility.yul\":3932:3944   */\n      revert\n        /* \"#utility.yul\":3956:4073   */\n    tag_63:\n        /* \"#utility.yul\":4065:4066   */\n      0x00\n        /* \"#utility.yul\":4062:4063   */\n      dup1\n        /* \"#utility.yul\":4055:4067   */\n      revert\n        /* \"#utility.yul\":4079:4196   */\n    tag_64:\n        /* \"#utility.yul\":4188:4189   */\n      0x00\n        /* \"#utility.yul\":4185:4186   */\n      dup1\n        /* \"#utility.yul\":4178:4190   */\n      revert\n        /* \"#utility.yul\":4216:4769   */\n    tag_65:\n        /* \"#utility.yul\":4274:4282   */\n      0x00\n        /* \"#utility.yul\":4284:4290   */\n      dup1\n        /* \"#utility.yul\":4334:4337   */\n      dup4\n        /* \"#utility.yul\":4327:4331   */\n      0x1f\n        /* \"#utility.yul\":4319:4325   */\n      dup5\n        /* \"#utility.yul\":4315:4332   */\n      add\n        /* \"#utility.yul\":4311:4338   */\n      slt\n        /* \"#utility.yul\":4301:4423   */\n      tag_132\n      jumpi\n        /* \"#utility.yul\":4342:4421   */\n      tag_133\n      tag_62\n      jump\t// in\n    tag_133:\n        /* \"#utility.yul\":4301:4423   */\n    tag_132:\n        /* \"#utility.yul\":4455:4461   */\n      dup3\n        /* \"#utility.yul\":4442:4462   */\n      calldataload\n        /* \"#utility.yul\":4432:4462   */\n      swap1\n      pop\n        /* \"#utility.yul\":4485:4503   */\n      0xffffffffffffffff\n        /* \"#utility.yul\":4477:4483   */\n      dup2\n        /* \"#utility.yul\":4474:4504   */\n      gt\n        /* \"#utility.yul\":4471:4588   */\n      iszero\n      tag_134\n      jumpi\n        /* \"#utility.yul\":4507:4586   */\n      tag_135\n      tag_63\n      jump\t// in\n    tag_135:\n        /* \"#utility.yul\":4471:4588   */\n    tag_134:\n        /* \"#utility.yul\":4621:4625   */\n      0x20\n        /* \"#utility.yul\":4613:4619   */\n      dup4\n        /* \"#utility.yul\":4609:4626   */\n      add\n        /* \"#utility.yul\":4597:4626   */\n      swap2\n      pop\n        /* \"#utility.yul\":4675:4678   */\n      dup4\n        /* \"#utility.yul\":4667:4671   */\n      0x01\n        /* \"#utility.yul\":4659:4665   */\n      dup3\n        /* \"#utility.yul\":4655:4672   */\n      mul\n        /* \"#utility.yul\":4645:4653   */\n      dup4\n        /* \"#utility.yul\":4641:4673   */\n      add\n        /* \"#utility.yul\":4638:4679   */\n      gt\n        /* \"#utility.yul\":4635:4763   */\n      iszero\n      tag_136\n      jumpi\n        /* \"#utility.yul\":4682:4761   */\n      tag_137\n      tag_64\n      jump\t// in\n    tag_137:\n        /* \"#utility.yul\":4635:4763   */\n    tag_136:\n        /* \"#utility.yul\":4216:4769   */\n      swap3\n      pop\n      swap3\n      swap1\n      pop\n      jump\t// out\n        /* \"#utility.yul\":4775:5594   */\n    tag_20:\n        /* \"#utility.yul\":4864:4870   */\n      0x00\n        /* \"#utility.yul\":4872:4878   */\n      dup1\n        /* \"#utility.yul\":4880:4886   */\n      0x00\n        /* \"#utility.yul\":4888:4894   */\n      dup1\n        /* \"#utility.yul\":4937:4939   */\n      0x60\n        /* \"#utility.yul\":4925:4934   */\n      dup6\n        /* \"#utility.yul\":4916:4923   */\n      dup8\n        /* \"#utility.yul\":4912:4935   */\n      sub\n        /* \"#utility.yul\":4908:4940   */\n      slt\n        /* \"#utility.yul\":4905:5024   */\n      iszero\n      tag_139\n      jumpi\n        /* \"#utility.yul\":4943:5022   */\n      tag_140\n      tag_46\n      jump\t// in\n    tag_140:\n        /* \"#utility.yul\":4905:5024   */\n    tag_139:\n        /* \"#utility.yul\":5063:5064   */\n      0x00\n        /* \"#utility.yul\":5088:5141   */\n      tag_141\n        /* \"#utility.yul\":5133:5140   */\n      dup8\n        /* \"#utility.yul\":5124:5130   */\n      dup3\n        /* \"#utility.yul\":5113:5122   */\n      dup9\n        /* \"#utility.yul\":5109:5131   */\n      add\n        /* \"#utility.yul\":5088:5141   */\n      tag_55\n      jump\t// in\n    tag_141:\n        /* \"#utility.yul\":5078:5141   */\n      swap5\n      pop\n        /* \"#utility.yul\":5034:5151   */\n      pop\n        /* \"#utility.yul\":5218:5220   */\n      0x20\n        /* \"#utility.yul\":5207:5216   */\n      dup6\n        /* \"#utility.yul\":5203:5221   */\n      add\n        /* \"#utility.yul\":5190:5222   */\n      calldataload\n        /* \"#utility.yul\":5249:5267   */\n      0xffffffffffffffff\n        /* \"#utility.yul\":5241:5247   */\n      dup2\n        /* \"#utility.yul\":5238:5268   */\n      gt\n        /* \"#utility.yul\":5235:5352   */\n      iszero\n      tag_142\n      jumpi\n        /* \"#utility.yul\":5271:5350   */\n      tag_143\n      tag_47\n      jump\t// in\n    tag_143:\n        /* \"#utility.yul\":5235:5352   */\n    tag_142:\n        /* \"#utility.yul\":5384:5449   */\n      tag_144\n        /* \"#utility.yul\":5441:5448   */\n      dup8\n        /* \"#utility.yul\":5432:5438   */\n      dup3\n        /* \"#utility.yul\":5421:5430   */\n      dup9\n        /* \"#utility.yul\":5417:5439   */\n      add\n        /* \"#utility.yul\":5384:5449   */\n      tag_65\n      jump\t// in\n    tag_144:\n        /* \"#utility.yul\":5366:5449   */\n      swap4\n      pop\n      swap4\n      pop\n        /* \"#utility.yul\":5161:5459   */\n      pop\n        /* \"#utility.yul\":5498:5500   */\n      0x40\n        /* \"#utility.yul\":5524:5577   */\n      tag_145\n        /* \"#utility.yul\":5569:5576   */\n      dup8\n        /* \"#utility.yul\":5560:5566   */\n      dup3\n        /* \"#utility.yul\":5549:5558   */\n      dup9\n        /* \"#utility.yul\":5545:5567   */\n      add\n        /* \"#utility.yul\":5524:5577   */\n      tag_50\n      jump\t// in\n    tag_145:\n        /* \"#utility.yul\":5514:5577   */\n      swap2\n      pop\n        /* \"#utility.yul\":5469:5587   */\n      pop\n        /* \"#utility.yul\":4775:5594   */\n      swap3\n      swap6\n      swap2\n      swap5\n      pop\n      swap3\n      pop\n      jump\t// out\n        /* \"#utility.yul\":5600:5780   */\n    tag_66:\n        /* \"#utility.yul\":5648:5725   */\n      0x4e487b7100000000000000000000000000000000000000000000000000000000\n        /* \"#utility.yul\":5645:5646   */\n      0x00\n        /* \"#utility.yul\":5638:5726   */\n      mstore\n        /* \"#utility.yul\":5745:5749   */\n      0x22\n        /* \"#utility.yul\":5742:5743   */\n      0x04\n        /* \"#utility.yul\":5735:5750   */\n      mstore\n        /* \"#utility.yul\":5769:5773   */\n      0x24\n        /* \"#utility.yul\":5766:5767   */\n      0x00\n        /* \"#utility.yul\":5759:5774   */\n      revert\n        /* \"#utility.yul\":5786:6106   */\n    tag_27:\n        /* \"#utility.yul\":5830:5836   */\n      0x00\n        /* \"#utility.yul\":5867:5868   */\n      0x02\n        /* \"#utility.yul\":5861:5865   */\n      dup3\n        /* \"#utility.yul\":5857:5869   */\n      div\n        /* \"#utility.yul\":5847:5869   */\n      swap1\n      pop\n        /* \"#utility.yul\":5914:5915   */\n      0x01\n        /* \"#utility.yul\":5908:5912   */\n      dup3\n        /* \"#utility.yul\":5904:5916   */\n      and\n        /* \"#utility.yul\":5935:5953   */\n      dup1\n        /* \"#utility.yul\":5925:6006   */\n      tag_148\n      jumpi\n        /* \"#utility.yul\":5991:5995   */\n      0x7f\n        /* \"#utility.yul\":5983:5989   */\n      dup3\n        /* \"#utility.yul\":5979:5996   */\n      and\n        /* \"#utility.yul\":5969:5996   */\n      swap2\n      pop\n        /* \"#utility.yul\":5925:6006   */\n    tag_148:\n        /* \"#utility.yul\":6053:6055   */\n      0x20\n        /* \"#utility.yul\":6045:6051   */\n      dup3\n        /* \"#utility.yul\":6042:6056   */\n      lt\n        /* \"#utility.yul\":6022:6040   */\n      dup2\n        /* \"#utility.yul\":6019:6057   */\n      sub\n        /* \"#utility.yul\":6016:6100   */\n      tag_149\n      jumpi\n        /* \"#utility.yul\":6072:6090   */\n      tag_150\n      tag_66\n      jump\t// in\n    tag_150:\n        /* \"#utility.yul\":6016:6100   */\n    tag_149:\n        /* \"#utility.yul\":5837:6106   */\n      pop\n        /* \"#utility.yul\":5786:6106   */\n      swap2\n      swap1\n      pop\n      jump\t// out\n        /* \"#utility.yul\":6112:6292   */\n    tag_67:\n        /* \"#utility.yul\":6160:6237   */\n      0x4e487b7100000000000000000000000000000000000000000000000000000000\n        /* \"#utility.yul\":6157:6158   */\n      0x00\n        /* \"#utility.yul\":6150:6238   */\n      mstore\n        /* \"#utility.yul\":6257:6261   */\n      0x41\n        /* \"#utility.yul\":6254:6255   */\n      0x04\n        /* \"#utility.yul\":6247:6262   */\n      mstore\n        /* \"#utility.yul\":6281:6285   */\n      0x24\n        /* \"#utility.yul\":6278:6279   */\n      0x00\n        /* \"#utility.yul\":6271:6286   */\n      revert\n        /* \"#utility.yul\":6298:6439   */\n    tag_68:\n        /* \"#utility.yul\":6347:6351   */\n      0x00\n        /* \"#utility.yul\":6370:6373   */\n      dup2\n        /* \"#utility.yul\":6362:6373   */\n      swap1\n      pop\n        /* \"#utility.yul\":6393:6396   */\n      dup2\n        /* \"#utility.yul\":6390:6391   */\n      0x00\n        /* \"#utility.yul\":6383:6397   */\n      mstore\n        /* \"#utility.yul\":6427:6431   */\n      0x20\n        /* \"#utility.yul\":6424:6425   */\n      0x00\n        /* \"#utility.yul\":6414:6432   */\n      keccak256\n        /* \"#utility.yul\":6406:6432   */\n      swap1\n      pop\n        /* \"#utility.yul\":6298:6439   */\n      swap2\n      swap1\n      pop\n      jump\t// out\n        /* \"#utility.yul\":6445:6538   */\n    tag_69:\n        /* \"#utility.yul\":6482:6488   */\n      0x00\n        /* \"#utility.yul\":6529:6531   */\n      0x20\n        /* \"#utility.yul\":6524:6526   */\n      0x1f\n        /* \"#utility.yul\":6517:6522   */\n      dup4\n        /* \"#utility.yul\":6513:6527   */\n      add\n        /* \"#utility.yul\":6509:6532   */\n      div\n        /* \"#utility.yul\":6499:6532   */\n      swap1\n      pop\n        /* \"#utility.yul\":6445:6538   */\n      swap2\n      swap1\n      pop\n      jump\t// out\n        /* \"#utility.yul\":6544:6651   */\n    tag_70:\n        /* \"#utility.yul\":6588:6596   */\n      0x00\n        /* \"#utility.yul\":6638:6643   */\n      dup3\n        /* \"#utility.yul\":6632:6636   */\n      dup3\n        /* \"#utility.yul\":6628:6644   */\n      shl\n        /* \"#utility.yul\":6607:6644   */\n      swap1\n      pop\n        /* \"#utility.yul\":6544:6651   */\n      swap3\n      swap2\n      pop\n      pop\n      jump\t// out\n        /* \"#utility.yul\":6657:7050   */\n    tag_71:\n        /* \"#utility.yul\":6726:6732   */\n      0x00\n        /* \"#utility.yul\":6776:6777   */\n      0x08\n        /* \"#utility.yul\":6764:6774   */\n      dup4\n        /* \"#utility.yul\":6760:6778   */\n      mul\n        /* \"#utility.yul\":6799:6896   */\n      tag_156\n        /* \"#utility.yul\":6829:6895   */\n      0xffffffffffffffffffffffffffffffffffffffffffffffffffffffffffffffff\n        /* \"#utility.yul\":6818:6827   */\n      dup3\n        /* \"#utility.yul\":6799:6896   */\n      tag_70\n      jump\t// in\n    tag_156:\n        /* \"#utility.yul\":6917:6956   */\n      tag_157\n        /* \"#utility.yul\":6947:6955   */\n      dup7\n        /* \"#utility.yul\":6936:6945   */\n      dup4\n        /* \"#utility.yul\":6917:6956   */\n      tag_70\n      jump\t// in\n    tag_157:\n        /* \"#utility.yul\":6905:6956   */\n      swap6\n      pop\n        /* \"#utility.yul\":6989:6993   */\n      dup1\n        /* \"#utility.yul\":6985:6994   */\n      not\n        /* \"#utility.yul\":6978:6983   */\n      dup5\n        /* \"#utility.yul\":6974:6995   */\n      and\n        /* \"#utility.yul\":6965:6995   */\n      swap4\n      pop\n        /* \"#utility.yul\":7038:7042   */\n      dup1\n        /* \"#utility.yul\":7028:7036   */\n      dup7\n        /* \"#utility.yul\":7024:7043   */\n      and\n        /* \"#utility.yul\":7017:7022   */\n      dup5\n        /* \"#utility.yul\":7014:7044   */\n      or\n        /* \"#utility.yul\":7004:7044   */\n      swap3\n      pop\n        /* \"#utility.yul\":6733:7050   */\n      pop\n      pop\n        /* \"#utility.yul\":6657:7050   */\n      swap4\n      swap3\n      pop\n      pop\n      pop\n      jump\t// out\n        /* \"#utility.yul\":7056:7116   */\n    tag_72:\n        /* \"#utility.yul\":7084:7087   */\n      0x00\n        /* \"#utility.yul\":7105:7110   */\n      dup2\n        /* \"#utility.yul\":7098:7110   */\n      swap1\n      pop\n        /* \"#utility.yul\":7056:7116   */\n      swap2\n      swap1\n      pop\n      jump\t// out\n        /* \"#utility.yul\":7122:7264   */\n    tag_73:\n        /* \"#utility.yul\":7172:7181   */\n      0x00\n        /* \"#utility.yul\":7205:7258   */\n      tag_160\n        /* \"#utility.yul\":7223:7257   */\n      tag_161\n        /* \"#utility.yul\":7232:7256   */\n      tag_162\n        /* \"#utility.yul\":7250:7255   */\n      dup5\n        /* \"#utility.yul\":7232:7256   */\n      tag_48\n      jump\t// in\n    tag_162:\n        /* \"#utility.yul\":7223:7257   */\n      tag_72\n      jump\t// in\n    tag_161:\n        /* \"#utility.yul\":7205:7258   */\n      tag_48\n      jump\t// in\n    tag_160:\n        /* \"#utility.yul\":7192:7258   */\n      swap1\n      pop\n        /* \"#utility.yul\":7122:7264   */\n      swap2\n      swap1\n      pop\n      jump\t// out\n        /* \"#utility.yul\":7270:7345   */\n    tag_74:\n        /* \"#utility.yul\":7313:7316   */\n      0x00\n        /* \"#utility.yul\":7334:7339   */\n      dup2\n        /* \"#utility.yul\":7327:7339   */\n      swap1\n      pop\n        /* \"#utility.yul\":7270:7345   */\n      swap2\n      swap1\n      pop\n      jump\t// out\n        /* \"#utility.yul\":7351:7620   */\n    tag_75:\n        /* \"#utility.yul\":7461:7500   */\n      tag_165\n        /* \"#utility.yul\":7492:7499   */\n      dup4\n        /* \"#utility.yul\":7461:7500   */\n      tag_73\n      jump\t// in\n    tag_165:\n        /* \"#utility.yul\":7522:7613   */\n      tag_166\n        /* \"#utility.yul\":7571:7612   */\n      tag_167\n        /* \"#utility.yul\":7595:7611   */\n      dup3\n        /* \"#utility.yul\":7571:7612   */\n      tag_74\n      jump\t// in\n    tag_167:\n        /* \"#utility.yul\":7563:7569   */\n      dup5\n        /* \"#utility.yul\":7556:7560   */\n      dup5\n        /* \"#utility.yul\":7550:7561   */\n      sload\n        /* \"#utility.yul\":7522:7613   */\n      tag_71\n      jump\t// in\n    tag_166:\n        /* \"#utility.yul\":7516:7520   */\n      dup3\n        /* \"#utility.yul\":7509:7614   */\n      sstore\n        /* \"#utility.yul\":7427:7620   */\n      pop\n        /* \"#utility.yul\":7351:7620   */\n      pop\n      pop\n      pop\n      jump\t// out\n        /* \"#utility.yul\":7626:7699   */\n    tag_76:\n        /* \"#utility.yul\":7671:7674   */\n      0x00\n        /* \"#utility.yul\":7626:7699   */\n      swap1\n      jump\t// out\n        /* \"#utility.yul\":7705:7894   */\n    tag_77:\n        /* \"#utility.yul\":7782:7814   */\n      tag_170\n      tag_76\n      jump\t// in\n    tag_170:\n        /* \"#utility.yul\":7823:7888   */\n      tag_171\n        /* \"#utility.yul\":7881:7887   */\n      dup2\n        /* \"#utility.yul\":7873:7879   */\n      dup5\n        /* \"#utility.yul\":7867:7871   */\n      dup5\n        /* \"#utility.yul\":7823:7888   */\n      tag_75\n      jump\t// in\n    tag_171:\n        /* \"#utility.yul\":7758:7894   */\n      pop\n        /* \"#utility.yul\":7705:7894   */\n      pop\n      pop\n      jump\t// out\n        /* \"#utility.yul\":7900:8086   */\n    tag_78:\n        /* \"#utility.yul\":7960:8080   */\n    tag_173:\n        /* \"#utility.yul\":7977:7980   */\n      dup2\n        /* \"#utility.yul\":7970:7975   */\n      dup2\n        /* \"#utility.yul\":7967:7981   */\n      lt\n        /* \"#utility.yul\":7960:8080   */\n      iszero\n      tag_175\n      jumpi\n        /* \"#utility.yul\":8031:8070   */\n      tag_176\n        /* \"#utility.yul\":8068:8069   */\n      0x00\n        /* \"#utility.yul\":8061:8066   */\n      dup3\n        /* \"#utility.yul\":8031:8070   */\n      tag_77\n      jump\t// in\n    tag_176:\n        /* \"#utility.yul\":8004:8005   */\n      0x01\n        /* \"#utility.yul\":7997:8002   */\n      dup2\n        /* \"#utility.yul\":7993:8006   */\n      add\n        /* \"#utility.yul\":7984:8006   */\n      swap1\n      pop\n        /* \"#utility.yul\":7960:8080   */\n      jump(tag_173)\n    tag_175:\n        /* \"#utility.yul\":7900:8086   */\n      pop\n      pop\n      jump\t// out\n        /* \"#utility.yul\":8092:8635   */\n    tag_79:\n        /* \"#utility.yul\":8193:8195   */\n      0x1f\n        /* \"#utility.yul\":8188:8191   */\n      dup3\n        /* \"#utility.yul\":8185:8196   */\n      gt\n        /* \"#utility.yul\":8182:8628   */\n      iszero\n      tag_178\n      jumpi\n        /* \"#utility.yul\":8227:8265   */\n      tag_179\n        /* \"#utility.yul\":8259:8264   */\n      dup2\n        /* \"#utility.yul\":8227:8265   */\n      tag_68\n      jump\t// in\n    tag_179:\n        /* \"#utility.yul\":8311:8340   */\n      tag_180\n        /* \"#utility.yul\":8329:8339   */\n      dup5\n        /* \"#utility.yul\":8311:8340   */\n      tag_69\n      jump\t// in\n    tag_180:\n        /* \"#utility.yul\":8301:8309   */\n      dup2\n        /* \"#utility.yul\":8297:8341   */\n      add\n        /* \"#utility.yul\":8494:8496   */\n      0x20\n        /* \"#utility.yul\":8482:8492   */\n      dup6\n        /* \"#utility.yul\":8479:8497   */\n      lt\n        /* \"#utility.yul\":8476:8525   */\n      iszero\n      tag_181\n      jumpi\n        /* \"#utility.yul\":8515:8523   */\n      dup2\n        /* \"#utility.yul\":8500:8523   */\n      swap1\n      pop\n        /* \"#utility.yul\":8476:8525   */\n    tag_181:\n        /* \"#utility.yul\":8538:8618   */\n      tag_182\n        /* \"#utility.yul\":8594:8616   */\n      tag_183\n        /* \"#utility.yul\":8612:8615   */\n      dup6\n        /* \"#utility.yul\":8594:8616   */\n      tag_69\n      jump\t// in\n    tag_183:\n        /* \"#utility.yul\":8584:8592   */\n      dup4\n        /* \"#utility.yul\":8580:8617   */\n      add\n        /* \"#utility.yul\":8567:8578   */\n      dup3\n        /* \"#utility.yul\":8538:8618   */\n      tag_78\n      jump\t// in\n    tag_182:\n        /* \"#utility.yul\":8197:8628   */\n      pop\n      pop\n        /* \"#utility.yul\":8182:8628   */\n    tag_178:\n        /* \"#utility.yul\":8092:8635   */\n      pop\n      pop\n      pop\n      jump\t// out\n        /* \"#utility.yul\":8641:8758   */\n    tag_80:\n        /* \"#utility.yul\":8695:8703   */\n      0x00\n        /* \"#utility.yul\":8745:8750   */\n      dup3\n        /* \"#utility.yul\":8739:8743   */\n      dup3\n        /* \"#utility.yul\":8735:8751   */\n      shr\n        /* \"#utility.yul\":8714:8751   */\n      swap1\n      pop\n        /* \"#utility.yul\":8641:8758   */\n      swap3\n      swap2\n      pop\n      pop\n      jump\t// out\n        /* \"#utility.yul\":8764:8933   */\n    tag_81:\n        /* \"#utility.yul\":8808:8814   */\n      0x00\n        /* \"#utility.yul\":8841:8892   */\n      tag_186\n        /* \"#utility.yul\":8889:8890   */\n      0x00\n        /* \"#utility.yul\":8885:8891   */\n      not\n        /* \"#utility.yul\":8877:8882   */\n      dup5\n        /* \"#utility.yul\":8874:8875   */\n      0x08\n        /* \"#utility.yul\":8870:8883   */\n      mul\n        /* \"#utility.yul\":8841:8892   */\n      tag_80\n      jump\t// in\n    tag_186:\n        /* \"#utility.yul\":8837:8893   */\n      not\n        /* \"#utility.yul\":8922:8926   */\n      dup1\n        /* \"#utility.yul\":8916:8920   */\n      dup4\n        /* \"#utility.yul\":8912:8927   */\n      and\n        /* \"#utility.yul\":8902:8927   */\n      swap2\n      pop\n        /* \"#utility.yul\":8815:8933   */\n      pop\n        /* \"#utility.yul\":8764:8933   */\n      swap3\n      swap2\n      pop\n      pop\n      jump\t// out\n        /* \"#utility.yul\":8938:9233   */\n    tag_82:\n        /* \"#utility.yul\":9014:9018   */\n      0x00\n        /* \"#utility.yul\":9160:9189   */\n      tag_188\n        /* \"#utility.yul\":9185:9188   */\n      dup4\n        /* \"#utility.yul\":9179:9183   */\n      dup4\n        /* \"#utility.yul\":9160:9189   */\n      tag_81\n      jump\t// in\n    tag_188:\n        /* \"#utility.yul\":9152:9189   */\n      swap2\n      pop\n        /* \"#utility.yul\":9222:9225   */\n      dup3\n        /* \"#utility.yul\":9219:9220   */\n      0x02\n        /* \"#utility.yul\":9215:9226   */\n      mul\n        /* \"#utility.yul\":9209:9213   */\n      dup3\n        /* \"#utility.yul\":9206:9227   */\n      or\n        /* \"#utility.yul\":9198:9227   */\n      swap1\n      pop\n        /* \"#utility.yul\":8938:9233   */\n      swap3\n      swap2\n      pop\n      pop\n      jump\t// out\n        /* \"#utility.yul\":9238:10633   */\n    tag_35:\n        /* \"#utility.yul\":9355:9392   */\n      tag_190\n        /* \"#utility.yul\":9388:9391   */\n      dup3\n        /* \"#utility.yul\":9355:9392   */\n      tag_56\n      jump\t// in\n    tag_190:\n        /* \"#utility.yul\":9457:9475   */\n      0xffffffffffffffff\n        /* \"#utility.yul\":9449:9455   */\n      dup2\n        /* \"#utility.yul\":9446:9476   */\n      gt\n        /* \"#utility.yul\":9443:9499   */\n      iszero\n      tag_191\n      jumpi\n        /* \"#utility.yul\":9479:9497   */\n      tag_192\n      tag_67\n      jump\t// in\n    tag_192:\n        /* \"#utility.yul\":9443:9499   */\n    tag_191:\n        /* \"#utility.yul\":9523:9561   */\n      tag_193\n        /* \"#utility.yul\":9555:9559   */\n      dup3\n        /* \"#utility.yul\":9549:9560   */\n      sload\n        /* \"#utility.yul\":9523:9561   */\n      tag_27\n      jump\t// in\n    tag_193:\n        /* \"#utility.yul\":9608:9675   */\n      tag_194\n        /* \"#utility.yul\":9668:9674   */\n      dup3\n        /* \"#utility.yul\":9660:9666   */\n      dup3\n        /* \"#utility.yul\":9654:9658   */\n      dup6\n        /* \"#utility.yul\":9608:9675   */\n      tag_79\n      jump\t// in\n    tag_194:\n        /* \"#utility.yul\":9702:9703   */\n      0x00\n        /* \"#utility.yul\":9726:9730   */\n      0x20\n        /* \"#utility.yul\":9713:9730   */\n      swap1\n      pop\n        /* \"#utility.yul\":9758:9760   */\n      0x1f\n        /* \"#utility.yul\":9750:9756   */\n      dup4\n        /* \"#utility.yul\":9747:9761   */\n      gt\n        /* \"#utility.yul\":9775:9776   */\n      0x01\n        /* \"#utility.yul\":9770:10388   */\n      dup2\n      eq\n      tag_196\n      jumpi\n        /* \"#utility.yul\":10432:10433   */\n      0x00\n        /* \"#utility.yul\":10449:10455   */\n      dup5\n        /* \"#utility.yul\":10446:10523   */\n      iszero\n      tag_197\n      jumpi\n        /* \"#utility.yul\":10498:10507   */\n      dup3\n        /* \"#utility.yul\":10493:10496   */\n      dup8\n        /* \"#utility.yul\":10489:10508   */\n      add\n        /* \"#utility.yul\":10483:10509   */\n      mload\n        /* \"#utility.yul\":10474:10509   */\n      swap1\n      pop\n        /* \"#utility.yul\":10446:10523   */\n    tag_197:\n        /* \"#utility.yul\":10549:10616   */\n      tag_198\n        /* \"#utility.yul\":10609:10615   */\n      dup6\n        /* \"#utility.yul\":10602:10607   */\n      dup3\n        /* \"#utility.yul\":10549:10616   */\n      tag_82\n      jump\t// in\n    tag_198:\n        /* \"#utility.yul\":10543:10547   */\n      dup7\n        /* \"#utility.yul\":10536:10617   */\n      sstore\n        /* \"#utility.yul\":10405:10627   */\n      pop\n        /* \"#utility.yul\":9740:10627   */\n      jump(tag_195)\n        /* \"#utility.yul\":9770:10388   */\n    tag_196:\n        /* \"#utility.yul\":9822:9826   */\n      0x1f\n        /* \"#utility.yul\":9818:9827   */\n      not\n        /* \"#utility.yul\":9810:9816   */\n      dup5\n        /* \"#utility.yul\":9806:9828   */\n      and\n        /* \"#utility.yul\":9856:9893   */\n      tag_199\n        /* \"#utility.yul\":9888:9892   */\n      dup7\n        /* \"#utility.yul\":9856:9893   */\n      tag_68\n      jump\t// in\n    tag_199:\n        /* \"#utility.yul\":9915:9916   */\n      0x00\n        /* \"#utility.yul\":9929:10137   */\n    tag_200:\n        /* \"#utility.yul\":9943:9950   */\n      dup3\n        /* \"#utility.yul\":9940:9941   */\n      dup2\n        /* \"#utility.yul\":9937:9951   */\n      lt\n        /* \"#utility.yul\":9929:10137   */\n      iszero\n      tag_202\n      jumpi\n        /* \"#utility.yul\":10022:10031   */\n      dup5\n        /* \"#utility.yul\":10017:10020   */\n      dup10\n        /* \"#utility.yul\":10013:10032   */\n      add\n        /* \"#utility.yul\":10007:10033   */\n      mload\n        /* \"#utility.yul\":9999:10005   */\n      dup3\n        /* \"#utility.yul\":9992:10034   */\n      sstore\n        /* \"#utility.yul\":10073:10074   */\n      0x01\n        /* \"#utility.yul\":10065:10071   */\n      dup3\n        /* \"#utility.yul\":10061:10075   */\n      add\n        /* \"#utility.yul\":10051:10075   */\n      swap2\n      pop\n        /* \"#utility.yul\":10120:10122   */\n      0x20\n        /* \"#utility.yul\":10109:10118   */\n      dup6\n        /* \"#utility.yul\":10105:10123   */\n      add\n        /* \"#utility.yul\":10092:10123   */\n      swap5\n      pop\n        /* \"#utility.yul\":9966:9970   */\n      0x20\n        /* \"#utility.yul\":9963:9964   */\n      dup2\n        /* \"#utility.yul\":9959:9971   */\n      add\n        /* \"#utility.yul\":9954:9971   */\n      swap1\n      pop\n        /* \"#utility.yul\":9929:10137   */\n      jump(tag_200)\n    tag_202:\n        /* \"#utility.yul\":10165:10171   */\n      dup7\n        /* \"#utility.yul\":10156:10163   */\n      dup4\n        /* \"#utility.yul\":10153:10172   */\n      lt\n        /* \"#utility.yul\":10150:10329   */\n      iszero\n      tag_203\n      jumpi\n        /* \"#utility.yul\":10223:10232   */\n      dup5\n        /* \"#utility.yul\":10218:10221   */\n      dup10\n        /* \"#utility.yul\":10214:10233   */\n      add\n        /* \"#utility.yul\":10208:10234   */\n      mload\n        /* \"#utility.yul\":10266:10314   */\n      tag_204\n        /* \"#utility.yul\":10308:10312   */\n      0x1f\n        /* \"#utility.yul\":10300:10306   */\n      dup10\n        /* \"#utility.yul\":10296:10313   */\n      and\n        /* \"#utility.yul\":10285:10294   */\n      dup3\n        /* \"#utility.yul\":10266:10314   */\n      tag_81\n      jump\t// in\n    tag_204:\n        /* \"#utility.yul\":10258:10264   */\n      dup4\n        /* \"#utility.yul\":10251:10315   */\n      sstore\n        /* \"#utility.yul\":10173:10329   */\n      pop\n        /* \"#utility.yul\":10150:10329   */\n    tag_203:\n        /* \"#utility.yul\":10375:10376   */\n      0x01\n        /* \"#utility.yul\":10371:10372   */\n      0x02\n        /* \"#utility.yul\":10363:10369   */\n      dup9\n        /* \"#utility.yul\":10359:10373   */\n      mul\n        /* \"#utility.yul\":10355:10377   */\n      add\n        /* \"#utility.yul\":10349:10353   */\n      dup9\n        /* \"#utility.yul\":10342:10378   */\n      sstore\n        /* \"#utility.yul\":9777:10388   */\n      pop\n      pop\n      pop\n        /* \"#utility.yul\":9740:10627   */\n    tag_195:\n      pop\n        /* \"#utility.yul\":9330:10633   */\n      pop\n      pop\n      pop\n        /* \"#utility.yul\":9238:10633   */\n      pop\n      pop\n      jump\t// out\n        /* \"#utility.yul\":10639:10819   */\n    tag_41:\n        /* \"#utility.yul\":10687:10764   */\n      0x4e487b7100000000000000000000000000000000000000000000000000000000\n        /* \"#utility.yul\":10684:10685   */\n      0x00\n        /* \"#utility.yul\":10677:10765   */\n      mstore\n        /* \"#utility.yul\":10784:10788   */\n      0x32\n        /* \"#utility.yul\":10781:10782   */\n      0x04\n        /* \"#utility.yul\":10774:10789   */\n      mstore\n        /* \"#utility.yul\":10808:10812   */\n      0x24\n        /* \"#utility.yul\":10805:10806   */\n      0x00\n        /* \"#utility.yul\":10798:10813   */\n      revert\n\n    auxdata: 0xa26469706673582212204a53d2b59e2a8aa86c098ec4c89803936cbb23218f989b8c1aec5dbb5cdc61e364736f6c63430008190033\n}\n",
				"bytecode": {
					"linkReferences": {},
					"object": "6080604052348015600e575f80fd5b506109908061001c5f395ff3fe608060405234801561000f575f80fd5b506004361061003f575f3560e01c80630f310b17146100435780634081601b14610073578063fe6e9120146100a4575b5f80fd5b61005d600480360381019061005891906103cd565b6100c0565b60405161006a9190610437565b60405180910390f35b61008d6004803603810190610088919061047a565b6100fb565b60405161009b929190610537565b60405180910390f35b6100be60048036038101906100b991906105c6565b6101ba565b005b600181815481106100cf575f80fd5b905f5260205f20015f915054906101000a900473ffffffffffffffffffffffffffffffffffffffff1681565b5f602052815f5260405f208181548110610113575f80fd5b905f5260205f2090600202015f9150915050805f01805461013390610664565b80601f016020809104026020016040519081016040528092919081815260200182805461015f90610664565b80156101aa5780601f10610181576101008083540402835291602001916101aa565b820191905f5260205f20905b81548152906001019060200180831161018d57829003601f168201915b5050505050908060010154905082565b5f805f8673ffffffffffffffffffffffffffffffffffffffff1673ffffffffffffffffffffffffffffffffffffffff1681526020019081526020015f20905080604051806040016040528086868080601f0160208091040260200160405190810160405280939291908181526020018383808284375f81840152601f19601f82011690508083019250505050505050815260200184815250908060018154018082558091505060019003905f5260205f2090600202015f909190919091505f820151815f01908161028b919061085e565b506020820151816001015550505f5b600180549050811015610329578573ffffffffffffffffffffffffffffffffffffffff16600182815481106102d2576102d161092d565b5b905f5260205f20015f9054906101000a900473ffffffffffffffffffffffffffffffffffffffff1673ffffffffffffffffffffffffffffffffffffffff160361031c57505061038c565b808060010191505061029a565b50600185908060018154018082558091505060019003905f5260205f20015f9091909190916101000a81548173ffffffffffffffffffffffffffffffffffffffff021916908373ffffffffffffffffffffffffffffffffffffffff160217905550505b50505050565b5f80fd5b5f80fd5b5f819050919050565b6103ac8161039a565b81146103b6575f80fd5b50565b5f813590506103c7816103a3565b92915050565b5f602082840312156103e2576103e1610392565b5b5f6103ef848285016103b9565b91505092915050565b5f73ffffffffffffffffffffffffffffffffffffffff82169050919050565b5f610421826103f8565b9050919050565b61043181610417565b82525050565b5f60208201905061044a5f830184610428565b92915050565b61045981610417565b8114610463575f80fd5b50565b5f8135905061047481610450565b92915050565b5f80604083850312156104905761048f610392565b5b5f61049d85828601610466565b92505060206104ae858286016103b9565b9150509250929050565b5f81519050919050565b5f82825260208201905092915050565b8281835e5f83830152505050565b5f601f19601f8301169050919050565b5f6104fa826104b8565b61050481856104c2565b93506105148185602086016104d2565b61051d816104e0565b840191505092915050565b6105318161039a565b82525050565b5f6040820190508181035f83015261054f81856104f0565b905061055e6020830184610528565b9392505050565b5f80fd5b5f80fd5b5f80fd5b5f8083601f84011261058657610585610565565b5b8235905067ffffffffffffffff8111156105a3576105a2610569565b5b6020830191508360018202830111156105bf576105be61056d565b5b9250929050565b5f805f80606085870312156105de576105dd610392565b5b5f6105eb87828801610466565b945050602085013567ffffffffffffffff81111561060c5761060b610396565b5b61061887828801610571565b9350935050604061062b878288016103b9565b91505092959194509250565b7f4e487b71000000000000000000000000000000000000000000000000000000005f52602260045260245ffd5b5f600282049050600182168061067b57607f821691505b60208210810361068e5761068d610637565b5b50919050565b7f4e487b71000000000000000000000000000000000000000000000000000000005f52604160045260245ffd5b5f819050815f5260205f209050919050565b5f6020601f8301049050919050565b5f82821b905092915050565b5f6008830261071d7fffffffffffffffffffffffffffffffffffffffffffffffffffffffffffffffff826106e2565b61072786836106e2565b95508019841693508086168417925050509392505050565b5f819050919050565b5f61076261075d6107588461039a565b61073f565b61039a565b9050919050565b5f819050919050565b61077b83610748565b61078f61078782610769565b8484546106ee565b825550505050565b5f90565b6107a3610797565b6107ae818484610772565b505050565b5b818110156107d1576107c65f8261079b565b6001810190506107b4565b5050565b601f821115610816576107e7816106c1565b6107f0846106d3565b810160208510156107ff578190505b61081361080b856106d3565b8301826107b3565b50505b505050565b5f82821c905092915050565b5f6108365f198460080261081b565b1980831691505092915050565b5f61084e8383610827565b9150826002028217905092915050565b610867826104b8565b67ffffffffffffffff8111156108805761087f610694565b5b61088a8254610664565b6108958282856107d5565b5f60209050601f8311600181146108c6575f84156108b4578287015190505b6108be8582610843565b865550610925565b601f1984166108d4866106c1565b5f5b828110156108fb578489015182556001820191506020850194506020810190506108d6565b868310156109185784890151610914601f891682610827565b8355505b6001600288020188555050505b505050505050565b7f4e487b71000000000000000000000000000000000000000000000000000000005f52603260045260245ffdfea26469706673582212204a53d2b59e2a8aa86c098ec4c89803936cbb23218f989b8c1aec5dbb5cdc61e364736f6c63430008190033",
					"opcodes": "PUSH1 0x80 PUSH1 0x40 MSTORE CALLVALUE DUP1 ISZERO PUSH1 0xE JUMPI PUSH0 DUP1 REVERT JUMPDEST POP PUSH2 0x990 DUP1 PUSH2 0x1C PUSH0 CODECOPY PUSH0 RETURN INVALID PUSH1 0x80 PUSH1 0x40 MSTORE CALLVALUE DUP1 ISZERO PUSH2 0xF JUMPI PUSH0 DUP1 REVERT JUMPDEST POP PUSH1 0x4 CALLDATASIZE LT PUSH2 0x3F JUMPI PUSH0 CALLDATALOAD PUSH1 0xE0 SHR DUP1 PUSH4 0xF310B17 EQ PUSH2 0x43 JUMPI DUP1 PUSH4 0x4081601B EQ PUSH2 0x73 JUMPI DUP1 PUSH4 0xFE6E9120 EQ PUSH2 0xA4 JUMPI JUMPDEST PUSH0 DUP1 REVERT JUMPDEST PUSH2 0x5D PUSH1 0x4 DUP1 CALLDATASIZE SUB DUP2 ADD SWAP1 PUSH2 0x58 SWAP2 SWAP1 PUSH2 0x3CD JUMP JUMPDEST PUSH2 0xC0 JUMP JUMPDEST PUSH1 0x40 MLOAD PUSH2 0x6A SWAP2 SWAP1 PUSH2 0x437 JUMP JUMPDEST PUSH1 0x40 MLOAD DUP1 SWAP2 SUB SWAP1 RETURN JUMPDEST PUSH2 0x8D PUSH1 0x4 DUP1 CALLDATASIZE SUB DUP2 ADD SWAP1 PUSH2 0x88 SWAP2 SWAP1 PUSH2 0x47A JUMP JUMPDEST PUSH2 0xFB JUMP JUMPDEST PUSH1 0x40 MLOAD PUSH2 0x9B SWAP3 SWAP2 SWAP1 PUSH2 0x537 JUMP JUMPDEST PUSH1 0x40 MLOAD DUP1 SWAP2 SUB SWAP1 RETURN JUMPDEST PUSH2 0xBE PUSH1 0x4 DUP1 CALLDATASIZE SUB DUP2 ADD SWAP1 PUSH2 0xB9 SWAP2 SWAP1 PUSH2 0x5C6 JUMP JUMPDEST PUSH2 0x1BA JUMP JUMPDEST STOP JUMPDEST PUSH1 0x1 DUP2 DUP2 SLOAD DUP2 LT PUSH2 0xCF JUMPI PUSH0 DUP1 REVERT JUMPDEST SWAP1 PUSH0 MSTORE PUSH1 0x20 PUSH0 KECCAK256 ADD PUSH0 SWAP2 POP SLOAD SWAP1 PUSH2 0x100 EXP SWAP1 DIV PUSH20 0xFFFFFFFFFFFFFFFFFFFFFFFFFFFFFFFFFFFFFFFF AND DUP2 JUMP JUMPDEST PUSH0 PUSH1 0x20 MSTORE DUP2 PUSH0 MSTORE PUSH1 0x40 PUSH0 KECCAK256 DUP2 DUP2 SLOAD DUP2 LT PUSH2 0x113 JUMPI PUSH0 DUP1 REVERT JUMPDEST SWAP1 PUSH0 MSTORE PUSH1 0x20 PUSH0 KECCAK256 SWAP1 PUSH1 0x2 MUL ADD PUSH0 SWAP2 POP SWAP2 POP POP DUP1 PUSH0 ADD DUP1 SLOAD PUSH2 0x133 SWAP1 PUSH2 0x664 JUMP JUMPDEST DUP1 PUSH1 0x1F ADD PUSH1 0x20 DUP1 SWAP2 DIV MUL PUSH1 0x20 ADD PUSH1 0x40 MLOAD SWAP1 DUP2 ADD PUSH1 0x40 MSTORE DUP1 SWAP3 SWAP2 SWAP1 DUP2 DUP2 MSTORE PUSH1 0x20 ADD DUP3 DUP1 SLOAD PUSH2 0x15F SWAP1 PUSH2 0x664 JUMP JUMPDEST DUP1 ISZERO PUSH2 0x1AA JUMPI DUP1 PUSH1 0x1F LT PUSH2 0x181 JUMPI PUSH2 0x100 DUP1 DUP4 SLOAD DIV MUL DUP4 MSTORE SWAP2 PUSH1 0x20 ADD SWAP2 PUSH2 0x1AA JUMP JUMPDEST DUP3 ADD SWAP2 SWAP1 PUSH0 MSTORE PUSH1 0x20 PUSH0 KECCAK256 SWAP1 JUMPDEST DUP2 SLOAD DUP2 MSTORE SWAP1 PUSH1 0x1 ADD SWAP1 PUSH1 0x20 ADD DUP1 DUP4 GT PUSH2 0x18D JUMPI DUP3 SWAP1 SUB PUSH1 0x1F AND DUP3 ADD SWAP2 JUMPDEST POP POP POP POP POP SWAP1 DUP1 PUSH1 0x1 ADD SLOAD SWAP1 POP DUP3 JUMP JUMPDEST PUSH0 DUP1 PUSH0 DUP7 PUSH20 0xFFFFFFFFFFFFFFFFFFFFFFFFFFFFFFFFFFFFFFFF AND PUSH20 0xFFFFFFFFFFFFFFFFFFFFFFFFFFFFFFFFFFFFFFFF AND DUP2 MSTORE PUSH1 0x20 ADD SWAP1 DUP2 MSTORE PUSH1 0x20 ADD PUSH0 KECCAK256 SWAP1 POP DUP1 PUSH1 0x40 MLOAD DUP1 PUSH1 0x40 ADD PUSH1 0x40 MSTORE DUP1 DUP7 DUP7 DUP1 DUP1 PUSH1 0x1F ADD PUSH1 0x20 DUP1 SWAP2 DIV MUL PUSH1 0x20 ADD PUSH1 0x40 MLOAD SWAP1 DUP2 ADD PUSH1 0x40 MSTORE DUP1 SWAP4 SWAP3 SWAP2 SWAP1 DUP2 DUP2 MSTORE PUSH1 0x20 ADD DUP4 DUP4 DUP1 DUP3 DUP5 CALLDATACOPY PUSH0 DUP2 DUP5 ADD MSTORE PUSH1 0x1F NOT PUSH1 0x1F DUP3 ADD AND SWAP1 POP DUP1 DUP4 ADD SWAP3 POP POP POP POP POP POP POP DUP2 MSTORE PUSH1 0x20 ADD DUP5 DUP2 MSTORE POP SWAP1 DUP1 PUSH1 0x1 DUP2 SLOAD ADD DUP1 DUP3 SSTORE DUP1 SWAP2 POP POP PUSH1 0x1 SWAP1 SUB SWAP1 PUSH0 MSTORE PUSH1 0x20 PUSH0 KECCAK256 SWAP1 PUSH1 0x2 MUL ADD PUSH0 SWAP1 SWAP2 SWAP1 SWAP2 SWAP1 SWAP2 POP PUSH0 DUP3 ADD MLOAD DUP2 PUSH0 ADD SWAP1 DUP2 PUSH2 0x28B SWAP2 SWAP1 PUSH2 0x85E JUMP JUMPDEST POP PUSH1 0x20 DUP3 ADD MLOAD DUP2 PUSH1 0x1 ADD SSTORE POP POP PUSH0 JUMPDEST PUSH1 0x1 DUP1 SLOAD SWAP1 POP DUP2 LT ISZERO PUSH2 0x329 JUMPI DUP6 PUSH20 0xFFFFFFFFFFFFFFFFFFFFFFFFFFFFFFFFFFFFFFFF AND PUSH1 0x1 DUP3 DUP2 SLOAD DUP2 LT PUSH2 0x2D2 JUMPI PUSH2 0x2D1 PUSH2 0x92D JUMP JUMPDEST JUMPDEST SWAP1 PUSH0 MSTORE PUSH1 0x20 PUSH0 KECCAK256 ADD PUSH0 SWAP1 SLOAD SWAP1 PUSH2 0x100 EXP SWAP1 DIV PUSH20 0xFFFFFFFFFFFFFFFFFFFFFFFFFFFFFFFFFFFFFFFF AND PUSH20 0xFFFFFFFFFFFFFFFFFFFFFFFFFFFFFFFFFFFFFFFF AND SUB PUSH2 0x31C JUMPI POP POP PUSH2 0x38C JUMP JUMPDEST DUP1 DUP1 PUSH1 0x1 ADD SWAP2 POP POP PUSH2 0x29A JUMP JUMPDEST POP PUSH1 0x1 DUP6 SWAP1 DUP1 PUSH1 0x1 DUP2 SLOAD ADD DUP1 DUP3 SSTORE DUP1 SWAP2 POP POP PUSH1 0x1 SWAP1 SUB SWAP1 PUSH0 MSTORE PUSH1 0x20 PUSH0 KECCAK256 ADD PUSH0 SWAP1 SWAP2 SWAP1 SWAP2 SWAP1 SWAP2 PUSH2 0x100 EXP DUP2 SLOAD DUP2 PUSH20 0xFFFFFFFFFFFFFFFFFFFFFFFFFFFFFFFFFFFFFFFF MUL NOT AND SWAP1 DUP4 PUSH20 0xFFFFFFFFFFFFFFFFFFFFFFFFFFFFFFFFFFFFFFFF AND MUL OR SWAP1 SSTORE POP POP JUMPDEST POP POP POP POP JUMP JUMPDEST PUSH0 DUP1 REVERT JUMPDEST PUSH0 DUP1 REVERT JUMPDEST PUSH0 DUP2 SWAP1 POP SWAP2 SWAP1 POP JUMP JUMPDEST PUSH2 0x3AC DUP2 PUSH2 0x39A JUMP JUMPDEST DUP2 EQ PUSH2 0x3B6 JUMPI PUSH0 DUP1 REVERT JUMPDEST POP JUMP JUMPDEST PUSH0 DUP2 CALLDATALOAD SWAP1 POP PUSH2 0x3C7 DUP2 PUSH2 0x3A3 JUMP JUMPDEST SWAP3 SWAP2 POP POP JUMP JUMPDEST PUSH0 PUSH1 0x20 DUP3 DUP5 SUB SLT ISZERO PUSH2 0x3E2 JUMPI PUSH2 0x3E1 PUSH2 0x392 JUMP JUMPDEST JUMPDEST PUSH0 PUSH2 0x3EF DUP5 DUP3 DUP6 ADD PUSH2 0x3B9 JUMP JUMPDEST SWAP2 POP POP SWAP3 SWAP2 POP POP JUMP JUMPDEST PUSH0 PUSH20 0xFFFFFFFFFFFFFFFFFFFFFFFFFFFFFFFFFFFFFFFF DUP3 AND SWAP1 POP SWAP2 SWAP1 POP JUMP JUMPDEST PUSH0 PUSH2 0x421 DUP3 PUSH2 0x3F8 JUMP JUMPDEST SWAP1 POP SWAP2 SWAP1 POP JUMP JUMPDEST PUSH2 0x431 DUP2 PUSH2 0x417 JUMP JUMPDEST DUP3 MSTORE POP POP JUMP JUMPDEST PUSH0 PUSH1 0x20 DUP3 ADD SWAP1 POP PUSH2 0x44A PUSH0 DUP4 ADD DUP5 PUSH2 0x428 JUMP JUMPDEST SWAP3 SWAP2 POP POP JUMP JUMPDEST PUSH2 0x459 DUP2 PUSH2 0x417 JUMP JUMPDEST DUP2 EQ PUSH2 0x463 JUMPI PUSH0 DUP1 REVERT JUMPDEST POP JUMP JUMPDEST PUSH0 DUP2 CALLDATALOAD SWAP1 POP PUSH2 0x474 DUP2 PUSH2 0x450 JUMP JUMPDEST SWAP3 SWAP2 POP POP JUMP JUMPDEST PUSH0 DUP1 PUSH1 0x40 DUP4 DUP6 SUB SLT ISZERO PUSH2 0x490 JUMPI PUSH2 0x48F PUSH2 0x392 JUMP JUMPDEST JUMPDEST PUSH0 PUSH2 0x49D DUP6 DUP3 DUP7 ADD PUSH2 0x466 JUMP JUMPDEST SWAP3 POP POP PUSH1 0x20 PUSH2 0x4AE DUP6 DUP3 DUP7 ADD PUSH2 0x3B9 JUMP JUMPDEST SWAP2 POP POP SWAP3 POP SWAP3 SWAP1 POP JUMP JUMPDEST PUSH0 DUP2 MLOAD SWAP1 POP SWAP2 SWAP1 POP JUMP JUMPDEST PUSH0 DUP3 DUP3 MSTORE PUSH1 0x20 DUP3 ADD SWAP1 POP SWAP3 SWAP2 POP POP JUMP JUMPDEST DUP3 DUP2 DUP4 MCOPY PUSH0 DUP4 DUP4 ADD MSTORE POP POP POP JUMP JUMPDEST PUSH0 PUSH1 0x1F NOT PUSH1 0x1F DUP4 ADD AND SWAP1 POP SWAP2 SWAP1 POP JUMP JUMPDEST PUSH0 PUSH2 0x4FA DUP3 PUSH2 0x4B8 JUMP JUMPDEST PUSH2 0x504 DUP2 DUP6 PUSH2 0x4C2 JUMP JUMPDEST SWAP4 POP PUSH2 0x514 DUP2 DUP6 PUSH1 0x20 DUP7 ADD PUSH2 0x4D2 JUMP JUMPDEST PUSH2 0x51D DUP2 PUSH2 0x4E0 JUMP JUMPDEST DUP5 ADD SWAP2 POP POP SWAP3 SWAP2 POP POP JUMP JUMPDEST PUSH2 0x531 DUP2 PUSH2 0x39A JUMP JUMPDEST DUP3 MSTORE POP POP JUMP JUMPDEST PUSH0 PUSH1 0x40 DUP3 ADD SWAP1 POP DUP2 DUP2 SUB PUSH0 DUP4 ADD MSTORE PUSH2 0x54F DUP2 DUP6 PUSH2 0x4F0 JUMP JUMPDEST SWAP1 POP PUSH2 0x55E PUSH1 0x20 DUP4 ADD DUP5 PUSH2 0x528 JUMP JUMPDEST SWAP4 SWAP3 POP POP POP JUMP JUMPDEST PUSH0 DUP1 REVERT JUMPDEST PUSH0 DUP1 REVERT JUMPDEST PUSH0 DUP1 REVERT JUMPDEST PUSH0 DUP1 DUP4 PUSH1 0x1F DUP5 ADD SLT PUSH2 0x586 JUMPI PUSH2 0x585 PUSH2 0x565 JUMP JUMPDEST JUMPDEST DUP3 CALLDATALOAD SWAP1 POP PUSH8 0xFFFFFFFFFFFFFFFF DUP2 GT ISZERO PUSH2 0x5A3 JUMPI PUSH2 0x5A2 PUSH2 0x569 JUMP JUMPDEST JUMPDEST PUSH1 0x20 DUP4 ADD SWAP2 POP DUP4 PUSH1 0x1 DUP3 MUL DUP4 ADD GT ISZERO PUSH2 0x5BF JUMPI PUSH2 0x5BE PUSH2 0x56D JUMP JUMPDEST JUMPDEST SWAP3 POP SWAP3 SWAP1 POP JUMP JUMPDEST PUSH0 DUP1 PUSH0 DUP1 PUSH1 0x60 DUP6 DUP8 SUB SLT ISZERO PUSH2 0x5DE JUMPI PUSH2 0x5DD PUSH2 0x392 JUMP JUMPDEST JUMPDEST PUSH0 PUSH2 0x5EB DUP8 DUP3 DUP9 ADD PUSH2 0x466 JUMP JUMPDEST SWAP5 POP POP PUSH1 0x20 DUP6 ADD CALLDATALOAD PUSH8 0xFFFFFFFFFFFFFFFF DUP2 GT ISZERO PUSH2 0x60C JUMPI PUSH2 0x60B PUSH2 0x396 JUMP JUMPDEST JUMPDEST PUSH2 0x618 DUP8 DUP3 DUP9 ADD PUSH2 0x571 JUMP JUMPDEST SWAP4 POP SWAP4 POP POP PUSH1 0x40 PUSH2 0x62B DUP8 DUP3 DUP9 ADD PUSH2 0x3B9 JUMP JUMPDEST SWAP2 POP POP SWAP3 SWAP6 SWAP2 SWAP5 POP SWAP3 POP JUMP JUMPDEST PUSH32 0x4E487B7100000000000000000000000000000000000000000000000000000000 PUSH0 MSTORE PUSH1 0x22 PUSH1 0x4 MSTORE PUSH1 0x24 PUSH0 REVERT JUMPDEST PUSH0 PUSH1 0x2 DUP3 DIV SWAP1 POP PUSH1 0x1 DUP3 AND DUP1 PUSH2 0x67B JUMPI PUSH1 0x7F DUP3 AND SWAP2 POP JUMPDEST PUSH1 0x20 DUP3 LT DUP2 SUB PUSH2 0x68E JUMPI PUSH2 0x68D PUSH2 0x637 JUMP JUMPDEST JUMPDEST POP SWAP2 SWAP1 POP JUMP JUMPDEST PUSH32 0x4E487B7100000000000000000000000000000000000000000000000000000000 PUSH0 MSTORE PUSH1 0x41 PUSH1 0x4 MSTORE PUSH1 0x24 PUSH0 REVERT JUMPDEST PUSH0 DUP2 SWAP1 POP DUP2 PUSH0 MSTORE PUSH1 0x20 PUSH0 KECCAK256 SWAP1 POP SWAP2 SWAP1 POP JUMP JUMPDEST PUSH0 PUSH1 0x20 PUSH1 0x1F DUP4 ADD DIV SWAP1 POP SWAP2 SWAP1 POP JUMP JUMPDEST PUSH0 DUP3 DUP3 SHL SWAP1 POP SWAP3 SWAP2 POP POP JUMP JUMPDEST PUSH0 PUSH1 0x8 DUP4 MUL PUSH2 0x71D PUSH32 0xFFFFFFFFFFFFFFFFFFFFFFFFFFFFFFFFFFFFFFFFFFFFFFFFFFFFFFFFFFFFFFFF DUP3 PUSH2 0x6E2 JUMP JUMPDEST PUSH2 0x727 DUP7 DUP4 PUSH2 0x6E2 JUMP JUMPDEST SWAP6 POP DUP1 NOT DUP5 AND SWAP4 POP DUP1 DUP7 AND DUP5 OR SWAP3 POP POP POP SWAP4 SWAP3 POP POP POP JUMP JUMPDEST PUSH0 DUP2 SWAP1 POP SWAP2 SWAP1 POP JUMP JUMPDEST PUSH0 PUSH2 0x762 PUSH2 0x75D PUSH2 0x758 DUP5 PUSH2 0x39A JUMP JUMPDEST PUSH2 0x73F JUMP JUMPDEST PUSH2 0x39A JUMP JUMPDEST SWAP1 POP SWAP2 SWAP1 POP JUMP JUMPDEST PUSH0 DUP2 SWAP1 POP SWAP2 SWAP1 POP JUMP JUMPDEST PUSH2 0x77B DUP4 PUSH2 0x748 JUMP JUMPDEST PUSH2 0x78F PUSH2 0x787 DUP3 PUSH2 0x769 JUMP JUMPDEST DUP5 DUP5 SLOAD PUSH2 0x6EE JUMP JUMPDEST DUP3 SSTORE POP POP POP POP JUMP JUMPDEST PUSH0 SWAP1 JUMP JUMPDEST PUSH2 0x7A3 PUSH2 0x797 JUMP JUMPDEST PUSH2 0x7AE DUP2 DUP5 DUP5 PUSH2 0x772 JUMP JUMPDEST POP POP POP JUMP JUMPDEST JUMPDEST DUP2 DUP2 LT ISZERO PUSH2 0x7D1 JUMPI PUSH2 0x7C6 PUSH0 DUP3 PUSH2 0x79B JUMP JUMPDEST PUSH1 0x1 DUP2 ADD SWAP1 POP PUSH2 0x7B4 JUMP JUMPDEST POP POP JUMP JUMPDEST PUSH1 0x1F DUP3 GT ISZERO PUSH2 0x816 JUMPI PUSH2 0x7E7 DUP2 PUSH2 0x6C1 JUMP JUMPDEST PUSH2 0x7F0 DUP5 PUSH2 0x6D3 JUMP JUMPDEST DUP2 ADD PUSH1 0x20 DUP6 LT ISZERO PUSH2 0x7FF JUMPI DUP2 SWAP1 POP JUMPDEST PUSH2 0x813 PUSH2 0x80B DUP6 PUSH2 0x6D3 JUMP JUMPDEST DUP4 ADD DUP3 PUSH2 0x7B3 JUMP JUMPDEST POP POP JUMPDEST POP POP POP JUMP JUMPDEST PUSH0 DUP3 DUP3 SHR SWAP1 POP SWAP3 SWAP2 POP POP JUMP JUMPDEST PUSH0 PUSH2 0x836 PUSH0 NOT DUP5 PUSH1 0x8 MUL PUSH2 0x81B JUMP JUMPDEST NOT DUP1 DUP4 AND SWAP2 POP POP SWAP3 SWAP2 POP POP JUMP JUMPDEST PUSH0 PUSH2 0x84E DUP4 DUP4 PUSH2 0x827 JUMP JUMPDEST SWAP2 POP DUP3 PUSH1 0x2 MUL DUP3 OR SWAP1 POP SWAP3 SWAP2 POP POP JUMP JUMPDEST PUSH2 0x867 DUP3 PUSH2 0x4B8 JUMP JUMPDEST PUSH8 0xFFFFFFFFFFFFFFFF DUP2 GT ISZERO PUSH2 0x880 JUMPI PUSH2 0x87F PUSH2 0x694 JUMP JUMPDEST JUMPDEST PUSH2 0x88A DUP3 SLOAD PUSH2 0x664 JUMP JUMPDEST PUSH2 0x895 DUP3 DUP3 DUP6 PUSH2 0x7D5 JUMP JUMPDEST PUSH0 PUSH1 0x20 SWAP1 POP PUSH1 0x1F DUP4 GT PUSH1 0x1 DUP2 EQ PUSH2 0x8C6 JUMPI PUSH0 DUP5 ISZERO PUSH2 0x8B4 JUMPI DUP3 DUP8 ADD MLOAD SWAP1 POP JUMPDEST PUSH2 0x8BE DUP6 DUP3 PUSH2 0x843 JUMP JUMPDEST DUP7 SSTORE POP PUSH2 0x925 JUMP JUMPDEST PUSH1 0x1F NOT DUP5 AND PUSH2 0x8D4 DUP7 PUSH2 0x6C1 JUMP JUMPDEST PUSH0 JUMPDEST DUP3 DUP2 LT ISZERO PUSH2 0x8FB JUMPI DUP5 DUP10 ADD MLOAD DUP3 SSTORE PUSH1 0x1 DUP3 ADD SWAP2 POP PUSH1 0x20 DUP6 ADD SWAP5 POP PUSH1 0x20 DUP2 ADD SWAP1 POP PUSH2 0x8D6 JUMP JUMPDEST DUP7 DUP4 LT ISZERO PUSH2 0x918 JUMPI DUP5 DUP10 ADD MLOAD PUSH2 0x914 PUSH1 0x1F DUP10 AND DUP3 PUSH2 0x827 JUMP JUMPDEST DUP4 SSTORE POP JUMPDEST PUSH1 0x1 PUSH1 0x2 DUP9 MUL ADD DUP9 SSTORE POP POP POP JUMPDEST POP POP POP POP POP POP JUMP JUMPDEST PUSH32 0x4E487B7100000000000000000000000000000000000000000000000000000000 PUSH0 MSTORE PUSH1 0x32 PUSH1 0x4 MSTORE PUSH1 0x24 PUSH0 REVERT INVALID LOG2 PUSH5 0x6970667358 0x22 SLT KECCAK256 BLOBBASEFEE MSTORE8 0xD2 0xB5 SWAP15 0x2A DUP11 0xA8 PUSH13 0x98EC4C89803936CBB23218F98 SWAP12 DUP13 BYTE 0xEC TSTORE 0xBB TLOAD 0xDC PUSH2 0xE364 PUSH20 0x6F6C634300081900330000000000000000000000 "
				},
				"gasEstimates": {
					"creation": {
						"codeDepositCost": "489600",
						"executionCost": "522",
						"totalCost": "490122"
					},
					"external": {
						"_createPerson(address,string,uint256)": "infinite",
						"ownerAddresses(uint256)": "4922",
						"peopleMap(address,uint256)": "infinite"
					}
				},
				"methodIdentifiers": {
					"_createPerson(address,string,uint256)": "fe6e9120",
					"ownerAddresses(uint256)": "0f310b17",
					"peopleMap(address,uint256)": "4081601b"
				}
			},
			"storageLayout": {
				"storage": [
					{
						"astId": 787,
						"contract": "contracts/SimpleStorage.sol:SimpleStorage",
						"label": "peopleMap",
						"offset": 0,
						"slot": "0",
						"type": "t_mapping(t_address,t_array(t_struct(Person)915_storage)dyn_storage)"
					},
					{
						"astId": 790,
						"contract": "contracts/SimpleStorage.sol:SimpleStorage",
						"label": "ownerAddresses",
						"offset": 0,
						"slot": "1",
						"type": "t_array(t_address)dyn_storage"
					}
				],
				"types": {
					"t_address": {
						"encoding": "inplace",
						"label": "address",
						"numberOfBytes": "20"
					},
					"t_array(t_address)dyn_storage": {
						"base": "t_address",
						"encoding": "dynamic_array",
						"label": "address[]",
						"numberOfBytes": "32"
					},
					"t_array(t_struct(Person)915_storage)dyn_storage": {
						"base": "t_struct(Person)915_storage",
						"encoding": "dynamic_array",
						"label": "struct Person[]",
						"numberOfBytes": "32"
					},
					"t_mapping(t_address,t_array(t_struct(Person)915_storage)dyn_storage)": {
						"encoding": "mapping",
						"key": "t_address",
						"label": "mapping(address => struct Person[])",
						"numberOfBytes": "32",
						"value": "t_array(t_struct(Person)915_storage)dyn_storage"
					},
					"t_string_storage": {
						"encoding": "bytes",
						"label": "string",
						"numberOfBytes": "32"
					},
					"t_struct(Person)915_storage": {
						"encoding": "inplace",
						"label": "struct Person",
						"members": [
							{
								"astId": 912,
								"contract": "contracts/SimpleStorage.sol:SimpleStorage",
								"label": "name",
								"offset": 0,
								"slot": "0",
								"type": "t_string_storage"
							},
							{
								"astId": 914,
								"contract": "contracts/SimpleStorage.sol:SimpleStorage",
								"label": "favouriteNumber",
								"offset": 0,
								"slot": "1",
								"type": "t_uint256"
							}
						],
						"numberOfBytes": "64"
					},
					"t_uint256": {
						"encoding": "inplace",
						"label": "uint256",
						"numberOfBytes": "32"
					}
				}
			},
			"userdoc": {
				"kind": "user",
				"methods": {},
				"version": 1
			}
		}
	}
}