{
  "_format": "hh-sol-artifact-1",
  "contractName": "FundMe",
  "sourceName": "contracts/FundMe.sol",
  "abi": [
    {
      "inputs": [
        {
          "internalType": "uint256",
          "name": "_fundAmount",
          "type": "uint256"
        }
      ],
      "stateMutability": "nonpayable",
      "type": "constructor"
    },
    {
      "inputs": [],
      "name": "FailedTransaction",
      "type": "error"
    },
    {
      "inputs": [],
      "name": "InsufficientFunds",
      "type": "error"
    },
    {
      "inputs": [],
      "name": "InvalidRefund",
      "type": "error"
    },
    {
      "inputs": [
        {
          "internalType": "address",
          "name": "owner",
          "type": "address"
        }
      ],
      "name": "OwnableInvalidOwner",
      "type": "error"
    },
    {
      "inputs": [
        {
          "internalType": "address",
          "name": "account",
          "type": "address"
        }
      ],
      "name": "OwnableUnauthorizedAccount",
      "type": "error"
    },
    {
      "anonymous": false,
      "inputs": [
        {
          "indexed": true,
          "internalType": "address",
          "name": "previousOwner",
          "type": "address"
        },
        {
          "indexed": true,
          "internalType": "address",
          "name": "newOwner",
          "type": "address"
        }
      ],
      "name": "OwnershipTransferred",
      "type": "event"
    },
    {
      "anonymous": false,
      "inputs": [
        {
          "indexed": true,
          "internalType": "address",
          "name": "payer",
          "type": "address"
        },
        {
          "indexed": false,
          "internalType": "uint256",
          "name": "amount",
          "type": "uint256"
        }
      ],
      "name": "funded",
      "type": "event"
    },
    {
      "inputs": [],
      "name": "fund",
      "outputs": [],
      "stateMutability": "payable",
      "type": "function"
    },
    {
      "inputs": [],
      "name": "fundAmount",
      "outputs": [
        {
          "internalType": "uint256",
          "name": "",
          "type": "uint256"
        }
      ],
      "stateMutability": "view",
      "type": "function"
    },
    {
      "inputs": [],
      "name": "owner",
      "outputs": [
        {
          "internalType": "address",
          "name": "",
          "type": "address"
        }
      ],
      "stateMutability": "view",
      "type": "function"
    },
    {
      "inputs": [
        {
          "internalType": "uint256",
          "name": "",
          "type": "uint256"
        }
      ],
      "name": "payerAddresses",
      "outputs": [
        {
          "internalType": "address",
          "name": "",
          "type": "address"
        }
      ],
      "stateMutability": "view",
      "type": "function"
    },
    {
      "inputs": [
        {
          "internalType": "address",
          "name": "",
          "type": "address"
        }
      ],
      "name": "payerAmountMapping",
      "outputs": [
        {
          "internalType": "uint256",
          "name": "",
          "type": "uint256"
        }
      ],
      "stateMutability": "view",
      "type": "function"
    },
    {
      "inputs": [
        {
          "internalType": "address payable",
          "name": "_refundAddress",
          "type": "address"
        }
      ],
      "name": "refund",
      "outputs": [],
      "stateMutability": "nonpayable",
      "type": "function"
    },
    {
      "inputs": [],
      "name": "renounceOwnership",
      "outputs": [],
      "stateMutability": "nonpayable",
      "type": "function"
    },
    {
      "inputs": [
        {
          "internalType": "uint256",
          "name": "_value",
          "type": "uint256"
        }
      ],
      "name": "setFundAmount",
      "outputs": [],
      "stateMutability": "nonpayable",
      "type": "function"
    },
    {
      "inputs": [
        {
          "internalType": "address",
          "name": "newOwner",
          "type": "address"
        }
      ],
      "name": "transferOwnership",
      "outputs": [],
      "stateMutability": "nonpayable",
      "type": "function"
    },
    {
      "inputs": [],
      "name": "withdraw",
      "outputs": [],
      "stateMutability": "nonpayable",
      "type": "function"
    }
  ],
  "bytecode": "0x608060405234801561001057600080fd5b5060405161130d38038061130d833981810160405281019061003291906101c1565b33600073ffffffffffffffffffffffffffffffffffffffff168173ffffffffffffffffffffffffffffffffffffffff16036100a55760006040517f1e4fbdf700000000000000000000000000000000000000000000000000000000815260040161009c919061022f565b60405180910390fd5b6100b4816100c260201b60201c565b50806003819055505061024a565b60008060009054906101000a900473ffffffffffffffffffffffffffffffffffffffff169050816000806101000a81548173ffffffffffffffffffffffffffffffffffffffff021916908373ffffffffffffffffffffffffffffffffffffffff1602179055508173ffffffffffffffffffffffffffffffffffffffff168173ffffffffffffffffffffffffffffffffffffffff167f8be0079c531659141344cd1fd0a4f28419497f9722a3daafe3b4186f6b6457e060405160405180910390a35050565b600080fd5b6000819050919050565b61019e8161018b565b81146101a957600080fd5b50565b6000815190506101bb81610195565b92915050565b6000602082840312156101d7576101d6610186565b5b60006101e5848285016101ac565b91505092915050565b600073ffffffffffffffffffffffffffffffffffffffff82169050919050565b6000610219826101ee565b9050919050565b6102298161020e565b82525050565b60006020820190506102446000830184610220565b92915050565b6110b4806102596000396000f3fe6080604052600436106100915760003560e01c8063aaf7e70411610059578063aaf7e70414610155578063b60d428814610180578063b9208aa01461018a578063f2fde38b146101c7578063fa89401a146101f057610091565b80633ccfd60b14610096578063664bf86d146100ad578063715018a6146100d65780638a3e2259146100ed5780638da5cb5b1461012a575b600080fd5b3480156100a257600080fd5b506100ab610219565b005b3480156100b957600080fd5b506100d460048036038101906100cf9190610d29565b610493565b005b3480156100e257600080fd5b506100eb6104a5565b005b3480156100f957600080fd5b50610114600480360381019061010f9190610d29565b6104b9565b6040516101219190610d97565b60405180910390f35b34801561013657600080fd5b5061013f6104f8565b60405161014c9190610d97565b60405180910390f35b34801561016157600080fd5b5061016a610521565b6040516101779190610dc1565b60405180910390f35b610188610527565b005b34801561019657600080fd5b506101b160048036038101906101ac9190610e08565b610728565b6040516101be9190610dc1565b60405180910390f35b3480156101d357600080fd5b506101ee60048036038101906101e99190610e08565b610740565b005b3480156101fc57600080fd5b5061021760048036038101906102129190610e73565b6107c6565b005b610221610a6d565b600060028054806020026020016040519081016040528092919081815260200182805480156102a557602002820191906000526020600020905b8160009054906101000a900473ffffffffffffffffffffffffffffffffffffffff1673ffffffffffffffffffffffffffffffffffffffff168152602001906001019080831161025b575b5050505050905060005b815181101561032a5760008282815181106102cd576102cc610ea0565b5b602002602001015190506000600160008373ffffffffffffffffffffffffffffffffffffffff1673ffffffffffffffffffffffffffffffffffffffff168152602001908152602001600020819055505080806001019150506102af565b50600067ffffffffffffffff81111561034657610345610ecf565b5b6040519080825280602002602001820160405280156103745781602001602082028036833780820191505090505b506002908051906020019061038a929190610c47565b5060006103956104f8565b9050600047905060008273ffffffffffffffffffffffffffffffffffffffff16826040516103c290610f2f565b60006040518083038185875af1925050503d80600081146103ff576040519150601f19603f3d011682016040523d82523d6000602084013e610404565b606091505b505090508061043f576040517f6e87e20100000000000000000000000000000000000000000000000000000000815260040160405180910390fd5b8273ffffffffffffffffffffffffffffffffffffffff167fed7d0ddcc17abdb3935a0a23cd93e91b449dfeac7fd0def9f481ed5b37e18c4d836040516104859190610dc1565b60405180910390a250505050565b61049b610a6d565b8060038190555050565b6104ad610a6d565b6104b76000610af4565b565b600281815481106104c957600080fd5b906000526020600020016000915054906101000a900473ffffffffffffffffffffffffffffffffffffffff1681565b60008060009054906101000a900473ffffffffffffffffffffffffffffffffffffffff16905090565b60035481565b600354341015610563576040517f356680b700000000000000000000000000000000000000000000000000000000815260040160405180910390fd5b3460016000610570610bb8565b73ffffffffffffffffffffffffffffffffffffffff1673ffffffffffffffffffffffffffffffffffffffff16815260200190815260200160002060008282546105b99190610f73565b925050819055506106606105cb610bb8565b600280548060200260200160405190810160405280929190818152602001828054801561064d57602002820191906000526020600020905b8160009054906101000a900473ffffffffffffffffffffffffffffffffffffffff1673ffffffffffffffffffffffffffffffffffffffff1681526020019060010190808311610603575b5050505050610bc090919063ffffffff16565b6106cf57600261066e610bb8565b9080600181540180825580915050600190039060005260206000200160009091909190916101000a81548173ffffffffffffffffffffffffffffffffffffffff021916908373ffffffffffffffffffffffffffffffffffffffff1602179055505b6106d7610bb8565b73ffffffffffffffffffffffffffffffffffffffff167fed7d0ddcc17abdb3935a0a23cd93e91b449dfeac7fd0def9f481ed5b37e18c4d60035460405161071e9190610dc1565b60405180910390a2565b60016020528060005260406000206000915090505481565b610748610a6d565b600073ffffffffffffffffffffffffffffffffffffffff168173ffffffffffffffffffffffffffffffffffffffff16036107ba5760006040517f1e4fbdf70000000000000000000000000000000000000000000000000000000081526004016107b19190610d97565b60405180910390fd5b6107c381610af4565b50565b6107ce610a6d565b61086781600280548060200260200160405190810160405280929190818152602001828054801561085457602002820191906000526020600020905b8160009054906101000a900473ffffffffffffffffffffffffffffffffffffffff1673ffffffffffffffffffffffffffffffffffffffff168152602001906001019080831161080a575b5050505050610bc090919063ffffffff16565b6108a6576040517f08c379a000000000000000000000000000000000000000000000000000000000815260040161089d9061102a565b60405180910390fd5b6000600354600160008473ffffffffffffffffffffffffffffffffffffffff1673ffffffffffffffffffffffffffffffffffffffff168152602001908152602001600020546108f5919061104a565b905060008111610931576040517fb69538a500000000000000000000000000000000000000000000000000000000815260040160405180910390fd5b600354600160008473ffffffffffffffffffffffffffffffffffffffff1673ffffffffffffffffffffffffffffffffffffffff1681526020019081526020016000208190555060008273ffffffffffffffffffffffffffffffffffffffff168260405161099d90610f2f565b60006040518083038185875af1925050503d80600081146109da576040519150601f19603f3d011682016040523d82523d6000602084013e6109df565b606091505b5050905080610a1a576040517f6e87e20100000000000000000000000000000000000000000000000000000000815260040160405180910390fd5b8273ffffffffffffffffffffffffffffffffffffffff167fed7d0ddcc17abdb3935a0a23cd93e91b449dfeac7fd0def9f481ed5b37e18c4d83604051610a609190610dc1565b60405180910390a2505050565b610a75610bb8565b73ffffffffffffffffffffffffffffffffffffffff16610a936104f8565b73ffffffffffffffffffffffffffffffffffffffff1614610af257610ab6610bb8565b6040517f118cdaa7000000000000000000000000000000000000000000000000000000008152600401610ae99190610d97565b60405180910390fd5b565b60008060009054906101000a900473ffffffffffffffffffffffffffffffffffffffff169050816000806101000a81548173ffffffffffffffffffffffffffffffffffffffff021916908373ffffffffffffffffffffffffffffffffffffffff1602179055508173ffffffffffffffffffffffffffffffffffffffff168173ffffffffffffffffffffffffffffffffffffffff167f8be0079c531659141344cd1fd0a4f28419497f9722a3daafe3b4186f6b6457e060405160405180910390a35050565b600033905090565b6000806000905060005b8451811015610c3b578373ffffffffffffffffffffffffffffffffffffffff16858281518110610bfd57610bfc610ea0565b5b602002602001015173ffffffffffffffffffffffffffffffffffffffff1603610c2e57600191508192505050610c41565b8080600101915050610bca565b50809150505b92915050565b828054828255906000526020600020908101928215610cc0579160200282015b82811115610cbf5782518260006101000a81548173ffffffffffffffffffffffffffffffffffffffff021916908373ffffffffffffffffffffffffffffffffffffffff16021790555091602001919060010190610c67565b5b509050610ccd9190610cd1565b5090565b5b80821115610cea576000816000905550600101610cd2565b5090565b600080fd5b6000819050919050565b610d0681610cf3565b8114610d1157600080fd5b50565b600081359050610d2381610cfd565b92915050565b600060208284031215610d3f57610d3e610cee565b5b6000610d4d84828501610d14565b91505092915050565b600073ffffffffffffffffffffffffffffffffffffffff82169050919050565b6000610d8182610d56565b9050919050565b610d9181610d76565b82525050565b6000602082019050610dac6000830184610d88565b92915050565b610dbb81610cf3565b82525050565b6000602082019050610dd66000830184610db2565b92915050565b610de581610d76565b8114610df057600080fd5b50565b600081359050610e0281610ddc565b92915050565b600060208284031215610e1e57610e1d610cee565b5b6000610e2c84828501610df3565b91505092915050565b6000610e4082610d56565b9050919050565b610e5081610e35565b8114610e5b57600080fd5b50565b600081359050610e6d81610e47565b92915050565b600060208284031215610e8957610e88610cee565b5b6000610e9784828501610e5e565b91505092915050565b7f4e487b7100000000000000000000000000000000000000000000000000000000600052603260045260246000fd5b7f4e487b7100000000000000000000000000000000000000000000000000000000600052604160045260246000fd5b600081905092915050565b50565b6000610f19600083610efe565b9150610f2482610f09565b600082019050919050565b6000610f3a82610f0c565b9150819050919050565b7f4e487b7100000000000000000000000000000000000000000000000000000000600052601160045260246000fd5b6000610f7e82610cf3565b9150610f8983610cf3565b9250828201905080821115610fa157610fa0610f44565b5b92915050565b600082825260208201905092915050565b7f546869732061646472657373206973206e6f742061207265676973746572656460008201527f2070617965720000000000000000000000000000000000000000000000000000602082015250565b6000611014602683610fa7565b915061101f82610fb8565b604082019050919050565b6000602082019050818103600083015261104381611007565b9050919050565b600061105582610cf3565b915061106083610cf3565b925082820390508181111561107857611077610f44565b5b9291505056fea2646970667358221220cd3bbfa9a847ddb4f39a4bf7eadf7bf62a33b9e51397e7fa16d362c7fc7bb7e664736f6c63430008190033",
  "linkReferences": {},
  "deployedLinkReferences": {}
}