{
  "contracts/AdvancedStorage.sol": {
    "AdvancedStorage": {
      "abi": [
        {
          "inputs": [
            {
              "internalType": "address",
              "name": "_ownerAddress",
              "type": "address"
            },
            {
              "internalType": "string",
              "name": "_name",
              "type": "string"
            },
            {
              "internalType": "uint256",
              "name": "_favouriteNumber",
              "type": "uint256"
            }
          ],
          "name": "_createPerson",
          "outputs": [],
          "stateMutability": "nonpayable",
          "type": "function"
        },
        {
          "inputs": [
            {
              "internalType": "address",
              "name": "_ownerAddress",
              "type": "address"
            },
            {
              "internalType": "uint256",
              "name": "_value",
              "type": "uint256"
            },
            {
              "components": [
                {
                  "internalType": "string",
                  "name": "name",
                  "type": "string"
                },
                {
                  "internalType": "uint256",
                  "name": "favouriteNumber",
                  "type": "uint256"
                }
              ],
              "internalType": "struct Person",
              "name": "_person",
              "type": "tuple"
            }
          ],
          "name": "_decrFavouriteNumber",
          "outputs": [],
          "stateMutability": "nonpayable",
          "type": "function"
        },
        {
          "inputs": [
            {
              "internalType": "address",
              "name": "_ownerAddress",
              "type": "address"
            },
            {
              "internalType": "uint256",
              "name": "_value",
              "type": "uint256"
            },
            {
              "components": [
                {
                  "internalType": "string",
                  "name": "name",
                  "type": "string"
                },
                {
                  "internalType": "uint256",
                  "name": "favouriteNumber",
                  "type": "uint256"
                }
              ],
              "internalType": "struct Person",
              "name": "_person",
              "type": "tuple"
            }
          ],
          "name": "_incrFavouriteNumber",
          "outputs": [],
          "stateMutability": "nonpayable",
          "type": "function"
        },
        {
          "inputs": [
            {
              "internalType": "uint256",
              "name": "",
              "type": "uint256"
            }
          ],
          "name": "ownerAddresses",
          "outputs": [
            {
              "internalType": "address",
              "name": "",
              "type": "address"
            }
          ],
          "stateMutability": "view",
          "type": "function"
        },
        {
          "inputs": [
            {
              "internalType": "address",
              "name": "",
              "type": "address"
            },
            {
              "internalType": "uint256",
              "name": "",
              "type": "uint256"
            }
          ],
          "name": "peopleMap",
          "outputs": [
            {
              "internalType": "string",
              "name": "name",
              "type": "string"
            },
            {
              "internalType": "uint256",
              "name": "favouriteNumber",
              "type": "uint256"
            }
          ],
          "stateMutability": "view",
          "type": "function"
        }
      ],
      "evm": {
        "bytecode": {
          "linkReferences": {},
          "object": "6080604052348015600f57600080fd5b506110f48061001f6000396000f3fe608060405234801561001057600080fd5b50600436106100575760003560e01c806307f748431461005c5780630f310b17146100785780632a7440d0146100a85780634081601b146100c4578063fe6e9120146100f5575b600080fd5b61007660048036038101906100719190610847565b610111565b005b610092600480360381019061008d91906108b6565b61027c565b60405161009f91906108f2565b60405180910390f35b6100c260048036038101906100bd9190610847565b6102bb565b005b6100de60048036038101906100d9919061090d565b610426565b6040516100ec9291906109ec565b60405180910390f35b61010f600480360381019061010a9190610a81565b6104ef565b005b8261011b816106d7565b61015a576040517f08c379a000000000000000000000000000000000000000000000000000000000815260040161015190610b67565b60405180910390fd5b60008060008673ffffffffffffffffffffffffffffffffffffffff1673ffffffffffffffffffffffffffffffffffffffff168152602001908152602001600020905060005b81805490508110156102745760008282815481106101c0576101bf610b87565b5b906000526020600020906002020190508480600001906101e09190610bc5565b6040516020016101f1929190610c67565b604051602081830303815290604052805190602001208160000160405160200161021b9190610d78565b60405160208183030381529060405280519060200120148015610245575084602001358160010154145b15610266578581600101600082825461025e9190610dbe565b925050819055505b50808060010191505061019f565b505050505050565b6001818154811061028c57600080fd5b906000526020600020016000915054906101000a900473ffffffffffffffffffffffffffffffffffffffff1681565b826102c5816106d7565b610304576040517f08c379a00000000000000000000000000000000000000000000000000000000081526004016102fb90610b67565b60405180910390fd5b60008060008673ffffffffffffffffffffffffffffffffffffffff1673ffffffffffffffffffffffffffffffffffffffff168152602001908152602001600020905060005b818054905081101561041e57600082828154811061036a57610369610b87565b5b9060005260206000209060020201905084806000019061038a9190610bc5565b60405160200161039b929190610c67565b60405160208183030381529060405280519060200120816000016040516020016103c59190610d78565b604051602081830303815290604052805190602001201480156103ef575084602001358160010154145b1561041057858160010160008282546104089190610df2565b925050819055505b508080600101915050610349565b505050505050565b6000602052816000526040600020818154811061044257600080fd5b90600052602060002090600202016000915091505080600001805461046690610caf565b80601f016020809104026020016040519081016040528092919081815260200182805461049290610caf565b80156104df5780601f106104b4576101008083540402835291602001916104df565b820191906000526020600020905b8154815290600101906020018083116104c257829003601f168201915b5050505050908060010154905082565b60008060008673ffffffffffffffffffffffffffffffffffffffff1673ffffffffffffffffffffffffffffffffffffffff168152602001908152602001600020905080604051806040016040528086868080601f016020809104026020016040519081016040528093929190818152602001838380828437600081840152601f19601f82011690508083019250505050505050815260200184815250908060018154018082558091505060019003906000526020600020906002020160009091909190915060008201518160000190816105c99190610fec565b5060208201518160010155505060005b60018054905081101561066b578573ffffffffffffffffffffffffffffffffffffffff166001828154811061061157610610610b87565b5b9060005260206000200160009054906101000a900473ffffffffffffffffffffffffffffffffffffffff1673ffffffffffffffffffffffffffffffffffffffff160361065e5750506106d1565b80806001019150506105d9565b506001859080600181540180825580915050600190039060005260206000200160009091909190916101000a81548173ffffffffffffffffffffffffffffffffffffffff021916908373ffffffffffffffffffffffffffffffffffffffff160217905550505b50505050565b6000806000905060005b60018054905081101561077a578373ffffffffffffffffffffffffffffffffffffffff166001828154811061071957610718610b87565b5b9060005260206000200160009054906101000a900473ffffffffffffffffffffffffffffffffffffffff1673ffffffffffffffffffffffffffffffffffffffff160361076d57600191508192505050610780565b80806001019150506106e1565b50809150505b919050565b600080fd5b600080fd5b600073ffffffffffffffffffffffffffffffffffffffff82169050919050565b60006107ba8261078f565b9050919050565b6107ca816107af565b81146107d557600080fd5b50565b6000813590506107e7816107c1565b92915050565b6000819050919050565b610800816107ed565b811461080b57600080fd5b50565b60008135905061081d816107f7565b92915050565b600080fd5b60006040828403121561083e5761083d610823565b5b81905092915050565b6000806000606084860312156108605761085f610785565b5b600061086e868287016107d8565b935050602061087f8682870161080e565b925050604084013567ffffffffffffffff8111156108a05761089f61078a565b5b6108ac86828701610828565b9150509250925092565b6000602082840312156108cc576108cb610785565b5b60006108da8482850161080e565b91505092915050565b6108ec816107af565b82525050565b600060208201905061090760008301846108e3565b92915050565b6000806040838503121561092457610923610785565b5b6000610932858286016107d8565b92505060206109438582860161080e565b9150509250929050565b600081519050919050565b600082825260208201905092915050565b60005b8381101561098757808201518184015260208101905061096c565b60008484015250505050565b6000601f19601f8301169050919050565b60006109af8261094d565b6109b98185610958565b93506109c9818560208601610969565b6109d281610993565b840191505092915050565b6109e6816107ed565b82525050565b60006040820190508181036000830152610a0681856109a4565b9050610a1560208301846109dd565b9392505050565b600080fd5b600080fd5b600080fd5b60008083601f840112610a4157610a40610a1c565b5b8235905067ffffffffffffffff811115610a5e57610a5d610a21565b5b602083019150836001820283011115610a7a57610a79610a26565b5b9250929050565b60008060008060608587031215610a9b57610a9a610785565b5b6000610aa9878288016107d8565b945050602085013567ffffffffffffffff811115610aca57610ac961078a565b5b610ad687828801610a2b565b93509350506040610ae98782880161080e565b91505092959194509250565b7f596f75206d75737420626520612072656769737465726564206f776e6572207460008201527f6f20616363657373206120706572736f6e000000000000000000000000000000602082015250565b6000610b51603183610958565b9150610b5c82610af5565b604082019050919050565b60006020820190508181036000830152610b8081610b44565b9050919050565b7f4e487b7100000000000000000000000000000000000000000000000000000000600052603260045260246000fd5b600080fd5b600080fd5b600080fd5b60008083356001602003843603038112610be257610be1610bb6565b5b80840192508235915067ffffffffffffffff821115610c0457610c03610bbb565b5b602083019250600182023603831315610c2057610c1f610bc0565b5b509250929050565b600081905092915050565b82818337600083830152505050565b6000610c4e8385610c28565b9350610c5b838584610c33565b82840190509392505050565b6000610c74828486610c42565b91508190509392505050565b7f4e487b7100000000000000000000000000000000000000000000000000000000600052602260045260246000fd5b60006002820490506001821680610cc757607f821691505b602082108103610cda57610cd9610c80565b5b50919050565b60008190508160005260206000209050919050565b60008154610d0281610caf565b610d0c8186610c28565b94506001821660008114610d275760018114610d3c57610d6f565b60ff1983168652811515820286019350610d6f565b610d4585610ce0565b60005b83811015610d6757815481890152600182019150602081019050610d48565b838801955050505b50505092915050565b6000610d848284610cf5565b915081905092915050565b7f4e487b7100000000000000000000000000000000000000000000000000000000600052601160045260246000fd5b6000610dc9826107ed565b9150610dd4836107ed565b9250828201905080821115610dec57610deb610d8f565b5b92915050565b6000610dfd826107ed565b9150610e08836107ed565b9250828203905081811115610e2057610e1f610d8f565b5b92915050565b7f4e487b7100000000000000000000000000000000000000000000000000000000600052604160045260246000fd5b60006020601f8301049050919050565b600082821b905092915050565b600060088302610ea27fffffffffffffffffffffffffffffffffffffffffffffffffffffffffffffffff82610e65565b610eac8683610e65565b95508019841693508086168417925050509392505050565b6000819050919050565b6000610ee9610ee4610edf846107ed565b610ec4565b6107ed565b9050919050565b6000819050919050565b610f0383610ece565b610f17610f0f82610ef0565b848454610e72565b825550505050565b600090565b610f2c610f1f565b610f37818484610efa565b505050565b5b81811015610f5b57610f50600082610f24565b600181019050610f3d565b5050565b601f821115610fa057610f7181610ce0565b610f7a84610e55565b81016020851015610f89578190505b610f9d610f9585610e55565b830182610f3c565b50505b505050565b600082821c905092915050565b6000610fc360001984600802610fa5565b1980831691505092915050565b6000610fdc8383610fb2565b9150826002028217905092915050565b610ff58261094d565b67ffffffffffffffff81111561100e5761100d610e26565b5b6110188254610caf565b611023828285610f5f565b600060209050601f8311600181146110565760008415611044578287015190505b61104e8582610fd0565b8655506110b6565b601f19841661106486610ce0565b60005b8281101561108c57848901518255600182019150602085019450602081019050611067565b868310156110a957848901516110a5601f891682610fb2565b8355505b6001600288020188555050505b50505050505056fea26469706673582212208fd1a5cb8bb2ed1f859b101056d5ce32a3df3c3c7889f5b2cabac63db9e7dc1864736f6c63430008190033",
          "opcodes": "PUSH1 0x80 PUSH1 0x40 MSTORE CALLVALUE DUP1 ISZERO PUSH1 0xF JUMPI PUSH1 0x0 DUP1 REVERT JUMPDEST POP PUSH2 0x10F4 DUP1 PUSH2 0x1F PUSH1 0x0 CODECOPY PUSH1 0x0 RETURN INVALID PUSH1 0x80 PUSH1 0x40 MSTORE CALLVALUE DUP1 ISZERO PUSH2 0x10 JUMPI PUSH1 0x0 DUP1 REVERT JUMPDEST POP PUSH1 0x4 CALLDATASIZE LT PUSH2 0x57 JUMPI PUSH1 0x0 CALLDATALOAD PUSH1 0xE0 SHR DUP1 PUSH4 0x7F74843 EQ PUSH2 0x5C JUMPI DUP1 PUSH4 0xF310B17 EQ PUSH2 0x78 JUMPI DUP1 PUSH4 0x2A7440D0 EQ PUSH2 0xA8 JUMPI DUP1 PUSH4 0x4081601B EQ PUSH2 0xC4 JUMPI DUP1 PUSH4 0xFE6E9120 EQ PUSH2 0xF5 JUMPI JUMPDEST PUSH1 0x0 DUP1 REVERT JUMPDEST PUSH2 0x76 PUSH1 0x4 DUP1 CALLDATASIZE SUB DUP2 ADD SWAP1 PUSH2 0x71 SWAP2 SWAP1 PUSH2 0x847 JUMP JUMPDEST PUSH2 0x111 JUMP JUMPDEST STOP JUMPDEST PUSH2 0x92 PUSH1 0x4 DUP1 CALLDATASIZE SUB DUP2 ADD SWAP1 PUSH2 0x8D SWAP2 SWAP1 PUSH2 0x8B6 JUMP JUMPDEST PUSH2 0x27C JUMP JUMPDEST PUSH1 0x40 MLOAD PUSH2 0x9F SWAP2 SWAP1 PUSH2 0x8F2 JUMP JUMPDEST PUSH1 0x40 MLOAD DUP1 SWAP2 SUB SWAP1 RETURN JUMPDEST PUSH2 0xC2 PUSH1 0x4 DUP1 CALLDATASIZE SUB DUP2 ADD SWAP1 PUSH2 0xBD SWAP2 SWAP1 PUSH2 0x847 JUMP JUMPDEST PUSH2 0x2BB JUMP JUMPDEST STOP JUMPDEST PUSH2 0xDE PUSH1 0x4 DUP1 CALLDATASIZE SUB DUP2 ADD SWAP1 PUSH2 0xD9 SWAP2 SWAP1 PUSH2 0x90D JUMP JUMPDEST PUSH2 0x426 JUMP JUMPDEST PUSH1 0x40 MLOAD PUSH2 0xEC SWAP3 SWAP2 SWAP1 PUSH2 0x9EC JUMP JUMPDEST PUSH1 0x40 MLOAD DUP1 SWAP2 SUB SWAP1 RETURN JUMPDEST PUSH2 0x10F PUSH1 0x4 DUP1 CALLDATASIZE SUB DUP2 ADD SWAP1 PUSH2 0x10A SWAP2 SWAP1 PUSH2 0xA81 JUMP JUMPDEST PUSH2 0x4EF JUMP JUMPDEST STOP JUMPDEST DUP3 PUSH2 0x11B DUP2 PUSH2 0x6D7 JUMP JUMPDEST PUSH2 0x15A JUMPI PUSH1 0x40 MLOAD PUSH32 0x8C379A000000000000000000000000000000000000000000000000000000000 DUP2 MSTORE PUSH1 0x4 ADD PUSH2 0x151 SWAP1 PUSH2 0xB67 JUMP JUMPDEST PUSH1 0x40 MLOAD DUP1 SWAP2 SUB SWAP1 REVERT JUMPDEST PUSH1 0x0 DUP1 PUSH1 0x0 DUP7 PUSH20 0xFFFFFFFFFFFFFFFFFFFFFFFFFFFFFFFFFFFFFFFF AND PUSH20 0xFFFFFFFFFFFFFFFFFFFFFFFFFFFFFFFFFFFFFFFF AND DUP2 MSTORE PUSH1 0x20 ADD SWAP1 DUP2 MSTORE PUSH1 0x20 ADD PUSH1 0x0 KECCAK256 SWAP1 POP PUSH1 0x0 JUMPDEST DUP2 DUP1 SLOAD SWAP1 POP DUP2 LT ISZERO PUSH2 0x274 JUMPI PUSH1 0x0 DUP3 DUP3 DUP2 SLOAD DUP2 LT PUSH2 0x1C0 JUMPI PUSH2 0x1BF PUSH2 0xB87 JUMP JUMPDEST JUMPDEST SWAP1 PUSH1 0x0 MSTORE PUSH1 0x20 PUSH1 0x0 KECCAK256 SWAP1 PUSH1 0x2 MUL ADD SWAP1 POP DUP5 DUP1 PUSH1 0x0 ADD SWAP1 PUSH2 0x1E0 SWAP2 SWAP1 PUSH2 0xBC5 JUMP JUMPDEST PUSH1 0x40 MLOAD PUSH1 0x20 ADD PUSH2 0x1F1 SWAP3 SWAP2 SWAP1 PUSH2 0xC67 JUMP JUMPDEST PUSH1 0x40 MLOAD PUSH1 0x20 DUP2 DUP4 SUB SUB DUP2 MSTORE SWAP1 PUSH1 0x40 MSTORE DUP1 MLOAD SWAP1 PUSH1 0x20 ADD KECCAK256 DUP2 PUSH1 0x0 ADD PUSH1 0x40 MLOAD PUSH1 0x20 ADD PUSH2 0x21B SWAP2 SWAP1 PUSH2 0xD78 JUMP JUMPDEST PUSH1 0x40 MLOAD PUSH1 0x20 DUP2 DUP4 SUB SUB DUP2 MSTORE SWAP1 PUSH1 0x40 MSTORE DUP1 MLOAD SWAP1 PUSH1 0x20 ADD KECCAK256 EQ DUP1 ISZERO PUSH2 0x245 JUMPI POP DUP5 PUSH1 0x20 ADD CALLDATALOAD DUP2 PUSH1 0x1 ADD SLOAD EQ JUMPDEST ISZERO PUSH2 0x266 JUMPI DUP6 DUP2 PUSH1 0x1 ADD PUSH1 0x0 DUP3 DUP3 SLOAD PUSH2 0x25E SWAP2 SWAP1 PUSH2 0xDBE JUMP JUMPDEST SWAP3 POP POP DUP2 SWAP1 SSTORE POP JUMPDEST POP DUP1 DUP1 PUSH1 0x1 ADD SWAP2 POP POP PUSH2 0x19F JUMP JUMPDEST POP POP POP POP POP POP JUMP JUMPDEST PUSH1 0x1 DUP2 DUP2 SLOAD DUP2 LT PUSH2 0x28C JUMPI PUSH1 0x0 DUP1 REVERT JUMPDEST SWAP1 PUSH1 0x0 MSTORE PUSH1 0x20 PUSH1 0x0 KECCAK256 ADD PUSH1 0x0 SWAP2 POP SLOAD SWAP1 PUSH2 0x100 EXP SWAP1 DIV PUSH20 0xFFFFFFFFFFFFFFFFFFFFFFFFFFFFFFFFFFFFFFFF AND DUP2 JUMP JUMPDEST DUP3 PUSH2 0x2C5 DUP2 PUSH2 0x6D7 JUMP JUMPDEST PUSH2 0x304 JUMPI PUSH1 0x40 MLOAD PUSH32 0x8C379A000000000000000000000000000000000000000000000000000000000 DUP2 MSTORE PUSH1 0x4 ADD PUSH2 0x2FB SWAP1 PUSH2 0xB67 JUMP JUMPDEST PUSH1 0x40 MLOAD DUP1 SWAP2 SUB SWAP1 REVERT JUMPDEST PUSH1 0x0 DUP1 PUSH1 0x0 DUP7 PUSH20 0xFFFFFFFFFFFFFFFFFFFFFFFFFFFFFFFFFFFFFFFF AND PUSH20 0xFFFFFFFFFFFFFFFFFFFFFFFFFFFFFFFFFFFFFFFF AND DUP2 MSTORE PUSH1 0x20 ADD SWAP1 DUP2 MSTORE PUSH1 0x20 ADD PUSH1 0x0 KECCAK256 SWAP1 POP PUSH1 0x0 JUMPDEST DUP2 DUP1 SLOAD SWAP1 POP DUP2 LT ISZERO PUSH2 0x41E JUMPI PUSH1 0x0 DUP3 DUP3 DUP2 SLOAD DUP2 LT PUSH2 0x36A JUMPI PUSH2 0x369 PUSH2 0xB87 JUMP JUMPDEST JUMPDEST SWAP1 PUSH1 0x0 MSTORE PUSH1 0x20 PUSH1 0x0 KECCAK256 SWAP1 PUSH1 0x2 MUL ADD SWAP1 POP DUP5 DUP1 PUSH1 0x0 ADD SWAP1 PUSH2 0x38A SWAP2 SWAP1 PUSH2 0xBC5 JUMP JUMPDEST PUSH1 0x40 MLOAD PUSH1 0x20 ADD PUSH2 0x39B SWAP3 SWAP2 SWAP1 PUSH2 0xC67 JUMP JUMPDEST PUSH1 0x40 MLOAD PUSH1 0x20 DUP2 DUP4 SUB SUB DUP2 MSTORE SWAP1 PUSH1 0x40 MSTORE DUP1 MLOAD SWAP1 PUSH1 0x20 ADD KECCAK256 DUP2 PUSH1 0x0 ADD PUSH1 0x40 MLOAD PUSH1 0x20 ADD PUSH2 0x3C5 SWAP2 SWAP1 PUSH2 0xD78 JUMP JUMPDEST PUSH1 0x40 MLOAD PUSH1 0x20 DUP2 DUP4 SUB SUB DUP2 MSTORE SWAP1 PUSH1 0x40 MSTORE DUP1 MLOAD SWAP1 PUSH1 0x20 ADD KECCAK256 EQ DUP1 ISZERO PUSH2 0x3EF JUMPI POP DUP5 PUSH1 0x20 ADD CALLDATALOAD DUP2 PUSH1 0x1 ADD SLOAD EQ JUMPDEST ISZERO PUSH2 0x410 JUMPI DUP6 DUP2 PUSH1 0x1 ADD PUSH1 0x0 DUP3 DUP3 SLOAD PUSH2 0x408 SWAP2 SWAP1 PUSH2 0xDF2 JUMP JUMPDEST SWAP3 POP POP DUP2 SWAP1 SSTORE POP JUMPDEST POP DUP1 DUP1 PUSH1 0x1 ADD SWAP2 POP POP PUSH2 0x349 JUMP JUMPDEST POP POP POP POP POP POP JUMP JUMPDEST PUSH1 0x0 PUSH1 0x20 MSTORE DUP2 PUSH1 0x0 MSTORE PUSH1 0x40 PUSH1 0x0 KECCAK256 DUP2 DUP2 SLOAD DUP2 LT PUSH2 0x442 JUMPI PUSH1 0x0 DUP1 REVERT JUMPDEST SWAP1 PUSH1 0x0 MSTORE PUSH1 0x20 PUSH1 0x0 KECCAK256 SWAP1 PUSH1 0x2 MUL ADD PUSH1 0x0 SWAP2 POP SWAP2 POP POP DUP1 PUSH1 0x0 ADD DUP1 SLOAD PUSH2 0x466 SWAP1 PUSH2 0xCAF JUMP JUMPDEST DUP1 PUSH1 0x1F ADD PUSH1 0x20 DUP1 SWAP2 DIV MUL PUSH1 0x20 ADD PUSH1 0x40 MLOAD SWAP1 DUP2 ADD PUSH1 0x40 MSTORE DUP1 SWAP3 SWAP2 SWAP1 DUP2 DUP2 MSTORE PUSH1 0x20 ADD DUP3 DUP1 SLOAD PUSH2 0x492 SWAP1 PUSH2 0xCAF JUMP JUMPDEST DUP1 ISZERO PUSH2 0x4DF JUMPI DUP1 PUSH1 0x1F LT PUSH2 0x4B4 JUMPI PUSH2 0x100 DUP1 DUP4 SLOAD DIV MUL DUP4 MSTORE SWAP2 PUSH1 0x20 ADD SWAP2 PUSH2 0x4DF JUMP JUMPDEST DUP3 ADD SWAP2 SWAP1 PUSH1 0x0 MSTORE PUSH1 0x20 PUSH1 0x0 KECCAK256 SWAP1 JUMPDEST DUP2 SLOAD DUP2 MSTORE SWAP1 PUSH1 0x1 ADD SWAP1 PUSH1 0x20 ADD DUP1 DUP4 GT PUSH2 0x4C2 JUMPI DUP3 SWAP1 SUB PUSH1 0x1F AND DUP3 ADD SWAP2 JUMPDEST POP POP POP POP POP SWAP1 DUP1 PUSH1 0x1 ADD SLOAD SWAP1 POP DUP3 JUMP JUMPDEST PUSH1 0x0 DUP1 PUSH1 0x0 DUP7 PUSH20 0xFFFFFFFFFFFFFFFFFFFFFFFFFFFFFFFFFFFFFFFF AND PUSH20 0xFFFFFFFFFFFFFFFFFFFFFFFFFFFFFFFFFFFFFFFF AND DUP2 MSTORE PUSH1 0x20 ADD SWAP1 DUP2 MSTORE PUSH1 0x20 ADD PUSH1 0x0 KECCAK256 SWAP1 POP DUP1 PUSH1 0x40 MLOAD DUP1 PUSH1 0x40 ADD PUSH1 0x40 MSTORE DUP1 DUP7 DUP7 DUP1 DUP1 PUSH1 0x1F ADD PUSH1 0x20 DUP1 SWAP2 DIV MUL PUSH1 0x20 ADD PUSH1 0x40 MLOAD SWAP1 DUP2 ADD PUSH1 0x40 MSTORE DUP1 SWAP4 SWAP3 SWAP2 SWAP1 DUP2 DUP2 MSTORE PUSH1 0x20 ADD DUP4 DUP4 DUP1 DUP3 DUP5 CALLDATACOPY PUSH1 0x0 DUP2 DUP5 ADD MSTORE PUSH1 0x1F NOT PUSH1 0x1F DUP3 ADD AND SWAP1 POP DUP1 DUP4 ADD SWAP3 POP POP POP POP POP POP POP DUP2 MSTORE PUSH1 0x20 ADD DUP5 DUP2 MSTORE POP SWAP1 DUP1 PUSH1 0x1 DUP2 SLOAD ADD DUP1 DUP3 SSTORE DUP1 SWAP2 POP POP PUSH1 0x1 SWAP1 SUB SWAP1 PUSH1 0x0 MSTORE PUSH1 0x20 PUSH1 0x0 KECCAK256 SWAP1 PUSH1 0x2 MUL ADD PUSH1 0x0 SWAP1 SWAP2 SWAP1 SWAP2 SWAP1 SWAP2 POP PUSH1 0x0 DUP3 ADD MLOAD DUP2 PUSH1 0x0 ADD SWAP1 DUP2 PUSH2 0x5C9 SWAP2 SWAP1 PUSH2 0xFEC JUMP JUMPDEST POP PUSH1 0x20 DUP3 ADD MLOAD DUP2 PUSH1 0x1 ADD SSTORE POP POP PUSH1 0x0 JUMPDEST PUSH1 0x1 DUP1 SLOAD SWAP1 POP DUP2 LT ISZERO PUSH2 0x66B JUMPI DUP6 PUSH20 0xFFFFFFFFFFFFFFFFFFFFFFFFFFFFFFFFFFFFFFFF AND PUSH1 0x1 DUP3 DUP2 SLOAD DUP2 LT PUSH2 0x611 JUMPI PUSH2 0x610 PUSH2 0xB87 JUMP JUMPDEST JUMPDEST SWAP1 PUSH1 0x0 MSTORE PUSH1 0x20 PUSH1 0x0 KECCAK256 ADD PUSH1 0x0 SWAP1 SLOAD SWAP1 PUSH2 0x100 EXP SWAP1 DIV PUSH20 0xFFFFFFFFFFFFFFFFFFFFFFFFFFFFFFFFFFFFFFFF AND PUSH20 0xFFFFFFFFFFFFFFFFFFFFFFFFFFFFFFFFFFFFFFFF AND SUB PUSH2 0x65E JUMPI POP POP PUSH2 0x6D1 JUMP JUMPDEST DUP1 DUP1 PUSH1 0x1 ADD SWAP2 POP POP PUSH2 0x5D9 JUMP JUMPDEST POP PUSH1 0x1 DUP6 SWAP1 DUP1 PUSH1 0x1 DUP2 SLOAD ADD DUP1 DUP3 SSTORE DUP1 SWAP2 POP POP PUSH1 0x1 SWAP1 SUB SWAP1 PUSH1 0x0 MSTORE PUSH1 0x20 PUSH1 0x0 KECCAK256 ADD PUSH1 0x0 SWAP1 SWAP2 SWAP1 SWAP2 SWAP1 SWAP2 PUSH2 0x100 EXP DUP2 SLOAD DUP2 PUSH20 0xFFFFFFFFFFFFFFFFFFFFFFFFFFFFFFFFFFFFFFFF MUL NOT AND SWAP1 DUP4 PUSH20 0xFFFFFFFFFFFFFFFFFFFFFFFFFFFFFFFFFFFFFFFF AND MUL OR SWAP1 SSTORE POP POP JUMPDEST POP POP POP POP JUMP JUMPDEST PUSH1 0x0 DUP1 PUSH1 0x0 SWAP1 POP PUSH1 0x0 JUMPDEST PUSH1 0x1 DUP1 SLOAD SWAP1 POP DUP2 LT ISZERO PUSH2 0x77A JUMPI DUP4 PUSH20 0xFFFFFFFFFFFFFFFFFFFFFFFFFFFFFFFFFFFFFFFF AND PUSH1 0x1 DUP3 DUP2 SLOAD DUP2 LT PUSH2 0x719 JUMPI PUSH2 0x718 PUSH2 0xB87 JUMP JUMPDEST JUMPDEST SWAP1 PUSH1 0x0 MSTORE PUSH1 0x20 PUSH1 0x0 KECCAK256 ADD PUSH1 0x0 SWAP1 SLOAD SWAP1 PUSH2 0x100 EXP SWAP1 DIV PUSH20 0xFFFFFFFFFFFFFFFFFFFFFFFFFFFFFFFFFFFFFFFF AND PUSH20 0xFFFFFFFFFFFFFFFFFFFFFFFFFFFFFFFFFFFFFFFF AND SUB PUSH2 0x76D JUMPI PUSH1 0x1 SWAP2 POP DUP2 SWAP3 POP POP POP PUSH2 0x780 JUMP JUMPDEST DUP1 DUP1 PUSH1 0x1 ADD SWAP2 POP POP PUSH2 0x6E1 JUMP JUMPDEST POP DUP1 SWAP2 POP POP JUMPDEST SWAP2 SWAP1 POP JUMP JUMPDEST PUSH1 0x0 DUP1 REVERT JUMPDEST PUSH1 0x0 DUP1 REVERT JUMPDEST PUSH1 0x0 PUSH20 0xFFFFFFFFFFFFFFFFFFFFFFFFFFFFFFFFFFFFFFFF DUP3 AND SWAP1 POP SWAP2 SWAP1 POP JUMP JUMPDEST PUSH1 0x0 PUSH2 0x7BA DUP3 PUSH2 0x78F JUMP JUMPDEST SWAP1 POP SWAP2 SWAP1 POP JUMP JUMPDEST PUSH2 0x7CA DUP2 PUSH2 0x7AF JUMP JUMPDEST DUP2 EQ PUSH2 0x7D5 JUMPI PUSH1 0x0 DUP1 REVERT JUMPDEST POP JUMP JUMPDEST PUSH1 0x0 DUP2 CALLDATALOAD SWAP1 POP PUSH2 0x7E7 DUP2 PUSH2 0x7C1 JUMP JUMPDEST SWAP3 SWAP2 POP POP JUMP JUMPDEST PUSH1 0x0 DUP2 SWAP1 POP SWAP2 SWAP1 POP JUMP JUMPDEST PUSH2 0x800 DUP2 PUSH2 0x7ED JUMP JUMPDEST DUP2 EQ PUSH2 0x80B JUMPI PUSH1 0x0 DUP1 REVERT JUMPDEST POP JUMP JUMPDEST PUSH1 0x0 DUP2 CALLDATALOAD SWAP1 POP PUSH2 0x81D DUP2 PUSH2 0x7F7 JUMP JUMPDEST SWAP3 SWAP2 POP POP JUMP JUMPDEST PUSH1 0x0 DUP1 REVERT JUMPDEST PUSH1 0x0 PUSH1 0x40 DUP3 DUP5 SUB SLT ISZERO PUSH2 0x83E JUMPI PUSH2 0x83D PUSH2 0x823 JUMP JUMPDEST JUMPDEST DUP2 SWAP1 POP SWAP3 SWAP2 POP POP JUMP JUMPDEST PUSH1 0x0 DUP1 PUSH1 0x0 PUSH1 0x60 DUP5 DUP7 SUB SLT ISZERO PUSH2 0x860 JUMPI PUSH2 0x85F PUSH2 0x785 JUMP JUMPDEST JUMPDEST PUSH1 0x0 PUSH2 0x86E DUP7 DUP3 DUP8 ADD PUSH2 0x7D8 JUMP JUMPDEST SWAP4 POP POP PUSH1 0x20 PUSH2 0x87F DUP7 DUP3 DUP8 ADD PUSH2 0x80E JUMP JUMPDEST SWAP3 POP POP PUSH1 0x40 DUP5 ADD CALLDATALOAD PUSH8 0xFFFFFFFFFFFFFFFF DUP2 GT ISZERO PUSH2 0x8A0 JUMPI PUSH2 0x89F PUSH2 0x78A JUMP JUMPDEST JUMPDEST PUSH2 0x8AC DUP7 DUP3 DUP8 ADD PUSH2 0x828 JUMP JUMPDEST SWAP2 POP POP SWAP3 POP SWAP3 POP SWAP3 JUMP JUMPDEST PUSH1 0x0 PUSH1 0x20 DUP3 DUP5 SUB SLT ISZERO PUSH2 0x8CC JUMPI PUSH2 0x8CB PUSH2 0x785 JUMP JUMPDEST JUMPDEST PUSH1 0x0 PUSH2 0x8DA DUP5 DUP3 DUP6 ADD PUSH2 0x80E JUMP JUMPDEST SWAP2 POP POP SWAP3 SWAP2 POP POP JUMP JUMPDEST PUSH2 0x8EC DUP2 PUSH2 0x7AF JUMP JUMPDEST DUP3 MSTORE POP POP JUMP JUMPDEST PUSH1 0x0 PUSH1 0x20 DUP3 ADD SWAP1 POP PUSH2 0x907 PUSH1 0x0 DUP4 ADD DUP5 PUSH2 0x8E3 JUMP JUMPDEST SWAP3 SWAP2 POP POP JUMP JUMPDEST PUSH1 0x0 DUP1 PUSH1 0x40 DUP4 DUP6 SUB SLT ISZERO PUSH2 0x924 JUMPI PUSH2 0x923 PUSH2 0x785 JUMP JUMPDEST JUMPDEST PUSH1 0x0 PUSH2 0x932 DUP6 DUP3 DUP7 ADD PUSH2 0x7D8 JUMP JUMPDEST SWAP3 POP POP PUSH1 0x20 PUSH2 0x943 DUP6 DUP3 DUP7 ADD PUSH2 0x80E JUMP JUMPDEST SWAP2 POP POP SWAP3 POP SWAP3 SWAP1 POP JUMP JUMPDEST PUSH1 0x0 DUP2 MLOAD SWAP1 POP SWAP2 SWAP1 POP JUMP JUMPDEST PUSH1 0x0 DUP3 DUP3 MSTORE PUSH1 0x20 DUP3 ADD SWAP1 POP SWAP3 SWAP2 POP POP JUMP JUMPDEST PUSH1 0x0 JUMPDEST DUP4 DUP2 LT ISZERO PUSH2 0x987 JUMPI DUP1 DUP3 ADD MLOAD DUP2 DUP5 ADD MSTORE PUSH1 0x20 DUP2 ADD SWAP1 POP PUSH2 0x96C JUMP JUMPDEST PUSH1 0x0 DUP5 DUP5 ADD MSTORE POP POP POP POP JUMP JUMPDEST PUSH1 0x0 PUSH1 0x1F NOT PUSH1 0x1F DUP4 ADD AND SWAP1 POP SWAP2 SWAP1 POP JUMP JUMPDEST PUSH1 0x0 PUSH2 0x9AF DUP3 PUSH2 0x94D JUMP JUMPDEST PUSH2 0x9B9 DUP2 DUP6 PUSH2 0x958 JUMP JUMPDEST SWAP4 POP PUSH2 0x9C9 DUP2 DUP6 PUSH1 0x20 DUP7 ADD PUSH2 0x969 JUMP JUMPDEST PUSH2 0x9D2 DUP2 PUSH2 0x993 JUMP JUMPDEST DUP5 ADD SWAP2 POP POP SWAP3 SWAP2 POP POP JUMP JUMPDEST PUSH2 0x9E6 DUP2 PUSH2 0x7ED JUMP JUMPDEST DUP3 MSTORE POP POP JUMP JUMPDEST PUSH1 0x0 PUSH1 0x40 DUP3 ADD SWAP1 POP DUP2 DUP2 SUB PUSH1 0x0 DUP4 ADD MSTORE PUSH2 0xA06 DUP2 DUP6 PUSH2 0x9A4 JUMP JUMPDEST SWAP1 POP PUSH2 0xA15 PUSH1 0x20 DUP4 ADD DUP5 PUSH2 0x9DD JUMP JUMPDEST SWAP4 SWAP3 POP POP POP JUMP JUMPDEST PUSH1 0x0 DUP1 REVERT JUMPDEST PUSH1 0x0 DUP1 REVERT JUMPDEST PUSH1 0x0 DUP1 REVERT JUMPDEST PUSH1 0x0 DUP1 DUP4 PUSH1 0x1F DUP5 ADD SLT PUSH2 0xA41 JUMPI PUSH2 0xA40 PUSH2 0xA1C JUMP JUMPDEST JUMPDEST DUP3 CALLDATALOAD SWAP1 POP PUSH8 0xFFFFFFFFFFFFFFFF DUP2 GT ISZERO PUSH2 0xA5E JUMPI PUSH2 0xA5D PUSH2 0xA21 JUMP JUMPDEST JUMPDEST PUSH1 0x20 DUP4 ADD SWAP2 POP DUP4 PUSH1 0x1 DUP3 MUL DUP4 ADD GT ISZERO PUSH2 0xA7A JUMPI PUSH2 0xA79 PUSH2 0xA26 JUMP JUMPDEST JUMPDEST SWAP3 POP SWAP3 SWAP1 POP JUMP JUMPDEST PUSH1 0x0 DUP1 PUSH1 0x0 DUP1 PUSH1 0x60 DUP6 DUP8 SUB SLT ISZERO PUSH2 0xA9B JUMPI PUSH2 0xA9A PUSH2 0x785 JUMP JUMPDEST JUMPDEST PUSH1 0x0 PUSH2 0xAA9 DUP8 DUP3 DUP9 ADD PUSH2 0x7D8 JUMP JUMPDEST SWAP5 POP POP PUSH1 0x20 DUP6 ADD CALLDATALOAD PUSH8 0xFFFFFFFFFFFFFFFF DUP2 GT ISZERO PUSH2 0xACA JUMPI PUSH2 0xAC9 PUSH2 0x78A JUMP JUMPDEST JUMPDEST PUSH2 0xAD6 DUP8 DUP3 DUP9 ADD PUSH2 0xA2B JUMP JUMPDEST SWAP4 POP SWAP4 POP POP PUSH1 0x40 PUSH2 0xAE9 DUP8 DUP3 DUP9 ADD PUSH2 0x80E JUMP JUMPDEST SWAP2 POP POP SWAP3 SWAP6 SWAP2 SWAP5 POP SWAP3 POP JUMP JUMPDEST PUSH32 0x596F75206D75737420626520612072656769737465726564206F776E65722074 PUSH1 0x0 DUP3 ADD MSTORE PUSH32 0x6F20616363657373206120706572736F6E000000000000000000000000000000 PUSH1 0x20 DUP3 ADD MSTORE POP JUMP JUMPDEST PUSH1 0x0 PUSH2 0xB51 PUSH1 0x31 DUP4 PUSH2 0x958 JUMP JUMPDEST SWAP2 POP PUSH2 0xB5C DUP3 PUSH2 0xAF5 JUMP JUMPDEST PUSH1 0x40 DUP3 ADD SWAP1 POP SWAP2 SWAP1 POP JUMP JUMPDEST PUSH1 0x0 PUSH1 0x20 DUP3 ADD SWAP1 POP DUP2 DUP2 SUB PUSH1 0x0 DUP4 ADD MSTORE PUSH2 0xB80 DUP2 PUSH2 0xB44 JUMP JUMPDEST SWAP1 POP SWAP2 SWAP1 POP JUMP JUMPDEST PUSH32 0x4E487B7100000000000000000000000000000000000000000000000000000000 PUSH1 0x0 MSTORE PUSH1 0x32 PUSH1 0x4 MSTORE PUSH1 0x24 PUSH1 0x0 REVERT JUMPDEST PUSH1 0x0 DUP1 REVERT JUMPDEST PUSH1 0x0 DUP1 REVERT JUMPDEST PUSH1 0x0 DUP1 REVERT JUMPDEST PUSH1 0x0 DUP1 DUP4 CALLDATALOAD PUSH1 0x1 PUSH1 0x20 SUB DUP5 CALLDATASIZE SUB SUB DUP2 SLT PUSH2 0xBE2 JUMPI PUSH2 0xBE1 PUSH2 0xBB6 JUMP JUMPDEST JUMPDEST DUP1 DUP5 ADD SWAP3 POP DUP3 CALLDATALOAD SWAP2 POP PUSH8 0xFFFFFFFFFFFFFFFF DUP3 GT ISZERO PUSH2 0xC04 JUMPI PUSH2 0xC03 PUSH2 0xBBB JUMP JUMPDEST JUMPDEST PUSH1 0x20 DUP4 ADD SWAP3 POP PUSH1 0x1 DUP3 MUL CALLDATASIZE SUB DUP4 SGT ISZERO PUSH2 0xC20 JUMPI PUSH2 0xC1F PUSH2 0xBC0 JUMP JUMPDEST JUMPDEST POP SWAP3 POP SWAP3 SWAP1 POP JUMP JUMPDEST PUSH1 0x0 DUP2 SWAP1 POP SWAP3 SWAP2 POP POP JUMP JUMPDEST DUP3 DUP2 DUP4 CALLDATACOPY PUSH1 0x0 DUP4 DUP4 ADD MSTORE POP POP POP JUMP JUMPDEST PUSH1 0x0 PUSH2 0xC4E DUP4 DUP6 PUSH2 0xC28 JUMP JUMPDEST SWAP4 POP PUSH2 0xC5B DUP4 DUP6 DUP5 PUSH2 0xC33 JUMP JUMPDEST DUP3 DUP5 ADD SWAP1 POP SWAP4 SWAP3 POP POP POP JUMP JUMPDEST PUSH1 0x0 PUSH2 0xC74 DUP3 DUP5 DUP7 PUSH2 0xC42 JUMP JUMPDEST SWAP2 POP DUP2 SWAP1 POP SWAP4 SWAP3 POP POP POP JUMP JUMPDEST PUSH32 0x4E487B7100000000000000000000000000000000000000000000000000000000 PUSH1 0x0 MSTORE PUSH1 0x22 PUSH1 0x4 MSTORE PUSH1 0x24 PUSH1 0x0 REVERT JUMPDEST PUSH1 0x0 PUSH1 0x2 DUP3 DIV SWAP1 POP PUSH1 0x1 DUP3 AND DUP1 PUSH2 0xCC7 JUMPI PUSH1 0x7F DUP3 AND SWAP2 POP JUMPDEST PUSH1 0x20 DUP3 LT DUP2 SUB PUSH2 0xCDA JUMPI PUSH2 0xCD9 PUSH2 0xC80 JUMP JUMPDEST JUMPDEST POP SWAP2 SWAP1 POP JUMP JUMPDEST PUSH1 0x0 DUP2 SWAP1 POP DUP2 PUSH1 0x0 MSTORE PUSH1 0x20 PUSH1 0x0 KECCAK256 SWAP1 POP SWAP2 SWAP1 POP JUMP JUMPDEST PUSH1 0x0 DUP2 SLOAD PUSH2 0xD02 DUP2 PUSH2 0xCAF JUMP JUMPDEST PUSH2 0xD0C DUP2 DUP7 PUSH2 0xC28 JUMP JUMPDEST SWAP5 POP PUSH1 0x1 DUP3 AND PUSH1 0x0 DUP2 EQ PUSH2 0xD27 JUMPI PUSH1 0x1 DUP2 EQ PUSH2 0xD3C JUMPI PUSH2 0xD6F JUMP JUMPDEST PUSH1 0xFF NOT DUP4 AND DUP7 MSTORE DUP2 ISZERO ISZERO DUP3 MUL DUP7 ADD SWAP4 POP PUSH2 0xD6F JUMP JUMPDEST PUSH2 0xD45 DUP6 PUSH2 0xCE0 JUMP JUMPDEST PUSH1 0x0 JUMPDEST DUP4 DUP2 LT ISZERO PUSH2 0xD67 JUMPI DUP2 SLOAD DUP2 DUP10 ADD MSTORE PUSH1 0x1 DUP3 ADD SWAP2 POP PUSH1 0x20 DUP2 ADD SWAP1 POP PUSH2 0xD48 JUMP JUMPDEST DUP4 DUP9 ADD SWAP6 POP POP POP JUMPDEST POP POP POP SWAP3 SWAP2 POP POP JUMP JUMPDEST PUSH1 0x0 PUSH2 0xD84 DUP3 DUP5 PUSH2 0xCF5 JUMP JUMPDEST SWAP2 POP DUP2 SWAP1 POP SWAP3 SWAP2 POP POP JUMP JUMPDEST PUSH32 0x4E487B7100000000000000000000000000000000000000000000000000000000 PUSH1 0x0 MSTORE PUSH1 0x11 PUSH1 0x4 MSTORE PUSH1 0x24 PUSH1 0x0 REVERT JUMPDEST PUSH1 0x0 PUSH2 0xDC9 DUP3 PUSH2 0x7ED JUMP JUMPDEST SWAP2 POP PUSH2 0xDD4 DUP4 PUSH2 0x7ED JUMP JUMPDEST SWAP3 POP DUP3 DUP3 ADD SWAP1 POP DUP1 DUP3 GT ISZERO PUSH2 0xDEC JUMPI PUSH2 0xDEB PUSH2 0xD8F JUMP JUMPDEST JUMPDEST SWAP3 SWAP2 POP POP JUMP JUMPDEST PUSH1 0x0 PUSH2 0xDFD DUP3 PUSH2 0x7ED JUMP JUMPDEST SWAP2 POP PUSH2 0xE08 DUP4 PUSH2 0x7ED JUMP JUMPDEST SWAP3 POP DUP3 DUP3 SUB SWAP1 POP DUP2 DUP2 GT ISZERO PUSH2 0xE20 JUMPI PUSH2 0xE1F PUSH2 0xD8F JUMP JUMPDEST JUMPDEST SWAP3 SWAP2 POP POP JUMP JUMPDEST PUSH32 0x4E487B7100000000000000000000000000000000000000000000000000000000 PUSH1 0x0 MSTORE PUSH1 0x41 PUSH1 0x4 MSTORE PUSH1 0x24 PUSH1 0x0 REVERT JUMPDEST PUSH1 0x0 PUSH1 0x20 PUSH1 0x1F DUP4 ADD DIV SWAP1 POP SWAP2 SWAP1 POP JUMP JUMPDEST PUSH1 0x0 DUP3 DUP3 SHL SWAP1 POP SWAP3 SWAP2 POP POP JUMP JUMPDEST PUSH1 0x0 PUSH1 0x8 DUP4 MUL PUSH2 0xEA2 PUSH32 0xFFFFFFFFFFFFFFFFFFFFFFFFFFFFFFFFFFFFFFFFFFFFFFFFFFFFFFFFFFFFFFFF DUP3 PUSH2 0xE65 JUMP JUMPDEST PUSH2 0xEAC DUP7 DUP4 PUSH2 0xE65 JUMP JUMPDEST SWAP6 POP DUP1 NOT DUP5 AND SWAP4 POP DUP1 DUP7 AND DUP5 OR SWAP3 POP POP POP SWAP4 SWAP3 POP POP POP JUMP JUMPDEST PUSH1 0x0 DUP2 SWAP1 POP SWAP2 SWAP1 POP JUMP JUMPDEST PUSH1 0x0 PUSH2 0xEE9 PUSH2 0xEE4 PUSH2 0xEDF DUP5 PUSH2 0x7ED JUMP JUMPDEST PUSH2 0xEC4 JUMP JUMPDEST PUSH2 0x7ED JUMP JUMPDEST SWAP1 POP SWAP2 SWAP1 POP JUMP JUMPDEST PUSH1 0x0 DUP2 SWAP1 POP SWAP2 SWAP1 POP JUMP JUMPDEST PUSH2 0xF03 DUP4 PUSH2 0xECE JUMP JUMPDEST PUSH2 0xF17 PUSH2 0xF0F DUP3 PUSH2 0xEF0 JUMP JUMPDEST DUP5 DUP5 SLOAD PUSH2 0xE72 JUMP JUMPDEST DUP3 SSTORE POP POP POP POP JUMP JUMPDEST PUSH1 0x0 SWAP1 JUMP JUMPDEST PUSH2 0xF2C PUSH2 0xF1F JUMP JUMPDEST PUSH2 0xF37 DUP2 DUP5 DUP5 PUSH2 0xEFA JUMP JUMPDEST POP POP POP JUMP JUMPDEST JUMPDEST DUP2 DUP2 LT ISZERO PUSH2 0xF5B JUMPI PUSH2 0xF50 PUSH1 0x0 DUP3 PUSH2 0xF24 JUMP JUMPDEST PUSH1 0x1 DUP2 ADD SWAP1 POP PUSH2 0xF3D JUMP JUMPDEST POP POP JUMP JUMPDEST PUSH1 0x1F DUP3 GT ISZERO PUSH2 0xFA0 JUMPI PUSH2 0xF71 DUP2 PUSH2 0xCE0 JUMP JUMPDEST PUSH2 0xF7A DUP5 PUSH2 0xE55 JUMP JUMPDEST DUP2 ADD PUSH1 0x20 DUP6 LT ISZERO PUSH2 0xF89 JUMPI DUP2 SWAP1 POP JUMPDEST PUSH2 0xF9D PUSH2 0xF95 DUP6 PUSH2 0xE55 JUMP JUMPDEST DUP4 ADD DUP3 PUSH2 0xF3C JUMP JUMPDEST POP POP JUMPDEST POP POP POP JUMP JUMPDEST PUSH1 0x0 DUP3 DUP3 SHR SWAP1 POP SWAP3 SWAP2 POP POP JUMP JUMPDEST PUSH1 0x0 PUSH2 0xFC3 PUSH1 0x0 NOT DUP5 PUSH1 0x8 MUL PUSH2 0xFA5 JUMP JUMPDEST NOT DUP1 DUP4 AND SWAP2 POP POP SWAP3 SWAP2 POP POP JUMP JUMPDEST PUSH1 0x0 PUSH2 0xFDC DUP4 DUP4 PUSH2 0xFB2 JUMP JUMPDEST SWAP2 POP DUP3 PUSH1 0x2 MUL DUP3 OR SWAP1 POP SWAP3 SWAP2 POP POP JUMP JUMPDEST PUSH2 0xFF5 DUP3 PUSH2 0x94D JUMP JUMPDEST PUSH8 0xFFFFFFFFFFFFFFFF DUP2 GT ISZERO PUSH2 0x100E JUMPI PUSH2 0x100D PUSH2 0xE26 JUMP JUMPDEST JUMPDEST PUSH2 0x1018 DUP3 SLOAD PUSH2 0xCAF JUMP JUMPDEST PUSH2 0x1023 DUP3 DUP3 DUP6 PUSH2 0xF5F JUMP JUMPDEST PUSH1 0x0 PUSH1 0x20 SWAP1 POP PUSH1 0x1F DUP4 GT PUSH1 0x1 DUP2 EQ PUSH2 0x1056 JUMPI PUSH1 0x0 DUP5 ISZERO PUSH2 0x1044 JUMPI DUP3 DUP8 ADD MLOAD SWAP1 POP JUMPDEST PUSH2 0x104E DUP6 DUP3 PUSH2 0xFD0 JUMP JUMPDEST DUP7 SSTORE POP PUSH2 0x10B6 JUMP JUMPDEST PUSH1 0x1F NOT DUP5 AND PUSH2 0x1064 DUP7 PUSH2 0xCE0 JUMP JUMPDEST PUSH1 0x0 JUMPDEST DUP3 DUP2 LT ISZERO PUSH2 0x108C JUMPI DUP5 DUP10 ADD MLOAD DUP3 SSTORE PUSH1 0x1 DUP3 ADD SWAP2 POP PUSH1 0x20 DUP6 ADD SWAP5 POP PUSH1 0x20 DUP2 ADD SWAP1 POP PUSH2 0x1067 JUMP JUMPDEST DUP7 DUP4 LT ISZERO PUSH2 0x10A9 JUMPI DUP5 DUP10 ADD MLOAD PUSH2 0x10A5 PUSH1 0x1F DUP10 AND DUP3 PUSH2 0xFB2 JUMP JUMPDEST DUP4 SSTORE POP JUMPDEST PUSH1 0x1 PUSH1 0x2 DUP9 MUL ADD DUP9 SSTORE POP POP POP JUMPDEST POP POP POP POP POP POP JUMP INVALID LOG2 PUSH5 0x6970667358 0x22 SLT KECCAK256 DUP16 0xD1 0xA5 0xCB DUP12 0xB2 0xED 0x1F DUP6 SWAP12 LT LT JUMP 0xD5 0xCE ORIGIN LOG3 0xDF EXTCODECOPY EXTCODECOPY PUSH25 0x89F5B2CABAC63DB9E7DC1864736F6C63430008190033000000 "
        },
        "methodIdentifiers": {
          "_createPerson(address,string,uint256)": "fe6e9120",
          "_decrFavouriteNumber(address,uint256,(string,uint256))": "2a7440d0",
          "_incrFavouriteNumber(address,uint256,(string,uint256))": "07f74843",
          "ownerAddresses(uint256)": "0f310b17",
          "peopleMap(address,uint256)": "4081601b"
        }
      }
    }
  }
}