{
	"contracts/AdvancedStorage.sol": {
		"AdvancedStorage": {
			"abi": [
				{
					"inputs": [
						{
							"internalType": "address",
							"name": "_ownerAddress",
							"type": "address"
						},
						{
							"internalType": "string",
							"name": "_name",
							"type": "string"
						},
						{
							"internalType": "uint256",
							"name": "_favouriteNumber",
							"type": "uint256"
						}
					],
					"name": "_createPerson",
					"outputs": [],
					"stateMutability": "nonpayable",
					"type": "function"
				},
				{
					"inputs": [
						{
							"internalType": "address",
							"name": "_ownerAddress",
							"type": "address"
						},
						{
							"internalType": "uint256",
							"name": "_value",
							"type": "uint256"
						},
						{
							"components": [
								{
									"internalType": "string",
									"name": "name",
									"type": "string"
								},
								{
									"internalType": "uint256",
									"name": "favouriteNumber",
									"type": "uint256"
								}
							],
							"internalType": "struct Person",
							"name": "_person",
							"type": "tuple"
						}
					],
					"name": "_decrFavouriteNumber",
					"outputs": [],
					"stateMutability": "nonpayable",
					"type": "function"
				},
				{
					"inputs": [
						{
							"internalType": "address",
							"name": "_ownerAddress",
							"type": "address"
						},
						{
							"internalType": "uint256",
							"name": "_value",
							"type": "uint256"
						},
						{
							"components": [
								{
									"internalType": "string",
									"name": "name",
									"type": "string"
								},
								{
									"internalType": "uint256",
									"name": "favouriteNumber",
									"type": "uint256"
								}
							],
							"internalType": "struct Person",
							"name": "_person",
							"type": "tuple"
						}
					],
					"name": "_incrFavouriteNumber",
					"outputs": [],
					"stateMutability": "nonpayable",
					"type": "function"
				},
				{
					"inputs": [
						{
							"internalType": "uint256",
							"name": "",
							"type": "uint256"
						}
					],
					"name": "ownerAddresses",
					"outputs": [
						{
							"internalType": "address",
							"name": "",
							"type": "address"
						}
					],
					"stateMutability": "view",
					"type": "function"
				},
				{
					"inputs": [
						{
							"internalType": "address",
							"name": "",
							"type": "address"
						},
						{
							"internalType": "uint256",
							"name": "",
							"type": "uint256"
						}
					],
					"name": "peopleMap",
					"outputs": [
						{
							"internalType": "string",
							"name": "name",
							"type": "string"
						},
						{
							"internalType": "uint256",
							"name": "favouriteNumber",
							"type": "uint256"
						}
					],
					"stateMutability": "view",
					"type": "function"
				}
			],
			"devdoc": {
				"kind": "dev",
				"methods": {},
				"version": 1
			},
			"evm": {
				"assembly": "    /* \"contracts/AdvancedStorage.sol\":247:2718  contract AdvancedStorage is SimpleStorage{... */\n  mstore(0x40, 0x80)\n  callvalue\n  dup1\n  iszero\n  tag_1\n  jumpi\n  0x00\n  dup1\n  revert\ntag_1:\n  pop\n  dataSize(sub_0)\n  dup1\n  dataOffset(sub_0)\n  0x00\n  codecopy\n  0x00\n  return\nstop\n\nsub_0: assembly {\n        /* \"contracts/AdvancedStorage.sol\":247:2718  contract AdvancedStorage is SimpleStorage{... */\n      mstore(0x40, 0x80)\n      callvalue\n      dup1\n      iszero\n      tag_1\n      jumpi\n      0x00\n      dup1\n      revert\n    tag_1:\n      pop\n      jumpi(tag_2, lt(calldatasize, 0x04))\n      shr(0xe0, calldataload(0x00))\n      dup1\n      0x07f74843\n      eq\n      tag_3\n      jumpi\n      dup1\n      0x0f310b17\n      eq\n      tag_4\n      jumpi\n      dup1\n      0x2a7440d0\n      eq\n      tag_5\n      jumpi\n      dup1\n      0x4081601b\n      eq\n      tag_6\n      jumpi\n      dup1\n      0xfe6e9120\n      eq\n      tag_7\n      jumpi\n    tag_2:\n      0x00\n      dup1\n      revert\n        /* \"contracts/AdvancedStorage.sol\":994:1813  function _incrFavouriteNumber(... */\n    tag_3:\n      tag_8\n      0x04\n      dup1\n      calldatasize\n      sub\n      dup2\n      add\n      swap1\n      tag_9\n      swap2\n      swap1\n      tag_10\n      jump\t// in\n    tag_9:\n      tag_11\n      jump\t// in\n    tag_8:\n      stop\n        /* \"contracts/SimpleStorage.sol\":218:249  address[] public ownerAddresses */\n    tag_4:\n      tag_12\n      0x04\n      dup1\n      calldatasize\n      sub\n      dup2\n      add\n      swap1\n      tag_13\n      swap2\n      swap1\n      tag_14\n      jump\t// in\n    tag_13:\n      tag_15\n      jump\t// in\n    tag_12:\n      mload(0x40)\n      tag_16\n      swap2\n      swap1\n      tag_17\n      jump\t// in\n    tag_16:\n      mload(0x40)\n      dup1\n      swap2\n      sub\n      swap1\n      return\n        /* \"contracts/AdvancedStorage.sol\":1893:2715  function _decrFavouriteNumber(... */\n    tag_5:\n      tag_18\n      0x04\n      dup1\n      calldatasize\n      sub\n      dup2\n      add\n      swap1\n      tag_19\n      swap2\n      swap1\n      tag_10\n      jump\t// in\n    tag_19:\n      tag_20\n      jump\t// in\n    tag_18:\n      stop\n        /* \"contracts/SimpleStorage.sol\":165:211  mapping (address => Person[]) public peopleMap */\n    tag_6:\n      tag_21\n      0x04\n      dup1\n      calldatasize\n      sub\n      dup2\n      add\n      swap1\n      tag_22\n      swap2\n      swap1\n      tag_23\n      jump\t// in\n    tag_22:\n      tag_24\n      jump\t// in\n    tag_21:\n      mload(0x40)\n      tag_25\n      swap3\n      swap2\n      swap1\n      tag_26\n      jump\t// in\n    tag_25:\n      mload(0x40)\n      dup1\n      swap2\n      sub\n      swap1\n      return\n        /* \"contracts/SimpleStorage.sol\":296:857  function _createPerson(address _ownerAddress, string calldata _name, uint _favouriteNumber) external  {... */\n    tag_7:\n      tag_27\n      0x04\n      dup1\n      calldatasize\n      sub\n      dup2\n      add\n      swap1\n      tag_28\n      swap2\n      swap1\n      tag_29\n      jump\t// in\n    tag_28:\n      tag_30\n      jump\t// in\n    tag_27:\n      stop\n        /* \"contracts/AdvancedStorage.sol\":994:1813  function _incrFavouriteNumber(... */\n    tag_11:\n        /* \"contracts/AdvancedStorage.sol\":1140:1153  _ownerAddress */\n      dup3\n        /* \"contracts/AdvancedStorage.sol\":479:502  _isOwner(_ownerAddress) */\n      tag_32\n        /* \"contracts/AdvancedStorage.sol\":488:501  _ownerAddress */\n      dup2\n        /* \"contracts/AdvancedStorage.sol\":479:487  _isOwner */\n      tag_33\n        /* \"contracts/AdvancedStorage.sol\":479:502  _isOwner(_ownerAddress) */\n      jump\t// in\n    tag_32:\n        /* \"contracts/AdvancedStorage.sol\":471:556  require(_isOwner(_ownerAddress), \"You must be a registered owner to access a person\") */\n      tag_34\n      jumpi\n      mload(0x40)\n      0x08c379a000000000000000000000000000000000000000000000000000000000\n      dup2\n      mstore\n      0x04\n      add\n      tag_35\n      swap1\n      tag_36\n      jump\t// in\n    tag_35:\n      mload(0x40)\n      dup1\n      swap2\n      sub\n      swap1\n      revert\n    tag_34:\n        /* \"contracts/AdvancedStorage.sol\":1165:1193  Person[] storage ownedPeople */\n      0x00\n        /* \"contracts/AdvancedStorage.sol\":1196:1205  peopleMap */\n      dup1\n        /* \"contracts/AdvancedStorage.sol\":1196:1220  peopleMap[_ownerAddress] */\n      0x00\n        /* \"contracts/AdvancedStorage.sol\":1206:1219  _ownerAddress */\n      dup7\n        /* \"contracts/AdvancedStorage.sol\":1196:1220  peopleMap[_ownerAddress] */\n      0xffffffffffffffffffffffffffffffffffffffff\n      and\n      0xffffffffffffffffffffffffffffffffffffffff\n      and\n      dup2\n      mstore\n      0x20\n      add\n      swap1\n      dup2\n      mstore\n      0x20\n      add\n      0x00\n      keccak256\n        /* \"contracts/AdvancedStorage.sol\":1165:1220  Person[] storage ownedPeople = peopleMap[_ownerAddress] */\n      swap1\n      pop\n        /* \"contracts/AdvancedStorage.sol\":1237:1243  uint i */\n      0x00\n        /* \"contracts/AdvancedStorage.sol\":1233:1806  for(uint i = 0; i < ownedPeople.length; i++){... */\n    tag_38:\n        /* \"contracts/AdvancedStorage.sol\":1253:1264  ownedPeople */\n      dup2\n        /* \"contracts/AdvancedStorage.sol\":1253:1271  ownedPeople.length */\n      dup1\n      sload\n      swap1\n      pop\n        /* \"contracts/AdvancedStorage.sol\":1249:1250  i */\n      dup2\n        /* \"contracts/AdvancedStorage.sol\":1249:1271  i < ownedPeople.length */\n      lt\n        /* \"contracts/AdvancedStorage.sol\":1233:1806  for(uint i = 0; i < ownedPeople.length; i++){... */\n      iszero\n      tag_39\n      jumpi\n        /* \"contracts/AdvancedStorage.sol\":1292:1320  Person storage currentPerson */\n      0x00\n        /* \"contracts/AdvancedStorage.sol\":1323:1334  ownedPeople */\n      dup3\n        /* \"contracts/AdvancedStorage.sol\":1335:1336  i */\n      dup3\n        /* \"contracts/AdvancedStorage.sol\":1323:1337  ownedPeople[i] */\n      dup2\n      sload\n      dup2\n      lt\n      tag_41\n      jumpi\n      tag_42\n      tag_43\n      jump\t// in\n    tag_42:\n    tag_41:\n      swap1\n      0x00\n      mstore\n      keccak256(0x00, 0x20)\n      swap1\n      0x02\n      mul\n      add\n        /* \"contracts/AdvancedStorage.sol\":1292:1337  Person storage currentPerson = ownedPeople[i] */\n      swap1\n      pop\n        /* \"contracts/AdvancedStorage.sol\":1454:1461  _person */\n      dup5\n        /* \"contracts/AdvancedStorage.sol\":1454:1466  _person.name */\n      dup1\n      0x00\n      add\n      swap1\n      tag_45\n      swap2\n      swap1\n      tag_46\n      jump\t// in\n    tag_45:\n        /* \"contracts/AdvancedStorage.sol\":1436:1467  abi.encodePacked( _person.name) */\n      add(0x20, mload(0x40))\n      tag_47\n      swap3\n      swap2\n      swap1\n      tag_48\n      jump\t// in\n    tag_47:\n      mload(0x40)\n      0x20\n      dup2\n      dup4\n      sub\n      sub\n      dup2\n      mstore\n      swap1\n      0x40\n      mstore\n        /* \"contracts/AdvancedStorage.sol\":1426:1468  keccak256(abi.encodePacked( _person.name)) */\n      dup1\n      mload\n      swap1\n      0x20\n      add\n      keccak256\n        /* \"contracts/AdvancedStorage.sol\":1402:1415  currentPerson */\n      dup2\n        /* \"contracts/AdvancedStorage.sol\":1402:1420  currentPerson.name */\n      0x00\n      add\n        /* \"contracts/AdvancedStorage.sol\":1385:1421  abi.encodePacked(currentPerson.name) */\n      add(0x20, mload(0x40))\n      tag_49\n      swap2\n      swap1\n      tag_50\n      jump\t// in\n    tag_49:\n      mload(0x40)\n      0x20\n      dup2\n      dup4\n      sub\n      sub\n      dup2\n      mstore\n      swap1\n      0x40\n      mstore\n        /* \"contracts/AdvancedStorage.sol\":1375:1422  keccak256(abi.encodePacked(currentPerson.name)) */\n      dup1\n      mload\n      swap1\n      0x20\n      add\n      keccak256\n        /* \"contracts/AdvancedStorage.sol\":1375:1468  keccak256(abi.encodePacked(currentPerson.name)) == keccak256(abi.encodePacked( _person.name)) */\n      eq\n        /* \"contracts/AdvancedStorage.sol\":1375:1545  keccak256(abi.encodePacked(currentPerson.name)) == keccak256(abi.encodePacked( _person.name)) &&... */\n      dup1\n      iszero\n      tag_51\n      jumpi\n      pop\n        /* \"contracts/AdvancedStorage.sol\":1522:1529  _person */\n      dup5\n        /* \"contracts/AdvancedStorage.sol\":1522:1545  _person.favouriteNumber */\n      0x20\n      add\n      calldataload\n        /* \"contracts/AdvancedStorage.sol\":1489:1502  currentPerson */\n      dup2\n        /* \"contracts/AdvancedStorage.sol\":1489:1518  currentPerson.favouriteNumber */\n      0x01\n      add\n      sload\n        /* \"contracts/AdvancedStorage.sol\":1489:1545  currentPerson.favouriteNumber == _person.favouriteNumber */\n      eq\n        /* \"contracts/AdvancedStorage.sol\":1375:1545  keccak256(abi.encodePacked(currentPerson.name)) == keccak256(abi.encodePacked( _person.name)) &&... */\n    tag_51:\n        /* \"contracts/AdvancedStorage.sol\":1354:1795  if(... */\n      iszero\n      tag_52\n      jumpi\n        /* \"contracts/AdvancedStorage.sol\":1580:1591  bool status */\n      0x00\n        /* \"contracts/AdvancedStorage.sol\":1593:1604  uint answer */\n      dup1\n        /* \"contracts/AdvancedStorage.sol\":1608:1652  currentPerson.favouriteNumber.tryAdd(_value) */\n      tag_53\n        /* \"contracts/AdvancedStorage.sol\":1645:1651  _value */\n      dup9\n        /* \"contracts/AdvancedStorage.sol\":1608:1621  currentPerson */\n      dup5\n        /* \"contracts/AdvancedStorage.sol\":1608:1637  currentPerson.favouriteNumber */\n      0x01\n      add\n      sload\n        /* \"contracts/AdvancedStorage.sol\":1608:1644  currentPerson.favouriteNumber.tryAdd */\n      tag_54\n      swap1\n        /* \"contracts/AdvancedStorage.sol\":1608:1652  currentPerson.favouriteNumber.tryAdd(_value) */\n      swap2\n      swap1\n      0xffffffff\n      and\n      jump\t// in\n    tag_53:\n        /* \"contracts/AdvancedStorage.sol\":1579:1652  (bool status, uint answer) = currentPerson.favouriteNumber.tryAdd(_value) */\n      swap2\n      pop\n      swap2\n      pop\n        /* \"contracts/AdvancedStorage.sol\":1679:1685  status */\n      dup2\n        /* \"contracts/AdvancedStorage.sol\":1671:1722  require(status, \"An error occured during addition\") */\n      tag_55\n      jumpi\n      mload(0x40)\n      0x08c379a000000000000000000000000000000000000000000000000000000000\n      dup2\n      mstore\n      0x04\n      add\n      tag_56\n      swap1\n      tag_57\n      jump\t// in\n    tag_56:\n      mload(0x40)\n      dup1\n      swap2\n      sub\n      swap1\n      revert\n    tag_55:\n        /* \"contracts/AdvancedStorage.sol\":1773:1779  answer */\n      dup1\n        /* \"contracts/AdvancedStorage.sol\":1741:1754  currentPerson */\n      dup4\n        /* \"contracts/AdvancedStorage.sol\":1741:1770  currentPerson.favouriteNumber */\n      0x01\n      add\n        /* \"contracts/AdvancedStorage.sol\":1741:1779  currentPerson.favouriteNumber = answer */\n      dup2\n      swap1\n      sstore\n      pop\n        /* \"contracts/AdvancedStorage.sol\":1560:1795  {... */\n      pop\n      pop\n        /* \"contracts/AdvancedStorage.sol\":1354:1795  if(... */\n    tag_52:\n        /* \"contracts/AdvancedStorage.sol\":1277:1806  {... */\n      pop\n        /* \"contracts/AdvancedStorage.sol\":1273:1276  i++ */\n      dup1\n      dup1\n      0x01\n      add\n      swap2\n      pop\n      pop\n        /* \"contracts/AdvancedStorage.sol\":1233:1806  for(uint i = 0; i < ownedPeople.length; i++){... */\n      jump(tag_38)\n    tag_39:\n      pop\n        /* \"contracts/AdvancedStorage.sol\":1154:1813  {... */\n      pop\n        /* \"contracts/AdvancedStorage.sol\":994:1813  function _incrFavouriteNumber(... */\n      pop\n      pop\n      pop\n      pop\n      jump\t// out\n        /* \"contracts/SimpleStorage.sol\":218:249  address[] public ownerAddresses */\n    tag_15:\n      0x01\n      dup2\n      dup2\n      sload\n      dup2\n      lt\n      tag_58\n      jumpi\n      0x00\n      dup1\n      revert\n    tag_58:\n      swap1\n      0x00\n      mstore\n      keccak256(0x00, 0x20)\n      add\n      0x00\n      swap2\n      pop\n      sload\n      swap1\n      0x0100\n      exp\n      swap1\n      div\n      0xffffffffffffffffffffffffffffffffffffffff\n      and\n      dup2\n      jump\t// out\n        /* \"contracts/AdvancedStorage.sol\":1893:2715  function _decrFavouriteNumber(... */\n    tag_20:\n        /* \"contracts/AdvancedStorage.sol\":2039:2052  _ownerAddress */\n      dup3\n        /* \"contracts/AdvancedStorage.sol\":479:502  _isOwner(_ownerAddress) */\n      tag_61\n        /* \"contracts/AdvancedStorage.sol\":488:501  _ownerAddress */\n      dup2\n        /* \"contracts/AdvancedStorage.sol\":479:487  _isOwner */\n      tag_33\n        /* \"contracts/AdvancedStorage.sol\":479:502  _isOwner(_ownerAddress) */\n      jump\t// in\n    tag_61:\n        /* \"contracts/AdvancedStorage.sol\":471:556  require(_isOwner(_ownerAddress), \"You must be a registered owner to access a person\") */\n      tag_62\n      jumpi\n      mload(0x40)\n      0x08c379a000000000000000000000000000000000000000000000000000000000\n      dup2\n      mstore\n      0x04\n      add\n      tag_63\n      swap1\n      tag_36\n      jump\t// in\n    tag_63:\n      mload(0x40)\n      dup1\n      swap2\n      sub\n      swap1\n      revert\n    tag_62:\n        /* \"contracts/AdvancedStorage.sol\":2064:2092  Person[] storage ownedPeople */\n      0x00\n        /* \"contracts/AdvancedStorage.sol\":2095:2104  peopleMap */\n      dup1\n        /* \"contracts/AdvancedStorage.sol\":2095:2119  peopleMap[_ownerAddress] */\n      0x00\n        /* \"contracts/AdvancedStorage.sol\":2105:2118  _ownerAddress */\n      dup7\n        /* \"contracts/AdvancedStorage.sol\":2095:2119  peopleMap[_ownerAddress] */\n      0xffffffffffffffffffffffffffffffffffffffff\n      and\n      0xffffffffffffffffffffffffffffffffffffffff\n      and\n      dup2\n      mstore\n      0x20\n      add\n      swap1\n      dup2\n      mstore\n      0x20\n      add\n      0x00\n      keccak256\n        /* \"contracts/AdvancedStorage.sol\":2064:2119  Person[] storage ownedPeople = peopleMap[_ownerAddress] */\n      swap1\n      pop\n        /* \"contracts/AdvancedStorage.sol\":2136:2142  uint i */\n      0x00\n        /* \"contracts/AdvancedStorage.sol\":2132:2708  for(uint i = 0; i < ownedPeople.length; i++){... */\n    tag_65:\n        /* \"contracts/AdvancedStorage.sol\":2152:2163  ownedPeople */\n      dup2\n        /* \"contracts/AdvancedStorage.sol\":2152:2170  ownedPeople.length */\n      dup1\n      sload\n      swap1\n      pop\n        /* \"contracts/AdvancedStorage.sol\":2148:2149  i */\n      dup2\n        /* \"contracts/AdvancedStorage.sol\":2148:2170  i < ownedPeople.length */\n      lt\n        /* \"contracts/AdvancedStorage.sol\":2132:2708  for(uint i = 0; i < ownedPeople.length; i++){... */\n      iszero\n      tag_66\n      jumpi\n        /* \"contracts/AdvancedStorage.sol\":2191:2219  Person storage currentPerson */\n      0x00\n        /* \"contracts/AdvancedStorage.sol\":2222:2233  ownedPeople */\n      dup3\n        /* \"contracts/AdvancedStorage.sol\":2234:2235  i */\n      dup3\n        /* \"contracts/AdvancedStorage.sol\":2222:2236  ownedPeople[i] */\n      dup2\n      sload\n      dup2\n      lt\n      tag_68\n      jumpi\n      tag_69\n      tag_43\n      jump\t// in\n    tag_69:\n    tag_68:\n      swap1\n      0x00\n      mstore\n      keccak256(0x00, 0x20)\n      swap1\n      0x02\n      mul\n      add\n        /* \"contracts/AdvancedStorage.sol\":2191:2236  Person storage currentPerson = ownedPeople[i] */\n      swap1\n      pop\n        /* \"contracts/AdvancedStorage.sol\":2353:2360  _person */\n      dup5\n        /* \"contracts/AdvancedStorage.sol\":2353:2365  _person.name */\n      dup1\n      0x00\n      add\n      swap1\n      tag_71\n      swap2\n      swap1\n      tag_46\n      jump\t// in\n    tag_71:\n        /* \"contracts/AdvancedStorage.sol\":2335:2366  abi.encodePacked( _person.name) */\n      add(0x20, mload(0x40))\n      tag_72\n      swap3\n      swap2\n      swap1\n      tag_48\n      jump\t// in\n    tag_72:\n      mload(0x40)\n      0x20\n      dup2\n      dup4\n      sub\n      sub\n      dup2\n      mstore\n      swap1\n      0x40\n      mstore\n        /* \"contracts/AdvancedStorage.sol\":2325:2367  keccak256(abi.encodePacked( _person.name)) */\n      dup1\n      mload\n      swap1\n      0x20\n      add\n      keccak256\n        /* \"contracts/AdvancedStorage.sol\":2301:2314  currentPerson */\n      dup2\n        /* \"contracts/AdvancedStorage.sol\":2301:2319  currentPerson.name */\n      0x00\n      add\n        /* \"contracts/AdvancedStorage.sol\":2284:2320  abi.encodePacked(currentPerson.name) */\n      add(0x20, mload(0x40))\n      tag_73\n      swap2\n      swap1\n      tag_50\n      jump\t// in\n    tag_73:\n      mload(0x40)\n      0x20\n      dup2\n      dup4\n      sub\n      sub\n      dup2\n      mstore\n      swap1\n      0x40\n      mstore\n        /* \"contracts/AdvancedStorage.sol\":2274:2321  keccak256(abi.encodePacked(currentPerson.name)) */\n      dup1\n      mload\n      swap1\n      0x20\n      add\n      keccak256\n        /* \"contracts/AdvancedStorage.sol\":2274:2367  keccak256(abi.encodePacked(currentPerson.name)) == keccak256(abi.encodePacked( _person.name)) */\n      eq\n        /* \"contracts/AdvancedStorage.sol\":2274:2444  keccak256(abi.encodePacked(currentPerson.name)) == keccak256(abi.encodePacked( _person.name)) &&... */\n      dup1\n      iszero\n      tag_74\n      jumpi\n      pop\n        /* \"contracts/AdvancedStorage.sol\":2421:2428  _person */\n      dup5\n        /* \"contracts/AdvancedStorage.sol\":2421:2444  _person.favouriteNumber */\n      0x20\n      add\n      calldataload\n        /* \"contracts/AdvancedStorage.sol\":2388:2401  currentPerson */\n      dup2\n        /* \"contracts/AdvancedStorage.sol\":2388:2417  currentPerson.favouriteNumber */\n      0x01\n      add\n      sload\n        /* \"contracts/AdvancedStorage.sol\":2388:2444  currentPerson.favouriteNumber == _person.favouriteNumber */\n      eq\n        /* \"contracts/AdvancedStorage.sol\":2274:2444  keccak256(abi.encodePacked(currentPerson.name)) == keccak256(abi.encodePacked( _person.name)) &&... */\n    tag_74:\n        /* \"contracts/AdvancedStorage.sol\":2253:2697  if(... */\n      iszero\n      tag_75\n      jumpi\n        /* \"contracts/AdvancedStorage.sol\":2479:2490  bool status */\n      0x00\n        /* \"contracts/AdvancedStorage.sol\":2492:2503  uint answer */\n      dup1\n        /* \"contracts/AdvancedStorage.sol\":2507:2551  currentPerson.favouriteNumber.trySub(_value) */\n      tag_76\n        /* \"contracts/AdvancedStorage.sol\":2544:2550  _value */\n      dup9\n        /* \"contracts/AdvancedStorage.sol\":2507:2520  currentPerson */\n      dup5\n        /* \"contracts/AdvancedStorage.sol\":2507:2536  currentPerson.favouriteNumber */\n      0x01\n      add\n      sload\n        /* \"contracts/AdvancedStorage.sol\":2507:2543  currentPerson.favouriteNumber.trySub */\n      tag_77\n      swap1\n        /* \"contracts/AdvancedStorage.sol\":2507:2551  currentPerson.favouriteNumber.trySub(_value) */\n      swap2\n      swap1\n      0xffffffff\n      and\n      jump\t// in\n    tag_76:\n        /* \"contracts/AdvancedStorage.sol\":2478:2551  (bool status, uint answer) = currentPerson.favouriteNumber.trySub(_value) */\n      swap2\n      pop\n      swap2\n      pop\n        /* \"contracts/AdvancedStorage.sol\":2578:2584  status */\n      dup2\n        /* \"contracts/AdvancedStorage.sol\":2570:2624  require(status, \"An error occured during subtraction\") */\n      tag_78\n      jumpi\n      mload(0x40)\n      0x08c379a000000000000000000000000000000000000000000000000000000000\n      dup2\n      mstore\n      0x04\n      add\n      tag_79\n      swap1\n      tag_80\n      jump\t// in\n    tag_79:\n      mload(0x40)\n      dup1\n      swap2\n      sub\n      swap1\n      revert\n    tag_78:\n        /* \"contracts/AdvancedStorage.sol\":2675:2681  answer */\n      dup1\n        /* \"contracts/AdvancedStorage.sol\":2643:2656  currentPerson */\n      dup4\n        /* \"contracts/AdvancedStorage.sol\":2643:2672  currentPerson.favouriteNumber */\n      0x01\n      add\n        /* \"contracts/AdvancedStorage.sol\":2643:2681  currentPerson.favouriteNumber = answer */\n      dup2\n      swap1\n      sstore\n      pop\n        /* \"contracts/AdvancedStorage.sol\":2459:2697  {... */\n      pop\n      pop\n        /* \"contracts/AdvancedStorage.sol\":2253:2697  if(... */\n    tag_75:\n        /* \"contracts/AdvancedStorage.sol\":2176:2708  {... */\n      pop\n        /* \"contracts/AdvancedStorage.sol\":2172:2175  i++ */\n      dup1\n      dup1\n      0x01\n      add\n      swap2\n      pop\n      pop\n        /* \"contracts/AdvancedStorage.sol\":2132:2708  for(uint i = 0; i < ownedPeople.length; i++){... */\n      jump(tag_65)\n    tag_66:\n      pop\n        /* \"contracts/AdvancedStorage.sol\":2053:2715  {... */\n      pop\n        /* \"contracts/AdvancedStorage.sol\":1893:2715  function _decrFavouriteNumber(... */\n      pop\n      pop\n      pop\n      pop\n      jump\t// out\n        /* \"contracts/SimpleStorage.sol\":165:211  mapping (address => Person[]) public peopleMap */\n    tag_24:\n      mstore(0x20, 0x00)\n      dup2\n      0x00\n      mstore\n      keccak256(0x00, 0x40)\n      dup2\n      dup2\n      sload\n      dup2\n      lt\n      tag_81\n      jumpi\n      0x00\n      dup1\n      revert\n    tag_81:\n      swap1\n      0x00\n      mstore\n      keccak256(0x00, 0x20)\n      swap1\n      0x02\n      mul\n      add\n      0x00\n      swap2\n      pop\n      swap2\n      pop\n      pop\n      dup1\n      0x00\n      add\n      dup1\n      sload\n      tag_83\n      swap1\n      tag_84\n      jump\t// in\n    tag_83:\n      dup1\n      0x1f\n      add\n      0x20\n      dup1\n      swap2\n      div\n      mul\n      0x20\n      add\n      mload(0x40)\n      swap1\n      dup2\n      add\n      0x40\n      mstore\n      dup1\n      swap3\n      swap2\n      swap1\n      dup2\n      dup2\n      mstore\n      0x20\n      add\n      dup3\n      dup1\n      sload\n      tag_85\n      swap1\n      tag_84\n      jump\t// in\n    tag_85:\n      dup1\n      iszero\n      tag_86\n      jumpi\n      dup1\n      0x1f\n      lt\n      tag_87\n      jumpi\n      0x0100\n      dup1\n      dup4\n      sload\n      div\n      mul\n      dup4\n      mstore\n      swap2\n      0x20\n      add\n      swap2\n      jump(tag_86)\n    tag_87:\n      dup3\n      add\n      swap2\n      swap1\n      0x00\n      mstore\n      keccak256(0x00, 0x20)\n      swap1\n    tag_88:\n      dup2\n      sload\n      dup2\n      mstore\n      swap1\n      0x01\n      add\n      swap1\n      0x20\n      add\n      dup1\n      dup4\n      gt\n      tag_88\n      jumpi\n      dup3\n      swap1\n      sub\n      0x1f\n      and\n      dup3\n      add\n      swap2\n    tag_86:\n      pop\n      pop\n      pop\n      pop\n      pop\n      swap1\n      dup1\n      0x01\n      add\n      sload\n      swap1\n      pop\n      dup3\n      jump\t// out\n        /* \"contracts/SimpleStorage.sol\":296:857  function _createPerson(address _ownerAddress, string calldata _name, uint _favouriteNumber) external  {... */\n    tag_30:\n        /* \"contracts/SimpleStorage.sol\":489:512  Person[] storage people */\n      0x00\n        /* \"contracts/SimpleStorage.sol\":515:524  peopleMap */\n      dup1\n        /* \"contracts/SimpleStorage.sol\":515:539  peopleMap[_ownerAddress] */\n      0x00\n        /* \"contracts/SimpleStorage.sol\":525:538  _ownerAddress */\n      dup7\n        /* \"contracts/SimpleStorage.sol\":515:539  peopleMap[_ownerAddress] */\n      0xffffffffffffffffffffffffffffffffffffffff\n      and\n      0xffffffffffffffffffffffffffffffffffffffff\n      and\n      dup2\n      mstore\n      0x20\n      add\n      swap1\n      dup2\n      mstore\n      0x20\n      add\n      0x00\n      keccak256\n        /* \"contracts/SimpleStorage.sol\":489:539  Person[] storage people = peopleMap[_ownerAddress] */\n      swap1\n      pop\n        /* \"contracts/SimpleStorage.sol\":550:556  people */\n      dup1\n        /* \"contracts/SimpleStorage.sol\":562:593  Person(_name, _favouriteNumber) */\n      mload(0x40)\n      dup1\n      0x40\n      add\n      0x40\n      mstore\n      dup1\n        /* \"contracts/SimpleStorage.sol\":569:574  _name */\n      dup7\n      dup7\n        /* \"contracts/SimpleStorage.sol\":562:593  Person(_name, _favouriteNumber) */\n      dup1\n      dup1\n      0x1f\n      add\n      0x20\n      dup1\n      swap2\n      div\n      mul\n      0x20\n      add\n      mload(0x40)\n      swap1\n      dup2\n      add\n      0x40\n      mstore\n      dup1\n      swap4\n      swap3\n      swap2\n      swap1\n      dup2\n      dup2\n      mstore\n      0x20\n      add\n      dup4\n      dup4\n      dup1\n      dup3\n      dup5\n      calldatacopy\n      0x00\n      dup2\n      dup5\n      add\n      mstore\n      not(0x1f)\n      0x1f\n      dup3\n      add\n      and\n      swap1\n      pop\n      dup1\n      dup4\n      add\n      swap3\n      pop\n      pop\n      pop\n      pop\n      pop\n      pop\n      pop\n      dup2\n      mstore\n      0x20\n      add\n        /* \"contracts/SimpleStorage.sol\":576:592  _favouriteNumber */\n      dup5\n        /* \"contracts/SimpleStorage.sol\":562:593  Person(_name, _favouriteNumber) */\n      dup2\n      mstore\n      pop\n        /* \"contracts/SimpleStorage.sol\":550:594  people.push(Person(_name, _favouriteNumber)) */\n      swap1\n      dup1\n      0x01\n      dup2\n      sload\n      add\n      dup1\n      dup3\n      sstore\n      dup1\n      swap2\n      pop\n      pop\n      0x01\n      swap1\n      sub\n      swap1\n      0x00\n      mstore\n      keccak256(0x00, 0x20)\n      swap1\n      0x02\n      mul\n      add\n      0x00\n      swap1\n      swap2\n      swap1\n      swap2\n      swap1\n      swap2\n      pop\n      0x00\n      dup3\n      add\n      mload\n      dup2\n      0x00\n      add\n      swap1\n      dup2\n      tag_91\n      swap2\n      swap1\n      tag_92\n      jump\t// in\n    tag_91:\n      pop\n      0x20\n      dup3\n      add\n      mload\n      dup2\n      0x01\n      add\n      sstore\n      pop\n      pop\n        /* \"contracts/SimpleStorage.sol\":688:694  uint i */\n      0x00\n        /* \"contracts/SimpleStorage.sol\":684:803  for(uint i = 0; i < ownerAddresses.length; i++){... */\n    tag_93:\n        /* \"contracts/SimpleStorage.sol\":704:718  ownerAddresses */\n      0x01\n        /* \"contracts/SimpleStorage.sol\":704:725  ownerAddresses.length */\n      dup1\n      sload\n      swap1\n      pop\n        /* \"contracts/SimpleStorage.sol\":700:701  i */\n      dup2\n        /* \"contracts/SimpleStorage.sol\":700:725  i < ownerAddresses.length */\n      lt\n        /* \"contracts/SimpleStorage.sol\":684:803  for(uint i = 0; i < ownerAddresses.length; i++){... */\n      iszero\n      tag_94\n      jumpi\n        /* \"contracts/SimpleStorage.sol\":770:783  _ownerAddress */\n      dup6\n        /* \"contracts/SimpleStorage.sol\":749:783  ownerAddresses[i] == _ownerAddress */\n      0xffffffffffffffffffffffffffffffffffffffff\n      and\n        /* \"contracts/SimpleStorage.sol\":749:763  ownerAddresses */\n      0x01\n        /* \"contracts/SimpleStorage.sol\":764:765  i */\n      dup3\n        /* \"contracts/SimpleStorage.sol\":749:766  ownerAddresses[i] */\n      dup2\n      sload\n      dup2\n      lt\n      tag_96\n      jumpi\n      tag_97\n      tag_43\n      jump\t// in\n    tag_97:\n    tag_96:\n      swap1\n      0x00\n      mstore\n      keccak256(0x00, 0x20)\n      add\n      0x00\n      swap1\n      sload\n      swap1\n      0x0100\n      exp\n      swap1\n      div\n      0xffffffffffffffffffffffffffffffffffffffff\n      and\n        /* \"contracts/SimpleStorage.sol\":749:783  ownerAddresses[i] == _ownerAddress */\n      0xffffffffffffffffffffffffffffffffffffffff\n      and\n      sub\n        /* \"contracts/SimpleStorage.sol\":746:792  if(ownerAddresses[i] == _ownerAddress) return; */\n      tag_99\n      jumpi\n        /* \"contracts/SimpleStorage.sol\":785:792  return; */\n      pop\n      pop\n      jump(tag_89)\n        /* \"contracts/SimpleStorage.sol\":746:792  if(ownerAddresses[i] == _ownerAddress) return; */\n    tag_99:\n        /* \"contracts/SimpleStorage.sol\":727:730  i++ */\n      dup1\n      dup1\n      0x01\n      add\n      swap2\n      pop\n      pop\n        /* \"contracts/SimpleStorage.sol\":684:803  for(uint i = 0; i < ownerAddresses.length; i++){... */\n      jump(tag_93)\n    tag_94:\n      pop\n        /* \"contracts/SimpleStorage.sol\":815:829  ownerAddresses */\n      0x01\n        /* \"contracts/SimpleStorage.sol\":835:848  _ownerAddress */\n      dup6\n        /* \"contracts/SimpleStorage.sol\":815:849  ownerAddresses.push(_ownerAddress) */\n      swap1\n      dup1\n      0x01\n      dup2\n      sload\n      add\n      dup1\n      dup3\n      sstore\n      dup1\n      swap2\n      pop\n      pop\n      0x01\n      swap1\n      sub\n      swap1\n      0x00\n      mstore\n      keccak256(0x00, 0x20)\n      add\n      0x00\n      swap1\n      swap2\n      swap1\n      swap2\n      swap1\n      swap2\n      0x0100\n      exp\n      dup2\n      sload\n      dup2\n      0xffffffffffffffffffffffffffffffffffffffff\n      mul\n      not\n      and\n      swap1\n      dup4\n      0xffffffffffffffffffffffffffffffffffffffff\n      and\n      mul\n      or\n      swap1\n      sstore\n      pop\n        /* \"contracts/SimpleStorage.sol\":398:857  {... */\n      pop\n        /* \"contracts/SimpleStorage.sol\":296:857  function _createPerson(address _ownerAddress, string calldata _name, uint _favouriteNumber) external  {... */\n    tag_89:\n      pop\n      pop\n      pop\n      pop\n      jump\t// out\n        /* \"contracts/AdvancedStorage.sol\":645:914  function _isOwner(address _address) private view returns(bool){... */\n    tag_33:\n        /* \"contracts/AdvancedStorage.sol\":702:706  bool */\n      0x00\n        /* \"contracts/AdvancedStorage.sol\":718:730  bool isOwner */\n      dup1\n        /* \"contracts/AdvancedStorage.sol\":733:738  false */\n      0x00\n        /* \"contracts/AdvancedStorage.sol\":718:738  bool isOwner = false */\n      swap1\n      pop\n        /* \"contracts/AdvancedStorage.sol\":755:761  uint i */\n      0x00\n        /* \"contracts/AdvancedStorage.sol\":751:880  for(uint i = 0; i < ownerAddresses.length; i++){... */\n    tag_102:\n        /* \"contracts/AdvancedStorage.sol\":771:785  ownerAddresses */\n      0x01\n        /* \"contracts/AdvancedStorage.sol\":771:792  ownerAddresses.length */\n      dup1\n      sload\n      swap1\n      pop\n        /* \"contracts/AdvancedStorage.sol\":767:768  i */\n      dup2\n        /* \"contracts/AdvancedStorage.sol\":767:792  i < ownerAddresses.length */\n      lt\n        /* \"contracts/AdvancedStorage.sol\":751:880  for(uint i = 0; i < ownerAddresses.length; i++){... */\n      iszero\n      tag_103\n      jumpi\n        /* \"contracts/AdvancedStorage.sol\":837:845  _address */\n      dup4\n        /* \"contracts/AdvancedStorage.sol\":816:845  ownerAddresses[i] == _address */\n      0xffffffffffffffffffffffffffffffffffffffff\n      and\n        /* \"contracts/AdvancedStorage.sol\":816:830  ownerAddresses */\n      0x01\n        /* \"contracts/AdvancedStorage.sol\":831:832  i */\n      dup3\n        /* \"contracts/AdvancedStorage.sol\":816:833  ownerAddresses[i] */\n      dup2\n      sload\n      dup2\n      lt\n      tag_105\n      jumpi\n      tag_106\n      tag_43\n      jump\t// in\n    tag_106:\n    tag_105:\n      swap1\n      0x00\n      mstore\n      keccak256(0x00, 0x20)\n      add\n      0x00\n      swap1\n      sload\n      swap1\n      0x0100\n      exp\n      swap1\n      div\n      0xffffffffffffffffffffffffffffffffffffffff\n      and\n        /* \"contracts/AdvancedStorage.sol\":816:845  ownerAddresses[i] == _address */\n      0xffffffffffffffffffffffffffffffffffffffff\n      and\n      sub\n        /* \"contracts/AdvancedStorage.sol\":813:868  if(ownerAddresses[i] == _address) return isOwner = true */\n      tag_108\n      jumpi\n        /* \"contracts/AdvancedStorage.sol\":864:868  true */\n      0x01\n        /* \"contracts/AdvancedStorage.sol\":854:868  isOwner = true */\n      swap2\n      pop\n      dup2\n        /* \"contracts/AdvancedStorage.sol\":847:868  return isOwner = true */\n      swap3\n      pop\n      pop\n      pop\n      jump(tag_101)\n        /* \"contracts/AdvancedStorage.sol\":813:868  if(ownerAddresses[i] == _address) return isOwner = true */\n    tag_108:\n        /* \"contracts/AdvancedStorage.sol\":794:797  i++ */\n      dup1\n      dup1\n      0x01\n      add\n      swap2\n      pop\n      pop\n        /* \"contracts/AdvancedStorage.sol\":751:880  for(uint i = 0; i < ownerAddresses.length; i++){... */\n      jump(tag_102)\n    tag_103:\n      pop\n        /* \"contracts/AdvancedStorage.sol\":899:906  isOwner */\n      dup1\n        /* \"contracts/AdvancedStorage.sol\":892:906  return isOwner */\n      swap2\n      pop\n      pop\n        /* \"contracts/AdvancedStorage.sol\":645:914  function _isOwner(address _address) private view returns(bool){... */\n    tag_101:\n      swap2\n      swap1\n      pop\n      jump\t// out\n        /* \"@openzeppelin/contracts/utils/math/SafeMath.sol\":641:857  function tryAdd(uint256 a, uint256 b) internal pure returns (bool, uint256) {... */\n    tag_54:\n        /* \"@openzeppelin/contracts/utils/math/SafeMath.sol\":702:706  bool */\n      0x00\n        /* \"@openzeppelin/contracts/utils/math/SafeMath.sol\":708:715  uint256 */\n      dup1\n        /* \"@openzeppelin/contracts/utils/math/SafeMath.sol\":751:760  uint256 c */\n      0x00\n        /* \"@openzeppelin/contracts/utils/math/SafeMath.sol\":767:768  b */\n      dup4\n        /* \"@openzeppelin/contracts/utils/math/SafeMath.sol\":763:764  a */\n      dup6\n        /* \"@openzeppelin/contracts/utils/math/SafeMath.sol\":763:768  a + b */\n      add\n        /* \"@openzeppelin/contracts/utils/math/SafeMath.sol\":751:768  uint256 c = a + b */\n      swap1\n      pop\n        /* \"@openzeppelin/contracts/utils/math/SafeMath.sol\":790:791  a */\n      dup5\n        /* \"@openzeppelin/contracts/utils/math/SafeMath.sol\":786:787  c */\n      dup2\n        /* \"@openzeppelin/contracts/utils/math/SafeMath.sol\":786:791  c < a */\n      lt\n        /* \"@openzeppelin/contracts/utils/math/SafeMath.sol\":782:810  if (c < a) return (false, 0) */\n      iszero\n      tag_110\n      jumpi\n        /* \"@openzeppelin/contracts/utils/math/SafeMath.sol\":801:806  false */\n      0x00\n        /* \"@openzeppelin/contracts/utils/math/SafeMath.sol\":808:809  0 */\n      dup1\n        /* \"@openzeppelin/contracts/utils/math/SafeMath.sol\":793:810  return (false, 0) */\n      swap3\n      pop\n      swap3\n      pop\n      pop\n      jump(tag_109)\n        /* \"@openzeppelin/contracts/utils/math/SafeMath.sol\":782:810  if (c < a) return (false, 0) */\n    tag_110:\n        /* \"@openzeppelin/contracts/utils/math/SafeMath.sol\":832:836  true */\n      0x01\n        /* \"@openzeppelin/contracts/utils/math/SafeMath.sol\":838:839  c */\n      dup2\n        /* \"@openzeppelin/contracts/utils/math/SafeMath.sol\":824:840  return (true, c) */\n      swap3\n      pop\n      swap3\n      pop\n      pop\n        /* \"@openzeppelin/contracts/utils/math/SafeMath.sol\":641:857  function tryAdd(uint256 a, uint256 b) internal pure returns (bool, uint256) {... */\n    tag_109:\n      swap3\n      pop\n      swap3\n      swap1\n      pop\n      jump\t// out\n        /* \"@openzeppelin/contracts/utils/math/SafeMath.sol\":1002:1191  function trySub(uint256 a, uint256 b) internal pure returns (bool, uint256) {... */\n    tag_77:\n        /* \"@openzeppelin/contracts/utils/math/SafeMath.sol\":1063:1067  bool */\n      0x00\n        /* \"@openzeppelin/contracts/utils/math/SafeMath.sol\":1069:1076  uint256 */\n      dup1\n        /* \"@openzeppelin/contracts/utils/math/SafeMath.sol\":1120:1121  a */\n      dup4\n        /* \"@openzeppelin/contracts/utils/math/SafeMath.sol\":1116:1117  b */\n      dup4\n        /* \"@openzeppelin/contracts/utils/math/SafeMath.sol\":1116:1121  b > a */\n      gt\n        /* \"@openzeppelin/contracts/utils/math/SafeMath.sol\":1112:1140  if (b > a) return (false, 0) */\n      iszero\n      tag_112\n      jumpi\n        /* \"@openzeppelin/contracts/utils/math/SafeMath.sol\":1131:1136  false */\n      0x00\n        /* \"@openzeppelin/contracts/utils/math/SafeMath.sol\":1138:1139  0 */\n      dup1\n        /* \"@openzeppelin/contracts/utils/math/SafeMath.sol\":1123:1140  return (false, 0) */\n      swap2\n      pop\n      swap2\n      pop\n      jump(tag_111)\n        /* \"@openzeppelin/contracts/utils/math/SafeMath.sol\":1112:1140  if (b > a) return (false, 0) */\n    tag_112:\n        /* \"@openzeppelin/contracts/utils/math/SafeMath.sol\":1162:1166  true */\n      0x01\n        /* \"@openzeppelin/contracts/utils/math/SafeMath.sol\":1172:1173  b */\n      dup4\n        /* \"@openzeppelin/contracts/utils/math/SafeMath.sol\":1168:1169  a */\n      dup6\n        /* \"@openzeppelin/contracts/utils/math/SafeMath.sol\":1168:1173  a - b */\n      sub\n        /* \"@openzeppelin/contracts/utils/math/SafeMath.sol\":1154:1174  return (true, a - b) */\n      swap2\n      pop\n      swap2\n      pop\n        /* \"@openzeppelin/contracts/utils/math/SafeMath.sol\":1002:1191  function trySub(uint256 a, uint256 b) internal pure returns (bool, uint256) {... */\n    tag_111:\n      swap3\n      pop\n      swap3\n      swap1\n      pop\n      jump\t// out\n        /* \"#utility.yul\":88:205   */\n    tag_114:\n        /* \"#utility.yul\":197:198   */\n      0x00\n        /* \"#utility.yul\":194:195   */\n      dup1\n        /* \"#utility.yul\":187:199   */\n      revert\n        /* \"#utility.yul\":211:328   */\n    tag_115:\n        /* \"#utility.yul\":320:321   */\n      0x00\n        /* \"#utility.yul\":317:318   */\n      dup1\n        /* \"#utility.yul\":310:322   */\n      revert\n        /* \"#utility.yul\":334:460   */\n    tag_116:\n        /* \"#utility.yul\":371:378   */\n      0x00\n        /* \"#utility.yul\":411:453   */\n      0xffffffffffffffffffffffffffffffffffffffff\n        /* \"#utility.yul\":404:409   */\n      dup3\n        /* \"#utility.yul\":400:454   */\n      and\n        /* \"#utility.yul\":389:454   */\n      swap1\n      pop\n        /* \"#utility.yul\":334:460   */\n      swap2\n      swap1\n      pop\n      jump\t// out\n        /* \"#utility.yul\":466:562   */\n    tag_117:\n        /* \"#utility.yul\":503:510   */\n      0x00\n        /* \"#utility.yul\":532:556   */\n      tag_172\n        /* \"#utility.yul\":550:555   */\n      dup3\n        /* \"#utility.yul\":532:556   */\n      tag_116\n      jump\t// in\n    tag_172:\n        /* \"#utility.yul\":521:556   */\n      swap1\n      pop\n        /* \"#utility.yul\":466:562   */\n      swap2\n      swap1\n      pop\n      jump\t// out\n        /* \"#utility.yul\":568:690   */\n    tag_118:\n        /* \"#utility.yul\":641:665   */\n      tag_174\n        /* \"#utility.yul\":659:664   */\n      dup2\n        /* \"#utility.yul\":641:665   */\n      tag_117\n      jump\t// in\n    tag_174:\n        /* \"#utility.yul\":634:639   */\n      dup2\n        /* \"#utility.yul\":631:666   */\n      eq\n        /* \"#utility.yul\":621:684   */\n      tag_175\n      jumpi\n        /* \"#utility.yul\":680:681   */\n      0x00\n        /* \"#utility.yul\":677:678   */\n      dup1\n        /* \"#utility.yul\":670:682   */\n      revert\n        /* \"#utility.yul\":621:684   */\n    tag_175:\n        /* \"#utility.yul\":568:690   */\n      pop\n      jump\t// out\n        /* \"#utility.yul\":696:835   */\n    tag_119:\n        /* \"#utility.yul\":742:747   */\n      0x00\n        /* \"#utility.yul\":780:786   */\n      dup2\n        /* \"#utility.yul\":767:787   */\n      calldataload\n        /* \"#utility.yul\":758:787   */\n      swap1\n      pop\n        /* \"#utility.yul\":796:829   */\n      tag_177\n        /* \"#utility.yul\":823:828   */\n      dup2\n        /* \"#utility.yul\":796:829   */\n      tag_118\n      jump\t// in\n    tag_177:\n        /* \"#utility.yul\":696:835   */\n      swap3\n      swap2\n      pop\n      pop\n      jump\t// out\n        /* \"#utility.yul\":841:918   */\n    tag_120:\n        /* \"#utility.yul\":878:885   */\n      0x00\n        /* \"#utility.yul\":907:912   */\n      dup2\n        /* \"#utility.yul\":896:912   */\n      swap1\n      pop\n        /* \"#utility.yul\":841:918   */\n      swap2\n      swap1\n      pop\n      jump\t// out\n        /* \"#utility.yul\":924:1046   */\n    tag_121:\n        /* \"#utility.yul\":997:1021   */\n      tag_180\n        /* \"#utility.yul\":1015:1020   */\n      dup2\n        /* \"#utility.yul\":997:1021   */\n      tag_120\n      jump\t// in\n    tag_180:\n        /* \"#utility.yul\":990:995   */\n      dup2\n        /* \"#utility.yul\":987:1022   */\n      eq\n        /* \"#utility.yul\":977:1040   */\n      tag_181\n      jumpi\n        /* \"#utility.yul\":1036:1037   */\n      0x00\n        /* \"#utility.yul\":1033:1034   */\n      dup1\n        /* \"#utility.yul\":1026:1038   */\n      revert\n        /* \"#utility.yul\":977:1040   */\n    tag_181:\n        /* \"#utility.yul\":924:1046   */\n      pop\n      jump\t// out\n        /* \"#utility.yul\":1052:1191   */\n    tag_122:\n        /* \"#utility.yul\":1098:1103   */\n      0x00\n        /* \"#utility.yul\":1136:1142   */\n      dup2\n        /* \"#utility.yul\":1123:1143   */\n      calldataload\n        /* \"#utility.yul\":1114:1143   */\n      swap1\n      pop\n        /* \"#utility.yul\":1152:1185   */\n      tag_183\n        /* \"#utility.yul\":1179:1184   */\n      dup2\n        /* \"#utility.yul\":1152:1185   */\n      tag_121\n      jump\t// in\n    tag_183:\n        /* \"#utility.yul\":1052:1191   */\n      swap3\n      swap2\n      pop\n      pop\n      jump\t// out\n        /* \"#utility.yul\":1197:1314   */\n    tag_123:\n        /* \"#utility.yul\":1306:1307   */\n      0x00\n        /* \"#utility.yul\":1303:1304   */\n      dup1\n        /* \"#utility.yul\":1296:1308   */\n      revert\n        /* \"#utility.yul\":1341:1570   */\n    tag_124:\n        /* \"#utility.yul\":1412:1417   */\n      0x00\n        /* \"#utility.yul\":1453:1455   */\n      0x40\n        /* \"#utility.yul\":1444:1450   */\n      dup3\n        /* \"#utility.yul\":1439:1442   */\n      dup5\n        /* \"#utility.yul\":1435:1451   */\n      sub\n        /* \"#utility.yul\":1431:1456   */\n      slt\n        /* \"#utility.yul\":1428:1540   */\n      iszero\n      tag_186\n      jumpi\n        /* \"#utility.yul\":1459:1538   */\n      tag_187\n      tag_123\n      jump\t// in\n    tag_187:\n        /* \"#utility.yul\":1428:1540   */\n    tag_186:\n        /* \"#utility.yul\":1558:1564   */\n      dup2\n        /* \"#utility.yul\":1549:1564   */\n      swap1\n      pop\n        /* \"#utility.yul\":1341:1570   */\n      swap3\n      swap2\n      pop\n      pop\n      jump\t// out\n        /* \"#utility.yul\":1576:2405   */\n    tag_10:\n        /* \"#utility.yul\":1678:1684   */\n      0x00\n        /* \"#utility.yul\":1686:1692   */\n      dup1\n        /* \"#utility.yul\":1694:1700   */\n      0x00\n        /* \"#utility.yul\":1743:1745   */\n      0x60\n        /* \"#utility.yul\":1731:1740   */\n      dup5\n        /* \"#utility.yul\":1722:1729   */\n      dup7\n        /* \"#utility.yul\":1718:1741   */\n      sub\n        /* \"#utility.yul\":1714:1746   */\n      slt\n        /* \"#utility.yul\":1711:1830   */\n      iszero\n      tag_189\n      jumpi\n        /* \"#utility.yul\":1749:1828   */\n      tag_190\n      tag_114\n      jump\t// in\n    tag_190:\n        /* \"#utility.yul\":1711:1830   */\n    tag_189:\n        /* \"#utility.yul\":1869:1870   */\n      0x00\n        /* \"#utility.yul\":1894:1947   */\n      tag_191\n        /* \"#utility.yul\":1939:1946   */\n      dup7\n        /* \"#utility.yul\":1930:1936   */\n      dup3\n        /* \"#utility.yul\":1919:1928   */\n      dup8\n        /* \"#utility.yul\":1915:1937   */\n      add\n        /* \"#utility.yul\":1894:1947   */\n      tag_119\n      jump\t// in\n    tag_191:\n        /* \"#utility.yul\":1884:1947   */\n      swap4\n      pop\n        /* \"#utility.yul\":1840:1957   */\n      pop\n        /* \"#utility.yul\":1996:1998   */\n      0x20\n        /* \"#utility.yul\":2022:2075   */\n      tag_192\n        /* \"#utility.yul\":2067:2074   */\n      dup7\n        /* \"#utility.yul\":2058:2064   */\n      dup3\n        /* \"#utility.yul\":2047:2056   */\n      dup8\n        /* \"#utility.yul\":2043:2065   */\n      add\n        /* \"#utility.yul\":2022:2075   */\n      tag_122\n      jump\t// in\n    tag_192:\n        /* \"#utility.yul\":2012:2075   */\n      swap3\n      pop\n        /* \"#utility.yul\":1967:2085   */\n      pop\n        /* \"#utility.yul\":2152:2154   */\n      0x40\n        /* \"#utility.yul\":2141:2150   */\n      dup5\n        /* \"#utility.yul\":2137:2155   */\n      add\n        /* \"#utility.yul\":2124:2156   */\n      calldataload\n        /* \"#utility.yul\":2183:2201   */\n      0xffffffffffffffff\n        /* \"#utility.yul\":2175:2181   */\n      dup2\n        /* \"#utility.yul\":2172:2202   */\n      gt\n        /* \"#utility.yul\":2169:2286   */\n      iszero\n      tag_193\n      jumpi\n        /* \"#utility.yul\":2205:2284   */\n      tag_194\n      tag_115\n      jump\t// in\n    tag_194:\n        /* \"#utility.yul\":2169:2286   */\n    tag_193:\n        /* \"#utility.yul\":2310:2388   */\n      tag_195\n        /* \"#utility.yul\":2380:2387   */\n      dup7\n        /* \"#utility.yul\":2371:2377   */\n      dup3\n        /* \"#utility.yul\":2360:2369   */\n      dup8\n        /* \"#utility.yul\":2356:2378   */\n      add\n        /* \"#utility.yul\":2310:2388   */\n      tag_124\n      jump\t// in\n    tag_195:\n        /* \"#utility.yul\":2300:2388   */\n      swap2\n      pop\n        /* \"#utility.yul\":2095:2398   */\n      pop\n        /* \"#utility.yul\":1576:2405   */\n      swap3\n      pop\n      swap3\n      pop\n      swap3\n      jump\t// out\n        /* \"#utility.yul\":2411:2740   */\n    tag_14:\n        /* \"#utility.yul\":2470:2476   */\n      0x00\n        /* \"#utility.yul\":2519:2521   */\n      0x20\n        /* \"#utility.yul\":2507:2516   */\n      dup3\n        /* \"#utility.yul\":2498:2505   */\n      dup5\n        /* \"#utility.yul\":2494:2517   */\n      sub\n        /* \"#utility.yul\":2490:2522   */\n      slt\n        /* \"#utility.yul\":2487:2606   */\n      iszero\n      tag_197\n      jumpi\n        /* \"#utility.yul\":2525:2604   */\n      tag_198\n      tag_114\n      jump\t// in\n    tag_198:\n        /* \"#utility.yul\":2487:2606   */\n    tag_197:\n        /* \"#utility.yul\":2645:2646   */\n      0x00\n        /* \"#utility.yul\":2670:2723   */\n      tag_199\n        /* \"#utility.yul\":2715:2722   */\n      dup5\n        /* \"#utility.yul\":2706:2712   */\n      dup3\n        /* \"#utility.yul\":2695:2704   */\n      dup6\n        /* \"#utility.yul\":2691:2713   */\n      add\n        /* \"#utility.yul\":2670:2723   */\n      tag_122\n      jump\t// in\n    tag_199:\n        /* \"#utility.yul\":2660:2723   */\n      swap2\n      pop\n        /* \"#utility.yul\":2616:2733   */\n      pop\n        /* \"#utility.yul\":2411:2740   */\n      swap3\n      swap2\n      pop\n      pop\n      jump\t// out\n        /* \"#utility.yul\":2746:2864   */\n    tag_125:\n        /* \"#utility.yul\":2833:2857   */\n      tag_201\n        /* \"#utility.yul\":2851:2856   */\n      dup2\n        /* \"#utility.yul\":2833:2857   */\n      tag_117\n      jump\t// in\n    tag_201:\n        /* \"#utility.yul\":2828:2831   */\n      dup3\n        /* \"#utility.yul\":2821:2858   */\n      mstore\n        /* \"#utility.yul\":2746:2864   */\n      pop\n      pop\n      jump\t// out\n        /* \"#utility.yul\":2870:3092   */\n    tag_17:\n        /* \"#utility.yul\":2963:2967   */\n      0x00\n        /* \"#utility.yul\":3001:3003   */\n      0x20\n        /* \"#utility.yul\":2990:2999   */\n      dup3\n        /* \"#utility.yul\":2986:3004   */\n      add\n        /* \"#utility.yul\":2978:3004   */\n      swap1\n      pop\n        /* \"#utility.yul\":3014:3085   */\n      tag_203\n        /* \"#utility.yul\":3082:3083   */\n      0x00\n        /* \"#utility.yul\":3071:3080   */\n      dup4\n        /* \"#utility.yul\":3067:3084   */\n      add\n        /* \"#utility.yul\":3058:3064   */\n      dup5\n        /* \"#utility.yul\":3014:3085   */\n      tag_125\n      jump\t// in\n    tag_203:\n        /* \"#utility.yul\":2870:3092   */\n      swap3\n      swap2\n      pop\n      pop\n      jump\t// out\n        /* \"#utility.yul\":3098:3572   */\n    tag_23:\n        /* \"#utility.yul\":3166:3172   */\n      0x00\n        /* \"#utility.yul\":3174:3180   */\n      dup1\n        /* \"#utility.yul\":3223:3225   */\n      0x40\n        /* \"#utility.yul\":3211:3220   */\n      dup4\n        /* \"#utility.yul\":3202:3209   */\n      dup6\n        /* \"#utility.yul\":3198:3221   */\n      sub\n        /* \"#utility.yul\":3194:3226   */\n      slt\n        /* \"#utility.yul\":3191:3310   */\n      iszero\n      tag_205\n      jumpi\n        /* \"#utility.yul\":3229:3308   */\n      tag_206\n      tag_114\n      jump\t// in\n    tag_206:\n        /* \"#utility.yul\":3191:3310   */\n    tag_205:\n        /* \"#utility.yul\":3349:3350   */\n      0x00\n        /* \"#utility.yul\":3374:3427   */\n      tag_207\n        /* \"#utility.yul\":3419:3426   */\n      dup6\n        /* \"#utility.yul\":3410:3416   */\n      dup3\n        /* \"#utility.yul\":3399:3408   */\n      dup7\n        /* \"#utility.yul\":3395:3417   */\n      add\n        /* \"#utility.yul\":3374:3427   */\n      tag_119\n      jump\t// in\n    tag_207:\n        /* \"#utility.yul\":3364:3427   */\n      swap3\n      pop\n        /* \"#utility.yul\":3320:3437   */\n      pop\n        /* \"#utility.yul\":3476:3478   */\n      0x20\n        /* \"#utility.yul\":3502:3555   */\n      tag_208\n        /* \"#utility.yul\":3547:3554   */\n      dup6\n        /* \"#utility.yul\":3538:3544   */\n      dup3\n        /* \"#utility.yul\":3527:3536   */\n      dup7\n        /* \"#utility.yul\":3523:3545   */\n      add\n        /* \"#utility.yul\":3502:3555   */\n      tag_122\n      jump\t// in\n    tag_208:\n        /* \"#utility.yul\":3492:3555   */\n      swap2\n      pop\n        /* \"#utility.yul\":3447:3565   */\n      pop\n        /* \"#utility.yul\":3098:3572   */\n      swap3\n      pop\n      swap3\n      swap1\n      pop\n      jump\t// out\n        /* \"#utility.yul\":3578:3677   */\n    tag_126:\n        /* \"#utility.yul\":3630:3636   */\n      0x00\n        /* \"#utility.yul\":3664:3669   */\n      dup2\n        /* \"#utility.yul\":3658:3670   */\n      mload\n        /* \"#utility.yul\":3648:3670   */\n      swap1\n      pop\n        /* \"#utility.yul\":3578:3677   */\n      swap2\n      swap1\n      pop\n      jump\t// out\n        /* \"#utility.yul\":3683:3852   */\n    tag_127:\n        /* \"#utility.yul\":3767:3778   */\n      0x00\n        /* \"#utility.yul\":3801:3807   */\n      dup3\n        /* \"#utility.yul\":3796:3799   */\n      dup3\n        /* \"#utility.yul\":3789:3808   */\n      mstore\n        /* \"#utility.yul\":3841:3845   */\n      0x20\n        /* \"#utility.yul\":3836:3839   */\n      dup3\n        /* \"#utility.yul\":3832:3846   */\n      add\n        /* \"#utility.yul\":3817:3846   */\n      swap1\n      pop\n        /* \"#utility.yul\":3683:3852   */\n      swap3\n      swap2\n      pop\n      pop\n      jump\t// out\n        /* \"#utility.yul\":3858:3997   */\n    tag_128:\n        /* \"#utility.yul\":3947:3953   */\n      dup3\n        /* \"#utility.yul\":3942:3945   */\n      dup2\n        /* \"#utility.yul\":3937:3940   */\n      dup4\n        /* \"#utility.yul\":3931:3954   */\n      mcopy\n        /* \"#utility.yul\":3988:3989   */\n      0x00\n        /* \"#utility.yul\":3979:3985   */\n      dup4\n        /* \"#utility.yul\":3974:3977   */\n      dup4\n        /* \"#utility.yul\":3970:3986   */\n      add\n        /* \"#utility.yul\":3963:3990   */\n      mstore\n        /* \"#utility.yul\":3858:3997   */\n      pop\n      pop\n      pop\n      jump\t// out\n        /* \"#utility.yul\":4003:4105   */\n    tag_129:\n        /* \"#utility.yul\":4044:4050   */\n      0x00\n        /* \"#utility.yul\":4095:4097   */\n      0x1f\n        /* \"#utility.yul\":4091:4098   */\n      not\n        /* \"#utility.yul\":4086:4088   */\n      0x1f\n        /* \"#utility.yul\":4079:4084   */\n      dup4\n        /* \"#utility.yul\":4075:4089   */\n      add\n        /* \"#utility.yul\":4071:4099   */\n      and\n        /* \"#utility.yul\":4061:4099   */\n      swap1\n      pop\n        /* \"#utility.yul\":4003:4105   */\n      swap2\n      swap1\n      pop\n      jump\t// out\n        /* \"#utility.yul\":4111:4488   */\n    tag_130:\n        /* \"#utility.yul\":4199:4202   */\n      0x00\n        /* \"#utility.yul\":4227:4266   */\n      tag_214\n        /* \"#utility.yul\":4260:4265   */\n      dup3\n        /* \"#utility.yul\":4227:4266   */\n      tag_126\n      jump\t// in\n    tag_214:\n        /* \"#utility.yul\":4282:4353   */\n      tag_215\n        /* \"#utility.yul\":4346:4352   */\n      dup2\n        /* \"#utility.yul\":4341:4344   */\n      dup6\n        /* \"#utility.yul\":4282:4353   */\n      tag_127\n      jump\t// in\n    tag_215:\n        /* \"#utility.yul\":4275:4353   */\n      swap4\n      pop\n        /* \"#utility.yul\":4362:4427   */\n      tag_216\n        /* \"#utility.yul\":4420:4426   */\n      dup2\n        /* \"#utility.yul\":4415:4418   */\n      dup6\n        /* \"#utility.yul\":4408:4412   */\n      0x20\n        /* \"#utility.yul\":4401:4406   */\n      dup7\n        /* \"#utility.yul\":4397:4413   */\n      add\n        /* \"#utility.yul\":4362:4427   */\n      tag_128\n      jump\t// in\n    tag_216:\n        /* \"#utility.yul\":4452:4481   */\n      tag_217\n        /* \"#utility.yul\":4474:4480   */\n      dup2\n        /* \"#utility.yul\":4452:4481   */\n      tag_129\n      jump\t// in\n    tag_217:\n        /* \"#utility.yul\":4447:4450   */\n      dup5\n        /* \"#utility.yul\":4443:4482   */\n      add\n        /* \"#utility.yul\":4436:4482   */\n      swap2\n      pop\n        /* \"#utility.yul\":4203:4488   */\n      pop\n        /* \"#utility.yul\":4111:4488   */\n      swap3\n      swap2\n      pop\n      pop\n      jump\t// out\n        /* \"#utility.yul\":4494:4612   */\n    tag_131:\n        /* \"#utility.yul\":4581:4605   */\n      tag_219\n        /* \"#utility.yul\":4599:4604   */\n      dup2\n        /* \"#utility.yul\":4581:4605   */\n      tag_120\n      jump\t// in\n    tag_219:\n        /* \"#utility.yul\":4576:4579   */\n      dup3\n        /* \"#utility.yul\":4569:4606   */\n      mstore\n        /* \"#utility.yul\":4494:4612   */\n      pop\n      pop\n      jump\t// out\n        /* \"#utility.yul\":4618:5041   */\n    tag_26:\n        /* \"#utility.yul\":4759:4763   */\n      0x00\n        /* \"#utility.yul\":4797:4799   */\n      0x40\n        /* \"#utility.yul\":4786:4795   */\n      dup3\n        /* \"#utility.yul\":4782:4800   */\n      add\n        /* \"#utility.yul\":4774:4800   */\n      swap1\n      pop\n        /* \"#utility.yul\":4846:4855   */\n      dup2\n        /* \"#utility.yul\":4840:4844   */\n      dup2\n        /* \"#utility.yul\":4836:4856   */\n      sub\n        /* \"#utility.yul\":4832:4833   */\n      0x00\n        /* \"#utility.yul\":4821:4830   */\n      dup4\n        /* \"#utility.yul\":4817:4834   */\n      add\n        /* \"#utility.yul\":4810:4857   */\n      mstore\n        /* \"#utility.yul\":4874:4952   */\n      tag_221\n        /* \"#utility.yul\":4947:4951   */\n      dup2\n        /* \"#utility.yul\":4938:4944   */\n      dup6\n        /* \"#utility.yul\":4874:4952   */\n      tag_130\n      jump\t// in\n    tag_221:\n        /* \"#utility.yul\":4866:4952   */\n      swap1\n      pop\n        /* \"#utility.yul\":4962:5034   */\n      tag_222\n        /* \"#utility.yul\":5030:5032   */\n      0x20\n        /* \"#utility.yul\":5019:5028   */\n      dup4\n        /* \"#utility.yul\":5015:5033   */\n      add\n        /* \"#utility.yul\":5006:5012   */\n      dup5\n        /* \"#utility.yul\":4962:5034   */\n      tag_131\n      jump\t// in\n    tag_222:\n        /* \"#utility.yul\":4618:5041   */\n      swap4\n      swap3\n      pop\n      pop\n      pop\n      jump\t// out\n        /* \"#utility.yul\":5047:5164   */\n    tag_132:\n        /* \"#utility.yul\":5156:5157   */\n      0x00\n        /* \"#utility.yul\":5153:5154   */\n      dup1\n        /* \"#utility.yul\":5146:5158   */\n      revert\n        /* \"#utility.yul\":5170:5287   */\n    tag_133:\n        /* \"#utility.yul\":5279:5280   */\n      0x00\n        /* \"#utility.yul\":5276:5277   */\n      dup1\n        /* \"#utility.yul\":5269:5281   */\n      revert\n        /* \"#utility.yul\":5293:5410   */\n    tag_134:\n        /* \"#utility.yul\":5402:5403   */\n      0x00\n        /* \"#utility.yul\":5399:5400   */\n      dup1\n        /* \"#utility.yul\":5392:5404   */\n      revert\n        /* \"#utility.yul\":5430:5983   */\n    tag_135:\n        /* \"#utility.yul\":5488:5496   */\n      0x00\n        /* \"#utility.yul\":5498:5504   */\n      dup1\n        /* \"#utility.yul\":5548:5551   */\n      dup4\n        /* \"#utility.yul\":5541:5545   */\n      0x1f\n        /* \"#utility.yul\":5533:5539   */\n      dup5\n        /* \"#utility.yul\":5529:5546   */\n      add\n        /* \"#utility.yul\":5525:5552   */\n      slt\n        /* \"#utility.yul\":5515:5637   */\n      tag_227\n      jumpi\n        /* \"#utility.yul\":5556:5635   */\n      tag_228\n      tag_132\n      jump\t// in\n    tag_228:\n        /* \"#utility.yul\":5515:5637   */\n    tag_227:\n        /* \"#utility.yul\":5669:5675   */\n      dup3\n        /* \"#utility.yul\":5656:5676   */\n      calldataload\n        /* \"#utility.yul\":5646:5676   */\n      swap1\n      pop\n        /* \"#utility.yul\":5699:5717   */\n      0xffffffffffffffff\n        /* \"#utility.yul\":5691:5697   */\n      dup2\n        /* \"#utility.yul\":5688:5718   */\n      gt\n        /* \"#utility.yul\":5685:5802   */\n      iszero\n      tag_229\n      jumpi\n        /* \"#utility.yul\":5721:5800   */\n      tag_230\n      tag_133\n      jump\t// in\n    tag_230:\n        /* \"#utility.yul\":5685:5802   */\n    tag_229:\n        /* \"#utility.yul\":5835:5839   */\n      0x20\n        /* \"#utility.yul\":5827:5833   */\n      dup4\n        /* \"#utility.yul\":5823:5840   */\n      add\n        /* \"#utility.yul\":5811:5840   */\n      swap2\n      pop\n        /* \"#utility.yul\":5889:5892   */\n      dup4\n        /* \"#utility.yul\":5881:5885   */\n      0x01\n        /* \"#utility.yul\":5873:5879   */\n      dup3\n        /* \"#utility.yul\":5869:5886   */\n      mul\n        /* \"#utility.yul\":5859:5867   */\n      dup4\n        /* \"#utility.yul\":5855:5887   */\n      add\n        /* \"#utility.yul\":5852:5893   */\n      gt\n        /* \"#utility.yul\":5849:5977   */\n      iszero\n      tag_231\n      jumpi\n        /* \"#utility.yul\":5896:5975   */\n      tag_232\n      tag_134\n      jump\t// in\n    tag_232:\n        /* \"#utility.yul\":5849:5977   */\n    tag_231:\n        /* \"#utility.yul\":5430:5983   */\n      swap3\n      pop\n      swap3\n      swap1\n      pop\n      jump\t// out\n        /* \"#utility.yul\":5989:6808   */\n    tag_29:\n        /* \"#utility.yul\":6078:6084   */\n      0x00\n        /* \"#utility.yul\":6086:6092   */\n      dup1\n        /* \"#utility.yul\":6094:6100   */\n      0x00\n        /* \"#utility.yul\":6102:6108   */\n      dup1\n        /* \"#utility.yul\":6151:6153   */\n      0x60\n        /* \"#utility.yul\":6139:6148   */\n      dup6\n        /* \"#utility.yul\":6130:6137   */\n      dup8\n        /* \"#utility.yul\":6126:6149   */\n      sub\n        /* \"#utility.yul\":6122:6154   */\n      slt\n        /* \"#utility.yul\":6119:6238   */\n      iszero\n      tag_234\n      jumpi\n        /* \"#utility.yul\":6157:6236   */\n      tag_235\n      tag_114\n      jump\t// in\n    tag_235:\n        /* \"#utility.yul\":6119:6238   */\n    tag_234:\n        /* \"#utility.yul\":6277:6278   */\n      0x00\n        /* \"#utility.yul\":6302:6355   */\n      tag_236\n        /* \"#utility.yul\":6347:6354   */\n      dup8\n        /* \"#utility.yul\":6338:6344   */\n      dup3\n        /* \"#utility.yul\":6327:6336   */\n      dup9\n        /* \"#utility.yul\":6323:6345   */\n      add\n        /* \"#utility.yul\":6302:6355   */\n      tag_119\n      jump\t// in\n    tag_236:\n        /* \"#utility.yul\":6292:6355   */\n      swap5\n      pop\n        /* \"#utility.yul\":6248:6365   */\n      pop\n        /* \"#utility.yul\":6432:6434   */\n      0x20\n        /* \"#utility.yul\":6421:6430   */\n      dup6\n        /* \"#utility.yul\":6417:6435   */\n      add\n        /* \"#utility.yul\":6404:6436   */\n      calldataload\n        /* \"#utility.yul\":6463:6481   */\n      0xffffffffffffffff\n        /* \"#utility.yul\":6455:6461   */\n      dup2\n        /* \"#utility.yul\":6452:6482   */\n      gt\n        /* \"#utility.yul\":6449:6566   */\n      iszero\n      tag_237\n      jumpi\n        /* \"#utility.yul\":6485:6564   */\n      tag_238\n      tag_115\n      jump\t// in\n    tag_238:\n        /* \"#utility.yul\":6449:6566   */\n    tag_237:\n        /* \"#utility.yul\":6598:6663   */\n      tag_239\n        /* \"#utility.yul\":6655:6662   */\n      dup8\n        /* \"#utility.yul\":6646:6652   */\n      dup3\n        /* \"#utility.yul\":6635:6644   */\n      dup9\n        /* \"#utility.yul\":6631:6653   */\n      add\n        /* \"#utility.yul\":6598:6663   */\n      tag_135\n      jump\t// in\n    tag_239:\n        /* \"#utility.yul\":6580:6663   */\n      swap4\n      pop\n      swap4\n      pop\n        /* \"#utility.yul\":6375:6673   */\n      pop\n        /* \"#utility.yul\":6712:6714   */\n      0x40\n        /* \"#utility.yul\":6738:6791   */\n      tag_240\n        /* \"#utility.yul\":6783:6790   */\n      dup8\n        /* \"#utility.yul\":6774:6780   */\n      dup3\n        /* \"#utility.yul\":6763:6772   */\n      dup9\n        /* \"#utility.yul\":6759:6781   */\n      add\n        /* \"#utility.yul\":6738:6791   */\n      tag_122\n      jump\t// in\n    tag_240:\n        /* \"#utility.yul\":6728:6791   */\n      swap2\n      pop\n        /* \"#utility.yul\":6683:6801   */\n      pop\n        /* \"#utility.yul\":5989:6808   */\n      swap3\n      swap6\n      swap2\n      swap5\n      pop\n      swap3\n      pop\n      jump\t// out\n        /* \"#utility.yul\":6814:7050   */\n    tag_136:\n        /* \"#utility.yul\":6954:6988   */\n      0x596f75206d75737420626520612072656769737465726564206f776e65722074\n        /* \"#utility.yul\":6950:6951   */\n      0x00\n        /* \"#utility.yul\":6942:6948   */\n      dup3\n        /* \"#utility.yul\":6938:6952   */\n      add\n        /* \"#utility.yul\":6931:6989   */\n      mstore\n        /* \"#utility.yul\":7023:7042   */\n      0x6f20616363657373206120706572736f6e000000000000000000000000000000\n        /* \"#utility.yul\":7018:7020   */\n      0x20\n        /* \"#utility.yul\":7010:7016   */\n      dup3\n        /* \"#utility.yul\":7006:7021   */\n      add\n        /* \"#utility.yul\":6999:7043   */\n      mstore\n        /* \"#utility.yul\":6814:7050   */\n      pop\n      jump\t// out\n        /* \"#utility.yul\":7056:7422   */\n    tag_137:\n        /* \"#utility.yul\":7198:7201   */\n      0x00\n        /* \"#utility.yul\":7219:7286   */\n      tag_243\n        /* \"#utility.yul\":7283:7285   */\n      0x31\n        /* \"#utility.yul\":7278:7281   */\n      dup4\n        /* \"#utility.yul\":7219:7286   */\n      tag_127\n      jump\t// in\n    tag_243:\n        /* \"#utility.yul\":7212:7286   */\n      swap2\n      pop\n        /* \"#utility.yul\":7295:7388   */\n      tag_244\n        /* \"#utility.yul\":7384:7387   */\n      dup3\n        /* \"#utility.yul\":7295:7388   */\n      tag_136\n      jump\t// in\n    tag_244:\n        /* \"#utility.yul\":7413:7415   */\n      0x40\n        /* \"#utility.yul\":7408:7411   */\n      dup3\n        /* \"#utility.yul\":7404:7416   */\n      add\n        /* \"#utility.yul\":7397:7416   */\n      swap1\n      pop\n        /* \"#utility.yul\":7056:7422   */\n      swap2\n      swap1\n      pop\n      jump\t// out\n        /* \"#utility.yul\":7428:7847   */\n    tag_36:\n        /* \"#utility.yul\":7594:7598   */\n      0x00\n        /* \"#utility.yul\":7632:7634   */\n      0x20\n        /* \"#utility.yul\":7621:7630   */\n      dup3\n        /* \"#utility.yul\":7617:7635   */\n      add\n        /* \"#utility.yul\":7609:7635   */\n      swap1\n      pop\n        /* \"#utility.yul\":7681:7690   */\n      dup2\n        /* \"#utility.yul\":7675:7679   */\n      dup2\n        /* \"#utility.yul\":7671:7691   */\n      sub\n        /* \"#utility.yul\":7667:7668   */\n      0x00\n        /* \"#utility.yul\":7656:7665   */\n      dup4\n        /* \"#utility.yul\":7652:7669   */\n      add\n        /* \"#utility.yul\":7645:7692   */\n      mstore\n        /* \"#utility.yul\":7709:7840   */\n      tag_246\n        /* \"#utility.yul\":7835:7839   */\n      dup2\n        /* \"#utility.yul\":7709:7840   */\n      tag_137\n      jump\t// in\n    tag_246:\n        /* \"#utility.yul\":7701:7840   */\n      swap1\n      pop\n        /* \"#utility.yul\":7428:7847   */\n      swap2\n      swap1\n      pop\n      jump\t// out\n        /* \"#utility.yul\":7853:8033   */\n    tag_43:\n        /* \"#utility.yul\":7901:7978   */\n      0x4e487b7100000000000000000000000000000000000000000000000000000000\n        /* \"#utility.yul\":7898:7899   */\n      0x00\n        /* \"#utility.yul\":7891:7979   */\n      mstore\n        /* \"#utility.yul\":7998:8002   */\n      0x32\n        /* \"#utility.yul\":7995:7996   */\n      0x04\n        /* \"#utility.yul\":7988:8003   */\n      mstore\n        /* \"#utility.yul\":8022:8026   */\n      0x24\n        /* \"#utility.yul\":8019:8020   */\n      0x00\n        /* \"#utility.yul\":8012:8027   */\n      revert\n        /* \"#utility.yul\":8039:8156   */\n    tag_138:\n        /* \"#utility.yul\":8148:8149   */\n      0x00\n        /* \"#utility.yul\":8145:8146   */\n      dup1\n        /* \"#utility.yul\":8138:8150   */\n      revert\n        /* \"#utility.yul\":8162:8279   */\n    tag_139:\n        /* \"#utility.yul\":8271:8272   */\n      0x00\n        /* \"#utility.yul\":8268:8269   */\n      dup1\n        /* \"#utility.yul\":8261:8273   */\n      revert\n        /* \"#utility.yul\":8285:8402   */\n    tag_140:\n        /* \"#utility.yul\":8394:8395   */\n      0x00\n        /* \"#utility.yul\":8391:8392   */\n      dup1\n        /* \"#utility.yul\":8384:8396   */\n      revert\n        /* \"#utility.yul\":8408:9133   */\n    tag_46:\n        /* \"#utility.yul\":8486:8490   */\n      0x00\n        /* \"#utility.yul\":8492:8498   */\n      dup1\n        /* \"#utility.yul\":8548:8559   */\n      dup4\n        /* \"#utility.yul\":8535:8560   */\n      calldataload\n        /* \"#utility.yul\":8648:8649   */\n      0x01\n        /* \"#utility.yul\":8642:8646   */\n      0x20\n        /* \"#utility.yul\":8638:8650   */\n      sub\n        /* \"#utility.yul\":8627:8635   */\n      dup5\n        /* \"#utility.yul\":8611:8625   */\n      calldatasize\n        /* \"#utility.yul\":8607:8636   */\n      sub\n        /* \"#utility.yul\":8603:8651   */\n      sub\n        /* \"#utility.yul\":8583:8601   */\n      dup2\n        /* \"#utility.yul\":8579:8652   */\n      slt\n        /* \"#utility.yul\":8569:8737   */\n      tag_252\n      jumpi\n        /* \"#utility.yul\":8656:8735   */\n      tag_253\n      tag_138\n      jump\t// in\n    tag_253:\n        /* \"#utility.yul\":8569:8737   */\n    tag_252:\n        /* \"#utility.yul\":8768:8786   */\n      dup1\n        /* \"#utility.yul\":8758:8766   */\n      dup5\n        /* \"#utility.yul\":8754:8787   */\n      add\n        /* \"#utility.yul\":8746:8787   */\n      swap3\n      pop\n        /* \"#utility.yul\":8820:8824   */\n      dup3\n        /* \"#utility.yul\":8807:8825   */\n      calldataload\n        /* \"#utility.yul\":8797:8825   */\n      swap2\n      pop\n        /* \"#utility.yul\":8848:8866   */\n      0xffffffffffffffff\n        /* \"#utility.yul\":8840:8846   */\n      dup3\n        /* \"#utility.yul\":8837:8867   */\n      gt\n        /* \"#utility.yul\":8834:8951   */\n      iszero\n      tag_254\n      jumpi\n        /* \"#utility.yul\":8870:8949   */\n      tag_255\n      tag_139\n      jump\t// in\n    tag_255:\n        /* \"#utility.yul\":8834:8951   */\n    tag_254:\n        /* \"#utility.yul\":8978:8980   */\n      0x20\n        /* \"#utility.yul\":8972:8976   */\n      dup4\n        /* \"#utility.yul\":8968:8981   */\n      add\n        /* \"#utility.yul\":8960:8981   */\n      swap3\n      pop\n        /* \"#utility.yul\":9035:9039   */\n      0x01\n        /* \"#utility.yul\":9027:9033   */\n      dup3\n        /* \"#utility.yul\":9023:9040   */\n      mul\n        /* \"#utility.yul\":9007:9021   */\n      calldatasize\n        /* \"#utility.yul\":9003:9041   */\n      sub\n        /* \"#utility.yul\":8997:9001   */\n      dup4\n        /* \"#utility.yul\":8993:9042   */\n      sgt\n        /* \"#utility.yul\":8990:9126   */\n      iszero\n      tag_256\n      jumpi\n        /* \"#utility.yul\":9045:9124   */\n      tag_257\n      tag_140\n      jump\t// in\n    tag_257:\n        /* \"#utility.yul\":8990:9126   */\n    tag_256:\n        /* \"#utility.yul\":8499:9133   */\n      pop\n        /* \"#utility.yul\":8408:9133   */\n      swap3\n      pop\n      swap3\n      swap1\n      pop\n      jump\t// out\n        /* \"#utility.yul\":9139:9287   */\n    tag_141:\n        /* \"#utility.yul\":9241:9252   */\n      0x00\n        /* \"#utility.yul\":9278:9281   */\n      dup2\n        /* \"#utility.yul\":9263:9281   */\n      swap1\n      pop\n        /* \"#utility.yul\":9139:9287   */\n      swap3\n      swap2\n      pop\n      pop\n      jump\t// out\n        /* \"#utility.yul\":9293:9441   */\n    tag_142:\n        /* \"#utility.yul\":9391:9397   */\n      dup3\n        /* \"#utility.yul\":9386:9389   */\n      dup2\n        /* \"#utility.yul\":9381:9384   */\n      dup4\n        /* \"#utility.yul\":9368:9398   */\n      calldatacopy\n        /* \"#utility.yul\":9432:9433   */\n      0x00\n        /* \"#utility.yul\":9423:9429   */\n      dup4\n        /* \"#utility.yul\":9418:9421   */\n      dup4\n        /* \"#utility.yul\":9414:9430   */\n      add\n        /* \"#utility.yul\":9407:9434   */\n      mstore\n        /* \"#utility.yul\":9293:9441   */\n      pop\n      pop\n      pop\n      jump\t// out\n        /* \"#utility.yul\":9471:9801   */\n    tag_143:\n        /* \"#utility.yul\":9587:9590   */\n      0x00\n        /* \"#utility.yul\":9608:9697   */\n      tag_261\n        /* \"#utility.yul\":9690:9696   */\n      dup4\n        /* \"#utility.yul\":9685:9688   */\n      dup6\n        /* \"#utility.yul\":9608:9697   */\n      tag_141\n      jump\t// in\n    tag_261:\n        /* \"#utility.yul\":9601:9697   */\n      swap4\n      pop\n        /* \"#utility.yul\":9707:9763   */\n      tag_262\n        /* \"#utility.yul\":9756:9762   */\n      dup4\n        /* \"#utility.yul\":9751:9754   */\n      dup6\n        /* \"#utility.yul\":9744:9749   */\n      dup5\n        /* \"#utility.yul\":9707:9763   */\n      tag_142\n      jump\t// in\n    tag_262:\n        /* \"#utility.yul\":9788:9794   */\n      dup3\n        /* \"#utility.yul\":9783:9786   */\n      dup5\n        /* \"#utility.yul\":9779:9795   */\n      add\n        /* \"#utility.yul\":9772:9795   */\n      swap1\n      pop\n        /* \"#utility.yul\":9471:9801   */\n      swap4\n      swap3\n      pop\n      pop\n      pop\n      jump\t// out\n        /* \"#utility.yul\":9807:10102   */\n    tag_48:\n        /* \"#utility.yul\":9949:9952   */\n      0x00\n        /* \"#utility.yul\":9971:10076   */\n      tag_264\n        /* \"#utility.yul\":10072:10075   */\n      dup3\n        /* \"#utility.yul\":10063:10069   */\n      dup5\n        /* \"#utility.yul\":10055:10061   */\n      dup7\n        /* \"#utility.yul\":9971:10076   */\n      tag_143\n      jump\t// in\n    tag_264:\n        /* \"#utility.yul\":9964:10076   */\n      swap2\n      pop\n        /* \"#utility.yul\":10093:10096   */\n      dup2\n        /* \"#utility.yul\":10086:10096   */\n      swap1\n      pop\n        /* \"#utility.yul\":9807:10102   */\n      swap4\n      swap3\n      pop\n      pop\n      pop\n      jump\t// out\n        /* \"#utility.yul\":10108:10288   */\n    tag_144:\n        /* \"#utility.yul\":10156:10233   */\n      0x4e487b7100000000000000000000000000000000000000000000000000000000\n        /* \"#utility.yul\":10153:10154   */\n      0x00\n        /* \"#utility.yul\":10146:10234   */\n      mstore\n        /* \"#utility.yul\":10253:10257   */\n      0x22\n        /* \"#utility.yul\":10250:10251   */\n      0x04\n        /* \"#utility.yul\":10243:10258   */\n      mstore\n        /* \"#utility.yul\":10277:10281   */\n      0x24\n        /* \"#utility.yul\":10274:10275   */\n      0x00\n        /* \"#utility.yul\":10267:10282   */\n      revert\n        /* \"#utility.yul\":10294:10614   */\n    tag_84:\n        /* \"#utility.yul\":10338:10344   */\n      0x00\n        /* \"#utility.yul\":10375:10376   */\n      0x02\n        /* \"#utility.yul\":10369:10373   */\n      dup3\n        /* \"#utility.yul\":10365:10377   */\n      div\n        /* \"#utility.yul\":10355:10377   */\n      swap1\n      pop\n        /* \"#utility.yul\":10422:10423   */\n      0x01\n        /* \"#utility.yul\":10416:10420   */\n      dup3\n        /* \"#utility.yul\":10412:10424   */\n      and\n        /* \"#utility.yul\":10443:10461   */\n      dup1\n        /* \"#utility.yul\":10433:10514   */\n      tag_267\n      jumpi\n        /* \"#utility.yul\":10499:10503   */\n      0x7f\n        /* \"#utility.yul\":10491:10497   */\n      dup3\n        /* \"#utility.yul\":10487:10504   */\n      and\n        /* \"#utility.yul\":10477:10504   */\n      swap2\n      pop\n        /* \"#utility.yul\":10433:10514   */\n    tag_267:\n        /* \"#utility.yul\":10561:10563   */\n      0x20\n        /* \"#utility.yul\":10553:10559   */\n      dup3\n        /* \"#utility.yul\":10550:10564   */\n      lt\n        /* \"#utility.yul\":10530:10548   */\n      dup2\n        /* \"#utility.yul\":10527:10565   */\n      sub\n        /* \"#utility.yul\":10524:10608   */\n      tag_268\n      jumpi\n        /* \"#utility.yul\":10580:10598   */\n      tag_269\n      tag_144\n      jump\t// in\n    tag_269:\n        /* \"#utility.yul\":10524:10608   */\n    tag_268:\n        /* \"#utility.yul\":10345:10614   */\n      pop\n        /* \"#utility.yul\":10294:10614   */\n      swap2\n      swap1\n      pop\n      jump\t// out\n        /* \"#utility.yul\":10620:10761   */\n    tag_145:\n        /* \"#utility.yul\":10669:10673   */\n      0x00\n        /* \"#utility.yul\":10692:10695   */\n      dup2\n        /* \"#utility.yul\":10684:10695   */\n      swap1\n      pop\n        /* \"#utility.yul\":10715:10718   */\n      dup2\n        /* \"#utility.yul\":10712:10713   */\n      0x00\n        /* \"#utility.yul\":10705:10719   */\n      mstore\n        /* \"#utility.yul\":10749:10753   */\n      0x20\n        /* \"#utility.yul\":10746:10747   */\n      0x00\n        /* \"#utility.yul\":10736:10754   */\n      keccak256\n        /* \"#utility.yul\":10728:10754   */\n      swap1\n      pop\n        /* \"#utility.yul\":10620:10761   */\n      swap2\n      swap1\n      pop\n      jump\t// out\n        /* \"#utility.yul\":10791:11665   */\n    tag_146:\n        /* \"#utility.yul\":10894:10897   */\n      0x00\n        /* \"#utility.yul\":10931:10936   */\n      dup2\n        /* \"#utility.yul\":10925:10937   */\n      sload\n        /* \"#utility.yul\":10960:10996   */\n      tag_272\n        /* \"#utility.yul\":10986:10995   */\n      dup2\n        /* \"#utility.yul\":10960:10996   */\n      tag_84\n      jump\t// in\n    tag_272:\n        /* \"#utility.yul\":11012:11101   */\n      tag_273\n        /* \"#utility.yul\":11094:11100   */\n      dup2\n        /* \"#utility.yul\":11089:11092   */\n      dup7\n        /* \"#utility.yul\":11012:11101   */\n      tag_141\n      jump\t// in\n    tag_273:\n        /* \"#utility.yul\":11005:11101   */\n      swap5\n      pop\n        /* \"#utility.yul\":11132:11133   */\n      0x01\n        /* \"#utility.yul\":11121:11130   */\n      dup3\n        /* \"#utility.yul\":11117:11134   */\n      and\n        /* \"#utility.yul\":11148:11149   */\n      0x00\n        /* \"#utility.yul\":11143:11309   */\n      dup2\n      eq\n      tag_275\n      jumpi\n        /* \"#utility.yul\":11323:11324   */\n      0x01\n        /* \"#utility.yul\":11318:11659   */\n      dup2\n      eq\n      tag_276\n      jumpi\n        /* \"#utility.yul\":11110:11659   */\n      jump(tag_274)\n        /* \"#utility.yul\":11143:11309   */\n    tag_275:\n        /* \"#utility.yul\":11227:11231   */\n      0xff\n        /* \"#utility.yul\":11223:11232   */\n      not\n        /* \"#utility.yul\":11212:11221   */\n      dup4\n        /* \"#utility.yul\":11208:11233   */\n      and\n        /* \"#utility.yul\":11203:11206   */\n      dup7\n        /* \"#utility.yul\":11196:11234   */\n      mstore\n        /* \"#utility.yul\":11289:11295   */\n      dup2\n        /* \"#utility.yul\":11282:11296   */\n      iszero\n        /* \"#utility.yul\":11275:11297   */\n      iszero\n        /* \"#utility.yul\":11267:11273   */\n      dup3\n        /* \"#utility.yul\":11263:11298   */\n      mul\n        /* \"#utility.yul\":11258:11261   */\n      dup7\n        /* \"#utility.yul\":11254:11299   */\n      add\n        /* \"#utility.yul\":11247:11299   */\n      swap4\n      pop\n        /* \"#utility.yul\":11143:11309   */\n      jump(tag_274)\n        /* \"#utility.yul\":11318:11659   */\n    tag_276:\n        /* \"#utility.yul\":11385:11423   */\n      tag_277\n        /* \"#utility.yul\":11417:11422   */\n      dup6\n        /* \"#utility.yul\":11385:11423   */\n      tag_145\n      jump\t// in\n    tag_277:\n        /* \"#utility.yul\":11445:11446   */\n      0x00\n        /* \"#utility.yul\":11459:11613   */\n    tag_278:\n        /* \"#utility.yul\":11473:11479   */\n      dup4\n        /* \"#utility.yul\":11470:11471   */\n      dup2\n        /* \"#utility.yul\":11467:11480   */\n      lt\n        /* \"#utility.yul\":11459:11613   */\n      iszero\n      tag_280\n      jumpi\n        /* \"#utility.yul\":11547:11554   */\n      dup2\n        /* \"#utility.yul\":11541:11555   */\n      sload\n        /* \"#utility.yul\":11537:11538   */\n      dup2\n        /* \"#utility.yul\":11532:11535   */\n      dup10\n        /* \"#utility.yul\":11528:11539   */\n      add\n        /* \"#utility.yul\":11521:11556   */\n      mstore\n        /* \"#utility.yul\":11597:11598   */\n      0x01\n        /* \"#utility.yul\":11588:11595   */\n      dup3\n        /* \"#utility.yul\":11584:11599   */\n      add\n        /* \"#utility.yul\":11573:11599   */\n      swap2\n      pop\n        /* \"#utility.yul\":11495:11499   */\n      0x20\n        /* \"#utility.yul\":11492:11493   */\n      dup2\n        /* \"#utility.yul\":11488:11500   */\n      add\n        /* \"#utility.yul\":11483:11500   */\n      swap1\n      pop\n        /* \"#utility.yul\":11459:11613   */\n      jump(tag_278)\n    tag_280:\n        /* \"#utility.yul\":11642:11648   */\n      dup4\n        /* \"#utility.yul\":11637:11640   */\n      dup9\n        /* \"#utility.yul\":11633:11649   */\n      add\n        /* \"#utility.yul\":11626:11649   */\n      swap6\n      pop\n        /* \"#utility.yul\":11325:11659   */\n      pop\n      pop\n        /* \"#utility.yul\":11110:11659   */\n    tag_274:\n      pop\n        /* \"#utility.yul\":10898:11665   */\n      pop\n      pop\n        /* \"#utility.yul\":10791:11665   */\n      swap3\n      swap2\n      pop\n      pop\n      jump\t// out\n        /* \"#utility.yul\":11671:11940   */\n    tag_50:\n        /* \"#utility.yul\":11800:11803   */\n      0x00\n        /* \"#utility.yul\":11822:11914   */\n      tag_282\n        /* \"#utility.yul\":11910:11913   */\n      dup3\n        /* \"#utility.yul\":11901:11907   */\n      dup5\n        /* \"#utility.yul\":11822:11914   */\n      tag_146\n      jump\t// in\n    tag_282:\n        /* \"#utility.yul\":11815:11914   */\n      swap2\n      pop\n        /* \"#utility.yul\":11931:11934   */\n      dup2\n        /* \"#utility.yul\":11924:11934   */\n      swap1\n      pop\n        /* \"#utility.yul\":11671:11940   */\n      swap3\n      swap2\n      pop\n      pop\n      jump\t// out\n        /* \"#utility.yul\":11946:12128   */\n    tag_147:\n        /* \"#utility.yul\":12086:12120   */\n      0x416e206572726f72206f63637572656420647572696e67206164646974696f6e\n        /* \"#utility.yul\":12082:12083   */\n      0x00\n        /* \"#utility.yul\":12074:12080   */\n      dup3\n        /* \"#utility.yul\":12070:12084   */\n      add\n        /* \"#utility.yul\":12063:12121   */\n      mstore\n        /* \"#utility.yul\":11946:12128   */\n      pop\n      jump\t// out\n        /* \"#utility.yul\":12134:12500   */\n    tag_148:\n        /* \"#utility.yul\":12276:12279   */\n      0x00\n        /* \"#utility.yul\":12297:12364   */\n      tag_285\n        /* \"#utility.yul\":12361:12363   */\n      0x20\n        /* \"#utility.yul\":12356:12359   */\n      dup4\n        /* \"#utility.yul\":12297:12364   */\n      tag_127\n      jump\t// in\n    tag_285:\n        /* \"#utility.yul\":12290:12364   */\n      swap2\n      pop\n        /* \"#utility.yul\":12373:12466   */\n      tag_286\n        /* \"#utility.yul\":12462:12465   */\n      dup3\n        /* \"#utility.yul\":12373:12466   */\n      tag_147\n      jump\t// in\n    tag_286:\n        /* \"#utility.yul\":12491:12493   */\n      0x20\n        /* \"#utility.yul\":12486:12489   */\n      dup3\n        /* \"#utility.yul\":12482:12494   */\n      add\n        /* \"#utility.yul\":12475:12494   */\n      swap1\n      pop\n        /* \"#utility.yul\":12134:12500   */\n      swap2\n      swap1\n      pop\n      jump\t// out\n        /* \"#utility.yul\":12506:12925   */\n    tag_57:\n        /* \"#utility.yul\":12672:12676   */\n      0x00\n        /* \"#utility.yul\":12710:12712   */\n      0x20\n        /* \"#utility.yul\":12699:12708   */\n      dup3\n        /* \"#utility.yul\":12695:12713   */\n      add\n        /* \"#utility.yul\":12687:12713   */\n      swap1\n      pop\n        /* \"#utility.yul\":12759:12768   */\n      dup2\n        /* \"#utility.yul\":12753:12757   */\n      dup2\n        /* \"#utility.yul\":12749:12769   */\n      sub\n        /* \"#utility.yul\":12745:12746   */\n      0x00\n        /* \"#utility.yul\":12734:12743   */\n      dup4\n        /* \"#utility.yul\":12730:12747   */\n      add\n        /* \"#utility.yul\":12723:12770   */\n      mstore\n        /* \"#utility.yul\":12787:12918   */\n      tag_288\n        /* \"#utility.yul\":12913:12917   */\n      dup2\n        /* \"#utility.yul\":12787:12918   */\n      tag_148\n      jump\t// in\n    tag_288:\n        /* \"#utility.yul\":12779:12918   */\n      swap1\n      pop\n        /* \"#utility.yul\":12506:12925   */\n      swap2\n      swap1\n      pop\n      jump\t// out\n        /* \"#utility.yul\":12931:13153   */\n    tag_149:\n        /* \"#utility.yul\":13071:13105   */\n      0x416e206572726f72206f63637572656420647572696e67207375627472616374\n        /* \"#utility.yul\":13067:13068   */\n      0x00\n        /* \"#utility.yul\":13059:13065   */\n      dup3\n        /* \"#utility.yul\":13055:13069   */\n      add\n        /* \"#utility.yul\":13048:13106   */\n      mstore\n        /* \"#utility.yul\":13140:13145   */\n      0x696f6e0000000000000000000000000000000000000000000000000000000000\n        /* \"#utility.yul\":13135:13137   */\n      0x20\n        /* \"#utility.yul\":13127:13133   */\n      dup3\n        /* \"#utility.yul\":13123:13138   */\n      add\n        /* \"#utility.yul\":13116:13146   */\n      mstore\n        /* \"#utility.yul\":12931:13153   */\n      pop\n      jump\t// out\n        /* \"#utility.yul\":13159:13525   */\n    tag_150:\n        /* \"#utility.yul\":13301:13304   */\n      0x00\n        /* \"#utility.yul\":13322:13389   */\n      tag_291\n        /* \"#utility.yul\":13386:13388   */\n      0x23\n        /* \"#utility.yul\":13381:13384   */\n      dup4\n        /* \"#utility.yul\":13322:13389   */\n      tag_127\n      jump\t// in\n    tag_291:\n        /* \"#utility.yul\":13315:13389   */\n      swap2\n      pop\n        /* \"#utility.yul\":13398:13491   */\n      tag_292\n        /* \"#utility.yul\":13487:13490   */\n      dup3\n        /* \"#utility.yul\":13398:13491   */\n      tag_149\n      jump\t// in\n    tag_292:\n        /* \"#utility.yul\":13516:13518   */\n      0x40\n        /* \"#utility.yul\":13511:13514   */\n      dup3\n        /* \"#utility.yul\":13507:13519   */\n      add\n        /* \"#utility.yul\":13500:13519   */\n      swap1\n      pop\n        /* \"#utility.yul\":13159:13525   */\n      swap2\n      swap1\n      pop\n      jump\t// out\n        /* \"#utility.yul\":13531:13950   */\n    tag_80:\n        /* \"#utility.yul\":13697:13701   */\n      0x00\n        /* \"#utility.yul\":13735:13737   */\n      0x20\n        /* \"#utility.yul\":13724:13733   */\n      dup3\n        /* \"#utility.yul\":13720:13738   */\n      add\n        /* \"#utility.yul\":13712:13738   */\n      swap1\n      pop\n        /* \"#utility.yul\":13784:13793   */\n      dup2\n        /* \"#utility.yul\":13778:13782   */\n      dup2\n        /* \"#utility.yul\":13774:13794   */\n      sub\n        /* \"#utility.yul\":13770:13771   */\n      0x00\n        /* \"#utility.yul\":13759:13768   */\n      dup4\n        /* \"#utility.yul\":13755:13772   */\n      add\n        /* \"#utility.yul\":13748:13795   */\n      mstore\n        /* \"#utility.yul\":13812:13943   */\n      tag_294\n        /* \"#utility.yul\":13938:13942   */\n      dup2\n        /* \"#utility.yul\":13812:13943   */\n      tag_150\n      jump\t// in\n    tag_294:\n        /* \"#utility.yul\":13804:13943   */\n      swap1\n      pop\n        /* \"#utility.yul\":13531:13950   */\n      swap2\n      swap1\n      pop\n      jump\t// out\n        /* \"#utility.yul\":13956:14136   */\n    tag_151:\n        /* \"#utility.yul\":14004:14081   */\n      0x4e487b7100000000000000000000000000000000000000000000000000000000\n        /* \"#utility.yul\":14001:14002   */\n      0x00\n        /* \"#utility.yul\":13994:14082   */\n      mstore\n        /* \"#utility.yul\":14101:14105   */\n      0x41\n        /* \"#utility.yul\":14098:14099   */\n      0x04\n        /* \"#utility.yul\":14091:14106   */\n      mstore\n        /* \"#utility.yul\":14125:14129   */\n      0x24\n        /* \"#utility.yul\":14122:14123   */\n      0x00\n        /* \"#utility.yul\":14115:14130   */\n      revert\n        /* \"#utility.yul\":14142:14235   */\n    tag_152:\n        /* \"#utility.yul\":14179:14185   */\n      0x00\n        /* \"#utility.yul\":14226:14228   */\n      0x20\n        /* \"#utility.yul\":14221:14223   */\n      0x1f\n        /* \"#utility.yul\":14214:14219   */\n      dup4\n        /* \"#utility.yul\":14210:14224   */\n      add\n        /* \"#utility.yul\":14206:14229   */\n      div\n        /* \"#utility.yul\":14196:14229   */\n      swap1\n      pop\n        /* \"#utility.yul\":14142:14235   */\n      swap2\n      swap1\n      pop\n      jump\t// out\n        /* \"#utility.yul\":14241:14348   */\n    tag_153:\n        /* \"#utility.yul\":14285:14293   */\n      0x00\n        /* \"#utility.yul\":14335:14340   */\n      dup3\n        /* \"#utility.yul\":14329:14333   */\n      dup3\n        /* \"#utility.yul\":14325:14341   */\n      shl\n        /* \"#utility.yul\":14304:14341   */\n      swap1\n      pop\n        /* \"#utility.yul\":14241:14348   */\n      swap3\n      swap2\n      pop\n      pop\n      jump\t// out\n        /* \"#utility.yul\":14354:14747   */\n    tag_154:\n        /* \"#utility.yul\":14423:14429   */\n      0x00\n        /* \"#utility.yul\":14473:14474   */\n      0x08\n        /* \"#utility.yul\":14461:14471   */\n      dup4\n        /* \"#utility.yul\":14457:14475   */\n      mul\n        /* \"#utility.yul\":14496:14593   */\n      tag_299\n        /* \"#utility.yul\":14526:14592   */\n      0xffffffffffffffffffffffffffffffffffffffffffffffffffffffffffffffff\n        /* \"#utility.yul\":14515:14524   */\n      dup3\n        /* \"#utility.yul\":14496:14593   */\n      tag_153\n      jump\t// in\n    tag_299:\n        /* \"#utility.yul\":14614:14653   */\n      tag_300\n        /* \"#utility.yul\":14644:14652   */\n      dup7\n        /* \"#utility.yul\":14633:14642   */\n      dup4\n        /* \"#utility.yul\":14614:14653   */\n      tag_153\n      jump\t// in\n    tag_300:\n        /* \"#utility.yul\":14602:14653   */\n      swap6\n      pop\n        /* \"#utility.yul\":14686:14690   */\n      dup1\n        /* \"#utility.yul\":14682:14691   */\n      not\n        /* \"#utility.yul\":14675:14680   */\n      dup5\n        /* \"#utility.yul\":14671:14692   */\n      and\n        /* \"#utility.yul\":14662:14692   */\n      swap4\n      pop\n        /* \"#utility.yul\":14735:14739   */\n      dup1\n        /* \"#utility.yul\":14725:14733   */\n      dup7\n        /* \"#utility.yul\":14721:14740   */\n      and\n        /* \"#utility.yul\":14714:14719   */\n      dup5\n        /* \"#utility.yul\":14711:14741   */\n      or\n        /* \"#utility.yul\":14701:14741   */\n      swap3\n      pop\n        /* \"#utility.yul\":14430:14747   */\n      pop\n      pop\n        /* \"#utility.yul\":14354:14747   */\n      swap4\n      swap3\n      pop\n      pop\n      pop\n      jump\t// out\n        /* \"#utility.yul\":14753:14813   */\n    tag_155:\n        /* \"#utility.yul\":14781:14784   */\n      0x00\n        /* \"#utility.yul\":14802:14807   */\n      dup2\n        /* \"#utility.yul\":14795:14807   */\n      swap1\n      pop\n        /* \"#utility.yul\":14753:14813   */\n      swap2\n      swap1\n      pop\n      jump\t// out\n        /* \"#utility.yul\":14819:14961   */\n    tag_156:\n        /* \"#utility.yul\":14869:14878   */\n      0x00\n        /* \"#utility.yul\":14902:14955   */\n      tag_303\n        /* \"#utility.yul\":14920:14954   */\n      tag_304\n        /* \"#utility.yul\":14929:14953   */\n      tag_305\n        /* \"#utility.yul\":14947:14952   */\n      dup5\n        /* \"#utility.yul\":14929:14953   */\n      tag_120\n      jump\t// in\n    tag_305:\n        /* \"#utility.yul\":14920:14954   */\n      tag_155\n      jump\t// in\n    tag_304:\n        /* \"#utility.yul\":14902:14955   */\n      tag_120\n      jump\t// in\n    tag_303:\n        /* \"#utility.yul\":14889:14955   */\n      swap1\n      pop\n        /* \"#utility.yul\":14819:14961   */\n      swap2\n      swap1\n      pop\n      jump\t// out\n        /* \"#utility.yul\":14967:15042   */\n    tag_157:\n        /* \"#utility.yul\":15010:15013   */\n      0x00\n        /* \"#utility.yul\":15031:15036   */\n      dup2\n        /* \"#utility.yul\":15024:15036   */\n      swap1\n      pop\n        /* \"#utility.yul\":14967:15042   */\n      swap2\n      swap1\n      pop\n      jump\t// out\n        /* \"#utility.yul\":15048:15317   */\n    tag_158:\n        /* \"#utility.yul\":15158:15197   */\n      tag_308\n        /* \"#utility.yul\":15189:15196   */\n      dup4\n        /* \"#utility.yul\":15158:15197   */\n      tag_156\n      jump\t// in\n    tag_308:\n        /* \"#utility.yul\":15219:15310   */\n      tag_309\n        /* \"#utility.yul\":15268:15309   */\n      tag_310\n        /* \"#utility.yul\":15292:15308   */\n      dup3\n        /* \"#utility.yul\":15268:15309   */\n      tag_157\n      jump\t// in\n    tag_310:\n        /* \"#utility.yul\":15260:15266   */\n      dup5\n        /* \"#utility.yul\":15253:15257   */\n      dup5\n        /* \"#utility.yul\":15247:15258   */\n      sload\n        /* \"#utility.yul\":15219:15310   */\n      tag_154\n      jump\t// in\n    tag_309:\n        /* \"#utility.yul\":15213:15217   */\n      dup3\n        /* \"#utility.yul\":15206:15311   */\n      sstore\n        /* \"#utility.yul\":15124:15317   */\n      pop\n        /* \"#utility.yul\":15048:15317   */\n      pop\n      pop\n      pop\n      jump\t// out\n        /* \"#utility.yul\":15323:15396   */\n    tag_159:\n        /* \"#utility.yul\":15368:15371   */\n      0x00\n        /* \"#utility.yul\":15323:15396   */\n      swap1\n      jump\t// out\n        /* \"#utility.yul\":15402:15591   */\n    tag_160:\n        /* \"#utility.yul\":15479:15511   */\n      tag_313\n      tag_159\n      jump\t// in\n    tag_313:\n        /* \"#utility.yul\":15520:15585   */\n      tag_314\n        /* \"#utility.yul\":15578:15584   */\n      dup2\n        /* \"#utility.yul\":15570:15576   */\n      dup5\n        /* \"#utility.yul\":15564:15568   */\n      dup5\n        /* \"#utility.yul\":15520:15585   */\n      tag_158\n      jump\t// in\n    tag_314:\n        /* \"#utility.yul\":15455:15591   */\n      pop\n        /* \"#utility.yul\":15402:15591   */\n      pop\n      pop\n      jump\t// out\n        /* \"#utility.yul\":15597:15783   */\n    tag_161:\n        /* \"#utility.yul\":15657:15777   */\n    tag_316:\n        /* \"#utility.yul\":15674:15677   */\n      dup2\n        /* \"#utility.yul\":15667:15672   */\n      dup2\n        /* \"#utility.yul\":15664:15678   */\n      lt\n        /* \"#utility.yul\":15657:15777   */\n      iszero\n      tag_318\n      jumpi\n        /* \"#utility.yul\":15728:15767   */\n      tag_319\n        /* \"#utility.yul\":15765:15766   */\n      0x00\n        /* \"#utility.yul\":15758:15763   */\n      dup3\n        /* \"#utility.yul\":15728:15767   */\n      tag_160\n      jump\t// in\n    tag_319:\n        /* \"#utility.yul\":15701:15702   */\n      0x01\n        /* \"#utility.yul\":15694:15699   */\n      dup2\n        /* \"#utility.yul\":15690:15703   */\n      add\n        /* \"#utility.yul\":15681:15703   */\n      swap1\n      pop\n        /* \"#utility.yul\":15657:15777   */\n      jump(tag_316)\n    tag_318:\n        /* \"#utility.yul\":15597:15783   */\n      pop\n      pop\n      jump\t// out\n        /* \"#utility.yul\":15789:16332   */\n    tag_162:\n        /* \"#utility.yul\":15890:15892   */\n      0x1f\n        /* \"#utility.yul\":15885:15888   */\n      dup3\n        /* \"#utility.yul\":15882:15893   */\n      gt\n        /* \"#utility.yul\":15879:16325   */\n      iszero\n      tag_321\n      jumpi\n        /* \"#utility.yul\":15924:15962   */\n      tag_322\n        /* \"#utility.yul\":15956:15961   */\n      dup2\n        /* \"#utility.yul\":15924:15962   */\n      tag_145\n      jump\t// in\n    tag_322:\n        /* \"#utility.yul\":16008:16037   */\n      tag_323\n        /* \"#utility.yul\":16026:16036   */\n      dup5\n        /* \"#utility.yul\":16008:16037   */\n      tag_152\n      jump\t// in\n    tag_323:\n        /* \"#utility.yul\":15998:16006   */\n      dup2\n        /* \"#utility.yul\":15994:16038   */\n      add\n        /* \"#utility.yul\":16191:16193   */\n      0x20\n        /* \"#utility.yul\":16179:16189   */\n      dup6\n        /* \"#utility.yul\":16176:16194   */\n      lt\n        /* \"#utility.yul\":16173:16222   */\n      iszero\n      tag_324\n      jumpi\n        /* \"#utility.yul\":16212:16220   */\n      dup2\n        /* \"#utility.yul\":16197:16220   */\n      swap1\n      pop\n        /* \"#utility.yul\":16173:16222   */\n    tag_324:\n        /* \"#utility.yul\":16235:16315   */\n      tag_325\n        /* \"#utility.yul\":16291:16313   */\n      tag_326\n        /* \"#utility.yul\":16309:16312   */\n      dup6\n        /* \"#utility.yul\":16291:16313   */\n      tag_152\n      jump\t// in\n    tag_326:\n        /* \"#utility.yul\":16281:16289   */\n      dup4\n        /* \"#utility.yul\":16277:16314   */\n      add\n        /* \"#utility.yul\":16264:16275   */\n      dup3\n        /* \"#utility.yul\":16235:16315   */\n      tag_161\n      jump\t// in\n    tag_325:\n        /* \"#utility.yul\":15894:16325   */\n      pop\n      pop\n        /* \"#utility.yul\":15879:16325   */\n    tag_321:\n        /* \"#utility.yul\":15789:16332   */\n      pop\n      pop\n      pop\n      jump\t// out\n        /* \"#utility.yul\":16338:16455   */\n    tag_163:\n        /* \"#utility.yul\":16392:16400   */\n      0x00\n        /* \"#utility.yul\":16442:16447   */\n      dup3\n        /* \"#utility.yul\":16436:16440   */\n      dup3\n        /* \"#utility.yul\":16432:16448   */\n      shr\n        /* \"#utility.yul\":16411:16448   */\n      swap1\n      pop\n        /* \"#utility.yul\":16338:16455   */\n      swap3\n      swap2\n      pop\n      pop\n      jump\t// out\n        /* \"#utility.yul\":16461:16630   */\n    tag_164:\n        /* \"#utility.yul\":16505:16511   */\n      0x00\n        /* \"#utility.yul\":16538:16589   */\n      tag_329\n        /* \"#utility.yul\":16586:16587   */\n      0x00\n        /* \"#utility.yul\":16582:16588   */\n      not\n        /* \"#utility.yul\":16574:16579   */\n      dup5\n        /* \"#utility.yul\":16571:16572   */\n      0x08\n        /* \"#utility.yul\":16567:16580   */\n      mul\n        /* \"#utility.yul\":16538:16589   */\n      tag_163\n      jump\t// in\n    tag_329:\n        /* \"#utility.yul\":16534:16590   */\n      not\n        /* \"#utility.yul\":16619:16623   */\n      dup1\n        /* \"#utility.yul\":16613:16617   */\n      dup4\n        /* \"#utility.yul\":16609:16624   */\n      and\n        /* \"#utility.yul\":16599:16624   */\n      swap2\n      pop\n        /* \"#utility.yul\":16512:16630   */\n      pop\n        /* \"#utility.yul\":16461:16630   */\n      swap3\n      swap2\n      pop\n      pop\n      jump\t// out\n        /* \"#utility.yul\":16635:16930   */\n    tag_165:\n        /* \"#utility.yul\":16711:16715   */\n      0x00\n        /* \"#utility.yul\":16857:16886   */\n      tag_331\n        /* \"#utility.yul\":16882:16885   */\n      dup4\n        /* \"#utility.yul\":16876:16880   */\n      dup4\n        /* \"#utility.yul\":16857:16886   */\n      tag_164\n      jump\t// in\n    tag_331:\n        /* \"#utility.yul\":16849:16886   */\n      swap2\n      pop\n        /* \"#utility.yul\":16919:16922   */\n      dup3\n        /* \"#utility.yul\":16916:16917   */\n      0x02\n        /* \"#utility.yul\":16912:16923   */\n      mul\n        /* \"#utility.yul\":16906:16910   */\n      dup3\n        /* \"#utility.yul\":16903:16924   */\n      or\n        /* \"#utility.yul\":16895:16924   */\n      swap1\n      pop\n        /* \"#utility.yul\":16635:16930   */\n      swap3\n      swap2\n      pop\n      pop\n      jump\t// out\n        /* \"#utility.yul\":16935:18330   */\n    tag_92:\n        /* \"#utility.yul\":17052:17089   */\n      tag_333\n        /* \"#utility.yul\":17085:17088   */\n      dup3\n        /* \"#utility.yul\":17052:17089   */\n      tag_126\n      jump\t// in\n    tag_333:\n        /* \"#utility.yul\":17154:17172   */\n      0xffffffffffffffff\n        /* \"#utility.yul\":17146:17152   */\n      dup2\n        /* \"#utility.yul\":17143:17173   */\n      gt\n        /* \"#utility.yul\":17140:17196   */\n      iszero\n      tag_334\n      jumpi\n        /* \"#utility.yul\":17176:17194   */\n      tag_335\n      tag_151\n      jump\t// in\n    tag_335:\n        /* \"#utility.yul\":17140:17196   */\n    tag_334:\n        /* \"#utility.yul\":17220:17258   */\n      tag_336\n        /* \"#utility.yul\":17252:17256   */\n      dup3\n        /* \"#utility.yul\":17246:17257   */\n      sload\n        /* \"#utility.yul\":17220:17258   */\n      tag_84\n      jump\t// in\n    tag_336:\n        /* \"#utility.yul\":17305:17372   */\n      tag_337\n        /* \"#utility.yul\":17365:17371   */\n      dup3\n        /* \"#utility.yul\":17357:17363   */\n      dup3\n        /* \"#utility.yul\":17351:17355   */\n      dup6\n        /* \"#utility.yul\":17305:17372   */\n      tag_162\n      jump\t// in\n    tag_337:\n        /* \"#utility.yul\":17399:17400   */\n      0x00\n        /* \"#utility.yul\":17423:17427   */\n      0x20\n        /* \"#utility.yul\":17410:17427   */\n      swap1\n      pop\n        /* \"#utility.yul\":17455:17457   */\n      0x1f\n        /* \"#utility.yul\":17447:17453   */\n      dup4\n        /* \"#utility.yul\":17444:17458   */\n      gt\n        /* \"#utility.yul\":17472:17473   */\n      0x01\n        /* \"#utility.yul\":17467:18085   */\n      dup2\n      eq\n      tag_339\n      jumpi\n        /* \"#utility.yul\":18129:18130   */\n      0x00\n        /* \"#utility.yul\":18146:18152   */\n      dup5\n        /* \"#utility.yul\":18143:18220   */\n      iszero\n      tag_340\n      jumpi\n        /* \"#utility.yul\":18195:18204   */\n      dup3\n        /* \"#utility.yul\":18190:18193   */\n      dup8\n        /* \"#utility.yul\":18186:18205   */\n      add\n        /* \"#utility.yul\":18180:18206   */\n      mload\n        /* \"#utility.yul\":18171:18206   */\n      swap1\n      pop\n        /* \"#utility.yul\":18143:18220   */\n    tag_340:\n        /* \"#utility.yul\":18246:18313   */\n      tag_341\n        /* \"#utility.yul\":18306:18312   */\n      dup6\n        /* \"#utility.yul\":18299:18304   */\n      dup3\n        /* \"#utility.yul\":18246:18313   */\n      tag_165\n      jump\t// in\n    tag_341:\n        /* \"#utility.yul\":18240:18244   */\n      dup7\n        /* \"#utility.yul\":18233:18314   */\n      sstore\n        /* \"#utility.yul\":18102:18324   */\n      pop\n        /* \"#utility.yul\":17437:18324   */\n      jump(tag_338)\n        /* \"#utility.yul\":17467:18085   */\n    tag_339:\n        /* \"#utility.yul\":17519:17523   */\n      0x1f\n        /* \"#utility.yul\":17515:17524   */\n      not\n        /* \"#utility.yul\":17507:17513   */\n      dup5\n        /* \"#utility.yul\":17503:17525   */\n      and\n        /* \"#utility.yul\":17553:17590   */\n      tag_342\n        /* \"#utility.yul\":17585:17589   */\n      dup7\n        /* \"#utility.yul\":17553:17590   */\n      tag_145\n      jump\t// in\n    tag_342:\n        /* \"#utility.yul\":17612:17613   */\n      0x00\n        /* \"#utility.yul\":17626:17834   */\n    tag_343:\n        /* \"#utility.yul\":17640:17647   */\n      dup3\n        /* \"#utility.yul\":17637:17638   */\n      dup2\n        /* \"#utility.yul\":17634:17648   */\n      lt\n        /* \"#utility.yul\":17626:17834   */\n      iszero\n      tag_345\n      jumpi\n        /* \"#utility.yul\":17719:17728   */\n      dup5\n        /* \"#utility.yul\":17714:17717   */\n      dup10\n        /* \"#utility.yul\":17710:17729   */\n      add\n        /* \"#utility.yul\":17704:17730   */\n      mload\n        /* \"#utility.yul\":17696:17702   */\n      dup3\n        /* \"#utility.yul\":17689:17731   */\n      sstore\n        /* \"#utility.yul\":17770:17771   */\n      0x01\n        /* \"#utility.yul\":17762:17768   */\n      dup3\n        /* \"#utility.yul\":17758:17772   */\n      add\n        /* \"#utility.yul\":17748:17772   */\n      swap2\n      pop\n        /* \"#utility.yul\":17817:17819   */\n      0x20\n        /* \"#utility.yul\":17806:17815   */\n      dup6\n        /* \"#utility.yul\":17802:17820   */\n      add\n        /* \"#utility.yul\":17789:17820   */\n      swap5\n      pop\n        /* \"#utility.yul\":17663:17667   */\n      0x20\n        /* \"#utility.yul\":17660:17661   */\n      dup2\n        /* \"#utility.yul\":17656:17668   */\n      add\n        /* \"#utility.yul\":17651:17668   */\n      swap1\n      pop\n        /* \"#utility.yul\":17626:17834   */\n      jump(tag_343)\n    tag_345:\n        /* \"#utility.yul\":17862:17868   */\n      dup7\n        /* \"#utility.yul\":17853:17860   */\n      dup4\n        /* \"#utility.yul\":17850:17869   */\n      lt\n        /* \"#utility.yul\":17847:18026   */\n      iszero\n      tag_346\n      jumpi\n        /* \"#utility.yul\":17920:17929   */\n      dup5\n        /* \"#utility.yul\":17915:17918   */\n      dup10\n        /* \"#utility.yul\":17911:17930   */\n      add\n        /* \"#utility.yul\":17905:17931   */\n      mload\n        /* \"#utility.yul\":17963:18011   */\n      tag_347\n        /* \"#utility.yul\":18005:18009   */\n      0x1f\n        /* \"#utility.yul\":17997:18003   */\n      dup10\n        /* \"#utility.yul\":17993:18010   */\n      and\n        /* \"#utility.yul\":17982:17991   */\n      dup3\n        /* \"#utility.yul\":17963:18011   */\n      tag_164\n      jump\t// in\n    tag_347:\n        /* \"#utility.yul\":17955:17961   */\n      dup4\n        /* \"#utility.yul\":17948:18012   */\n      sstore\n        /* \"#utility.yul\":17870:18026   */\n      pop\n        /* \"#utility.yul\":17847:18026   */\n    tag_346:\n        /* \"#utility.yul\":18072:18073   */\n      0x01\n        /* \"#utility.yul\":18068:18069   */\n      0x02\n        /* \"#utility.yul\":18060:18066   */\n      dup9\n        /* \"#utility.yul\":18056:18070   */\n      mul\n        /* \"#utility.yul\":18052:18074   */\n      add\n        /* \"#utility.yul\":18046:18050   */\n      dup9\n        /* \"#utility.yul\":18039:18075   */\n      sstore\n        /* \"#utility.yul\":17474:18085   */\n      pop\n      pop\n      pop\n        /* \"#utility.yul\":17437:18324   */\n    tag_338:\n      pop\n        /* \"#utility.yul\":17027:18330   */\n      pop\n      pop\n      pop\n        /* \"#utility.yul\":16935:18330   */\n      pop\n      pop\n      jump\t// out\n\n    auxdata: 0xa2646970667358221220ecaa209a01888a8c60aca9e4c7dd9f41e48f8b127d6a9cd9d25d194a3351ddc364736f6c63430008190033\n}\n",
				"bytecode": {
					"linkReferences": {},
					"object": "6080604052348015600e575f80fd5b506111a08061001c5f395ff3fe608060405234801561000f575f80fd5b5060043610610055575f3560e01c806307f74843146100595780630f310b17146100755780632a7440d0146100a55780634081601b146100c1578063fe6e9120146100f2575b5f80fd5b610073600480360381019061006e91906108ef565b61010e565b005b61008f600480360381019061008a919061095b565b6102bd565b60405161009c9190610995565b60405180910390f35b6100bf60048036038101906100ba91906108ef565b6102f8565b005b6100db60048036038101906100d691906109ae565b6104a7565b6040516100e9929190610a6b565b60405180910390f35b61010c60048036038101906101079190610afa565b610566565b005b826101188161073e565b610157576040517f08c379a000000000000000000000000000000000000000000000000000000000815260040161014e90610bdb565b60405180910390fd5b5f805f8673ffffffffffffffffffffffffffffffffffffffff1673ffffffffffffffffffffffffffffffffffffffff1681526020019081526020015f2090505f5b81805490508110156102b5575f8282815481106101b8576101b7610bf9565b5b905f5260205f209060020201905084805f01906101d59190610c32565b6040516020016101e6929190610cd0565b60405160208183030381529060405280519060200120815f0160405160200161020f9190610dd7565b60405160208183030381529060405280519060200120148015610239575084602001358160010154145b156102a7575f806102578884600101546107e690919063ffffffff16565b915091508161029b576040517f08c379a000000000000000000000000000000000000000000000000000000000815260040161029290610e37565b60405180910390fd5b80836001018190555050505b508080600101915050610198565b505050505050565b600181815481106102cc575f80fd5b905f5260205f20015f915054906101000a900473ffffffffffffffffffffffffffffffffffffffff1681565b826103028161073e565b610341576040517f08c379a000000000000000000000000000000000000000000000000000000000815260040161033890610bdb565b60405180910390fd5b5f805f8673ffffffffffffffffffffffffffffffffffffffff1673ffffffffffffffffffffffffffffffffffffffff1681526020019081526020015f2090505f5b818054905081101561049f575f8282815481106103a2576103a1610bf9565b5b905f5260205f209060020201905084805f01906103bf9190610c32565b6040516020016103d0929190610cd0565b60405160208183030381529060405280519060200120815f016040516020016103f99190610dd7565b60405160208183030381529060405280519060200120148015610423575084602001358160010154145b15610491575f8061044188846001015461081290919063ffffffff16565b9150915081610485576040517f08c379a000000000000000000000000000000000000000000000000000000000815260040161047c90610ec5565b60405180910390fd5b80836001018190555050505b508080600101915050610382565b505050505050565b5f602052815f5260405f2081815481106104bf575f80fd5b905f5260205f2090600202015f9150915050805f0180546104df90610d15565b80601f016020809104026020016040519081016040528092919081815260200182805461050b90610d15565b80156105565780601f1061052d57610100808354040283529160200191610556565b820191905f5260205f20905b81548152906001019060200180831161053957829003601f168201915b5050505050908060010154905082565b5f805f8673ffffffffffffffffffffffffffffffffffffffff1673ffffffffffffffffffffffffffffffffffffffff1681526020019081526020015f20905080604051806040016040528086868080601f0160208091040260200160405190810160405280939291908181526020018383808284375f81840152601f19601f82011690508083019250505050505050815260200184815250908060018154018082558091505060019003905f5260205f2090600202015f909190919091505f820151815f019081610637919061109b565b506020820151816001015550505f5b6001805490508110156106d5578573ffffffffffffffffffffffffffffffffffffffff166001828154811061067e5761067d610bf9565b5b905f5260205f20015f9054906101000a900473ffffffffffffffffffffffffffffffffffffffff1673ffffffffffffffffffffffffffffffffffffffff16036106c8575050610738565b8080600101915050610646565b50600185908060018154018082558091505060019003905f5260205f20015f9091909190916101000a81548173ffffffffffffffffffffffffffffffffffffffff021916908373ffffffffffffffffffffffffffffffffffffffff160217905550505b50505050565b5f805f90505f5b6001805490508110156107db578373ffffffffffffffffffffffffffffffffffffffff166001828154811061077d5761077c610bf9565b5b905f5260205f20015f9054906101000a900473ffffffffffffffffffffffffffffffffffffffff1673ffffffffffffffffffffffffffffffffffffffff16036107ce576001915081925050506107e1565b8080600101915050610745565b50809150505b919050565b5f805f838501905084811015610802575f80925092505061080b565b60018192509250505b9250929050565b5f8083831115610827575f8091509150610831565b6001838503915091505b9250929050565b5f80fd5b5f80fd5b5f73ffffffffffffffffffffffffffffffffffffffff82169050919050565b5f61086982610840565b9050919050565b6108798161085f565b8114610883575f80fd5b50565b5f8135905061089481610870565b92915050565b5f819050919050565b6108ac8161089a565b81146108b6575f80fd5b50565b5f813590506108c7816108a3565b92915050565b5f80fd5b5f604082840312156108e6576108e56108cd565b5b81905092915050565b5f805f6060848603121561090657610905610838565b5b5f61091386828701610886565b9350506020610924868287016108b9565b925050604084013567ffffffffffffffff8111156109455761094461083c565b5b610951868287016108d1565b9150509250925092565b5f602082840312156109705761096f610838565b5b5f61097d848285016108b9565b91505092915050565b61098f8161085f565b82525050565b5f6020820190506109a85f830184610986565b92915050565b5f80604083850312156109c4576109c3610838565b5b5f6109d185828601610886565b92505060206109e2858286016108b9565b9150509250929050565b5f81519050919050565b5f82825260208201905092915050565b8281835e5f83830152505050565b5f601f19601f8301169050919050565b5f610a2e826109ec565b610a3881856109f6565b9350610a48818560208601610a06565b610a5181610a14565b840191505092915050565b610a658161089a565b82525050565b5f6040820190508181035f830152610a838185610a24565b9050610a926020830184610a5c565b9392505050565b5f80fd5b5f80fd5b5f80fd5b5f8083601f840112610aba57610ab9610a99565b5b8235905067ffffffffffffffff811115610ad757610ad6610a9d565b5b602083019150836001820283011115610af357610af2610aa1565b5b9250929050565b5f805f8060608587031215610b1257610b11610838565b5b5f610b1f87828801610886565b945050602085013567ffffffffffffffff811115610b4057610b3f61083c565b5b610b4c87828801610aa5565b93509350506040610b5f878288016108b9565b91505092959194509250565b7f596f75206d75737420626520612072656769737465726564206f776e657220745f8201527f6f20616363657373206120706572736f6e000000000000000000000000000000602082015250565b5f610bc56031836109f6565b9150610bd082610b6b565b604082019050919050565b5f6020820190508181035f830152610bf281610bb9565b9050919050565b7f4e487b71000000000000000000000000000000000000000000000000000000005f52603260045260245ffd5b5f80fd5b5f80fd5b5f80fd5b5f8083356001602003843603038112610c4e57610c4d610c26565b5b80840192508235915067ffffffffffffffff821115610c7057610c6f610c2a565b5b602083019250600182023603831315610c8c57610c8b610c2e565b5b509250929050565b5f81905092915050565b828183375f83830152505050565b5f610cb78385610c94565b9350610cc4838584610c9e565b82840190509392505050565b5f610cdc828486610cac565b91508190509392505050565b7f4e487b71000000000000000000000000000000000000000000000000000000005f52602260045260245ffd5b5f6002820490506001821680610d2c57607f821691505b602082108103610d3f57610d3e610ce8565b5b50919050565b5f819050815f5260205f209050919050565b5f8154610d6381610d15565b610d6d8186610c94565b9450600182165f8114610d875760018114610d9c57610dce565b60ff1983168652811515820286019350610dce565b610da585610d45565b5f5b83811015610dc657815481890152600182019150602081019050610da7565b838801955050505b50505092915050565b5f610de28284610d57565b915081905092915050565b7f416e206572726f72206f63637572656420647572696e67206164646974696f6e5f82015250565b5f610e216020836109f6565b9150610e2c82610ded565b602082019050919050565b5f6020820190508181035f830152610e4e81610e15565b9050919050565b7f416e206572726f72206f63637572656420647572696e672073756274726163745f8201527f696f6e0000000000000000000000000000000000000000000000000000000000602082015250565b5f610eaf6023836109f6565b9150610eba82610e55565b604082019050919050565b5f6020820190508181035f830152610edc81610ea3565b9050919050565b7f4e487b71000000000000000000000000000000000000000000000000000000005f52604160045260245ffd5b5f6020601f8301049050919050565b5f82821b905092915050565b5f60088302610f5a7fffffffffffffffffffffffffffffffffffffffffffffffffffffffffffffffff82610f1f565b610f648683610f1f565b95508019841693508086168417925050509392505050565b5f819050919050565b5f610f9f610f9a610f958461089a565b610f7c565b61089a565b9050919050565b5f819050919050565b610fb883610f85565b610fcc610fc482610fa6565b848454610f2b565b825550505050565b5f90565b610fe0610fd4565b610feb818484610faf565b505050565b5b8181101561100e576110035f82610fd8565b600181019050610ff1565b5050565b601f8211156110535761102481610d45565b61102d84610f10565b8101602085101561103c578190505b61105061104885610f10565b830182610ff0565b50505b505050565b5f82821c905092915050565b5f6110735f1984600802611058565b1980831691505092915050565b5f61108b8383611064565b9150826002028217905092915050565b6110a4826109ec565b67ffffffffffffffff8111156110bd576110bc610ee3565b5b6110c78254610d15565b6110d2828285611012565b5f60209050601f831160018114611103575f84156110f1578287015190505b6110fb8582611080565b865550611162565b601f19841661111186610d45565b5f5b8281101561113857848901518255600182019150602085019450602081019050611113565b868310156111555784890151611151601f891682611064565b8355505b6001600288020188555050505b50505050505056fea2646970667358221220ecaa209a01888a8c60aca9e4c7dd9f41e48f8b127d6a9cd9d25d194a3351ddc364736f6c63430008190033",
					"opcodes": "PUSH1 0x80 PUSH1 0x40 MSTORE CALLVALUE DUP1 ISZERO PUSH1 0xE JUMPI PUSH0 DUP1 REVERT JUMPDEST POP PUSH2 0x11A0 DUP1 PUSH2 0x1C PUSH0 CODECOPY PUSH0 RETURN INVALID PUSH1 0x80 PUSH1 0x40 MSTORE CALLVALUE DUP1 ISZERO PUSH2 0xF JUMPI PUSH0 DUP1 REVERT JUMPDEST POP PUSH1 0x4 CALLDATASIZE LT PUSH2 0x55 JUMPI PUSH0 CALLDATALOAD PUSH1 0xE0 SHR DUP1 PUSH4 0x7F74843 EQ PUSH2 0x59 JUMPI DUP1 PUSH4 0xF310B17 EQ PUSH2 0x75 JUMPI DUP1 PUSH4 0x2A7440D0 EQ PUSH2 0xA5 JUMPI DUP1 PUSH4 0x4081601B EQ PUSH2 0xC1 JUMPI DUP1 PUSH4 0xFE6E9120 EQ PUSH2 0xF2 JUMPI JUMPDEST PUSH0 DUP1 REVERT JUMPDEST PUSH2 0x73 PUSH1 0x4 DUP1 CALLDATASIZE SUB DUP2 ADD SWAP1 PUSH2 0x6E SWAP2 SWAP1 PUSH2 0x8EF JUMP JUMPDEST PUSH2 0x10E JUMP JUMPDEST STOP JUMPDEST PUSH2 0x8F PUSH1 0x4 DUP1 CALLDATASIZE SUB DUP2 ADD SWAP1 PUSH2 0x8A SWAP2 SWAP1 PUSH2 0x95B JUMP JUMPDEST PUSH2 0x2BD JUMP JUMPDEST PUSH1 0x40 MLOAD PUSH2 0x9C SWAP2 SWAP1 PUSH2 0x995 JUMP JUMPDEST PUSH1 0x40 MLOAD DUP1 SWAP2 SUB SWAP1 RETURN JUMPDEST PUSH2 0xBF PUSH1 0x4 DUP1 CALLDATASIZE SUB DUP2 ADD SWAP1 PUSH2 0xBA SWAP2 SWAP1 PUSH2 0x8EF JUMP JUMPDEST PUSH2 0x2F8 JUMP JUMPDEST STOP JUMPDEST PUSH2 0xDB PUSH1 0x4 DUP1 CALLDATASIZE SUB DUP2 ADD SWAP1 PUSH2 0xD6 SWAP2 SWAP1 PUSH2 0x9AE JUMP JUMPDEST PUSH2 0x4A7 JUMP JUMPDEST PUSH1 0x40 MLOAD PUSH2 0xE9 SWAP3 SWAP2 SWAP1 PUSH2 0xA6B JUMP JUMPDEST PUSH1 0x40 MLOAD DUP1 SWAP2 SUB SWAP1 RETURN JUMPDEST PUSH2 0x10C PUSH1 0x4 DUP1 CALLDATASIZE SUB DUP2 ADD SWAP1 PUSH2 0x107 SWAP2 SWAP1 PUSH2 0xAFA JUMP JUMPDEST PUSH2 0x566 JUMP JUMPDEST STOP JUMPDEST DUP3 PUSH2 0x118 DUP2 PUSH2 0x73E JUMP JUMPDEST PUSH2 0x157 JUMPI PUSH1 0x40 MLOAD PUSH32 0x8C379A000000000000000000000000000000000000000000000000000000000 DUP2 MSTORE PUSH1 0x4 ADD PUSH2 0x14E SWAP1 PUSH2 0xBDB JUMP JUMPDEST PUSH1 0x40 MLOAD DUP1 SWAP2 SUB SWAP1 REVERT JUMPDEST PUSH0 DUP1 PUSH0 DUP7 PUSH20 0xFFFFFFFFFFFFFFFFFFFFFFFFFFFFFFFFFFFFFFFF AND PUSH20 0xFFFFFFFFFFFFFFFFFFFFFFFFFFFFFFFFFFFFFFFF AND DUP2 MSTORE PUSH1 0x20 ADD SWAP1 DUP2 MSTORE PUSH1 0x20 ADD PUSH0 KECCAK256 SWAP1 POP PUSH0 JUMPDEST DUP2 DUP1 SLOAD SWAP1 POP DUP2 LT ISZERO PUSH2 0x2B5 JUMPI PUSH0 DUP3 DUP3 DUP2 SLOAD DUP2 LT PUSH2 0x1B8 JUMPI PUSH2 0x1B7 PUSH2 0xBF9 JUMP JUMPDEST JUMPDEST SWAP1 PUSH0 MSTORE PUSH1 0x20 PUSH0 KECCAK256 SWAP1 PUSH1 0x2 MUL ADD SWAP1 POP DUP5 DUP1 PUSH0 ADD SWAP1 PUSH2 0x1D5 SWAP2 SWAP1 PUSH2 0xC32 JUMP JUMPDEST PUSH1 0x40 MLOAD PUSH1 0x20 ADD PUSH2 0x1E6 SWAP3 SWAP2 SWAP1 PUSH2 0xCD0 JUMP JUMPDEST PUSH1 0x40 MLOAD PUSH1 0x20 DUP2 DUP4 SUB SUB DUP2 MSTORE SWAP1 PUSH1 0x40 MSTORE DUP1 MLOAD SWAP1 PUSH1 0x20 ADD KECCAK256 DUP2 PUSH0 ADD PUSH1 0x40 MLOAD PUSH1 0x20 ADD PUSH2 0x20F SWAP2 SWAP1 PUSH2 0xDD7 JUMP JUMPDEST PUSH1 0x40 MLOAD PUSH1 0x20 DUP2 DUP4 SUB SUB DUP2 MSTORE SWAP1 PUSH1 0x40 MSTORE DUP1 MLOAD SWAP1 PUSH1 0x20 ADD KECCAK256 EQ DUP1 ISZERO PUSH2 0x239 JUMPI POP DUP5 PUSH1 0x20 ADD CALLDATALOAD DUP2 PUSH1 0x1 ADD SLOAD EQ JUMPDEST ISZERO PUSH2 0x2A7 JUMPI PUSH0 DUP1 PUSH2 0x257 DUP9 DUP5 PUSH1 0x1 ADD SLOAD PUSH2 0x7E6 SWAP1 SWAP2 SWAP1 PUSH4 0xFFFFFFFF AND JUMP JUMPDEST SWAP2 POP SWAP2 POP DUP2 PUSH2 0x29B JUMPI PUSH1 0x40 MLOAD PUSH32 0x8C379A000000000000000000000000000000000000000000000000000000000 DUP2 MSTORE PUSH1 0x4 ADD PUSH2 0x292 SWAP1 PUSH2 0xE37 JUMP JUMPDEST PUSH1 0x40 MLOAD DUP1 SWAP2 SUB SWAP1 REVERT JUMPDEST DUP1 DUP4 PUSH1 0x1 ADD DUP2 SWAP1 SSTORE POP POP POP JUMPDEST POP DUP1 DUP1 PUSH1 0x1 ADD SWAP2 POP POP PUSH2 0x198 JUMP JUMPDEST POP POP POP POP POP POP JUMP JUMPDEST PUSH1 0x1 DUP2 DUP2 SLOAD DUP2 LT PUSH2 0x2CC JUMPI PUSH0 DUP1 REVERT JUMPDEST SWAP1 PUSH0 MSTORE PUSH1 0x20 PUSH0 KECCAK256 ADD PUSH0 SWAP2 POP SLOAD SWAP1 PUSH2 0x100 EXP SWAP1 DIV PUSH20 0xFFFFFFFFFFFFFFFFFFFFFFFFFFFFFFFFFFFFFFFF AND DUP2 JUMP JUMPDEST DUP3 PUSH2 0x302 DUP2 PUSH2 0x73E JUMP JUMPDEST PUSH2 0x341 JUMPI PUSH1 0x40 MLOAD PUSH32 0x8C379A000000000000000000000000000000000000000000000000000000000 DUP2 MSTORE PUSH1 0x4 ADD PUSH2 0x338 SWAP1 PUSH2 0xBDB JUMP JUMPDEST PUSH1 0x40 MLOAD DUP1 SWAP2 SUB SWAP1 REVERT JUMPDEST PUSH0 DUP1 PUSH0 DUP7 PUSH20 0xFFFFFFFFFFFFFFFFFFFFFFFFFFFFFFFFFFFFFFFF AND PUSH20 0xFFFFFFFFFFFFFFFFFFFFFFFFFFFFFFFFFFFFFFFF AND DUP2 MSTORE PUSH1 0x20 ADD SWAP1 DUP2 MSTORE PUSH1 0x20 ADD PUSH0 KECCAK256 SWAP1 POP PUSH0 JUMPDEST DUP2 DUP1 SLOAD SWAP1 POP DUP2 LT ISZERO PUSH2 0x49F JUMPI PUSH0 DUP3 DUP3 DUP2 SLOAD DUP2 LT PUSH2 0x3A2 JUMPI PUSH2 0x3A1 PUSH2 0xBF9 JUMP JUMPDEST JUMPDEST SWAP1 PUSH0 MSTORE PUSH1 0x20 PUSH0 KECCAK256 SWAP1 PUSH1 0x2 MUL ADD SWAP1 POP DUP5 DUP1 PUSH0 ADD SWAP1 PUSH2 0x3BF SWAP2 SWAP1 PUSH2 0xC32 JUMP JUMPDEST PUSH1 0x40 MLOAD PUSH1 0x20 ADD PUSH2 0x3D0 SWAP3 SWAP2 SWAP1 PUSH2 0xCD0 JUMP JUMPDEST PUSH1 0x40 MLOAD PUSH1 0x20 DUP2 DUP4 SUB SUB DUP2 MSTORE SWAP1 PUSH1 0x40 MSTORE DUP1 MLOAD SWAP1 PUSH1 0x20 ADD KECCAK256 DUP2 PUSH0 ADD PUSH1 0x40 MLOAD PUSH1 0x20 ADD PUSH2 0x3F9 SWAP2 SWAP1 PUSH2 0xDD7 JUMP JUMPDEST PUSH1 0x40 MLOAD PUSH1 0x20 DUP2 DUP4 SUB SUB DUP2 MSTORE SWAP1 PUSH1 0x40 MSTORE DUP1 MLOAD SWAP1 PUSH1 0x20 ADD KECCAK256 EQ DUP1 ISZERO PUSH2 0x423 JUMPI POP DUP5 PUSH1 0x20 ADD CALLDATALOAD DUP2 PUSH1 0x1 ADD SLOAD EQ JUMPDEST ISZERO PUSH2 0x491 JUMPI PUSH0 DUP1 PUSH2 0x441 DUP9 DUP5 PUSH1 0x1 ADD SLOAD PUSH2 0x812 SWAP1 SWAP2 SWAP1 PUSH4 0xFFFFFFFF AND JUMP JUMPDEST SWAP2 POP SWAP2 POP DUP2 PUSH2 0x485 JUMPI PUSH1 0x40 MLOAD PUSH32 0x8C379A000000000000000000000000000000000000000000000000000000000 DUP2 MSTORE PUSH1 0x4 ADD PUSH2 0x47C SWAP1 PUSH2 0xEC5 JUMP JUMPDEST PUSH1 0x40 MLOAD DUP1 SWAP2 SUB SWAP1 REVERT JUMPDEST DUP1 DUP4 PUSH1 0x1 ADD DUP2 SWAP1 SSTORE POP POP POP JUMPDEST POP DUP1 DUP1 PUSH1 0x1 ADD SWAP2 POP POP PUSH2 0x382 JUMP JUMPDEST POP POP POP POP POP POP JUMP JUMPDEST PUSH0 PUSH1 0x20 MSTORE DUP2 PUSH0 MSTORE PUSH1 0x40 PUSH0 KECCAK256 DUP2 DUP2 SLOAD DUP2 LT PUSH2 0x4BF JUMPI PUSH0 DUP1 REVERT JUMPDEST SWAP1 PUSH0 MSTORE PUSH1 0x20 PUSH0 KECCAK256 SWAP1 PUSH1 0x2 MUL ADD PUSH0 SWAP2 POP SWAP2 POP POP DUP1 PUSH0 ADD DUP1 SLOAD PUSH2 0x4DF SWAP1 PUSH2 0xD15 JUMP JUMPDEST DUP1 PUSH1 0x1F ADD PUSH1 0x20 DUP1 SWAP2 DIV MUL PUSH1 0x20 ADD PUSH1 0x40 MLOAD SWAP1 DUP2 ADD PUSH1 0x40 MSTORE DUP1 SWAP3 SWAP2 SWAP1 DUP2 DUP2 MSTORE PUSH1 0x20 ADD DUP3 DUP1 SLOAD PUSH2 0x50B SWAP1 PUSH2 0xD15 JUMP JUMPDEST DUP1 ISZERO PUSH2 0x556 JUMPI DUP1 PUSH1 0x1F LT PUSH2 0x52D JUMPI PUSH2 0x100 DUP1 DUP4 SLOAD DIV MUL DUP4 MSTORE SWAP2 PUSH1 0x20 ADD SWAP2 PUSH2 0x556 JUMP JUMPDEST DUP3 ADD SWAP2 SWAP1 PUSH0 MSTORE PUSH1 0x20 PUSH0 KECCAK256 SWAP1 JUMPDEST DUP2 SLOAD DUP2 MSTORE SWAP1 PUSH1 0x1 ADD SWAP1 PUSH1 0x20 ADD DUP1 DUP4 GT PUSH2 0x539 JUMPI DUP3 SWAP1 SUB PUSH1 0x1F AND DUP3 ADD SWAP2 JUMPDEST POP POP POP POP POP SWAP1 DUP1 PUSH1 0x1 ADD SLOAD SWAP1 POP DUP3 JUMP JUMPDEST PUSH0 DUP1 PUSH0 DUP7 PUSH20 0xFFFFFFFFFFFFFFFFFFFFFFFFFFFFFFFFFFFFFFFF AND PUSH20 0xFFFFFFFFFFFFFFFFFFFFFFFFFFFFFFFFFFFFFFFF AND DUP2 MSTORE PUSH1 0x20 ADD SWAP1 DUP2 MSTORE PUSH1 0x20 ADD PUSH0 KECCAK256 SWAP1 POP DUP1 PUSH1 0x40 MLOAD DUP1 PUSH1 0x40 ADD PUSH1 0x40 MSTORE DUP1 DUP7 DUP7 DUP1 DUP1 PUSH1 0x1F ADD PUSH1 0x20 DUP1 SWAP2 DIV MUL PUSH1 0x20 ADD PUSH1 0x40 MLOAD SWAP1 DUP2 ADD PUSH1 0x40 MSTORE DUP1 SWAP4 SWAP3 SWAP2 SWAP1 DUP2 DUP2 MSTORE PUSH1 0x20 ADD DUP4 DUP4 DUP1 DUP3 DUP5 CALLDATACOPY PUSH0 DUP2 DUP5 ADD MSTORE PUSH1 0x1F NOT PUSH1 0x1F DUP3 ADD AND SWAP1 POP DUP1 DUP4 ADD SWAP3 POP POP POP POP POP POP POP DUP2 MSTORE PUSH1 0x20 ADD DUP5 DUP2 MSTORE POP SWAP1 DUP1 PUSH1 0x1 DUP2 SLOAD ADD DUP1 DUP3 SSTORE DUP1 SWAP2 POP POP PUSH1 0x1 SWAP1 SUB SWAP1 PUSH0 MSTORE PUSH1 0x20 PUSH0 KECCAK256 SWAP1 PUSH1 0x2 MUL ADD PUSH0 SWAP1 SWAP2 SWAP1 SWAP2 SWAP1 SWAP2 POP PUSH0 DUP3 ADD MLOAD DUP2 PUSH0 ADD SWAP1 DUP2 PUSH2 0x637 SWAP2 SWAP1 PUSH2 0x109B JUMP JUMPDEST POP PUSH1 0x20 DUP3 ADD MLOAD DUP2 PUSH1 0x1 ADD SSTORE POP POP PUSH0 JUMPDEST PUSH1 0x1 DUP1 SLOAD SWAP1 POP DUP2 LT ISZERO PUSH2 0x6D5 JUMPI DUP6 PUSH20 0xFFFFFFFFFFFFFFFFFFFFFFFFFFFFFFFFFFFFFFFF AND PUSH1 0x1 DUP3 DUP2 SLOAD DUP2 LT PUSH2 0x67E JUMPI PUSH2 0x67D PUSH2 0xBF9 JUMP JUMPDEST JUMPDEST SWAP1 PUSH0 MSTORE PUSH1 0x20 PUSH0 KECCAK256 ADD PUSH0 SWAP1 SLOAD SWAP1 PUSH2 0x100 EXP SWAP1 DIV PUSH20 0xFFFFFFFFFFFFFFFFFFFFFFFFFFFFFFFFFFFFFFFF AND PUSH20 0xFFFFFFFFFFFFFFFFFFFFFFFFFFFFFFFFFFFFFFFF AND SUB PUSH2 0x6C8 JUMPI POP POP PUSH2 0x738 JUMP JUMPDEST DUP1 DUP1 PUSH1 0x1 ADD SWAP2 POP POP PUSH2 0x646 JUMP JUMPDEST POP PUSH1 0x1 DUP6 SWAP1 DUP1 PUSH1 0x1 DUP2 SLOAD ADD DUP1 DUP3 SSTORE DUP1 SWAP2 POP POP PUSH1 0x1 SWAP1 SUB SWAP1 PUSH0 MSTORE PUSH1 0x20 PUSH0 KECCAK256 ADD PUSH0 SWAP1 SWAP2 SWAP1 SWAP2 SWAP1 SWAP2 PUSH2 0x100 EXP DUP2 SLOAD DUP2 PUSH20 0xFFFFFFFFFFFFFFFFFFFFFFFFFFFFFFFFFFFFFFFF MUL NOT AND SWAP1 DUP4 PUSH20 0xFFFFFFFFFFFFFFFFFFFFFFFFFFFFFFFFFFFFFFFF AND MUL OR SWAP1 SSTORE POP POP JUMPDEST POP POP POP POP JUMP JUMPDEST PUSH0 DUP1 PUSH0 SWAP1 POP PUSH0 JUMPDEST PUSH1 0x1 DUP1 SLOAD SWAP1 POP DUP2 LT ISZERO PUSH2 0x7DB JUMPI DUP4 PUSH20 0xFFFFFFFFFFFFFFFFFFFFFFFFFFFFFFFFFFFFFFFF AND PUSH1 0x1 DUP3 DUP2 SLOAD DUP2 LT PUSH2 0x77D JUMPI PUSH2 0x77C PUSH2 0xBF9 JUMP JUMPDEST JUMPDEST SWAP1 PUSH0 MSTORE PUSH1 0x20 PUSH0 KECCAK256 ADD PUSH0 SWAP1 SLOAD SWAP1 PUSH2 0x100 EXP SWAP1 DIV PUSH20 0xFFFFFFFFFFFFFFFFFFFFFFFFFFFFFFFFFFFFFFFF AND PUSH20 0xFFFFFFFFFFFFFFFFFFFFFFFFFFFFFFFFFFFFFFFF AND SUB PUSH2 0x7CE JUMPI PUSH1 0x1 SWAP2 POP DUP2 SWAP3 POP POP POP PUSH2 0x7E1 JUMP JUMPDEST DUP1 DUP1 PUSH1 0x1 ADD SWAP2 POP POP PUSH2 0x745 JUMP JUMPDEST POP DUP1 SWAP2 POP POP JUMPDEST SWAP2 SWAP1 POP JUMP JUMPDEST PUSH0 DUP1 PUSH0 DUP4 DUP6 ADD SWAP1 POP DUP5 DUP2 LT ISZERO PUSH2 0x802 JUMPI PUSH0 DUP1 SWAP3 POP SWAP3 POP POP PUSH2 0x80B JUMP JUMPDEST PUSH1 0x1 DUP2 SWAP3 POP SWAP3 POP POP JUMPDEST SWAP3 POP SWAP3 SWAP1 POP JUMP JUMPDEST PUSH0 DUP1 DUP4 DUP4 GT ISZERO PUSH2 0x827 JUMPI PUSH0 DUP1 SWAP2 POP SWAP2 POP PUSH2 0x831 JUMP JUMPDEST PUSH1 0x1 DUP4 DUP6 SUB SWAP2 POP SWAP2 POP JUMPDEST SWAP3 POP SWAP3 SWAP1 POP JUMP JUMPDEST PUSH0 DUP1 REVERT JUMPDEST PUSH0 DUP1 REVERT JUMPDEST PUSH0 PUSH20 0xFFFFFFFFFFFFFFFFFFFFFFFFFFFFFFFFFFFFFFFF DUP3 AND SWAP1 POP SWAP2 SWAP1 POP JUMP JUMPDEST PUSH0 PUSH2 0x869 DUP3 PUSH2 0x840 JUMP JUMPDEST SWAP1 POP SWAP2 SWAP1 POP JUMP JUMPDEST PUSH2 0x879 DUP2 PUSH2 0x85F JUMP JUMPDEST DUP2 EQ PUSH2 0x883 JUMPI PUSH0 DUP1 REVERT JUMPDEST POP JUMP JUMPDEST PUSH0 DUP2 CALLDATALOAD SWAP1 POP PUSH2 0x894 DUP2 PUSH2 0x870 JUMP JUMPDEST SWAP3 SWAP2 POP POP JUMP JUMPDEST PUSH0 DUP2 SWAP1 POP SWAP2 SWAP1 POP JUMP JUMPDEST PUSH2 0x8AC DUP2 PUSH2 0x89A JUMP JUMPDEST DUP2 EQ PUSH2 0x8B6 JUMPI PUSH0 DUP1 REVERT JUMPDEST POP JUMP JUMPDEST PUSH0 DUP2 CALLDATALOAD SWAP1 POP PUSH2 0x8C7 DUP2 PUSH2 0x8A3 JUMP JUMPDEST SWAP3 SWAP2 POP POP JUMP JUMPDEST PUSH0 DUP1 REVERT JUMPDEST PUSH0 PUSH1 0x40 DUP3 DUP5 SUB SLT ISZERO PUSH2 0x8E6 JUMPI PUSH2 0x8E5 PUSH2 0x8CD JUMP JUMPDEST JUMPDEST DUP2 SWAP1 POP SWAP3 SWAP2 POP POP JUMP JUMPDEST PUSH0 DUP1 PUSH0 PUSH1 0x60 DUP5 DUP7 SUB SLT ISZERO PUSH2 0x906 JUMPI PUSH2 0x905 PUSH2 0x838 JUMP JUMPDEST JUMPDEST PUSH0 PUSH2 0x913 DUP7 DUP3 DUP8 ADD PUSH2 0x886 JUMP JUMPDEST SWAP4 POP POP PUSH1 0x20 PUSH2 0x924 DUP7 DUP3 DUP8 ADD PUSH2 0x8B9 JUMP JUMPDEST SWAP3 POP POP PUSH1 0x40 DUP5 ADD CALLDATALOAD PUSH8 0xFFFFFFFFFFFFFFFF DUP2 GT ISZERO PUSH2 0x945 JUMPI PUSH2 0x944 PUSH2 0x83C JUMP JUMPDEST JUMPDEST PUSH2 0x951 DUP7 DUP3 DUP8 ADD PUSH2 0x8D1 JUMP JUMPDEST SWAP2 POP POP SWAP3 POP SWAP3 POP SWAP3 JUMP JUMPDEST PUSH0 PUSH1 0x20 DUP3 DUP5 SUB SLT ISZERO PUSH2 0x970 JUMPI PUSH2 0x96F PUSH2 0x838 JUMP JUMPDEST JUMPDEST PUSH0 PUSH2 0x97D DUP5 DUP3 DUP6 ADD PUSH2 0x8B9 JUMP JUMPDEST SWAP2 POP POP SWAP3 SWAP2 POP POP JUMP JUMPDEST PUSH2 0x98F DUP2 PUSH2 0x85F JUMP JUMPDEST DUP3 MSTORE POP POP JUMP JUMPDEST PUSH0 PUSH1 0x20 DUP3 ADD SWAP1 POP PUSH2 0x9A8 PUSH0 DUP4 ADD DUP5 PUSH2 0x986 JUMP JUMPDEST SWAP3 SWAP2 POP POP JUMP JUMPDEST PUSH0 DUP1 PUSH1 0x40 DUP4 DUP6 SUB SLT ISZERO PUSH2 0x9C4 JUMPI PUSH2 0x9C3 PUSH2 0x838 JUMP JUMPDEST JUMPDEST PUSH0 PUSH2 0x9D1 DUP6 DUP3 DUP7 ADD PUSH2 0x886 JUMP JUMPDEST SWAP3 POP POP PUSH1 0x20 PUSH2 0x9E2 DUP6 DUP3 DUP7 ADD PUSH2 0x8B9 JUMP JUMPDEST SWAP2 POP POP SWAP3 POP SWAP3 SWAP1 POP JUMP JUMPDEST PUSH0 DUP2 MLOAD SWAP1 POP SWAP2 SWAP1 POP JUMP JUMPDEST PUSH0 DUP3 DUP3 MSTORE PUSH1 0x20 DUP3 ADD SWAP1 POP SWAP3 SWAP2 POP POP JUMP JUMPDEST DUP3 DUP2 DUP4 MCOPY PUSH0 DUP4 DUP4 ADD MSTORE POP POP POP JUMP JUMPDEST PUSH0 PUSH1 0x1F NOT PUSH1 0x1F DUP4 ADD AND SWAP1 POP SWAP2 SWAP1 POP JUMP JUMPDEST PUSH0 PUSH2 0xA2E DUP3 PUSH2 0x9EC JUMP JUMPDEST PUSH2 0xA38 DUP2 DUP6 PUSH2 0x9F6 JUMP JUMPDEST SWAP4 POP PUSH2 0xA48 DUP2 DUP6 PUSH1 0x20 DUP7 ADD PUSH2 0xA06 JUMP JUMPDEST PUSH2 0xA51 DUP2 PUSH2 0xA14 JUMP JUMPDEST DUP5 ADD SWAP2 POP POP SWAP3 SWAP2 POP POP JUMP JUMPDEST PUSH2 0xA65 DUP2 PUSH2 0x89A JUMP JUMPDEST DUP3 MSTORE POP POP JUMP JUMPDEST PUSH0 PUSH1 0x40 DUP3 ADD SWAP1 POP DUP2 DUP2 SUB PUSH0 DUP4 ADD MSTORE PUSH2 0xA83 DUP2 DUP6 PUSH2 0xA24 JUMP JUMPDEST SWAP1 POP PUSH2 0xA92 PUSH1 0x20 DUP4 ADD DUP5 PUSH2 0xA5C JUMP JUMPDEST SWAP4 SWAP3 POP POP POP JUMP JUMPDEST PUSH0 DUP1 REVERT JUMPDEST PUSH0 DUP1 REVERT JUMPDEST PUSH0 DUP1 REVERT JUMPDEST PUSH0 DUP1 DUP4 PUSH1 0x1F DUP5 ADD SLT PUSH2 0xABA JUMPI PUSH2 0xAB9 PUSH2 0xA99 JUMP JUMPDEST JUMPDEST DUP3 CALLDATALOAD SWAP1 POP PUSH8 0xFFFFFFFFFFFFFFFF DUP2 GT ISZERO PUSH2 0xAD7 JUMPI PUSH2 0xAD6 PUSH2 0xA9D JUMP JUMPDEST JUMPDEST PUSH1 0x20 DUP4 ADD SWAP2 POP DUP4 PUSH1 0x1 DUP3 MUL DUP4 ADD GT ISZERO PUSH2 0xAF3 JUMPI PUSH2 0xAF2 PUSH2 0xAA1 JUMP JUMPDEST JUMPDEST SWAP3 POP SWAP3 SWAP1 POP JUMP JUMPDEST PUSH0 DUP1 PUSH0 DUP1 PUSH1 0x60 DUP6 DUP8 SUB SLT ISZERO PUSH2 0xB12 JUMPI PUSH2 0xB11 PUSH2 0x838 JUMP JUMPDEST JUMPDEST PUSH0 PUSH2 0xB1F DUP8 DUP3 DUP9 ADD PUSH2 0x886 JUMP JUMPDEST SWAP5 POP POP PUSH1 0x20 DUP6 ADD CALLDATALOAD PUSH8 0xFFFFFFFFFFFFFFFF DUP2 GT ISZERO PUSH2 0xB40 JUMPI PUSH2 0xB3F PUSH2 0x83C JUMP JUMPDEST JUMPDEST PUSH2 0xB4C DUP8 DUP3 DUP9 ADD PUSH2 0xAA5 JUMP JUMPDEST SWAP4 POP SWAP4 POP POP PUSH1 0x40 PUSH2 0xB5F DUP8 DUP3 DUP9 ADD PUSH2 0x8B9 JUMP JUMPDEST SWAP2 POP POP SWAP3 SWAP6 SWAP2 SWAP5 POP SWAP3 POP JUMP JUMPDEST PUSH32 0x596F75206D75737420626520612072656769737465726564206F776E65722074 PUSH0 DUP3 ADD MSTORE PUSH32 0x6F20616363657373206120706572736F6E000000000000000000000000000000 PUSH1 0x20 DUP3 ADD MSTORE POP JUMP JUMPDEST PUSH0 PUSH2 0xBC5 PUSH1 0x31 DUP4 PUSH2 0x9F6 JUMP JUMPDEST SWAP2 POP PUSH2 0xBD0 DUP3 PUSH2 0xB6B JUMP JUMPDEST PUSH1 0x40 DUP3 ADD SWAP1 POP SWAP2 SWAP1 POP JUMP JUMPDEST PUSH0 PUSH1 0x20 DUP3 ADD SWAP1 POP DUP2 DUP2 SUB PUSH0 DUP4 ADD MSTORE PUSH2 0xBF2 DUP2 PUSH2 0xBB9 JUMP JUMPDEST SWAP1 POP SWAP2 SWAP1 POP JUMP JUMPDEST PUSH32 0x4E487B7100000000000000000000000000000000000000000000000000000000 PUSH0 MSTORE PUSH1 0x32 PUSH1 0x4 MSTORE PUSH1 0x24 PUSH0 REVERT JUMPDEST PUSH0 DUP1 REVERT JUMPDEST PUSH0 DUP1 REVERT JUMPDEST PUSH0 DUP1 REVERT JUMPDEST PUSH0 DUP1 DUP4 CALLDATALOAD PUSH1 0x1 PUSH1 0x20 SUB DUP5 CALLDATASIZE SUB SUB DUP2 SLT PUSH2 0xC4E JUMPI PUSH2 0xC4D PUSH2 0xC26 JUMP JUMPDEST JUMPDEST DUP1 DUP5 ADD SWAP3 POP DUP3 CALLDATALOAD SWAP2 POP PUSH8 0xFFFFFFFFFFFFFFFF DUP3 GT ISZERO PUSH2 0xC70 JUMPI PUSH2 0xC6F PUSH2 0xC2A JUMP JUMPDEST JUMPDEST PUSH1 0x20 DUP4 ADD SWAP3 POP PUSH1 0x1 DUP3 MUL CALLDATASIZE SUB DUP4 SGT ISZERO PUSH2 0xC8C JUMPI PUSH2 0xC8B PUSH2 0xC2E JUMP JUMPDEST JUMPDEST POP SWAP3 POP SWAP3 SWAP1 POP JUMP JUMPDEST PUSH0 DUP2 SWAP1 POP SWAP3 SWAP2 POP POP JUMP JUMPDEST DUP3 DUP2 DUP4 CALLDATACOPY PUSH0 DUP4 DUP4 ADD MSTORE POP POP POP JUMP JUMPDEST PUSH0 PUSH2 0xCB7 DUP4 DUP6 PUSH2 0xC94 JUMP JUMPDEST SWAP4 POP PUSH2 0xCC4 DUP4 DUP6 DUP5 PUSH2 0xC9E JUMP JUMPDEST DUP3 DUP5 ADD SWAP1 POP SWAP4 SWAP3 POP POP POP JUMP JUMPDEST PUSH0 PUSH2 0xCDC DUP3 DUP5 DUP7 PUSH2 0xCAC JUMP JUMPDEST SWAP2 POP DUP2 SWAP1 POP SWAP4 SWAP3 POP POP POP JUMP JUMPDEST PUSH32 0x4E487B7100000000000000000000000000000000000000000000000000000000 PUSH0 MSTORE PUSH1 0x22 PUSH1 0x4 MSTORE PUSH1 0x24 PUSH0 REVERT JUMPDEST PUSH0 PUSH1 0x2 DUP3 DIV SWAP1 POP PUSH1 0x1 DUP3 AND DUP1 PUSH2 0xD2C JUMPI PUSH1 0x7F DUP3 AND SWAP2 POP JUMPDEST PUSH1 0x20 DUP3 LT DUP2 SUB PUSH2 0xD3F JUMPI PUSH2 0xD3E PUSH2 0xCE8 JUMP JUMPDEST JUMPDEST POP SWAP2 SWAP1 POP JUMP JUMPDEST PUSH0 DUP2 SWAP1 POP DUP2 PUSH0 MSTORE PUSH1 0x20 PUSH0 KECCAK256 SWAP1 POP SWAP2 SWAP1 POP JUMP JUMPDEST PUSH0 DUP2 SLOAD PUSH2 0xD63 DUP2 PUSH2 0xD15 JUMP JUMPDEST PUSH2 0xD6D DUP2 DUP7 PUSH2 0xC94 JUMP JUMPDEST SWAP5 POP PUSH1 0x1 DUP3 AND PUSH0 DUP2 EQ PUSH2 0xD87 JUMPI PUSH1 0x1 DUP2 EQ PUSH2 0xD9C JUMPI PUSH2 0xDCE JUMP JUMPDEST PUSH1 0xFF NOT DUP4 AND DUP7 MSTORE DUP2 ISZERO ISZERO DUP3 MUL DUP7 ADD SWAP4 POP PUSH2 0xDCE JUMP JUMPDEST PUSH2 0xDA5 DUP6 PUSH2 0xD45 JUMP JUMPDEST PUSH0 JUMPDEST DUP4 DUP2 LT ISZERO PUSH2 0xDC6 JUMPI DUP2 SLOAD DUP2 DUP10 ADD MSTORE PUSH1 0x1 DUP3 ADD SWAP2 POP PUSH1 0x20 DUP2 ADD SWAP1 POP PUSH2 0xDA7 JUMP JUMPDEST DUP4 DUP9 ADD SWAP6 POP POP POP JUMPDEST POP POP POP SWAP3 SWAP2 POP POP JUMP JUMPDEST PUSH0 PUSH2 0xDE2 DUP3 DUP5 PUSH2 0xD57 JUMP JUMPDEST SWAP2 POP DUP2 SWAP1 POP SWAP3 SWAP2 POP POP JUMP JUMPDEST PUSH32 0x416E206572726F72206F63637572656420647572696E67206164646974696F6E PUSH0 DUP3 ADD MSTORE POP JUMP JUMPDEST PUSH0 PUSH2 0xE21 PUSH1 0x20 DUP4 PUSH2 0x9F6 JUMP JUMPDEST SWAP2 POP PUSH2 0xE2C DUP3 PUSH2 0xDED JUMP JUMPDEST PUSH1 0x20 DUP3 ADD SWAP1 POP SWAP2 SWAP1 POP JUMP JUMPDEST PUSH0 PUSH1 0x20 DUP3 ADD SWAP1 POP DUP2 DUP2 SUB PUSH0 DUP4 ADD MSTORE PUSH2 0xE4E DUP2 PUSH2 0xE15 JUMP JUMPDEST SWAP1 POP SWAP2 SWAP1 POP JUMP JUMPDEST PUSH32 0x416E206572726F72206F63637572656420647572696E67207375627472616374 PUSH0 DUP3 ADD MSTORE PUSH32 0x696F6E0000000000000000000000000000000000000000000000000000000000 PUSH1 0x20 DUP3 ADD MSTORE POP JUMP JUMPDEST PUSH0 PUSH2 0xEAF PUSH1 0x23 DUP4 PUSH2 0x9F6 JUMP JUMPDEST SWAP2 POP PUSH2 0xEBA DUP3 PUSH2 0xE55 JUMP JUMPDEST PUSH1 0x40 DUP3 ADD SWAP1 POP SWAP2 SWAP1 POP JUMP JUMPDEST PUSH0 PUSH1 0x20 DUP3 ADD SWAP1 POP DUP2 DUP2 SUB PUSH0 DUP4 ADD MSTORE PUSH2 0xEDC DUP2 PUSH2 0xEA3 JUMP JUMPDEST SWAP1 POP SWAP2 SWAP1 POP JUMP JUMPDEST PUSH32 0x4E487B7100000000000000000000000000000000000000000000000000000000 PUSH0 MSTORE PUSH1 0x41 PUSH1 0x4 MSTORE PUSH1 0x24 PUSH0 REVERT JUMPDEST PUSH0 PUSH1 0x20 PUSH1 0x1F DUP4 ADD DIV SWAP1 POP SWAP2 SWAP1 POP JUMP JUMPDEST PUSH0 DUP3 DUP3 SHL SWAP1 POP SWAP3 SWAP2 POP POP JUMP JUMPDEST PUSH0 PUSH1 0x8 DUP4 MUL PUSH2 0xF5A PUSH32 0xFFFFFFFFFFFFFFFFFFFFFFFFFFFFFFFFFFFFFFFFFFFFFFFFFFFFFFFFFFFFFFFF DUP3 PUSH2 0xF1F JUMP JUMPDEST PUSH2 0xF64 DUP7 DUP4 PUSH2 0xF1F JUMP JUMPDEST SWAP6 POP DUP1 NOT DUP5 AND SWAP4 POP DUP1 DUP7 AND DUP5 OR SWAP3 POP POP POP SWAP4 SWAP3 POP POP POP JUMP JUMPDEST PUSH0 DUP2 SWAP1 POP SWAP2 SWAP1 POP JUMP JUMPDEST PUSH0 PUSH2 0xF9F PUSH2 0xF9A PUSH2 0xF95 DUP5 PUSH2 0x89A JUMP JUMPDEST PUSH2 0xF7C JUMP JUMPDEST PUSH2 0x89A JUMP JUMPDEST SWAP1 POP SWAP2 SWAP1 POP JUMP JUMPDEST PUSH0 DUP2 SWAP1 POP SWAP2 SWAP1 POP JUMP JUMPDEST PUSH2 0xFB8 DUP4 PUSH2 0xF85 JUMP JUMPDEST PUSH2 0xFCC PUSH2 0xFC4 DUP3 PUSH2 0xFA6 JUMP JUMPDEST DUP5 DUP5 SLOAD PUSH2 0xF2B JUMP JUMPDEST DUP3 SSTORE POP POP POP POP JUMP JUMPDEST PUSH0 SWAP1 JUMP JUMPDEST PUSH2 0xFE0 PUSH2 0xFD4 JUMP JUMPDEST PUSH2 0xFEB DUP2 DUP5 DUP5 PUSH2 0xFAF JUMP JUMPDEST POP POP POP JUMP JUMPDEST JUMPDEST DUP2 DUP2 LT ISZERO PUSH2 0x100E JUMPI PUSH2 0x1003 PUSH0 DUP3 PUSH2 0xFD8 JUMP JUMPDEST PUSH1 0x1 DUP2 ADD SWAP1 POP PUSH2 0xFF1 JUMP JUMPDEST POP POP JUMP JUMPDEST PUSH1 0x1F DUP3 GT ISZERO PUSH2 0x1053 JUMPI PUSH2 0x1024 DUP2 PUSH2 0xD45 JUMP JUMPDEST PUSH2 0x102D DUP5 PUSH2 0xF10 JUMP JUMPDEST DUP2 ADD PUSH1 0x20 DUP6 LT ISZERO PUSH2 0x103C JUMPI DUP2 SWAP1 POP JUMPDEST PUSH2 0x1050 PUSH2 0x1048 DUP6 PUSH2 0xF10 JUMP JUMPDEST DUP4 ADD DUP3 PUSH2 0xFF0 JUMP JUMPDEST POP POP JUMPDEST POP POP POP JUMP JUMPDEST PUSH0 DUP3 DUP3 SHR SWAP1 POP SWAP3 SWAP2 POP POP JUMP JUMPDEST PUSH0 PUSH2 0x1073 PUSH0 NOT DUP5 PUSH1 0x8 MUL PUSH2 0x1058 JUMP JUMPDEST NOT DUP1 DUP4 AND SWAP2 POP POP SWAP3 SWAP2 POP POP JUMP JUMPDEST PUSH0 PUSH2 0x108B DUP4 DUP4 PUSH2 0x1064 JUMP JUMPDEST SWAP2 POP DUP3 PUSH1 0x2 MUL DUP3 OR SWAP1 POP SWAP3 SWAP2 POP POP JUMP JUMPDEST PUSH2 0x10A4 DUP3 PUSH2 0x9EC JUMP JUMPDEST PUSH8 0xFFFFFFFFFFFFFFFF DUP2 GT ISZERO PUSH2 0x10BD JUMPI PUSH2 0x10BC PUSH2 0xEE3 JUMP JUMPDEST JUMPDEST PUSH2 0x10C7 DUP3 SLOAD PUSH2 0xD15 JUMP JUMPDEST PUSH2 0x10D2 DUP3 DUP3 DUP6 PUSH2 0x1012 JUMP JUMPDEST PUSH0 PUSH1 0x20 SWAP1 POP PUSH1 0x1F DUP4 GT PUSH1 0x1 DUP2 EQ PUSH2 0x1103 JUMPI PUSH0 DUP5 ISZERO PUSH2 0x10F1 JUMPI DUP3 DUP8 ADD MLOAD SWAP1 POP JUMPDEST PUSH2 0x10FB DUP6 DUP3 PUSH2 0x1080 JUMP JUMPDEST DUP7 SSTORE POP PUSH2 0x1162 JUMP JUMPDEST PUSH1 0x1F NOT DUP5 AND PUSH2 0x1111 DUP7 PUSH2 0xD45 JUMP JUMPDEST PUSH0 JUMPDEST DUP3 DUP2 LT ISZERO PUSH2 0x1138 JUMPI DUP5 DUP10 ADD MLOAD DUP3 SSTORE PUSH1 0x1 DUP3 ADD SWAP2 POP PUSH1 0x20 DUP6 ADD SWAP5 POP PUSH1 0x20 DUP2 ADD SWAP1 POP PUSH2 0x1113 JUMP JUMPDEST DUP7 DUP4 LT ISZERO PUSH2 0x1155 JUMPI DUP5 DUP10 ADD MLOAD PUSH2 0x1151 PUSH1 0x1F DUP10 AND DUP3 PUSH2 0x1064 JUMP JUMPDEST DUP4 SSTORE POP JUMPDEST PUSH1 0x1 PUSH1 0x2 DUP9 MUL ADD DUP9 SSTORE POP POP POP JUMPDEST POP POP POP POP POP POP JUMP INVALID LOG2 PUSH5 0x6970667358 0x22 SLT KECCAK256 0xEC 0xAA KECCAK256 SWAP11 ADD DUP9 DUP11 DUP13 PUSH1 0xAC 0xA9 0xE4 0xC7 0xDD SWAP16 COINBASE 0xE4 DUP16 DUP12 SLT PUSH30 0x6A9CD9D25D194A3351DDC364736F6C634300081900330000000000000000 "
				},
				"gasEstimates": {
					"creation": {
						"codeDepositCost": "902400",
						"executionCost": "933",
						"totalCost": "903333"
					},
					"external": {
						"_createPerson(address,string,uint256)": "infinite",
						"_decrFavouriteNumber(address,uint256,(string,uint256))": "infinite",
						"_incrFavouriteNumber(address,uint256,(string,uint256))": "infinite",
						"ownerAddresses(uint256)": "4944",
						"peopleMap(address,uint256)": "infinite"
					},
					"internal": {
						"_isOwner(address)": "infinite"
					}
				},
				"methodIdentifiers": {
					"_createPerson(address,string,uint256)": "fe6e9120",
					"_decrFavouriteNumber(address,uint256,(string,uint256))": "2a7440d0",
					"_incrFavouriteNumber(address,uint256,(string,uint256))": "07f74843",
					"ownerAddresses(uint256)": "0f310b17",
					"peopleMap(address,uint256)": "4081601b"
				}
			},
			"storageLayout": {
				"storage": [
					{
						"astId": 554,
						"contract": "contracts/AdvancedStorage.sol:AdvancedStorage",
						"label": "peopleMap",
						"offset": 0,
						"slot": "0",
						"type": "t_mapping(t_address,t_array(t_struct(Person)619_storage)dyn_storage)"
					},
					{
						"astId": 557,
						"contract": "contracts/AdvancedStorage.sol:AdvancedStorage",
						"label": "ownerAddresses",
						"offset": 0,
						"slot": "1",
						"type": "t_array(t_address)dyn_storage"
					}
				],
				"types": {
					"t_address": {
						"encoding": "inplace",
						"label": "address",
						"numberOfBytes": "20"
					},
					"t_array(t_address)dyn_storage": {
						"base": "t_address",
						"encoding": "dynamic_array",
						"label": "address[]",
						"numberOfBytes": "32"
					},
					"t_array(t_struct(Person)619_storage)dyn_storage": {
						"base": "t_struct(Person)619_storage",
						"encoding": "dynamic_array",
						"label": "struct Person[]",
						"numberOfBytes": "32"
					},
					"t_mapping(t_address,t_array(t_struct(Person)619_storage)dyn_storage)": {
						"encoding": "mapping",
						"key": "t_address",
						"label": "mapping(address => struct Person[])",
						"numberOfBytes": "32",
						"value": "t_array(t_struct(Person)619_storage)dyn_storage"
					},
					"t_string_storage": {
						"encoding": "bytes",
						"label": "string",
						"numberOfBytes": "32"
					},
					"t_struct(Person)619_storage": {
						"encoding": "inplace",
						"label": "struct Person",
						"members": [
							{
								"astId": 616,
								"contract": "contracts/AdvancedStorage.sol:AdvancedStorage",
								"label": "name",
								"offset": 0,
								"slot": "0",
								"type": "t_string_storage"
							},
							{
								"astId": 618,
								"contract": "contracts/AdvancedStorage.sol:AdvancedStorage",
								"label": "favouriteNumber",
								"offset": 0,
								"slot": "1",
								"type": "t_uint256"
							}
						],
						"numberOfBytes": "64"
					},
					"t_uint256": {
						"encoding": "inplace",
						"label": "uint256",
						"numberOfBytes": "32"
					}
				}
			},
			"userdoc": {
				"kind": "user",
				"methods": {},
				"version": 1
			}
		}
	}
}