{
  "_format": "hh-sol-artifact-1",
  "contractName": "MainContract",
  "sourceName": "contracts/Main.sol",
  "abi": [
    {
      "inputs": [
        {
          "internalType": "uint256",
          "name": "",
          "type": "uint256"
        }
      ],
      "name": "contractAddresses",
      "outputs": [
        {
          "internalType": "address",
          "name": "",
          "type": "address"
        }
      ],
      "stateMutability": "view",
      "type": "function"
    },
    {
      "inputs": [],
      "name": "createContract",
      "outputs": [],
      "stateMutability": "nonpayable",
      "type": "function"
    },
    {
      "inputs": [
        {
          "internalType": "address",
          "name": "_contractAddress",
          "type": "address"
        },
        {
          "internalType": "address",
          "name": "_ownerAddress",
          "type": "address"
        },
        {
          "internalType": "string",
          "name": "_name",
          "type": "string"
        },
        {
          "internalType": "uint256",
          "name": "_favouriteNumber",
          "type": "uint256"
        }
      ],
      "name": "createPerson",
      "outputs": [],
      "stateMutability": "nonpayable",
      "type": "function"
    },
    {
      "inputs": [
        {
          "internalType": "address",
          "name": "_contractAddress",
          "type": "address"
        },
        {
          "internalType": "address",
          "name": "_ownerAddress",
          "type": "address"
        },
        {
          "internalType": "uint256",
          "name": "_value",
          "type": "uint256"
        },
        {
          "components": [
            {
              "internalType": "string",
              "name": "name",
              "type": "string"
            },
            {
              "internalType": "uint256",
              "name": "favouriteNumber",
              "type": "uint256"
            }
          ],
          "internalType": "struct Person",
          "name": "_person",
          "type": "tuple"
        }
      ],
      "name": "decrFavouriteNumber",
      "outputs": [],
      "stateMutability": "nonpayable",
      "type": "function"
    },
    {
      "inputs": [
        {
          "internalType": "address",
          "name": "_contractAddress",
          "type": "address"
        },
        {
          "internalType": "uint256",
          "name": "_index",
          "type": "uint256"
        }
      ],
      "name": "getOwner",
      "outputs": [
        {
          "internalType": "address",
          "name": "",
          "type": "address"
        }
      ],
      "stateMutability": "view",
      "type": "function"
    },
    {
      "inputs": [
        {
          "internalType": "address",
          "name": "_contractAddress",
          "type": "address"
        },
        {
          "internalType": "address",
          "name": "_ownerAddress",
          "type": "address"
        },
        {
          "internalType": "uint256",
          "name": "_index",
          "type": "uint256"
        }
      ],
      "name": "getPerson",
      "outputs": [
        {
          "components": [
            {
              "internalType": "string",
              "name": "name",
              "type": "string"
            },
            {
              "internalType": "uint256",
              "name": "favouriteNumber",
              "type": "uint256"
            }
          ],
          "internalType": "struct Person",
          "name": "",
          "type": "tuple"
        }
      ],
      "stateMutability": "view",
      "type": "function"
    },
    {
      "inputs": [
        {
          "internalType": "address",
          "name": "_contractAddress",
          "type": "address"
        },
        {
          "internalType": "address",
          "name": "_ownerAddress",
          "type": "address"
        },
        {
          "internalType": "uint256",
          "name": "_value",
          "type": "uint256"
        },
        {
          "components": [
            {
              "internalType": "string",
              "name": "name",
              "type": "string"
            },
            {
              "internalType": "uint256",
              "name": "favouriteNumber",
              "type": "uint256"
            }
          ],
          "internalType": "struct Person",
          "name": "_person",
          "type": "tuple"
        }
      ],
      "name": "incrFavouriteNumber",
      "outputs": [],
      "stateMutability": "nonpayable",
      "type": "function"
    }
  ],
  "bytecode": "0x6080604052348015600f57600080fd5b5061213c8061001f6000396000f3fe608060405234801561001057600080fd5b506004361061007d5760003560e01c8063412a5a6d1161005b578063412a5a6d146100fe578063cdaaccf714610108578063eb5299a714610124578063f8985b53146101545761007d565b806306aede76146100825780632f634a901461009e5780633263b545146100ce575b600080fd5b61009c60048036038101906100979190610809565b610170565b005b6100b860048036038101906100b3919061088c565b610235565b6040516100c591906108db565b60405180910390f35b6100e860048036038101906100e391906108f6565b610309565b6040516100f591906108db565b60405180910390f35b610106610348565b005b610122600480360381019061011d9190610988565b6103db565b005b61013e60048036038101906101399190610a10565b6104a3565b60405161014b9190610b3f565b60405180910390f35b61016e60048036038101906101699190610809565b6105a3565b005b8361017a81610668565b6101b9576040517f08c379a00000000000000000000000000000000000000000000000000000000081526004016101b090610bbe565b60405180910390fd5b60008590508073ffffffffffffffffffffffffffffffffffffffff166307f748438686866040518463ffffffff1660e01b81526004016101fb93929190610d01565b600060405180830381600087803b15801561021557600080fd5b505af1158015610229573d6000803e3d6000fd5b50505050505050505050565b60008261024181610668565b610280576040517f08c379a000000000000000000000000000000000000000000000000000000000815260040161027790610bbe565b60405180910390fd5b60008490508073ffffffffffffffffffffffffffffffffffffffff16630f310b17856040518263ffffffff1660e01b81526004016102be9190610d3f565b602060405180830381865afa1580156102db573d6000803e3d6000fd5b505050506040513d601f19601f820116820180604052508101906102ff9190610d6f565b9250505092915050565b6000818154811061031957600080fd5b906000526020600020016000915054906101000a900473ffffffffffffffffffffffffffffffffffffffff1681565b600060405161035690610716565b604051809103906000f080158015610372573d6000803e3d6000fd5b5090506000819080600181540180825580915050600190039060005260206000200160009091909190916101000a81548173ffffffffffffffffffffffffffffffffffffffff021916908373ffffffffffffffffffffffffffffffffffffffff16021790555050565b846103e581610668565b610424576040517f08c379a000000000000000000000000000000000000000000000000000000000815260040161041b90610bbe565b60405180910390fd5b60008690508073ffffffffffffffffffffffffffffffffffffffff1663fe6e9120878787876040518563ffffffff1660e01b81526004016104689493929190610dc9565b600060405180830381600087803b15801561048257600080fd5b505af1158015610496573d6000803e3d6000fd5b5050505050505050505050565b6104ab610723565b836104b581610668565b6104f4576040517f08c379a00000000000000000000000000000000000000000000000000000000081526004016104eb90610bbe565b60405180910390fd5b60008590506000808273ffffffffffffffffffffffffffffffffffffffff16634081601b88886040518363ffffffff1660e01b8152600401610537929190610e09565b600060405180830381865afa158015610554573d6000803e3d6000fd5b505050506040513d6000823e3d601f19601f8201168201806040525081019061057d9190610f68565b915091506040518060400160405280838152602001828152509450505050509392505050565b836105ad81610668565b6105ec576040517f08c379a00000000000000000000000000000000000000000000000000000000081526004016105e390610bbe565b60405180910390fd5b60008590508073ffffffffffffffffffffffffffffffffffffffff16632a7440d08686866040518463ffffffff1660e01b815260040161062e93929190610d01565b600060405180830381600087803b15801561064857600080fd5b505af115801561065c573d6000803e3d6000fd5b50505050505050505050565b6000806000905060005b60008054905081101561070b578373ffffffffffffffffffffffffffffffffffffffff16600082815481106106aa576106a9610fc4565b5b9060005260206000200160009054906101000a900473ffffffffffffffffffffffffffffffffffffffff1673ffffffffffffffffffffffffffffffffffffffff16036106fe57600191508192505050610711565b8080600101915050610672565b50809150505b919050565b61111380610ff483390190565b604051806040016040528060608152602001600081525090565b6000604051905090565b600080fd5b600080fd5b600073ffffffffffffffffffffffffffffffffffffffff82169050919050565b600061077c82610751565b9050919050565b61078c81610771565b811461079757600080fd5b50565b6000813590506107a981610783565b92915050565b6000819050919050565b6107c2816107af565b81146107cd57600080fd5b50565b6000813590506107df816107b9565b92915050565b600080fd5b600060408284031215610800576107ff6107e5565b5b81905092915050565b6000806000806080858703121561082357610822610747565b5b60006108318782880161079a565b94505060206108428782880161079a565b9350506040610853878288016107d0565b925050606085013567ffffffffffffffff8111156108745761087361074c565b5b610880878288016107ea565b91505092959194509250565b600080604083850312156108a3576108a2610747565b5b60006108b18582860161079a565b92505060206108c2858286016107d0565b9150509250929050565b6108d581610771565b82525050565b60006020820190506108f060008301846108cc565b92915050565b60006020828403121561090c5761090b610747565b5b600061091a848285016107d0565b91505092915050565b600080fd5b600080fd5b600080fd5b60008083601f84011261094857610947610923565b5b8235905067ffffffffffffffff81111561096557610964610928565b5b6020830191508360018202830111156109815761098061092d565b5b9250929050565b6000806000806000608086880312156109a4576109a3610747565b5b60006109b28882890161079a565b95505060206109c38882890161079a565b945050604086013567ffffffffffffffff8111156109e4576109e361074c565b5b6109f088828901610932565b93509350506060610a03888289016107d0565b9150509295509295909350565b600080600060608486031215610a2957610a28610747565b5b6000610a378682870161079a565b9350506020610a488682870161079a565b9250506040610a59868287016107d0565b9150509250925092565b600081519050919050565b600082825260208201905092915050565b60005b83811015610a9d578082015181840152602081019050610a82565b60008484015250505050565b6000601f19601f8301169050919050565b6000610ac582610a63565b610acf8185610a6e565b9350610adf818560208601610a7f565b610ae881610aa9565b840191505092915050565b610afc816107af565b82525050565b60006040830160008301518482036000860152610b1f8282610aba565b9150506020830151610b346020860182610af3565b508091505092915050565b60006020820190508181036000830152610b598184610b02565b905092915050565b600082825260208201905092915050565b7f5468697320636f6e747261637420646f65736e27742065786973740000000000600082015250565b6000610ba8601b83610b61565b9150610bb382610b72565b602082019050919050565b60006020820190508181036000830152610bd781610b9b565b9050919050565b610be7816107af565b82525050565b600080fd5b600080fd5b600080fd5b60008083356001602003843603038112610c1957610c18610bf7565b5b83810192508235915060208301925067ffffffffffffffff821115610c4157610c40610bed565b5b600182023603831315610c5757610c56610bf2565b5b509250929050565b82818337600083830152505050565b6000610c7a8385610a6e565b9350610c87838584610c5f565b610c9083610aa9565b840190509392505050565b6000610caa60208401846107d0565b905092915050565b600060408301610cc56000840184610bfc565b8583036000870152610cd8838284610c6e565b92505050610ce96020840184610c9b565b610cf66020860182610af3565b508091505092915050565b6000606082019050610d1660008301866108cc565b610d236020830185610bde565b8181036040830152610d358184610cb2565b9050949350505050565b6000602082019050610d546000830184610bde565b92915050565b600081519050610d6981610783565b92915050565b600060208284031215610d8557610d84610747565b5b6000610d9384828501610d5a565b91505092915050565b6000610da88385610b61565b9350610db5838584610c5f565b610dbe83610aa9565b840190509392505050565b6000606082019050610dde60008301876108cc565b8181036020830152610df1818587610d9c565b9050610e006040830184610bde565b95945050505050565b6000604082019050610e1e60008301856108cc565b610e2b6020830184610bde565b9392505050565b600080fd5b7f4e487b7100000000000000000000000000000000000000000000000000000000600052604160045260246000fd5b610e6f82610aa9565b810181811067ffffffffffffffff82111715610e8e57610e8d610e37565b5b80604052505050565b6000610ea161073d565b9050610ead8282610e66565b919050565b600067ffffffffffffffff821115610ecd57610ecc610e37565b5b610ed682610aa9565b9050602081019050919050565b6000610ef6610ef184610eb2565b610e97565b905082815260208101848484011115610f1257610f11610e32565b5b610f1d848285610a7f565b509392505050565b600082601f830112610f3a57610f39610923565b5b8151610f4a848260208601610ee3565b91505092915050565b600081519050610f62816107b9565b92915050565b60008060408385031215610f7f57610f7e610747565b5b600083015167ffffffffffffffff811115610f9d57610f9c61074c565b5b610fa985828601610f25565b9250506020610fba85828601610f53565b9150509250929050565b7f4e487b7100000000000000000000000000000000000000000000000000000000600052603260045260246000fdfe6080604052348015600f57600080fd5b506110f48061001f6000396000f3fe608060405234801561001057600080fd5b50600436106100575760003560e01c806307f748431461005c5780630f310b17146100785780632a7440d0146100a85780634081601b146100c4578063fe6e9120146100f5575b600080fd5b61007660048036038101906100719190610847565b610111565b005b610092600480360381019061008d91906108b6565b61027c565b60405161009f91906108f2565b60405180910390f35b6100c260048036038101906100bd9190610847565b6102bb565b005b6100de60048036038101906100d9919061090d565b610426565b6040516100ec9291906109ec565b60405180910390f35b61010f600480360381019061010a9190610a81565b6104ef565b005b8261011b816106d7565b61015a576040517f08c379a000000000000000000000000000000000000000000000000000000000815260040161015190610b67565b60405180910390fd5b60008060008673ffffffffffffffffffffffffffffffffffffffff1673ffffffffffffffffffffffffffffffffffffffff168152602001908152602001600020905060005b81805490508110156102745760008282815481106101c0576101bf610b87565b5b906000526020600020906002020190508480600001906101e09190610bc5565b6040516020016101f1929190610c67565b604051602081830303815290604052805190602001208160000160405160200161021b9190610d78565b60405160208183030381529060405280519060200120148015610245575084602001358160010154145b15610266578581600101600082825461025e9190610dbe565b925050819055505b50808060010191505061019f565b505050505050565b6001818154811061028c57600080fd5b906000526020600020016000915054906101000a900473ffffffffffffffffffffffffffffffffffffffff1681565b826102c5816106d7565b610304576040517f08c379a00000000000000000000000000000000000000000000000000000000081526004016102fb90610b67565b60405180910390fd5b60008060008673ffffffffffffffffffffffffffffffffffffffff1673ffffffffffffffffffffffffffffffffffffffff168152602001908152602001600020905060005b818054905081101561041e57600082828154811061036a57610369610b87565b5b9060005260206000209060020201905084806000019061038a9190610bc5565b60405160200161039b929190610c67565b60405160208183030381529060405280519060200120816000016040516020016103c59190610d78565b604051602081830303815290604052805190602001201480156103ef575084602001358160010154145b1561041057858160010160008282546104089190610df2565b925050819055505b508080600101915050610349565b505050505050565b6000602052816000526040600020818154811061044257600080fd5b90600052602060002090600202016000915091505080600001805461046690610caf565b80601f016020809104026020016040519081016040528092919081815260200182805461049290610caf565b80156104df5780601f106104b4576101008083540402835291602001916104df565b820191906000526020600020905b8154815290600101906020018083116104c257829003601f168201915b5050505050908060010154905082565b60008060008673ffffffffffffffffffffffffffffffffffffffff1673ffffffffffffffffffffffffffffffffffffffff168152602001908152602001600020905080604051806040016040528086868080601f016020809104026020016040519081016040528093929190818152602001838380828437600081840152601f19601f82011690508083019250505050505050815260200184815250908060018154018082558091505060019003906000526020600020906002020160009091909190915060008201518160000190816105c99190610fec565b5060208201518160010155505060005b60018054905081101561066b578573ffffffffffffffffffffffffffffffffffffffff166001828154811061061157610610610b87565b5b9060005260206000200160009054906101000a900473ffffffffffffffffffffffffffffffffffffffff1673ffffffffffffffffffffffffffffffffffffffff160361065e5750506106d1565b80806001019150506105d9565b506001859080600181540180825580915050600190039060005260206000200160009091909190916101000a81548173ffffffffffffffffffffffffffffffffffffffff021916908373ffffffffffffffffffffffffffffffffffffffff160217905550505b50505050565b6000806000905060005b60018054905081101561077a578373ffffffffffffffffffffffffffffffffffffffff166001828154811061071957610718610b87565b5b9060005260206000200160009054906101000a900473ffffffffffffffffffffffffffffffffffffffff1673ffffffffffffffffffffffffffffffffffffffff160361076d57600191508192505050610780565b80806001019150506106e1565b50809150505b919050565b600080fd5b600080fd5b600073ffffffffffffffffffffffffffffffffffffffff82169050919050565b60006107ba8261078f565b9050919050565b6107ca816107af565b81146107d557600080fd5b50565b6000813590506107e7816107c1565b92915050565b6000819050919050565b610800816107ed565b811461080b57600080fd5b50565b60008135905061081d816107f7565b92915050565b600080fd5b60006040828403121561083e5761083d610823565b5b81905092915050565b6000806000606084860312156108605761085f610785565b5b600061086e868287016107d8565b935050602061087f8682870161080e565b925050604084013567ffffffffffffffff8111156108a05761089f61078a565b5b6108ac86828701610828565b9150509250925092565b6000602082840312156108cc576108cb610785565b5b60006108da8482850161080e565b91505092915050565b6108ec816107af565b82525050565b600060208201905061090760008301846108e3565b92915050565b6000806040838503121561092457610923610785565b5b6000610932858286016107d8565b92505060206109438582860161080e565b9150509250929050565b600081519050919050565b600082825260208201905092915050565b60005b8381101561098757808201518184015260208101905061096c565b60008484015250505050565b6000601f19601f8301169050919050565b60006109af8261094d565b6109b98185610958565b93506109c9818560208601610969565b6109d281610993565b840191505092915050565b6109e6816107ed565b82525050565b60006040820190508181036000830152610a0681856109a4565b9050610a1560208301846109dd565b9392505050565b600080fd5b600080fd5b600080fd5b60008083601f840112610a4157610a40610a1c565b5b8235905067ffffffffffffffff811115610a5e57610a5d610a21565b5b602083019150836001820283011115610a7a57610a79610a26565b5b9250929050565b60008060008060608587031215610a9b57610a9a610785565b5b6000610aa9878288016107d8565b945050602085013567ffffffffffffffff811115610aca57610ac961078a565b5b610ad687828801610a2b565b93509350506040610ae98782880161080e565b91505092959194509250565b7f596f75206d75737420626520612072656769737465726564206f776e6572207460008201527f6f20616363657373206120706572736f6e000000000000000000000000000000602082015250565b6000610b51603183610958565b9150610b5c82610af5565b604082019050919050565b60006020820190508181036000830152610b8081610b44565b9050919050565b7f4e487b7100000000000000000000000000000000000000000000000000000000600052603260045260246000fd5b600080fd5b600080fd5b600080fd5b60008083356001602003843603038112610be257610be1610bb6565b5b80840192508235915067ffffffffffffffff821115610c0457610c03610bbb565b5b602083019250600182023603831315610c2057610c1f610bc0565b5b509250929050565b600081905092915050565b82818337600083830152505050565b6000610c4e8385610c28565b9350610c5b838584610c33565b82840190509392505050565b6000610c74828486610c42565b91508190509392505050565b7f4e487b7100000000000000000000000000000000000000000000000000000000600052602260045260246000fd5b60006002820490506001821680610cc757607f821691505b602082108103610cda57610cd9610c80565b5b50919050565b60008190508160005260206000209050919050565b60008154610d0281610caf565b610d0c8186610c28565b94506001821660008114610d275760018114610d3c57610d6f565b60ff1983168652811515820286019350610d6f565b610d4585610ce0565b60005b83811015610d6757815481890152600182019150602081019050610d48565b838801955050505b50505092915050565b6000610d848284610cf5565b915081905092915050565b7f4e487b7100000000000000000000000000000000000000000000000000000000600052601160045260246000fd5b6000610dc9826107ed565b9150610dd4836107ed565b9250828201905080821115610dec57610deb610d8f565b5b92915050565b6000610dfd826107ed565b9150610e08836107ed565b9250828203905081811115610e2057610e1f610d8f565b5b92915050565b7f4e487b7100000000000000000000000000000000000000000000000000000000600052604160045260246000fd5b60006020601f8301049050919050565b600082821b905092915050565b600060088302610ea27fffffffffffffffffffffffffffffffffffffffffffffffffffffffffffffffff82610e65565b610eac8683610e65565b95508019841693508086168417925050509392505050565b6000819050919050565b6000610ee9610ee4610edf846107ed565b610ec4565b6107ed565b9050919050565b6000819050919050565b610f0383610ece565b610f17610f0f82610ef0565b848454610e72565b825550505050565b600090565b610f2c610f1f565b610f37818484610efa565b505050565b5b81811015610f5b57610f50600082610f24565b600181019050610f3d565b5050565b601f821115610fa057610f7181610ce0565b610f7a84610e55565b81016020851015610f89578190505b610f9d610f9585610e55565b830182610f3c565b50505b505050565b600082821c905092915050565b6000610fc360001984600802610fa5565b1980831691505092915050565b6000610fdc8383610fb2565b9150826002028217905092915050565b610ff58261094d565b67ffffffffffffffff81111561100e5761100d610e26565b5b6110188254610caf565b611023828285610f5f565b600060209050601f8311600181146110565760008415611044578287015190505b61104e8582610fd0565b8655506110b6565b601f19841661106486610ce0565b60005b8281101561108c57848901518255600182019150602085019450602081019050611067565b868310156110a957848901516110a5601f891682610fb2565b8355505b6001600288020188555050505b50505050505056fea26469706673582212208fd1a5cb8bb2ed1f859b101056d5ce32a3df3c3c7889f5b2cabac63db9e7dc1864736f6c63430008190033a264697066735822122028f96946b683e36b73b35ae27f58bea6c59a360a73df8380d9f45cec8836a05964736f6c63430008190033",
  "linkReferences": {},
  "deployedLinkReferences": {}
}